:020000040800F2
:1000000018090020015500085D5400085F540008DD
:1000100061540008635400086554000800000000A3
:10002000000000000000000000000000675400080D
:1000300069540008000000006B5400086D5400086B
:10004000295500082D550008315500083555000880
:10005000395500083D550008415500084555000830
:10006000495500084D5500085155000855550008E0
:10007000595500085D550008615500086555000890
:10008000695500086D550008715500087555000840
:10009000795500087D5500088155000885550008F0
:1000A000895500088D5500089155000895550008A0
:1000B000995500089D550008A1550008A555000850
:1000C000A9550008AD550008B1550008B555000800
:1000D000B9550008BD55000871540008C155000805
:1000E000C5550008C9550008CD550008D155000870
:1000F000D5550008D9550008DD550008E155000820
:10010000E5550008E9550008ED550008F1550008CF
:10011000F5550008F9550008FD550008015600087E
:1001200005560008095600080D560008115600082B
:1001300015560008195600081D56000821560008DB
:1001400025560008295600082D560008315600088B
:1001500035560008395600083D560008415600083B
:1001600045560008495600084D56000851560008EB
:1001700055560008595600085D560008000000005A
:1001800061560008655600082DE9F0439FB000BF96
:1001900065A6269CDFF8B48A8DF83B4002910024C6
:1001A0000B944FF0FF37044691461D460AE019F8BC
:1001B000011B0298A0470028029000F0A1800B9834
:1001C000401C0B9099F8000050B12528EFD1002178
:1001D0000022059106920791089209910A9203E084
:1001E0000B98A5E041F0010119F8010F2028F9D082
:1001F00023280CD02B2804D02D2805D0302809D056
:1002000080E041F00201EFE741F00401ECE741F04A
:100210000801E9E741F01001E6E70D920AE00D98C8
:10022000404505DA00EB800002EB4002303A0D92C7
:1002300009F1010999F80020A2F130000A28EED353
:1002400099F800002E2818BF0C9726D119F8010F35
:100250002A2808D12868286009F1010950F8042BE0
:1002600028600C9219E02D280CBF09F1010900202B
:1002700000220C920BE040B90C9A424505DA02EBE1
:10028000820203EB4203303B0C9309F1010999F818
:100290000030A3F130020A2AEDD3ADF83810304611
:1002A00099F8001000F086FE08B119F8010B8DF8DE
:1002B0003A009DF83A00682805D199F800006828AE
:1002C0000CD1622106E06C2804BF99F800006C286C
:1002D00004D171218DF83A1009F1010910A8049098
:1002E0002A4619F8013B6946204600F061F838B902
:1002F00010AA6946204600F08FF900287FF562AF0A
:10030000384615E02A2888D12A682A6052F8040B5A
:100310002A6000280D9003D540420D9041F0040161
:1003200009F101098CE70000686A6C747A4C0000DE
:100330001FB0BDE8F083622820D0682811D06A2859
:1003400003D06C2827D0712825D10868C01D20F063
:1003500007000860D0E900230830086019461046FD
:100360007047002A0A680A60106803D0121D0A60EC
:1003700000B217E0121D0A6080B217E0002A0A6876
:100380000A60106803D0121D0A6040B20AE0121D14
:100390000A60C0B20AE0002A0A680A60106803D046
:1003A000121D0A60C1177047121D0A6000217047B4
:1003B00070B51C460D46B4F125002E69114600F0BB
:1003C00019811C3868D0001F022865D9133842D023
:1003D000093861D0801E16D0401E1ED0401E022853
:1003E0005AD9001F19D0401F00F08180401E32D022
:1003F000401E00F0CB80C01E00F0DA80801E2AD0A4
:10040000C01E28D0FCE06869421C6A610A680A6064
:1004100052F8043B0A603354FCE095F83A0001229C
:10042000FFF789FFC5E90001002904D56869411C6F
:1004300069612D220DE0288F810704D56869411C70
:1004400069612B2205E0C00721D56869411C6961FB
:10045000202232541BE095F83A000022FFF76BFF90
:10046000C5E9000195F83800010710D5D5E900234A
:10047000002B08BF002A0AD044F02000782806D1BB
:10048000686930213154401C421C6A613454214651
:1004900068693044E86087E00868C01D20F0070004
:1004A0000860D0E9002308300860C5E90023D5E9D9
:1004B0000001C80F04D06869411C69612D220DE05C
:1004C000288F810704D56869411C69612B2205E0EA
:1004D000C00704D56869411C6961202232546869EB
:1004E0003044E8602146284600F0C4F992E005F166
:1004F0003A02507820B14FF0FF340FF6202062E02E
:100500001078622808D0682824D06A2812D06C2875
:100510002ED071280ED02BE00A680A6052F8040B26
:100520000A6020B94FF0FF340FF608204BE0E96A6B
:1005300001706FE00A680A6052F8040B0A6020B983
:100540004FF0FF340FF6EC103DE0EA6AD317C0E934
:1005500000235FE00A680A6052F8040B0A6020B9C1
:100560004FF0FF340FF6CC102DE0E96A018051E026
:100570000A680A6052F8040B0A6020B94FF0FF3491
:100580000FF6B0101FE0E96A016043E00A680A60F4
:1005900052F8040B0A60002120F0000221F0FF3322
:1005A000C5E90023EE607821284600F0BBF831E071
:1005B0000868086050F8044B0860EC603CB94FF0E4
:1005C000FF340FF6881000F005FD201A70BD2E6B69
:1005D000002E04D5204600F01DFD044608E03246FA
:1005E0000021204600F032FD002814BF041B3446D1
:1005F000AC610FE06869411C69612522325409E051
:100600006969481C686125227254210002D0431C8C
:100610006B613454002070BD2DE9FC410F46064645
:1006200090467A6B7869396ABC6A121AB869521AAC
:10063000796A121AF869521A121A97F83800141BBC
:1006400041070FD42020002C8DF800000ADD25463C
:1006500001236A463946304600F048FC00285DD147
:100660006D1EF5D17B6942463946304600F03EFCAE
:10067000002853D130208DF800003D6A002D09DD9F
:1006800001236A463946304600F030FC002845D147
:100690006D1EF5D1BB69FA683946304600F026FC7C
:1006A00000283BD130208DF800007D6A002D08DD48
:1006B00001236A463946304600F018FC70BB6D1EB7
:1006C000F6D1F868B969FB6942183946304600F03E
:1006D0000DFC18BB30208DF80000BD6A002D08DD30
:1006E00001236A463946304600F000FCB0B96D1E61
:1006F000F6D197F8380041070DD52020002C8DF851
:10070000000008DD01236A463946304600F0EEFB62
:1007100020B9641EF6D10020BDE8F6814FF0FF300D
:10072000BDE8F6812DE9FC4307466F293E6908BF05
:10073000082405D041F02000782814BF0A24102492
:100740003C25D7E90023642918BF692990469946BA
:1007500005D1002B03D5D8F1000869EB4909B9F19F
:10076000000F08BFB8F1000F1FD1386BE8B9082C93
:100770004CD197F83800010748D530203B2586F842
:100780003B0043E000280ED597F8380000F0140035
:10079000102808D17B6B7969386A5B1A1B1A9A1A80
:1007A000002AC8BF3A62BDE8F3838DF800104046C6
:1007B00049462246E31700F075FC3032D0B26D1E78
:1007C0003A28019504DB9DF80000A0F151018A1838
:1007D0007255404649462246E31700F063FC8046C6
:1007E0005FEA010908BFB8F1000F03D0F86871197A
:1007F0008842DCD3082C09D197F83800010705D5C9
:10080000705D302802D06D1E30207055C5F13C025D
:10081000BA617119F960386B8242B3DA821A3A62AE
:100820004FF6EF70398F01403987BDE8F3832DE92A
:10083000D04306460F4614464FF00008DFF81094E8
:1008400012E0E00707D542464B463046394600F0F5
:10085000ADFC06460F464046494642464B4600F030
:10086000A5FC641080468946002CEAD13046394602
:10087000BDE8D0832DE9F84F05468A464AF02004AA
:100880008EB0D5E90089612C02AE09D0286B002812
:1008900048BF062003D408BF672C01D1012028637C
:1008A000D5E900014A005215521C0DD10B030BD0A3
:1008B000AAF1610103201A29A86102D20FF2A861EE
:1008C00010E00FF2A8610DE04A005215521C0ED143
:1008D0000B030CD1AAF1610103201A29A86116D3D8
:1008E0000FF29061E868032200F032FDC0E1CDE92B
:1008F0000C01DDE90C2323F00043B3F5801F0DD27A
:100900000027002B08BF002A019703D111E00FF246
:100910006061E7E701AA00F06FFD0AE0CD48CE492B
:1009200000EB1350DDE90C2301900B40CB4910463E
:100930001943C5E90001612C0DD1E868302101702F
:10094000821CBAF1610FEA600CBF78215821417016
:100950006869801C6861D5E90001CDE90C01DDE919
:100960000C2333F0004104BF0028002300F048812D
:10097000612C40F0A080286B494600284CBF4FF006
:10098000210B00F1010B404600220023DDE90C8918
:1009900000F06AFD01990BF1010738BF89F00049A9
:1009A000091F002F01918DF808200DF1090040F377
:1009B0003581A94900910646404649460022002358
:1009C00000F06AFD80F029814800400D00F11C0212
:1009D00011D0002A0FDD40F2FF739A4205DBA049D7
:1009E00009F000400143002011E0009B194041EA5A
:1009F000025140460BE028F0000039F0004108BFEA
:100A000000280FBF49461C22494600F05DFD804684
:100A1000894600F0F7FDFF1F002F044609DD00F0B6
:100A20000FFE02460B464046494600F01BFE80463C
:100A30008946F01D072104E004F00F0200F8012DA3
:100A40002411002C01DD491EF6D5491E5CBF002291
:100A500000F8012DF9D5DCE00020194602AA0A446D
:100A600000E05B1E12F80149491E8442F9D00F28AC
:100A700004D10DF10900425C521C4254002904D5F6
:100A80000198001D02AE5B1C0190581E0CD4311859
:100A9000AAF13A040A783032D7B23A2FA8BFA21886
:100AA000401E01F80129F5D5286B002840F1A780E8
:100AB000591E2963A3E001996A4A47F297504143BE
:100AC00091FBF2F2019229F00046D2F1070204DD17
:100AD00040463146FFF7ABFE0AE052420020624931
:100AE000FFF7A5FE02460B464046314600F02CFEBD
:100AF0008046662C286B06BF019F0A3706273F18E1
:100B0000142FC8BF142730208DF8080089460DF136
:100B1000090000E03046002F34DD064640464946D5
:100B200000F036FF01460A4606F1080304200A26B3
:100B3000B2FBF6F606EB860EA2EB4E02303203F85D
:100B4000012C0A22B6FBF2F202EB820EA6EB4E0655
:100B50003036401E03F8026DE9D1083F002F03F143
:100B60000806D7DD084600F027FF02460B46404640
:100B7000494600F077FD00223C4B00F017FB804611
:100B80008946CBE70DF10901401A0DF1090604E091
:100B90000199491E401E0191761C31783029F7D009
:100BA000662C02D10199491C03E0652C0CBF012180
:100BB00000212B6BCB189842B8BF431E002B1ED4CC
:100BC000834204DAF05C3528A8BF392000DA3020EF
:100BD0001946721E02EB010800E05B1E18F801992D
:100BE000491E8145F9D0392802D1705C401C7054EF
:100BF000002904D50198401C16465B1C0190019801
:100C000000B200901BB232465146284600F034F83C
:100C10002EE0C61D002F3FF7CFAE30460DF1090183
:100C2000401A03465845C8BF5B46002B0DF1090624
:100C30003FF53AAF8342BFF60FAF0DF10900C15C3B
:100C400007297FF709AF0F2007E70000CBCCCC0CBA
:100C50000000244002FCFFFFFFFF0F800000E03F88
:100C60000000F07FA08601000000F03F84D797418C
:100C70000FB0BDE8F08F00002DE9F84783B00646BD
:100C80008A461746984600F0A5FEB8F1000F406A64
:100C9000356B90F8009002DC4FF00108B6A74AF0DF
:100CA0002000BDF93040662808BF641C15D06728B5
:100CB00040F0848014F1040FC0F28680AC4280F2D0
:100CC000838096F83800641C010702D4A845B8BF99
:100CD000454620B22D1A48BF00250FFA84FAF06865
:100CE000B169BAF1000F25DC4A1C30234354002DB2
:100CF00003DC96F83800010703D5F06800F802908D
:100D0000521C15EB0A0FB8BF6C4220B24419414285
:100D10004445B8BFA046B26171620FFA88F5F5612B
:100D2000F068B3692A463946184400F011FB641B89
:100D3000B462C4E022B29045084417DA424639460C
:100D400000F006FBB0694044B061AAEB0801002D39
:100D5000716203DC96F838100A0705D5F16801F8CE
:100D60000090F069401CF061B562A8E0394600F0DF
:100D7000EFFAB069002D5044A8EB040803DC96F8A4
:100D800038100A0703D5F16801F80090401CB061E3
:100D90000FFA88F08542F368B069B8BFA8460FFA29
:100DA00088F207EB0A01184400F0D2FAB1690FFA91
:100DB00088F00144B161281A706280E0BAF1610FD5
:100DC00014D14FF0700A16E0A84504DA96F83810EE
:100DD0000A0758BF45466D1E48BF0025BAF1670F88
:100DE00014BF4FF0450A4FF0650A04E0BAF1410F15
:100DF00008BF4FF0500AB169F368481CB061002D7C
:100E000017F8012B5A5403DC96F838100A071BD543
:100E1000F168431CB36101F80090002D14DDA8F1C6
:100E200001080FFA88F039468542F768B8BFA8462E
:100E30000FFA88F2F81800F08BFAB0690FFA88F10F
:100E400008446D1AB0617562F068B1690844002CFD
:100E500080F800A003D42B224270811C03E02D21D6
:100E600041706442811C00206A460AE023460A243D
:100E700093FBF4F404EB8405A3EB450302F8013B78
:100E8000401C24B2002CF1DC012806DC4AF02002D0
:100E9000652A04BF302201F8012B48B9302001F83F
:100EA000010B07E0401E1DF80030303301F8013B14
:100EB0000028F7DCF268B0691044091AF16196F86D
:100EC000380000F0140010280DD17269B169706A01
:100ED0008A18F1698218B06A8A188218706B824287
:100EE000BCBF821A326204B0BDE8F087F8B505468F
:100EF0000E4617461C46002074B117F8011BB06857
:100F0000A847B06030B1F06A401CF0620020641E57
:100F1000F3D1F2BD4FF0FF30F2BD00007072696E88
:100F200074665F733A20256E20646973616C6C6F20
:100F3000776564007072696E74663A20626164203D
:100F4000256E20617267756D656E74007072696ED2
:100F500074665F733A206261642025732061726752
:100F6000756D656E740000006E616E004E414E003E
:100F7000696E6600494E4600300030B4002513E02B
:100F800050F8042BD30744BFA9F101039A18091F95
:100F9000042942F8045BFAD213468C0744BF15803B
:100FA0009B1CC90748BF1D7050F8041B0029E7D1DE
:100FB00030BC7047C9B202788A421AB11CBF10F81F
:100FC000012FF9E718BF002070470268531C036027
:100FD0001170704780B500B906A005490B681BB1B8
:100FE00022220021984701E000F0F8FC222002BDF7
:100FF00010050020636F6E73747261696E742068EF
:10100000616E646C65723A20626164206D65737311
:101010006167650000F10103810704D010F8011B2E
:10102000820781B1FAD10268A2F10131914311F036
:10103000803104BF50F8042FF6E709BAB1FA81F104
:1010400000EBD100401CC01A70470000C9B28307F2
:1010500006D0521E22D310F8013B9942F7D11FE06F
:10106000083A13D302F1040241EA012141EA0141A5
:1010700050F8043B121F21BF4B40A3F1013C2CEA66
:10108000030C1CF0803FF3D0C9B2001F083210F8E7
:10109000013B521E28BF91EA030FF8D818BF012068
:1010A000401E7047D3BBD9B1B2F5803F5BD2022A54
:1010B0001ED98C46B1FBF2F102FB11C31B0443EABB
:1010C0001043B3FBF2FC02FB1C3380B240EA034343
:1010D000B3FBF2F002FB103240EA0C4000237047F1
:1010E000022A05D98446B0FBF2F002FB10C2704719
:1010F0004AB105D100F0010249085FEA30007047AB
:1011000000220023704700F06DBC0B00020000219C
:1011100000207047F7D3002200237047904271EB04
:10112000030CF2D370B5B1FA81F4B3FA83F52C1B3A
:10113000A340C4F1200532FA05F63343A2405FF024
:101140000046E64002E05B085FEA3202841A71EB77
:10115000030524BF204629467641F4D302000B0044
:101160003000002170BD70B5B1FA81F4B2FA82F599
:10117000C4F120046419B4F12006DAD3B2405FF060
:101180000044F440002502E052085FEA3303C61A27
:1011900071EB020E24BF3046714664416D41F3D3BA
:1011A00002000B002000290070BD0000B0B581EAEC
:1011B000030C0CF0004C40F2FF7515EA11541DBFF2
:1011C00015EA1357AC42AF4239E0E41923EA45531C
:1011D00043F48013C90241F0004141EA505EC70266
:1011E0001100A7FB020200284FF00000EEFB0120D7
:1011F0004FF00001E3FB072118BF42F00102401845
:1012000000214941E3FB0E01A4F580640F0302D2E3
:1012100052004041494154F101046CDD470872F12C
:10122000004250F1000051EB0451A1F580115CBF68
:1012300041EA0C01B0BD4CEA05510020B0BD05EA01
:101240001357AC4214BFAF4241E050EA410E1CBFFD
:1012500052EA430E02E061460020B0BD24423C4405
:101260001BD15FEA070EF6D0090302BF014600203A
:10127000AEF1140EB1FA81F7AEEB070401FA07FEE6
:101280000C37C7F1200100FA07F7C8404EEA000EFC
:1012900023EA455343F48013A2E733F00043B3FA43
:1012A00083F704BFB2FA82FE77440B3FE41BB7F129
:1012B000200E2FBF02FA0EF3BB40C7F1200E22FA18
:1012C0000EFE38BF43EA0E03BA40641C82E750EAC0
:1012D000410E14BF52EA430E6FF000014FF40017A5
:1012E00017EB430F8ABF194617EB410FB5E74CEADE
:1012F00005510020B0BDD4F10104B4F120070FDA8C
:10130000C4F12007520828BF42F0010210FA07F585
:1013100001FA07F7E1BF2A43E0403843E1400FE01C
:10132000352C98DCC7F1200452EA400220FA07F27B
:1013300018BF42F0010231FA07F0A1400A43002130
:1013400072F1004250F1000051EB0C01B0BD000001
:1013500062B38B0708D0521E11F8013B00F8013B25
:1013600000F024808B07F6D1830740F0208000BF77
:10137000103A07D330B4B1E83810103AA0E838106A
:10138000F9D230BC530724BFB1E80810A0E8081018
:1013900044BF51F8043B40F8043BD20724BF31F866
:1013A000022B20F8022B44BF0B7803707047121FEA
:1013B00017D35B0009D151F8043B20F8023B1B0C0A
:1013C000121F20F8023BF6D20BE051F8043B00F864
:1013D000013B1B0A20F8023B1B0C121F00F8013BCB
:1013E000F3D238BF121D521E24BF11F8013B00F882
:1013F000013BF8D87047000010B5144600F002F821
:10140000226010BDC1F30A5343B14A0012F5001F18
:1014100028D2A3F2FE32A1EB0251704750EA410CF0
:1014200020D001F0004C31EA0C01B1FA81F204BF86
:10143000B0FA80F3D2180B3AB2F120032CBF00FAB5
:1014400003F1914041EA0C013EBFC2F1200C20FAA9
:101450000CF319439040524240F2FD33D21A01EB93
:1014600003517047002270474FF4001C1CEB410FE2
:1014700094BF1CEB430F09E041EA030C50EA4C0C0B
:1014800052EA0C0C03D2994208BF9042704714BF35
:101490008B428242704700004FF4001C1CEB410F4E
:1014A00094BF1CEB430F09E041EA030C50EA4C0CDB
:1014B00052EA0C0C03D28B4208BF8242704714BF21
:1014C0009942904270470000124254D440F2FF7C8F
:1014D0001CEA11530FD0634531D09B1863453CBFC4
:1014E00001EB0251704701F0004141EA0C5100202C
:1014F000AFF30080704750EA410320D001F0004C68
:1015000091EA0C011CD0B1FA81F30B3B9A420DD940
:10151000D21A994051EA0C01C3F1200C20FA0CFCBC
:1015200061449840531C40F2FF7CD7E7914041EA68
:101530000C01C2F1200C20FA0CF3194390407047C3
:10154000B0FA80F31533202BE0D3202AEED3203AD3
:10155000203B9A4209D9D21A00FA03F141EA0C0160
:101560000020531C40F2FF7CB8E700FA02F141EA88
:101570000C0100207047524240F2FF7C1CEA1153DC
:101580000DD06345DBD0B2EB030C3CBFA1EB0251A5
:1015900070470CF1010221EA035141F4801150EA35
:1015A000410CCCD001F0004C352A27DC30B481EA64
:1015B0000C01B2F1200309DAC2F12003044601FA5A
:1015C00003F5D0402843D1409C400CE0C3F12002F9
:1015D000450020FA03F418BF44F0010421FA03F097
:1015E00091400C43002174F1004550F1000051EB93
:1015F0000C01244230BC7FF47BAF70476146002071
:1016000076E70000C1F30A5340F2FE329B1A14DD64
:10161000D3F120034FEAE17208DDC90241EA5051DB
:1016200041F00040D84080185040704703F2E1304C
:1016300010B1D24382F00040704700207047000094
:10164000C11768B14840401AB0FA80F29040D21CED
:10165000C907C2F5846241EA025202EBD02140057B
:101660007047000070B44FF0004591EA030F40F15D
:10167000BB816B40841A71EB030603D2001BB1419E
:10168000121973414FF4001C1CEB410F34BF7CEB6B
:10169000430442E00C0DA4EB1356352E4FDC45EA13
:1016A000C323DB0A45EAC121C912B6F120050DDDCD
:1016B00063FA05F6EB4086EA0305124218BF45F0CF
:1016C0000105C01851F100010CD213E062FA06F5D1
:1016D000F2405540F3415A40B340F3405A4080181D
:1016E000594107D349085FEA30005FEA350528BF52
:1016F00045F0010501F58011420875F1004250F1F5
:10170000000041EB04514E0016F5001F70BC38BFBD
:1017100070470020090D090570471CEB410F10D2DE
:1017200052EA43060BD0BCEB410F05D80C0DAB437E
:10173000661E342EB6DD02E0AB438018594170BC02
:10174000704770BC70470000F0B540F2FF7581EA49
:10175000030C0CF0004C15EA11541DBF15EA135789
:10176000AC42AF42E5E0BC41C1F31301C3F3130344
:10177000801A994143F4801304D2641E4000494109
:1017800080185941C90241EA5051B1FBF3F603FBFD
:101790001611A2FB0675D7EBC020A94102D2761E16
:1017A00080185941C90241EA5051B1FBF3FE03FBD5
:1017B0001E11A2FB0E75D7EBC020A94103D2AEF1DA
:1017C000010E80185941890241EA9051760546EA96
:1017D0008E2EB1FBF3F603FB1611A2FB0675D7EBB9
:1017E0008020A94102D2761E80185941C90241EADF
:1017F00050514EEA060EB1FBF3F603FB1611A2FBA5
:101800000675D7EBC020A94102D2761E8018594137
:10181000C90241EA5051B1FBF3F703FB1711A2FBD8
:101820000735D3EBC020A94167F100070CBF004288
:1018300047F0010766F3D5274FEA1E31B80814F5C3
:10184000806412DDBD0775F1004250EB0E5051EB84
:10185000045111F5801F5CBF41EA0C01F0BD4CF052
:101860007F6141F0E0410020F0BDBD076D0840EA16
:101870000E5041F48011D4F10104B4F120060ADACB
:10188000C4F120060200E04001FA06F3E1401843EB
:10189000B24015430EE0342C13DCC6F1200445EAB7
:1018A00040056D0820FA06F2154321FA06F0A14022
:1018B0000D43002175F1004250F1000051EB0C0185
:1018C000F0BD00205FEA0C01F0BDCFB992185B417A
:1018D000B3FA83F704BFB2FA82F6BF190B3FB7F130
:1018E00020062FBF02FA06F3BB40C7F1200622FAFA
:1018F00006F638BF3343BA401CB1E419641E33E71F
:101900007F4231F00041B1FA81F404BFB0FA80F6B1
:10191000A4190B3CB4F120062FBF00FA06F1A14038
:10192000C4F1200620FA06F638BF3143A0403C1B24
:101930001AE7AC421ABF05EA1357AF4212E050EA69
:1019400041061CBF52EA4306BFE750EA4107304652
:1019500061461CBF41EA0551F0BD52EA430C08BF85
:10196000C143F0BD00204FF4001616EB410F98BFA5
:1019700016EB430F08BF16EB410F24BFC14305E030
:1019800016EB430F0CBF61464CEA0551F0BD000059
:10199000400D491840EA81200CD2490DA1F5806123
:1019A000491C40F0004005DBD1F11F0154BFC84085
:1019B000C017704700207047014648B1B0FA80F167
:1019C0008840C91CC1F58461090501EBD02140059F
:1019D000704700000048704764000020012000F0BC
:1019E000B9B8000070470000841A71EB030604D2F6
:1019F0006E40001BB141121973414FF4001C1CEBE7
:101A0000410F34BF7CEB430683E00C0DA4EB13566F
:101A1000362E00F37C80012E45EAC32341DC43EAE5
:101A2000525312BFD20292025B08240545EAC1213B
:101A300041EA5051D2EBC020994125D407D1B0FAE8
:101A400080F610FA06F162D00020203608E0B1FAE4
:101A500081F6B140C6F1200220FA02F21143B040F3
:101A60004FEAF474B4EB465434F001064FEA7404C0
:101A70000AD8D6F50016760D04F00044F04061FA5D
:101A800006F25040F1404840C00A40EA415021F07F
:101A9000004128BF5FEA500550F1000044EBD1211E
:101AA00035E0DB0A45EAC121C90AB6F120050EDDA1
:101AB00042EA0242120CC5F1200603FA06F6EB4098
:101AC00042EA06056D42984161F100010DE062FABB
:101AD00006F5F240554063FA06FC82EA0C02F34038
:101AE0005A406D42904161EB030111F4801F05D112
:101AF000641E620502D06D004041494121F480110D
:101B0000430875F1004350F1000041EB045170BCF3
:101B100070471CEB410F15D223F0004352EA4306F5
:101B20000BD04FEA4C0CBCEB410F04D80C0D661ED9
:101B3000342EB7DDEBE7801A994150EA410608BF21
:101B40000021E4E708BF1CEB430F28BF6FF0000142
:101B5000DDE7000080B5AFF30080024A11001820D5
:101B6000ABBEFBE72600020001B501230122694656
:101B7000DFF8C00800F051FD009802BD10B5DFF895
:101B8000B848002200F00BF8012001F077F801229C
:101B900000F005F8BDE810400A2001F06FB84FF4DE
:101BA0000061204601F05DB9400000F1C8400180AD
:101BB0007047400000F1C840008870471FB5DFF84B
:101BC0007C48204601F00CFB60792179A37862788B
:101BD00002900191E07821780090DFF8640801F02C
:101BE00099FB607A237AE279A17900900FF6F000F0
:101BF00001F090FB607B237BE27AA17A00900FF6E4
:101C0000FC0001F087FB607C237CE27BA17B0090E1
:101C10000FF6041001F07EFB607D237DE27CA17C49
:101C200000900FF6101001F075FB1FBD10B5FFF707
:101C3000A5FFDFF81018DFF81008DFF8004801F002
:101C400033F9002001F07FFB01460FF6041001F08C
:101C500061FB04F11801012001F038F910F1010FC6
:101C600004BFDFF8E80701F055FB2146002001F032
:101C700065F9BDE81040A1E710B502214FF40070EE
:101C800001F05CFB41F2883140F20A2001F056FB82
:101C900040F202240121204601F050FB4FF4027073
:101CA00001F051FBC0B2222809D00FF6B80001F0B4
:101CB00031FB2046BDE81040102101F03FBB10BDB4
:101CC0003EB50FF6B4034FF40570D3E90045CDE9F6
:101CD00000454FF6FF74214601F030FB214640F2EB
:101CE000162001F02BFB41F2883140F2122001F066
:101CF00025FB06226946002001F02AFB00214FF453
:101D0000087001F01BFB062140F2222001F016FBB7
:101D1000202140F2022001F011FB37BD70B52DEDFE
:101D2000028B8AB0044600258DF80C5004A81421BB
:101D300001F022FB042001906426DFF81457DFF83D
:101D400014070296009501230022802101F0D5FCA2
:101D50000A2000F093FF642000900123DFF8F8666A
:101D600000F06BF8322000F089FF322000F086FF8F
:101D700001200090012300F060F8322000F07EFF87
:101D80000120009004232A468021304601F0E9FB1F
:101D9000642000F073FF2878697801EB002100EEE1
:101DA000101ABBEE400ADFED320A9FED328A00EED8
:101DB000208A84ED008AAA78E87800EB022080B2BD
:101DC00000EE100AB8EE400A10EE100A01F0ECFF27
:101DD0000022DFF88836FFF7E9F90022DFF88036C5
:101DE000FFF7E4F902F004F800EE100A84ED010AAE
:101DF0002879012808D118EE100A01F0D5FF0B460A
:101E000002460FF27C7109E0022811D110EE100A8F
:101E100001F0CAFF0B4602460FF2707104A802F0EF
:101E20001BF80123142204A905F1080000F0F5FBBA
:101E30000AB00020BDEC028B70BD03AA80213046A1
:101E400001F03ABB0068DFF81C1688420FD1DFF8BA
:101E500000064179312908BF012102D0322901D180
:101E600002210171411D0122083000F02FBC704792
:101E700000002543000020C22DE9F04F8DB002F094
:101E80000BF800F0D6F900F018FADFF8C805DFF813
:101E9000D815DFF8D895016000228260C2604FF447
:101EA000804800F0ABF908B100F017FBDFF8C0453F
:101EB000DFF8C00504F1A8054FF4E13728606F6032
:101EC0000C2000216861A960E9602961A961E961CC
:101ED000284600F067FB08B100F0FFFADFF898052C
:101EE0006864AF640C200021A865E9642965696510
:101EF000E965296604F1EC0000F054FB08B100F03C
:101F0000ECFA04F59876DFF8740500F085F908B16D
:101F100000F0E3FADFF83855DFF84805A860EF6015
:101F20000C200021E86129616961A9612962696267
:101F300005F1080000F036FB08B100F0CEFADFF83A
:101F400040057064B7640C200021B065F164316510
:101F50007165F165316604F5BA7000F023FB08B1D4
:101F600000F0BBFA04F5DC76DFF8180500F054F950
:101F700008B100F0B2FADFF8100520654FF4827165
:101F800061650020A06500212066E1656166E1666B
:101F900021676167A1674FF40070A0660A21E167BD
:101FA00004F1500001F092FF08B100F096FADFF85A
:101FB000A804DFF8D814016000228260C26000F03B
:101FC0001DF908B100F089FA09A8102101F0D4F92F
:101FD0000FF2C8501C21D0E90087CDE9008702A884
:101FE00001F0CAF9DFF8A80470644FF4C86100205A
:101FF000F0647065F065B1644FF4FA7904F5FE7829
:10200000C6F85090404601F0C5FF08B100F065FAEF
:102010004FF48057099709A9404602F0D6F808B155
:1020200000F05BFA404601F0D5FF08B100F055FA28
:102030000021009101914046694602F07BFA08B107
:1020400000F04BFA602102914FF4C8720021039214
:1020500004910691082202A9404602F054F808B102
:1020600000F03BFA0C2202A9404602F04CF808B1FD
:1020700000F033FA404602F093FB00F0C9F84FF04D
:10208000204020600020E0601020DFF8081461602C
:102090006061022200210020A2602161A161E06153
:1020A00021626062A762E16261636164032202925D
:1020B0000F2101911022049211212063A06300904E
:1020C00003900591002206926946204602F036FDF3
:1020D00008B100F002FA00F09BF804F51177DFF880
:1020E000B80338604FF47A6BC7F804B00021B960C8
:1020F000C7F80C903961B961384601F04BFF08B15F
:1021000000F0EBF9384601F065FF08B100F0E5F9A1
:1021100000F06EF84FF4AF7A00F063F808B100F009
:10212000DCF9384602F03CFB00F072F8DB48B8649A
:10213000C7F84CB000213965C7F85490B9653966C5
:1021400004F52377384601F025FF08B100F0C5F902
:10215000384601F03FFF08B100F0BFF900F048F841
:1021600000F03FF808B100F0B8F9384602F018FB6B
:10217000FFF75CFDFFF780FD0122691D05F10800F6
:1021800000F0A4FA0821404601F031FF0C2140463E
:1021900001F02DFF01224FF40061C14800F061FE03
:1021A00004F53570FFF7BAFD94EDB50ADFEDA00A2E
:1021B000B4EE600AF1EE10FA09DAB3EE0E1AB4EEDC
:1021C000410AF1EE10FA05D54FF4C87000E0C820BE
:1021D000716CC863FFF774FD4FF47A7000F04EFD28
:1021E000DEE70492CDF804A06946384601F08BBFC3
:1021F00060210091002200210291704742618261BA
:10220000C2610262C0F80490C0F8108001F0B8B852
:1022100068461C2101F0B0B8306077600C200021C6
:102220007061B160F1603161B161F161304600F01F
:10223000B9B980B592B006A8302101F09DF801A887
:10224000142101F099F800200090012395480168BD
:1022500041F0805101600021006800F08050009042
:10226000009891480091026842F480420260022284
:10227000006800F48040009006A8009906921021A2
:10228000002209930A910C9202F084FC08B100F03C
:1022900024F90021029103910F204FF4A0510190E5
:1022A00004914FF480520592002101A802F00AFE29
:1022B00008B100F012F913B000BD2DE9F84386B063
:1022C0006846142101F058F800247848784D744E7F
:1022D000DFF86491DFF8DC8105944FF4881701681A
:1022E000754C41F010010160026802F01002059285
:1022F000002205990592036843F004030360016816
:1023000001F0040100F0DCF843F0200303600168F1
:1023100001F0200100F0D4F843F08003036001686D
:1023200001F0800100F0CCF843F001030360016884
:1023300001F0010100F0C4F843F0400303600168BC
:1023400001F0400100F0BCF843F0020303600168B3
:1023500001F002010591059905924FF4604103686F
:1023600043F008030360006800F00800059005983A
:10237000204600F076FD00224FF48051284600F000
:1023800070FD00224FF4C051304600F06AFD01227A
:102390004FF40061484600F064FD002203214046EE
:1023A00000F05FFD0420009001970021029140465B
:1023B000694600F077FC4FF4604100F086F8204653
:1023C00000F070FC0321009101970021029130463A
:1023D000694600F067FC4FF48051009101220192A0
:1023E0000021029103912846694600F05BFC4FF4FE
:1023F000C05100F06AF8304600F054FC082100910A
:1024000001970021029169462C4800F04BFC4FF4E3
:10241000006100F05AF8484600F044FC032100F047
:1024200054F8404600F03EFC07B0BDE8F0830000E1
:102430000100F041C004002000180240000000200C
:1024400098530008A91B0008B31B0008C8530008D4
:10245000B804002014040020C00300200000F03E57
:102460000000594000440040005C0040A08601008C
:10247000E4000020004C00400050004000100140EB
:102480000048004000140140003800400054004063
:1024900000080040040100A0001C00400020004093
:1024A00000000240403802400070004030380240D6
:1024B000000402400010024000080240000C0240EC
:1024C000059105990592036870470091012200214A
:1024D0000291039101926946704772B6FEE70000CF
:1024E00049502061646472657373203A2025642E1C
:1024F00025642E25642E25640D0A0000534D204DC1
:1025000061736B202020203A2025642E25642E251F
:10251000642E25640D0A0000476174652077617997
:102520002020203A2025642E25642E25642E256443
:102530000D0A0000444E5320536572766572203AAE
:102540002025642E25642E25642E25640D0A0000A6
:102550006765744D522829203D20253034580D0AD6
:1025600000000000534F434B204953204E4F54204E
:102570005544500D0A0000000C22384E5A0A000043
:10258000252E326620A1C90D0A000000252E3166D5
:102590002028524829250D0A0000000000000000F4
:1025A0000000000038B5040001D1012032BD00F068
:1025B00017F808B900F018F800F01BF800F023F83D
:1025C000FFE7416100F001F832BD2068C16841F4C5
:1025D0000051C1600020686020216970A9707047B7
:1025E00004F13C056878704700212970204602F00C
:1025F0002BB9242068702068C16821F40051C160A3
:10260000204600F0D6BA2068016921F490410161AA
:102610002068416921F02A0170472DE9F8430546F9
:1026200005F13C060C46707820281746994642D1A1
:102630000CB1380001D101203EE0307801283AD0B9
:1026400001213170002070602122727002F010FDB3
:10265000AF848046EF84A868B0F5805F04BF286926
:1026600000280EBF2746204600270021317004466F
:102670000EE014F8012B426007E02868002CF8D126
:1026800037F8021BC1F308014160E88C411EE98460
:102690004346E88CCDF8009000280FD0002280211E
:1026A000284600F085F90028E7D0032004E0202028
:1026B0007070002000E00220BDE8F283002240217B
:1026C000284600F075F90028F1D0EEE738B500F1A2
:1026D00030039C7B202C0FD109B1140001D10120C3
:1026E00032BD1C7B012C07D001241C7300251D600A
:1026F000BDE8384000F0A6B9022032BD206800F1E4
:10270000140151E8001F00F1140221F0400142E8D9
:102710000010002870477CB5044621680B68CD681E
:102720004A6913F00F0007D1980661D5AA065FD554
:102730002046BDE87640D9E1D00702D415F4907F59
:1027400056D0D80705D5E90503D5206C40F0010027
:102750002064580705D5D10703D5206C40F002004E
:102760002064980705D5D10703D5206C40F00400FC
:102770002064180707D5A90601D4D00703D5216C1A
:1027800041F008012164206C002830D0980604D55F
:10279000A90644BF204600F0A9F920684069216CD1
:1027A0000A0701D440061DD5204600F068F92068CC
:1027B0004169480611D5FFF7A1FFFCD1A06B60B1BC
:1027C0000FF21D310165A06B02F09BFC00280ED0BA
:1027D000A06B016DBDE87C4008472046BDE876400F
:1027E00002F0A6BC204602F0A3FC0020206473BDCA
:1027F000206B012804F13D0240F07D80D8067AD597
:10280000EE0678D5002300930D6800954B68009381
:102810000098496948063CD5A16B0868406880B2B9
:102820000028E4D0A38D9842E1DAE085C869B0F5CC
:10283000807F2AD0206800F10C0151E8001F00F1D0
:102840000C0321F4807143E800100028F2D100F05D
:1028500094F8490800F11403490043E800100028E7
:10286000F5D100F08AF800F1140321F0400143E8AB
:1028700000100028F5D1202050700021216300F0C5
:102880008AF8FCD1A06B02F0F9FBA18DE08D091A4A
:102890002BE0A08DE18D411AE08D00281CBF88B28D
:1028A000002863D0206800F10C0353E8003F00F1DA
:1028B0000C0523F4907345E800300028F2D120681D
:1028C00000F055F800F114055B0045E800300028E1
:1028D000F5D1202050700022226300F054F822F03D
:1028E000100243E800200028F7D12046BDE87C40D4
:1028F00089B202F01EBC180629D52E0627D51078FD
:10290000212833D1A068B0F5805F04BF206900287A
:1029100008D1206A0288C2F308024A60206A811C3A
:10292000216204E0206A421C226200784860E08C48
:10293000401EE08480B2C8B92068C16821F08001DF
:10294000C1602068C16841F04001C16073BD580694
:102950000CD56B060AD5C86820F04000C86020215D
:1029600011702046BDE8764002F0E4BB73BD00F173
:10297000140353E8003F5B087047206800F114011E
:1029800051E8001F7047206800F10C0252E8002F48
:1029900000F10C037047206800F10C0151E8001FA2
:1029A00000F10C0221F0100142E8001000287047ED
:1029B0002DE9F041069C05460E4690461F462868C4
:1029C00001683140B1420CBF0120002040451BD1BD
:1029D00014F1010FF3D024B102F04AFBC01B844272
:1029E000EDD200F027F821F4D07100F012F8F8D100
:1029F00000F013F8FCD105F13C00202141708170FA
:102A000000210170032000E00020BDE8F08121F4E6
:102A1000F07142E8001000287047286800F11401A6
:102A200051E8001F490800F11402490042E8001073
:102A300000287047286800F10C0151E8001F00F1E0
:102A40000C02704781628285C28500F13C01002240
:102A50004A6022238B700A70016921B10168CA683B
:102A600042F48072CA6001684A6942F001024A6118
:102A70000068C16841F02001C16000207047016812
:102A800001F10C0252E8002F01F10C0322F49072C4
:102A900043E800210029F2D1016801F1140252E853
:102AA000002F520801F11403520043E800210029CD
:102AB000F2D1016B01290CD1016801F10C0252E83D
:102AC000002F01F10C0322F0100243E8002100293D
:102AD000F2D1202180F83E100022026370470000EE
:102AE000806B0021C185C18402F022BB1CB590F827
:102AF0003E1022295BD18168826AB1F5805F0AD1DC
:102B0000016969B903685968C1F308011180826AD3
:102B1000911C81620FE0002904BF0169002902D1E4
:102B20000368596803E00168496801F07F0111708A
:102B3000816A4A1C8262C18D491EC18589B2A1BBCE
:102B40000168CA6822F02002CA600168CA6822F4DB
:102B50008072CA6001684A69520852004A612021A5
:102B600080F83E10026B012A1DD10021016301682B
:102B700001F10C0252E8002F01F10C0322F01002C7
:102B800043E800210029F2D102681168CB0606D57E
:102B90000024009413680093526800920099818D7C
:102BA00002F0C7FA01E0FFF74DF9002016BD022040
:102BB00016BD70B5044622681169E06821F44051E1
:102BC00001431161D3682748A168034020690B4382
:102BD00061690343E0690B430343D3605169A06912
:102BE00021F44071014351611F498A421CBF1F48B3
:102BF000824202D102F0F4F901E002F0E9F96268E0
:102C00002568E46964261921B4F5004FA1FB000191
:102C100012D1D30F5200FEF745FA00F029F8F60062
:102C200032366420B6FBF0F0420002F4F87202EB98
:102C3000011200F0070010E0930F9200FEF732FA45
:102C400000F016F8360132366420B6FBF0F000F0E2
:102C5000F00202EB011200F00F008018A86070BDB6
:102C600000000000F369FFFF001001400014014064
:102C70006421B0FBF1F106FB1106704738B504463C
:102C800002F0F6F914F1010F054602D0044801786C
:102C9000641802F0EDF9401BA042FAD331BD00BF29
:102CA000280000202DE9F84F0D464FF000086F492D
:102CB0000F22012304462E6803FA08F000EA0609F1
:102CC000814540F0C6804FEA480C032606FA0CF610
:102CD0006FEA060E6E6806F00307012F1CBF06F0B0
:102CE0000306022E11D1A668EF680EEA060607FA5F
:102CF0000CF73E43A660666826EA00006E68C6F3DD
:102D0000001606FA08F6304360604FEA88002E7914
:102D100006F00306032E1FD0E668AF680EEA06062B
:102D200007FA0CF73E43E6602E7906F00306022E02
:102D300012D14FEAD80604EB860600F01C07D6F83D
:102D400020A002FA07FB2AEA0B0AD5F810B00BFA0A
:102D500007F747EA0A07376226680EEA06072E7960
:102D600006F0030606FA0CF63E4326606E6816F47B
:102D7000403F6ED0002600964FEA980C0E68DFF8B0
:102D8000F0E046F480460E6000F00C000E6806F499
:102D900080460096009E5EF82C7002FA00F627EA44
:102DA0000606344FBC4208BF002722D0324FBC4237
:102DB00008BF01271DD0314FBC4208BF022718D0E1
:102DC0002F4FBC4208BF032713D02E4FBC4208BF71
:102DD00004270ED02C4FBC4208BF052709D02B4F2B
:102DE000BC4208BF062704D0294FBC420CBF0727AE
:102DF000082707FA00F030434EF82C006FEA090C60
:102E0000244886680CEA060E6E68F70248BF49EA55
:102E10000E0EC0F808E0C6680CEA060E6E68B7022F
:102E200048BF49EA0E0EC0F80CE046680CEA060EF0
:102E30006E68B70348BF49EA0E0EC0F804E00668A2
:102E40000CEA060E6E68F60348BF49EA0E0EC0F89B
:102E500000E008F10108B8F10F0F7FF62CAFBDE8D4
:102E6000F18F02B9090481617047000044380240C3
:102E700008380140000002400004024000080240FF
:102E8000000C0240001002400014024000180240F2
:102E9000001C0240003C014070477047704770477B
:102EA000008870470180704710B5DFF8D023138881
:102EB000DC05FDD5030001D00B0003D1DFF8C00312
:102EC000DFF8C013FFE7D061116210BD10B50C46EA
:102ED0000022002108282FD8DFE800F0050915118D
:102EE000191D2E2E200000F04EF8002010BD14B148
:102EF000224602F10801BDE810401046C3E02088D8
:102F000000F0EDF8F1E700F0F6F82080EDE720881A
:102F100000F0F8F8E9E700F000F9F6E7D748817823
:102F20002170C27862700179A17000214279E2704B
:102F3000807920716171D8E722E0000010B5052882
:102F40000C461DD8DFE800F003080C1014182046CA
:102F500000F0F5F8002010BD204600F041F9F9E737
:102F60002078BDE81040ACE100F0BAF92070F1E73C
:102F7000204600F0B8F9EDE7204600F0C0F9E9E797
:102F80004FF0FF3010BD2DE9F84F00F097F9040A1B
:102F900000F094F9240254FA80F0009000F08BF9CC
:102FA000040A00F088F9240254FA80F400F080F951
:102FB000050A00F07DF92D0255FA80F500F075F94B
:102FC000060A00F072F9360256FA80F600F06AF945
:102FD000070A00F067F93F0257FA80F700F05FF93F
:102FE000000A4FEA002800F05AF958FA80F800F079
:102FF00053F9000A4FEA002900F04EF959FA80F916
:1030000000F047F9000A4FEA002A00F042F95AFAA4
:1030100080FA00F03BF9000A4FEA002B00F036F985
:103020005BFA80FB8021002000F088F900F058F95D
:10303000009881B2082000F081F9A1B20A2000F0C6
:103040007DF9A9B20C2000F079F9B1B2102000F09E
:1030500075F9B9B2122000F071F91FFA88F1142045
:1030600000F06CF91FFA89F1162000F067F91FFAD9
:103070008AF1182000F062F91FFA8BF1BDE8F44FD5
:103080001A2000F05BB938B505460C46FFF77BFF08
:103090005DB1002000216A5C402A13DA1018491C37
:1030A0000829F8DB00F013F80CD174B100200021DE
:1030B000625C402A06DA1018491C0829F8DB00F087
:1030C00006F802D04FF0FF3032BD002032BD40B2D2
:1030D000811000EB5172D210B0EBC200704740F08B
:1030E0001002D2B2010A41EA02214FF2FF00014070
:1030F000022000F023B980B5022000F024F900F08E
:1031000018F812E000F0EF02010A41EA02214FF242
:10311000FF000140042000F011B980B5042000F048
:1031200012F900F006F800F0EF0000EB114080B259
:1031300002BD4FF2FF0108400106000A704710B5BA
:1031400004462078617800F047F8082000F0F6F88F
:10315000A078E17800F040F80A2000F0EFF820793C
:10316000617900F039F80C2000F0E8F8A07BE17BF1
:1031700000F032F8102000F0E1F8207C617C00F0D3
:103180002BF8122000F0DAF8A07AE17A00F024F8A7
:10319000142000F0D3F8207B617B00F01DF816208E
:1031A00000F0CCF8A079E17900F016F8182000F0D2
:1031B000C5F8207A617A00F00FF81A2000F0BEF806
:1031C0003148A17C0170E27C4270217D8170627D7A
:1031D000C270A17D017110BD01EB002189B2704761
:1031E00010B5044600F06AF8000A207000F066F896
:1031F000607000F060F8000AA07000F05CF8E07009
:1032000000F056F8000A207100F052F8607100F0EA
:103210004CF8000AA07300F048F8E07300F042F8A0
:10322000000A207400F03EF8607400F038F8000ADC
:10323000A07200F034F8E07200F02EF8000A20735B
:1032400000F02AF8607300F024F8000AA07100F082
:1032500020F8E07100F01AF8000A207200F016F869
:10326000607209480178A1744278E274817821750E
:10327000C27862750079A07510BD0000380000208A
:10328000A12E0008A52E0008040500201A2000F039
:103290005AB8182000F057B8162000F054B814207F
:1032A00000F051B8122000F04EB8102000F04BB8DA
:1032B0000C2000F048B80A2000F045B8082000F0C3
:1032C00042B810B5044614F0C70F00D058E600F01D
:1032D00007F80443E1B2002000F030F8002010BDF0
:1032E000002000F030B810B504461E20217800F010
:1032F00025F86188BDE810401C2000F01FB810B50B
:1033000004461E2000F01FF820701C2000F01BF85F
:10331000608010BD0EB4C0B5024603A80021019024
:10332000009101AB0121044878440C30FCF72CFFDC
:1033300006BC5DF810FB00BFA7210000400000F1B3
:10334000C84001807047400000F1C84000887047C5
:103350000023002A00D1704770B5CD18CC5C6E7880
:1033600046EA0426034C04EBC0149B1C93422680BF
:10337000F3D370BD5C040064002201F0DDBE0000E8
:10338000F8B5040025D004F13C05697821B9002086
:103390002870204601F02FF9242169702068026806
:1033A0005208520002602068016841F40041016047
:1033B0002068026822F40042026001F009FE014622
:1033C0006068DFF84424904205D2DFF84034994227
:1033D00005D20120F2BDDFF838048142F9D320681C
:1033E000DFF830344668B1FBF3F3B60943EA8616DA
:1033F00046602668376A6068904206D34FF496703C
:1034000043434FF47A70B3FBF0F35B1CBF0943EA0C
:1034100087133362491E2368DE696768974206D2C4
:103420007F0000F043F8042913D2042111E0A068C2
:1034300020B907EB470700F039F805E019204743AA
:1034400000F034F841F4804108050CBF012141F43B
:103450000041DFF8F80306400E43DE61226813687E
:10346000E169206A23F0C0030B4303431360226821
:10347000DFF8DC03936821690340E0680B430343F2
:1034800093602168CA68A3696069120A034343EA2A
:103490000222CA602068016841F001010160002039
:1034A0006860202169702063A870F2BDB1FBF7F15C
:1034B000491CC1F30B0170472DE9FC4700F00BF9E3
:1034C00000F003F947D100F0F8F8002843D138782C
:1034D000012840D000F0EBF801D400F024FA234694
:1034E00030680A9D00F036FA212000F0B6F800F0AE
:1034F00036FA00282DD1009031684A690092896916
:103500000091009A308D002828D000F0CBF8D8B96F
:1035100000F0BBF800F09DF8308D401E308531681A
:103520004A6953070CD580B250B1706A02780A61BB
:10353000706A411C716200F08CF8308D411E31853B
:1035400000F0ABF80028DDD07868042801D100F045
:1035500033FB012000E00220BDE8F68700F0C1F84F
:10356000FAE72DE9FC4700F0B6F800F0AEF85FD1BD
:1035700000F0A3F800285BD13878012858D000F07B
:1035800096F801D400F0CFF9234630680A9D00F088
:1035900076F800F062F800F032FA002841D1308D60
:1035A00018B1012804D100F089F900F035F918E0CC
:1035B00002283068016805D121F48061016000F0C3
:1035C00050F901E000F0C1F90020009000F036F859
:1035D00007E000F069F9002823D100F048F900F075
:1035E00034F8308D002826D0042817D20128F0D0D6
:1035F00000F002F90AD100F052F9002811D100F0D0
:1036000064F9716A0870706A421CE8E700F047F9D3
:10361000002806D100F06EF918B9F0E700F044F97F
:1036200008B1012005E000F029F9DAD50069E8E7E2
:103630000220BDE8F68700F00DF9FAE731684A6923
:1036400000928969009100987047308D7262411E26
:103650003185708D411E7185704778701021B97069
:1036600000207860C6F82490A6F82AA02A46708D1B
:10367000DFF8BC123085F162304641467047016880
:1036800021F40061016022207047706A326801787D
:103690001161706A411C71627047224629463046AA
:1036A00000F024BB22462946304600F0F5BA01213D
:1036B000397030680268D1077047009419230122DD
:1036C000DFF87C12304600F083BA06F13C0704466E
:1036D0007878202870470646884691469A4601F039
:1036E000C7BC3068016841F4007101602020787027
:1036F0000021B9700020387070472DE9FC47FFF7B2
:10370000EAFFFFF7E2FF71D1FFF7D7FF00286DD185
:10371000387801286AD0FFF7CAFF01D400F003F916
:103720004146D6F800E00C9D0B98DDF828C0DEF885
:10373000008028F40068CEF800804FF0220E87F851
:1037400001E04FF0400887F802804FF0000EC7F804
:1037500004E000F06DF800F0C3F900283FD1308D8F
:1037600018B1012804D100F0A9F800F055F816E0CE
:10377000022807D1306800F09CF800F072F80020B1
:10378000009001E000210091FFF758FF07E000F0F2
:103790008BF8002823D100F06AF8FFF756FF308D30
:1037A000002826D0042817D20128F0D000F024F8F1
:1037B0000AD100F074F8002811D100F086F8716A7F
:1037C0000870706A421CE8E700F069F8002806D12A
:1037D00000F090F818B9F0E700F066F808B10120A1
:1037E00005E000F04BF8DAD50069E8E70220BDE813
:1037F000F68700F02FF8FAE70228DFF848810094F6
:103800002B46704700000000A186010080841E0046
:1038100000093D0040420F00009031684A69009263
:103820008B69009300980A6842F400720A6070473E
:10383000C6F824C070855346708D30854A463C4892
:10384000F062019400953046704700000030FFFFA1
:10385000007CFFFF202078700021B97000203870B4
:1038600070473068026842F4006202607047306856
:103870000169706A0170716A4A1C70473068016999
:10388000706A0170716A308D4A1C411E7262318506
:10389000708D411E7185306841694A07704700226A
:1038A0004146304600F094B922462946304600F0A1
:1038B00039BA016821F4806101607047306801689D
:1038C00021F480610160002070473068016841F494
:1038D0000071016030680169706A0170716A308D31
:1038E0004A1C411E72623185708D411E718532689D
:1038F000106970473068016821F4806101602B46CF
:1039000030680169706A0170716A308D4A1C411E0D
:10391000726231850022708D411E7185009441468E
:10392000304600F055B9026842F00102026070476B
:103930000000FFFF2068016841F48071016070475A
:103940000200100004000100016841F48061016080
:1039500070472868016821F4006101607047F8B57C
:1039600004460D46E06A08281EBF0128DFF85412FD
:10397000884216461F4602D100F035F804E0206B5D
:10398000122801D1FFF7D6FF0097334600F032F836
:103990000028206807D00168CA0544BF4FF40070B2
:1039A00020640320F2BD2169B1F5804F08BF05F006
:1039B000FE050ED0E90901F0060141F0F0010161B8
:1039C0003B463246DFF8001200F083F848B9206821
:1039D000EDB205613B463246DFF8F01100F079F8B0
:1039E00000B10120F2BD2068026842F480720260DA
:1039F0007047434600224FF001112046E8E02DE9D0
:103A0000FC4704460E46E06A216890460A6842F484
:103A100080620A6008281EBF01286A4988429946C8
:103A200002D1FFF7E0FF04E0206B112801D1FFF77E
:103A300081FFCDF80090FFF7DCFF002820684FF4ED
:103A400000752CD12169DFF884A1B1F5804F04D134
:103A500046F00106F6B206612BE0F70907F006070B
:103A600047F0F00101614B464246DFF85C1100F07F
:103A700030F8002820D12068F6B2066100F026F860
:103A8000D0B900F01CF8434600980A6842F48072EE
:103A90000A60CDF80090FFF7ADFF30B120680168F3
:103AA000CA0548BF2564032007E0206847F0F107F6
:103AB000076100F00BF800B10120BDE8F687009027
:103AC00021684A6900928B69009370474B464246D1
:103AD00051462046A4E02868016841F4807170478F
:103AE0002DE9F84F05462868DDF828800B9F0C4625
:103AF000FFF72AFF1646FFF7EEFF994600F054F84D
:103B000000284FF4007A2BD12968DFF8C0B004F008
:103B1000FE00086100F037F8002831D100902968D4
:103B200000F03AF800F036F870B9B9F1010F05D09D
:103B30002968300A086100F02BF828B92868F6B225
:103B4000066100F025F830B1286C042818D12868E7
:103B500000F033F814E0FFF7BEFF00F025F838B1AD
:103B600028680168CA0548BFC5F840A0032008E0DE
:103B7000286844F00104E4B2046100F004F800B1E4
:103B80000120BDE8F28F3B4642465946284647E0B1
:103B90003A46414628467FE04A6900923A4689699A
:103BA000009141460098704701600097434600220B
:103BB0004FF0011128460BE03068016841F40071B4
:103BC000016070470000FFFF0800010002000100D3
:103BD0002DE9F041069F05460E4690461C463102EF
:103BE0002868090E01290CBF40698069304080B205
:103BF000B1B288420CBF0120002040450DD114F124
:103C0000010FECD001F034FAC01B844201D3002C28
:103C1000E5D100F05DF8012000E00020BDE8F08172
:103C2000F8B505460E4614461F463102090E2868AF
:103C300001291BD14169314089B2B2B291421BD0F6
:103C400041694A051AD5FFF7B8FF6FF480602A680A
:103C50005061002105F13C002963202242708170EF
:103C6000426842F004024260017013E08169314011
:103C700089B2B2B29142E3D10020F2BD14F1010F3A
:103C8000D3D001F0F5F9C01B844201D3002CCCD174
:103C900000F01EF80120F2BD70B505460C46164630
:103CA00028684169080611D4284600F067F858B919
:103CB00014F1010FF4D001F0DBF9801B844201D331
:103CC000002CEDD100F004F8012070BD002070BD83
:103CD00000202863202105F13C0000224170827001
:103CE000416841F0200141600270704770B505469F
:103CF0000C46164628684169480711D4284600F04A
:103D00003DF858B914F1010FF4D001F0B1F9801B5E
:103D1000844201D3002CEDD1FFF7DAFF012070BD02
:103D2000002070BD70B505460C46164628684169EE
:103D30004A0617D44169CA060BD401F099F9801BD1
:103D4000844201D3002CF1D100F00EF841F02001A3
:103D500004E06FF01001416100F006F8416002706C
:103D6000012070BD002070BD00202863202105F1D6
:103D70003C000022417082704168704701684A69C6
:103D800053050FD56FF480624A61002101633C3016
:103D9000202242708170426842F004024260017049
:103DA0000120704700207047C0F3C75181B1FF293F
:103DB00006D0C110400721F0E04101F16051704789
:103DC00041020CBF40F4E0016FF000410020704759
:103DD00000F0004100020AD0B0FA80FC00FA0CF0BA
:103DE00001F16051A1EB0C5101EBD021400570476E
:103DF00001F000428B1AA3F16051B1F5801F0ADB7C
:103E0000B1F17F6F1FD242EAC102C10071F10041DE
:103E100042EB507070470B15C3F10903212B10D2F0
:103E2000890241EA905180020128494141F0004154
:103E300021FA03F0C3F12003994071F10041504190
:103E40007047100070476FF0000013EB103F5CBF2D
:103E5000000E42EAC05070470CB430B583B00A4639
:103E600006A90291044600250194009502AB01A920
:103E7000084878441E30FCF787F9019A157000282D
:103E80004EBF04460198041B204603B030BC5DF8C9
:103E90000CFB00BF37D1FFFF80B50B48016841F430
:103EA00000710160026842F480620260016841F4BE
:103EB00080710160032001F066F9002001F0B8F97B
:103EC00000F07EFB002002BD003C024038B504003B
:103ED00001D1012032BD606A28B900F051F805D047
:103EE0000021E16102E00020206160610020A06209
:103EF00004F15005687820B900212970204600F0AF
:103F0000E8FB0220687000F03FF86068A168E26892
:103F100000F4827001F404410843217C02F4006241
:103F20001043227D01F002010843A16902F0010261
:103F30001043227F01F40071084394F8201002F02E
:103F400038021043A26A01F080010843216802F49C
:103F5000005210430860A06994F824102268000CF5
:103F600000F0040001F01001084350602068C169AE
:103F700021F40061C161002068600121697032BDD7
:103F80006068B0F5827F70472068016821F04001C9
:103F90000160704738B5040001D1012032BD00F046
:103FA000A9F818B900F06FF900F0C9FBFFE702208B
:103FB0006870211D206800F06AF90120A872A870BD
:103FC000E87028716871A871E87128726872687069
:103FD000002032BD38B5040001D1012032BD00F00F
:103FE00089F818B900F04FF901F042F9DFE710B590
:103FF000044604F13E0009B9027807E0042908BF2D
:10400000427803D008290CBF8278C278012A01D0F7
:10401000012010BD11B9022202700AE0042902D168
:104020000222427005E0082907BF022282700223A3
:10403000C3702068012200F06EFA00F032F818BF59
:10404000884200F034F818BFB0F1804F12D000F071
:104050001FF81CBFDFF8883098420BD000F014F82E
:1040600018BF884206D000F02FF81CBFDFF8802070
:10407000904205D100F023F804D000F028F801E0C8
:1040800000F00AF8002010BDDFF858209042704779
:10409000DFF8482090427047026842F00102026057
:1040A000704720680C4ADFF840109042704703D1F7
:1040B000436C43F400434364206890427047816836
:1040C00001F00701062970470849884270470168D6
:1040D00041F0010101607047000001400004004010
:1040E00000080040000C0040000401400040014076
:1040F0000018004004F13C0568787047002084F8FF
:104100003C002846704770B500F058F801D10220F5
:1041100070BD012084F83C0032B1042A15D0082A71
:1041200025D00C2A34D045E0206800F0FBF8216847
:10413000886940F008008861886920F0040088617F
:104140008A69306902438A6135E0206800F016F917
:104150002068816941F400618161816921F4806195
:1041600081618169326941EA0221816123E020682D
:1041700000F034F92168C86940F00800C861C869D6
:1041800020F00400C861CA6930690243CA6112E0C4
:10419000206800F052F92068C16941F40061C161F2
:1041A000C16921F48061C161C169326941EA0221BA
:1041B000C16100E00125FFF7A1FF70BD04460025A5
:1041C00094F83C0001280E46704770B5064606F18B
:1041D0003C0500242878012801D1022070BD01206F
:1041E000287002226A70DFF89802326893680340F0
:1041F00093600868020018BF102830D0202818BF2C
:1042000030282CD0402826D0502819D060281BD028
:10421000702806D0B0F5805F27D0B0F5005F07D0DA
:1042200022E000F02BF83068816841F0770105E06A
:1042300000F024F83068816841F48041816014E026
:1042400000F018F850210BE0CA684968306800F0A7
:104250003EF9602104E000F00DF8402100E0014645
:10426000306800F046F900E001240120687000F099
:104270000AF870BDCA684968306819E1CB684A68B5
:10428000896830683DE10021297020467047F0B50B
:104290007C4C05687C4B7D4E7D4FDFF8F8C1A04219
:1042A00018BFB0F1804F07D0604518BFB84203D0A7
:1042B000B04218BF98420DD14A6825F070051543E9
:1042C000A04218BFB0F1804F17D060451CBFB84264
:1042D000B04212D098421CBF6F4A90420DD06F4E30
:1042E000B0421CBF6E4A904207D06E4EB0421FBF14
:1042F0006D4A90426D4EB04203D1CA6825F44075B4
:1043000015434A6925F0800515430560A0428D6874
:10431000C5620A68826212BF98420969016301227C
:104320004261F0BDF0B5026A564F52085200026277
:10433000066A446885690B688A6825F0730526F06B
:1043400002061D431643504BB84218BF984207D18E
:10435000CA6826F008061643B84226F0040601D0C3
:10436000984205D14B698A6924F440741C43144374
:1043700044608561496841630662F0BDF0B5026A38
:10438000404E22F010020262B042056A436884691E
:104390000A6824F4E64444EA02248A6825F02005E9
:1043A00045EA0215384A18BF904208D1CF6825F077
:1043B000800545EA0715B04225F0400501D090423E
:1043C00006D14E698A6923F44063164343EA8603A3
:1043D00043608461496881630562F0BDF0B5026A9B
:1043E00022F480720262056A4368C4698E680A68B2
:1043F00025F4007524F0730445EA06251443214E84
:10440000214AB04218BF904208D1CF6825F4006518
:1044100045EA0725B04225F4806501D0904206D1D7
:104420004E698A6923F44053164343EA06134360F6
:10443000C4614968C1630562F0BD70B5026A114E7E
:1044400022F480520262B042046A4268C3690D6875
:1044500023F4E64343EA05238D6824F4005444EA38
:1044600005341CBF084DA84204D14D6922F4804296
:1044700042EA85124260C36149680164046270BD0A
:104480008800FFFF0000014000040140000C0040D4
:10449000000800400004004000400140004401408A
:1044A0000048014000180040001C0040002000406F
:1044B00010B5036A046A64086400046223F00A0306
:1044C000846924F0F00444EA021484612EE010B5FB
:1044D000036A23F0100303628369046A23F47043C0
:1044E00043EA023324F0A004836144EA0114046225
:1044F00010BD826822F07002114341F00701816013
:10450000704710B5846824F47F442143114341EA85
:104510000321816010BD10B501F01F01036A012461
:104520008C40A343036202FA01F1036A194301625A
:1045300010BD000070B500F13C031A78012A01D1CA
:10454000022070BD01221A7002245C7005686E683A
:10455000AC680A6826F0700616436E60026814485C
:10456000824218BFB2F1804F11D0104882421CBF66
:10457000104DAA420BD00C4882421CBF0E4DAA42DD
:1045800005D0084882421CBF0C4DAA4204D148689D
:1045900024F08004044394600121597000201870B5
:1045A00070BD000000400140000C004000040040CD
:1045B00000000140000800400004014000180040D5
:1045C00081B0002000900022DFF81405416841F41A
:1045D00080414160416801F480410091009900925E
:1045E000036843F080530360006800F0805000903F
:1045F000009801B0704738B586B000F020F9206807
:10460000DFF8E054DFF8E044A84219D1002005901B
:104610001222216841F002012160C021206800F0CF
:104620000200059000F005F900F04AF8002005901E
:10463000216941F400112161206900F400103BE080
:10464000DFF8A814884239D100200590216841F094
:10465000040121600021206800F004000590059805
:1046600005914FF40071226842F00102226012228B
:10467000206800F0010005900598DFF874040091AF
:10468000019200F01DF812210191012202924FF4D3
:104690008070032100900391042204926946DFF8A0
:1046A0005404FEF7FFFA00200590216941F400014F
:1046B0002161206900F400000590059807B030BD25
:1046C0000121029103220421049103926946FEF71D
:1046D000E9BA38B586B0044601A81421FEF74CFEAD
:1046E0002468DFF81854AC4227D100200090002243
:1046F000DFF8F403016941F480410161016901F4CB
:1047000080410091009900924FF46041036843F0AA
:10471000020303600222006800F00200009000988B
:10472000DFF8D403019102920021039103220521B5
:104730000591049201A9FEF7B5FA07B030BD81B02A
:104740000068DFF8BC23DFF89813904209D10020FD
:1047500000900A6842F004020A60086800F0040051
:104760001AE0DFF8A023904209D1002000900A68E7
:1047700042F080020A60086800F080000CE0DFF878
:10478000882390420AD1002000900A6842F4807287
:104790000A60086800F480700090009801B07047CB
:1047A00010B586B000F04BF82268DFF85403DFF84C
:1047B0003813824214D1002205920222086840F088
:1047C00002000860096801F0020105914FF4407190
:1047D00000F02FF80021029103910221049123E0BF
:1047E000DFF82033DFF824039A4204D10022059237
:1047F0004FF4807207E0DFF810339A4217D100229D
:1048000005924FF400720B6843F020030B600968B7
:1048100001F02001059105990092022300220292E5
:1048200003920193092204926946FEF73BFA06B00F
:1048300010BD0598DFF8C002009101927047044650
:1048400068461421FEF798BD38B586B0FFF7F7FF2C
:104850002468DFF8BC22DFF89802DFF88C1294425B
:104860004FF4406316D1002405940A6942F40022F3
:104870000A610A6902F400220592059A05940D68FE
:1048800045F004050D6000F0B5F800930294022392
:104890000193A6E0DFF87C22944232D100230593F5
:1048A0000A6942F480120A610A6902F480120592D0
:1048B000059A05930C6844F004040C6000F09AF823
:1048C00005934FF480520C6844F008040C600223F6
:1048D000096801F0080100F093F80323082203930C
:1048E00004926946FEF7DEF90221019100220420BC
:1048F000029203210090039108220492694686489F
:1049000074E0864D7B4AAC4210D1002005904B6983
:1049100043F010034B610023486900F0100000F0E1
:1049200082F84FF4C06100F072F85FE07C4DAC4259
:1049300019D1002005900B6943F400330B6100236B
:10494000086900F4003000F06EF80C2100F05FF808
:10495000FEF7A8F900220021262000F021FC2620E5
:1049600000F03BFC44E06F4A944220D100200590C7
:104970000A6942F480220A610022086900F480205A
:10498000059005985C48059202220C6844F00204E8
:104990000C60096801F0020105910599019200215E
:1049A0000291032207210491009303921DE05E4AC5
:1049B00094421DD1002305934A6942F020024A61C6
:1049C0004A6902F020020592059A0593C0220C68FC
:1049D00044F004040C600223096801F0040100F0B3
:1049E0000FF803230822039304926946FEF75AF94D
:1049F00007B030BD0A6802F004020592059A7047BC
:104A00000591059900920193002202927047059842
:104A10000091019300210291032307210491039344
:104A200069461046704705900598059302230C6867
:104A300044F001040C60086800F001000590704724
:104A400080B586B068461421FEF796FC37490868A1
:104A5000002836D101220A600590022234480168FC
:104A600041F0010101604FF69871006800F001000B
:104A7000059005982F480091019200210291032290
:104A80000C21049103926946FEF70CF900F01BF823
:104A90004FF23F0000F01CF81C48FEF703F900F04D
:104AA00012F840F23F2000F013F82348FEF7FAF81E
:104AB00000F009F84FF6337000F00AF81648FEF7D8
:104AC000F1F807B000BD0221019100220292704767
:104AD0000321009003910C22049269467047000064
:104AE000403802400054004030380240005C004032
:104AF000000802400000024000040240003800406C
:104B000000080040001C004000200040001402404B
:104B1000004C004000500040000C024000100140DA
:104B20000044004000480040001401400C050020F3
:104B3000383802400010024000180240F8B5040066
:104B40000E46174601D10120F2BD04F148056878F0
:104B500020B9002129702046FFF772FF206804F178
:104B6000080100F087FBA2682068314600F0B5FB21
:104B7000236BA2686068394600F0CFFB2168A0680B
:104B800051F8202042F0010241F8202001206870F5
:104B90000020F2BD2DE9F843040016D02078DFF89C
:104BA0001463C10713D5B06800F00C00042807D0C7
:104BB000B06800F00C0008283ED1706841023BD577
:104BC0003068810303D56068002800F005812078F3
:104BD000B94F810719D5B06810F00C0F07D0B06835
:104BE00000F00C0008285CD17068410259D430688C
:104BF000810703D5E068012840F0EE803168206924
:104C000021F0F80141EAC0013160217808076CD534
:104C10006069AA49002862D001220A6000F028FADF
:104C20000546706F810700F1D98000F021FA401B22
:104C30000228F6D903203AE16068B0F5803F04D13C
:104C4000306840F48030306011E0B0F5A02F30685B
:104C500006D140F480203060316841F4803105E0B5
:104C600020F480303060316821F480213160606848
:104C700058B100F0FDF9054630688103A7D400F073
:104C8000F7F9401B6528F7D3D4E700F0F1F90546A2
:104C9000306881039BD500F0EBF9401B6528F7D302
:104CA000C8E7E06870B10121396000F0E1F905461C
:104CB0003068810700F1BE8000F0DAF9401B02285D
:104CC000F6D9B7E7386000F0D3F9054631688807B0
:104CD0009BD500F0CDF9401B0228F7D9AAE7086060
:104CE00000F0C6F90546706F810777D500F0C0F96E
:104CF000401B0228F7D99DE70528306F06D140F008
:104D000004003067306F40F0010005E040084000CB
:104D10003067306F20F00400306741F28938A068B6
:104D200068B100F0A5F98146306F810700F18F80EE
:104D300000F09EF9A0EB09004045F5D37AE700F0BA
:104D400097F98146306F810740F1818000F090F93A
:104D5000A0EB09004045F5D36CE700F089F9401B52
:104D6000022840F2878065E700F082F9001B0228E4
:104D700040F298805EE70020386600F079F904463A
:104D80003068810140F1928000F072F9001B022826
:104D9000F6D94FE701281FD07068E26900F480015E
:104DA000914202BF00F03F01226A914201BF47F6E3
:104DB000C0710140626AB1EB821F0DD1A26A520834
:104DC00000F44031521EB1EB024F02BF00F07060A0
:104DD000E16AB0EB016F69D0012068E020784107FB
:104DE0003AD5306C0025C1000AD400950125316CFC
:104DF00041F080513164306C00F080500090009898
:104E0000DFF8BC80D8F80000C1051BD4D8F800003A
:104E100040F48070C8F8000000F02AF98146D8F804
:104E20000000C1050ED400F023F9A0EB0900022810
:104E3000F5D9FFE63068216920F0F80040EAC100AA
:104E40003060E2E6A06801287FF456AF5AE71DB152
:104E5000306C20F080503064A06938B3B16801F044
:104E60000C01082996D0022885D10020386600F070
:104E7000FFF80546306881013FF56FAFE269206AAF
:104E8000616A0243A06A400842EA8112401E42EA77
:104E90000042E06A42EA006272600121396600F075
:104EA000E7F80446306881017FF55EAF0020BDE879
:104EB000F28300BF0038024000004742800E4742A4
:104EC000007000402DE9F04104000F4678D0494EB3
:104ED000306800F00700B84202D200F073F86FD1DA
:104EE0002068454D810712D5400703D5A96841F4D4
:104EF000E051A9602078010703D5A86840F460401C
:104F0000A860A968A06821F0F0010143A960217898
:104F1000C8074DD56068012802D129688A0305E0D9
:104F2000022818BF032803D129688A0103D447E067
:104F300029688A0744D5A968890840EA8100A860E1
:104F400000F096F88046A868616800F00C00B0EBAD
:104F5000810F2DD000F08CF8A0EB080041F28931D0
:104F60008842F0D3032021E02078410705D5AA68C4
:104F7000E06822F4E0520243AA602178080706D5CF
:104F8000A968206921F4604141EAC001A96000F0EC
:104F90003FF8AA6819491A4BC2F30312895CC8404A
:104FA00018601848006800F043F90020BDE8F0815F
:104FB000306800F007008742D6D200F003F8D3D063
:104FC0000120F3E73770316801F00701B9427047FB
:104FD0000B480D4A006813680C49C3F3822206E0AF
:104FE0000748094A006813680849C3F34232895CDC
:104FF000C8407047003C0240003802409C54000802
:105000003400002030000020083802401C55000801
:1050100030B5144C606800F00C00042802D0082859
:1050200002D01DE0104830BD2268206800234102F4
:1050300002F03F0204D525680B49C5F3881003E050
:1050400020680A49C0F38810A1FB0001FCF72AF888
:105050002168C1F30141491C4900B0FBF1F030BDAA
:10506000024830BD0438024040787D010024F4003D
:1050700001484068704700BF28000020F8B5064688
:1050800006F13404656AFFF7F3FF074660780228EB
:1050900005D080212162002020700120F2BD3068FF
:1050A000016821F0160101603068416921F080013A
:1050B0004161E068002804BF6069002802D03068C0
:1050C00000F031F830680168490849000160306833
:1050D0000168CA070CD5FFF7CBFFC01B0628F6D323
:1050E0002020206203216170002020700320F2BD87
:1050F000A06A3F218140A9600020012161702070D9
:10510000F2BD90F83510022903D0802242650120BB
:105110007047052180F83510006802685208520077
:10512000026000207047016821F0080101607047AB
:10513000704770477047000000B500BF13009646E7
:105140009446103928BFA0E80C50FAD85FEA417C99
:1051500028BF0CC048BF40F8042BC90728BF20F85F
:10516000022B48BF00F8012B00BD0000090102001E
:1051700002D4294881547047284B02F00F021A4488
:1051800002F8041C7047264B19684FF6FF02000214
:10519000114000F4E060084322490843186070475A
:1051A00038B51F4B1C68C4F30223C3F10704052C58
:1051B00028BF04241D1D072D34BF0023DB1E01253D
:1051C00005FA04F4641E2140994005FA03F35B1EBE
:1051D0001A401143BDE83440C8E7010007D401225A
:1051E00000F01F01104B8A40400943F8202070470F
:1051F00010B5401EB0F1807F01D3012010BD0B4CD3
:1052000060600F214FF0FF30FFF7B0FF0021A16079
:1052100007202060002010BD00E400E018ED00E051
:105220000CED00E00000FA0500E100E010E000E015
:1052300038B50D4D0D4B2A7804464FF47A71186835
:10524000B1FBF2F2B0FBF2F0FFF7D2FF50B9102C35
:1052500008D2002221464FF0FF30FFF7A1FFAC60DB
:10526000002032BD012032BD280000203400002083
:1052700070470000F0B50A6800F028F88C680D68E7
:1052800050F82570344B4A68082C0CBF4026002685
:105290001F403E431643CB680A6934431C434B69A5
:1052A0001443CA691C430B6A14434A6A1C438B6A41
:1052B0001443CA6A1C430B6B14438A69C96B1C43B1
:1052C00014430C4340F825400020F0BD50F8223034
:1052D0005B085B0040F82230704770B5031D001D6D
:1052E00053F822408D690B684E681D438B6845EA70
:1052F0000615CE6845EA03250B69496945EA064566
:105300005B1E45EA0355891E04F0404445EA0165E9
:105310002C4340F82240002070BD70B5B3F5804F9B
:1053200013D150F822500D4C0B684E6825401D4398
:105330008C688B69C96845EA061545EA04251D4352
:1053400045EA014540F8225003E06FF0704140F813
:105350002210002070BD00008000F0FF0000F0CFA0
:1053600030B5016884684218416802EB5103C907EF
:105370000BD54C4409E012F9011B12F8015B00291E
:1053800004F8015B05D5491CF9D19A42F3D10C30E0
:1053900030BD491EF1D5F8E74D6163206164647248
:1053A0006573733A20253032783A253032783A25C1
:1053B0003032783A253032783A253032783A253012
:1053C00032780D0A000000005735333030206D650B
:1053D0006D6F727920696E697469616C697A617444
:1053E000696F6E206661696C65640D0A00000000DB
:1053F00010B5074979441831064C7C44163404E052
:105400000A68081D114488470146A142F8D110BD21
:105410002C000000480000004EF68851CEF200013A
:10542000086840F470000860BFF34F8FBFF36F8FC0
:105430004FF00070E1EE100A704700003FBBFFFF25
:1054400030040000E40000200000000015FFFFFF12
:10545000180200004601000000000020FEE7FEE701
:10546000FEE7FEE7FEE770477047704700F006B8BA
:105470000148FDF750B90000C0040020024841680F
:1054800002788A18426070472800002002480168AC
:1054900041F470010160704788ED00E000000000F9
:1054A00000000000010203040607080900F00DF8DF
:1054B000002801D0FFF79CFFAFF300800020AFF37E
:1054C0000080FCF7D9FC00F002F80120704700F0E2
:1054D00001B8000007463846FCF73CFBFBE738B54F
:1054E00004460D46284600F005F8A84218BF0024DF
:1054F000204632BD0149FCF737BB00BF9C000020AD
:1055000001488047014800478D54000811550008A4
:10551000AFF30080FFF780FFFFF7C8FF0000000037
:105520000102030400002E00FFF7FEBFFFF7FEBFDD
:10553000FFF7FEBFFFF7FEBFFFF7FEBFFFF7FEBF9F
:10554000FFF7FEBFFFF7FEBFFFF7FEBFFFF7FEBF8F
:10555000FFF7FEBFFFF7FEBFFFF7FEBFFFF7FEBF7F
:10556000FFF7FEBFFFF7FEBFFFF7FEBFFFF7FEBF6F
:10557000FFF7FEBFFFF7FEBFFFF7FEBFFFF7FEBF5F
:10558000FFF7FEBFFFF7FEBFFFF7FEBFFFF7FEBF4F
:10559000FFF7FEBFFFF7FEBFFFF7FEBFFFF7FEBF3F
:1055A000FFF7FEBFFFF7FEBFFFF7FEBFFFF7FEBF2F
:1055B000FFF7FEBFFFF7FEBFFFF7FEBFFFF7FEBF1F
:1055C000FFF7FEBFFFF7FEBFFFF7FEBFFFF7FEBF0F
:1055D000FFF7FEBFFFF7FEBFFFF7FEBFFFF7FEBFFF
:1055E000FFF7FEBFFFF7FEBFFFF7FEBFFFF7FEBFEF
:1055F000FFF7FEBFFFF7FEBFFFF7FEBFFFF7FEBFDF
:10560000FFF7FEBFFFF7FEBFFFF7FEBFFFF7FEBFCE
:10561000FFF7FEBFFFF7FEBFFFF7FEBFFFF7FEBFBE
:10562000FFF7FEBFFFF7FEBFFFF7FEBFFFF7FEBFAE
:10563000FFF7FEBFFFF7FEBFFFF7FEBFFFF7FEBF9E
:10564000FFF7FEBFFFF7FEBFFFF7FEBFFFF7FEBF8E
:10565000FFF7FEBFFFF7FEBFFFF7FEBFFFF7FEBF7E
:10566000FFF7FEBFFFF7FEBF020008DCFD000BAC3A
:105670001E0168FFFF0000AC1E01FEFC00010100DE
:10568000F0080001F9000010FC000924F4000101F9
:105690005735333030FB0017992E00089B2E000839
:1056A0009D2E00089F2E0008A12E0008A52E0008A0
:1056B000F8001B2455000824550008245500082430
:1056C000550008245500082455000824550008F802
:1056D000FF0B265500082455000824550008FAFF42
:1056E0001500000204010168040020B804002068CD
:1056F00004002068040020FC000368040020FC0073
:0B57000007E0000020CC000020E000CB
:040000050800551189
:00000001FF
