:020000040800F2
:10000000B80900203D4F0008C94D0008CB4D00083D
:10001000CD4D0008CF4D0008D14D00080000000074
:10002000000000000000000000000000D34D0008A8
:10003000D54D000800000000D74D0008D94D00083C
:10004000654F0008694F00086D4F0008714F0008A8
:10005000754F0008794F00087D4F0008814F000858
:10006000DD4D0008E34D0008854F0008894F00086A
:100070008D4F0008914F0008954F0008994F0008D8
:100080009D4F0008A14F0008E94D0008A54F00084A
:10009000A94F0008AD4F0008B14F0008EF4D000810
:1000A000B54F0008B94F0008BD4F0008C14F000808
:1000B000C54F0008C94F0008CD4F0008D14F0008B8
:1000C000D54F0008D94F0008DD4F0008E14F000868
:1000D000E54F0008E94F0008F54D0008ED4F000816
:1000E000FB4D0008F14F0008F54F0008F94F0008DC
:1000F000FD4F000801500008055000080950000895
:100100000D50000811500008155000081950000843
:100110001D500008215000082550000829500008F3
:10012000034E00082D5000083150000835500008DB
:10013000395000083D500008415000084550000863
:10014000495000084D500008515000085550000813
:10015000595000085D5000086150000865500008C3
:10016000695000086D500008715000087550000873
:10017000795000087D500008815000080000000000
:1001800085500008895000082DE9F0439FB000BF5A
:1001900065A6269CDFF8B48A8DF83B4002910024C6
:1001A0000B944FF0FF37044691461D460AE019F8BC
:1001B000011B0298A0470028029000F0A1800B9834
:1001C000401C0B9099F8000050B12528EFD1002178
:1001D0000022059106920791089209910A9203E084
:1001E0000B98A5E041F0010119F8010F2028F9D082
:1001F00023280CD02B2804D02D2805D0302809D056
:1002000080E041F00201EFE741F00401ECE741F04A
:100210000801E9E741F01001E6E70D920AE00D98C8
:10022000404505DA00EB800002EB4002303A0D92C7
:1002300009F1010999F80020A2F130000A28EED353
:1002400099F800002E2818BF0C9726D119F8010F35
:100250002A2808D12868286009F1010950F8042BE0
:1002600028600C9219E02D280CBF09F1010900202B
:1002700000220C920BE040B90C9A424505DA02EBE1
:10028000820203EB4203303B0C9309F1010999F818
:100290000030A3F130020A2AEDD3ADF83810304611
:1002A00099F8001000F086FE08B119F8010B8DF8DE
:1002B0003A009DF83A00682805D199F800006828AE
:1002C0000CD1622106E06C2804BF99F800006C286C
:1002D00004D171218DF83A1009F1010910A8049098
:1002E0002A4619F8013B6946204600F061F838B902
:1002F00010AA6946204600F08FF900287FF562AF0A
:10030000384615E02A2888D12A682A6052F8040B5A
:100310002A6000280D9003D540420D9041F0040161
:1003200009F101098CE70000686A6C747A4C0000DE
:100330001FB0BDE8F083622820D0682811D06A2859
:1003400003D06C2827D0712825D10868C01D20F063
:1003500007000860D0E900230830086019461046FD
:100360007047002A0A680A60106803D0121D0A60EC
:1003700000B217E0121D0A6080B217E0002A0A6876
:100380000A60106803D0121D0A6040B20AE0121D14
:100390000A60C0B20AE0002A0A680A60106803D046
:1003A000121D0A60C1177047121D0A6000217047B4
:1003B00070B51C460D46B4F125002E69114600F0BB
:1003C00019811C3868D0001F022865D9133842D023
:1003D000093861D0801E16D0401E1ED0401E022853
:1003E0005AD9001F19D0401F00F08180401E32D022
:1003F000401E00F0CB80C01E00F0DA80801E2AD0A4
:10040000C01E28D0FCE06869421C6A610A680A6064
:1004100052F8043B0A603354FCE095F83A0001229C
:10042000FFF789FFC5E90001002904D56869411C6F
:1004300069612D220DE0288F810704D56869411C70
:1004400069612B2205E0C00721D56869411C6961FB
:10045000202232541BE095F83A000022FFF76BFF90
:10046000C5E9000195F83800010710D5D5E900234A
:10047000002B08BF002A0AD044F02000782806D1BB
:10048000686930213154401C421C6A613454214651
:1004900068693044E86087E00868C01D20F0070004
:1004A0000860D0E9002308300860C5E90023D5E9D9
:1004B0000001C80F04D06869411C69612D220DE05C
:1004C000288F810704D56869411C69612B2205E0EA
:1004D000C00704D56869411C6961202232546869EB
:1004E0003044E8602146284600F0C4F992E005F166
:1004F0003A02507820B14FF0FF340FF6202062E02E
:100500001078622808D0682824D06A2812D06C2875
:100510002ED071280ED02BE00A680A6052F8040B26
:100520000A6020B94FF0FF340FF608204BE0E96A6B
:1005300001706FE00A680A6052F8040B0A6020B983
:100540004FF0FF340FF6EC103DE0EA6AD317C0E934
:1005500000235FE00A680A6052F8040B0A6020B9C1
:100560004FF0FF340FF6CC102DE0E96A018051E026
:100570000A680A6052F8040B0A6020B94FF0FF3491
:100580000FF6B0101FE0E96A016043E00A680A60F4
:1005900052F8040B0A60002120F0000221F0FF3322
:1005A000C5E90023EE607821284600F0BBF831E071
:1005B0000868086050F8044B0860EC603CB94FF0E4
:1005C000FF340FF6881000F001FD201A70BD2E6B6D
:1005D000002E04D5204600F019FD044608E03246FE
:1005E0000021204600F02EFD002814BF041B3446D5
:1005F000AC610FE06869411C69612522325409E051
:100600006969481C686125227254210002D0431C8C
:100610006B613454002070BD2DE9FC410F46064645
:1006200090467A6B7869396ABC6A121AB869521AAC
:10063000796A121AF869521A121A97F83800141BBC
:1006400041070FD42020002C8DF800000ADD25463C
:1006500001236A463946304600F048FC00285DD147
:100660006D1EF5D17B6942463946304600F03EFCAE
:10067000002853D130208DF800003D6A002D09DD9F
:1006800001236A463946304600F030FC002845D147
:100690006D1EF5D1BB69FA683946304600F026FC7C
:1006A00000283BD130208DF800007D6A002D08DD48
:1006B00001236A463946304600F018FC70BB6D1EB7
:1006C000F6D1F868B969FB6942183946304600F03E
:1006D0000DFC18BB30208DF80000BD6A002D08DD30
:1006E00001236A463946304600F000FCB0B96D1E61
:1006F000F6D197F8380041070DD52020002C8DF851
:10070000000008DD01236A463946304600F0EEFB62
:1007100020B9641EF6D10020BDE8F6814FF0FF300D
:10072000BDE8F6812DE9FC4307466F293E6908BF05
:10073000082405D041F02000782814BF0A24102492
:100740003C25D7E90023642918BF692990469946BA
:1007500005D1002B03D5D8F1000869EB4909B9F19F
:10076000000F08BFB8F1000F1FD1386BE8B9082C93
:100770004CD197F83800010748D530203B2586F842
:100780003B0043E000280ED597F8380000F0140035
:10079000102808D17B6B7969386A5B1A1B1A9A1A80
:1007A000002AC8BF3A62BDE8F3838DF800104046C6
:1007B00049462246E31700F071FC3032D0B26D1E7C
:1007C0003A28019504DB9DF80000A0F151018A1838
:1007D0007255404649462246E31700F05FFC8046CA
:1007E0005FEA010908BFB8F1000F03D0F86871197A
:1007F0008842DCD3082C09D197F83800010705D5C9
:10080000705D302802D06D1E30207055C5F13C025D
:10081000BA617119F960386B8242B3DA821A3A62AE
:100820004FF6EF70398F01403987BDE8F3832DE92A
:10083000D04306460F4614464FF00008DFF81094E8
:1008400012E0E00707D542464B463046394600F0F5
:10085000A9FC06460F464046494642464B4600F034
:10086000A1FC641080468946002CEAD13046394606
:10087000BDE8D0832DE9F84F05468A464AF02004AA
:100880008EB0D5E90089612C02AE09D0286B002812
:1008900048BF062003D408BF672C01D1012028637C
:1008A000D5E900014A005215521C0DD10B030BD0A3
:1008B000AAF1610103201A29A86102D20FF2A861EE
:1008C00010E00FF2A8610DE04A005215521C0ED143
:1008D0000B030CD1AAF1610103201A29A86116D3D8
:1008E0000FF29061E868032200F02EFDC0E1CDE92F
:1008F0000C01DDE90C2323F00043B3F5801F0DD27A
:100900000027002B08BF002A019703D111E00FF246
:100910006061E7E701AA00F06BFD0AE0CD48CE492F
:1009200000EB1350DDE90C2301900B40CB4910463E
:100930001943C5E90001612C0DD1E868302101702F
:10094000821CBAF1610FEA600CBF78215821417016
:100950006869801C6861D5E90001CDE90C01DDE919
:100960000C2333F0004104BF0028002300F048812D
:10097000612C40F0A080286B494600284CBF4FF006
:10098000210B00F1010B404600220023DDE90C8918
:1009900000F066FD01990BF1010738BF89F00049AD
:1009A000091F002F01918DF808200DF1090040F377
:1009B0003581A94900910646404649460022002358
:1009C00000F066FD80F029814800400D00F11C0216
:1009D00011D0002A0FDD40F2FF739A4205DBA049D7
:1009E00009F000400143002011E0009B194041EA5A
:1009F000025140460BE028F0000039F0004108BFEA
:100A000000280FBF49461C22494600F059FD804688
:100A1000894600F0F3FDFF1F002F044609DD00F0BA
:100A20000BFE02460B464046494600F017FE804644
:100A30008946F01D072104E004F00F0200F8012DA3
:100A40002411002C01DD491EF6D5491E5CBF002291
:100A500000F8012DF9D5DCE00020194602AA0A446D
:100A600000E05B1E12F80149491E8442F9D00F28AC
:100A700004D10DF10900425C521C4254002904D5F6
:100A80000198001D02AE5B1C0190581E0CD4311859
:100A9000AAF13A040A783032D7B23A2FA8BFA21886
:100AA000401E01F80129F5D5286B002840F1A780E8
:100AB000591E2963A3E001996A4A47F297504143BE
:100AC00091FBF2F2019229F00046D2F1070204DD17
:100AD00040463146FFF7ABFE0AE052420020624931
:100AE000FFF7A5FE02460B464046314600F028FEC1
:100AF0008046662C286B06BF019F0A3706273F18E1
:100B0000142FC8BF142730208DF8080089460DF136
:100B1000090000E03046002F34DD064640464946D5
:100B200000F032FF01460A4606F1080304200A26B7
:100B3000B2FBF6F606EB860EA2EB4E02303203F85D
:100B4000012C0A22B6FBF2F202EB820EA6EB4E0655
:100B50003036401E03F8026DE9D1083F002F03F143
:100B60000806D7DD084600F023FF02460B46404644
:100B7000494600F073FD00223C4B00F013FB804619
:100B80008946CBE70DF10901401A0DF1090604E091
:100B90000199491E401E0191761C31783029F7D009
:100BA000662C02D10199491C03E0652C0CBF012180
:100BB00000212B6BCB189842B8BF431E002B1ED4CC
:100BC000834204DAF05C3528A8BF392000DA3020EF
:100BD0001946721E02EB010800E05B1E18F801992D
:100BE000491E8145F9D0392802D1705C401C7054EF
:100BF000002904D50198401C16465B1C0190019801
:100C000000B200901BB232465146284600F034F83C
:100C10002EE0C61D002F3FF7CFAE30460DF1090183
:100C2000401A03465845C8BF5B46002B0DF1090624
:100C30003FF53AAF8342BFF60FAF0DF10900C15C3B
:100C400007297FF709AF0F2007E70000CBCCCC0CBA
:100C50000000244002FCFFFFFFFF0F800000E03F88
:100C60000000F07FA08601000000F03F84D797418C
:100C70000FB0BDE8F08F00002DE9F84783B00646BD
:100C80008A461746984600F0A1FEB8F1000F406A68
:100C9000356B90F8009002DC4FF00108B6A74AF0DF
:100CA0002000BDF93040662808BF641C15D06728B5
:100CB00040F0848014F1040FC0F28680AC4280F2D0
:100CC000838096F83800641C010702D4A845B8BF99
:100CD000454620B22D1A48BF00250FFA84FAF06865
:100CE000B169BAF1000F25DC4A1C30234354002DB2
:100CF00003DC96F83800010703D5F06800F802908D
:100D0000521C15EB0A0FB8BF6C4220B24419414285
:100D10004445B8BFA046B26171620FFA88F5F5612B
:100D2000F068B3692A463946184400F00DFB641B8D
:100D3000B462C4E022B29045084417DA424639460C
:100D400000F002FBB0694044B061AAEB0801002D3D
:100D5000716203DC96F838100A0705D5F16801F8CE
:100D60000090F069401CF061B562A8E0394600F0DF
:100D7000EBFAB069002D5044A8EB040803DC96F8A8
:100D800038100A0703D5F16801F80090401CB061E3
:100D90000FFA88F08542F368B069B8BFA8460FFA29
:100DA00088F207EB0A01184400F0CEFAB1690FFA95
:100DB00088F00144B161281A706280E0BAF1610FD5
:100DC00014D14FF0700A16E0A84504DA96F83810EE
:100DD0000A0758BF45466D1E48BF0025BAF1670F88
:100DE00014BF4FF0450A4FF0650A04E0BAF1410F15
:100DF00008BF4FF0500AB169F368481CB061002D7C
:100E000017F8012B5A5403DC96F838100A071BD543
:100E1000F168431CB36101F80090002D14DDA8F1C6
:100E200001080FFA88F039468542F768B8BFA8462E
:100E30000FFA88F2F81800F087FAB0690FFA88F113
:100E400008446D1AB0617562F068B1690844002CFD
:100E500080F800A003D42B224270811C03E02D21D6
:100E600041706442811C00206A460AE023460A243D
:100E700093FBF4F404EB8405A3EB450302F8013B78
:100E8000401C24B2002CF1DC012806DC4AF02002D0
:100E9000652A04BF302201F8012B48B9302001F83F
:100EA000010B07E0401E1DF80030303301F8013B14
:100EB0000028F7DCF268B0691044091AF16196F86D
:100EC000380000F0140010280DD17269B169706A01
:100ED0008A18F1698218B06A8A188218706B824287
:100EE000BCBF821A326204B0BDE8F087F8B505468F
:100EF0000E4617461C46002074B117F8011BB06857
:100F0000A847B06030B1F06A401CF0620020641E57
:100F1000F3D1F2BD4FF0FF30F2BD00007072696E88
:100F200074665F733A20256E20646973616C6C6F20
:100F3000776564007072696E74663A20626164203D
:100F4000256E20617267756D656E74007072696ED2
:100F500074665F733A206261642025732061726752
:100F6000756D656E740000006E616E004E414E003E
:100F7000696E6600494E4600300030B4002513E02B
:100F800050F8042BD30744BFA9F101039A18091F95
:100F9000042942F8045BFAD213468C0744BF15803B
:100FA0009B1CC90748BF1D7050F8041B0029E7D1DE
:100FB00030BC7047C9B202788A421AB11CBF10F81F
:100FC000012FF9E718BF00207047000080B500B975
:100FD00006A005490B681BB122220021984701E0B9
:100FE00000F0F8FC222002BDB4050020636F6E7390
:100FF000747261696E742068616E646C65723A2007
:10100000626164206D6573736167650000F10103BF
:10101000810704D010F8011B820781B1FAD1026860
:10102000A2F10131914311F0803104BF50F8042F37
:10103000F6E709BAB1FA81F100EBD100401CC01A01
:1010400070470000C9B2830706D0521E22D310F8A1
:10105000013B9942F7D11FE0083A13D302F1040291
:1010600041EA012141EA014150F8043B121F21BF2E
:101070004B40A3F1013C2CEA030C1CF0803FF3D061
:10108000C9B2001F083210F8013B521E28BF91EA76
:10109000030FF8D818BF0120401E7047D3BBD9B149
:1010A000B2F5803F5BD2022A1ED98C46B1FBF2F129
:1010B00002FB11C31B0443EA1043B3FBF2FC02FB27
:1010C0001C3380B240EA0343B3FBF2F002FB103260
:1010D00040EA0C4000237047022A05D98446B0FB41
:1010E000F2F002FB10C270474AB105D100F00102D4
:1010F00049085FEA3000704700220023704700F083
:101100006DBC0B000200002100207047F7D30022C5
:1011100000237047904271EB030CF2D370B5B1FA23
:1011200081F4B3FA83F52C1BA340C4F1200532FAF5
:1011300005F63343A2405FF00046E64002E05B085C
:101140005FEA3202841A71EB030524BF2046294668
:101150007641F4D302000B003000002170BD70B561
:10116000B1FA81F4B2FA82F5C4F120046419B4F141
:101170002006DAD3B2405FF00044F440002502E0DC
:1011800052085FEA3303C61A71EB020E24BF3046E1
:10119000714664416D41F3D302000B002000290029
:1011A00070BD0000B0B581EA030C0CF0004C40F2B9
:1011B000FF7515EA11541DBF15EA1357AC42AF4233
:1011C00039E0E41923EA455343F48013C90241F09E
:1011D000004141EA505EC7021100A7FB020200284D
:1011E0004FF00000EEFB01204FF00001E3FB072170
:1011F00018BF42F00102401800214941E3FB0E01F3
:10120000A4F580640F0302D252004041494154F1D9
:1012100001046CDD470872F1004250F1000051EB0F
:101220000451A1F580115CBF41EA0C01B0BD4CEA4C
:1012300005510020B0BD05EA1357AC4214BFAF42C0
:1012400041E050EA410E1CBF52EA430E02E0614603
:101250000020B0BD24423C441BD15FEA070EF6D00B
:10126000090302BF01460020AEF1140EB1FA81F766
:10127000AEEB070401FA07FE0C37C7F1200100FAB4
:1012800007F7C8404EEA000E23EA455343F48013A3
:10129000A2E733F00043B3FA83F704BFB2FA82FE49
:1012A00077440B3FE41BB7F1200E2FBF02FA0EF379
:1012B000BB40C7F1200E22FA0EFE38BF43EA0E03F0
:1012C000BA40641C82E750EA410E14BF52EA430E52
:1012D0006FF000014FF4001717EB430F8ABF194658
:1012E00017EB410FB5E74CEA05510020B0BDD4F132
:1012F0000104B4F120070FDAC4F12007520828BF17
:1013000042F0010210FA07F501FA07F7E1BF2A439C
:10131000E0403843E1400FE0352C98DCC7F1200471
:1013200052EA400220FA07F218BF42F0010231FAF5
:1013300007F0A1400A43002172F1004250F1000081
:1013400051EB0C01B0BD000062B38B0708D0521EF8
:1013500011F8013B00F8013B00F024808B07F6D127
:10136000830740F0208000BF103A07D330B4B1E8C3
:101370003810103AA0E83810F9D230BC530724BF17
:10138000B1E80810A0E8081044BF51F8043B40F849
:10139000043BD20724BF31F8022B20F8022B44BFB4
:1013A0000B7803707047121F17D35B0009D151F8F7
:1013B000043B20F8023B1B0C121F20F8023BF6D224
:1013C0000BE051F8043B00F8013B1B0A20F8023BFC
:1013D0001B0C121F00F8013BF3D238BF121D521E26
:1013E00024BF11F8013B00F8013BF8D8704700001A
:1013F00010B5144600F002F8226010BDC1F30A5384
:1014000043B14A0012F5001F28D2A3F2FE32A1EB2D
:101410000251704750EA410C20D001F0004C31EAF3
:101420000C01B1FA81F204BFB0FA80F3D2180B3A82
:10143000B2F120032CBF00FA03F1914041EA0C0104
:101440003EBFC2F1200C20FA0CF3194390405242E7
:1014500040F2FD33D21A01EB03517047002270476E
:101460004FF4001C1CEB410F94BF1CEB430F09E031
:1014700041EA030C50EA4C0C52EA0C0C03D299429C
:1014800008BF9042704714BF8B42824270470000F1
:101490004FF4001C1CEB410F94BF1CEB430F09E001
:1014A00041EA030C50EA4C0C52EA0C0C03D28B427A
:1014B00008BF8242704714BF9942904270470000B3
:1014C000124254D440F2FF7C1CEA11530FD0634502
:1014D00031D09B1863453CBF01EB0251704701F0CE
:1014E000004141EA0C510020AFF30080704750EA00
:1014F000410320D001F0004C91EA0C011CD0B1FA5C
:1015000081F30B3B9A420DD9D21A994051EA0C0152
:10151000C3F1200C20FA0CFC61449840531C40F2AB
:10152000FF7CD7E7914041EA0C01C2F1200C20FA80
:101530000CF3194390407047B0FA80F31533202B19
:10154000E0D3202AEED3203A203B9A4209D9D21A7E
:1015500000FA03F141EA0C010020531C40F2FF7C29
:10156000B8E700FA02F141EA0C010020704752424C
:1015700040F2FF7C1CEA11530DD06345DBD0B2EB87
:10158000030C3CBFA1EB025170470CF1010221EAB0
:10159000035141F4801150EA410CCCD001F0004CD1
:1015A000352A27DC30B481EA0C01B2F1200309DAD4
:1015B000C2F12003044601FA03F5D0402843D1408C
:1015C0009C400CE0C3F12002450020FA03F418BF50
:1015D00044F0010421FA03F091400C43002174F11E
:1015E000004550F1000051EB0C01244230BC7FF467
:1015F0007BAF70476146002076E70000C1F30A53D5
:1016000040F2FE329B1A14DDD3F120034FEAE1725F
:1016100008DDC90241EA505141F00040D84080182D
:101620005040704703F2E13010B1D24382F00040E5
:101630007047002070470000C11768B14840401A49
:10164000B0FA80F29040D21CC907C2F5846241EA28
:10165000025202EBD02140057047000070B44FF0F9
:10166000004591EA030F40F1C3816B40841A71EB8E
:10167000030603D2001BB141121973414FF4001C41
:101680001CEB410F34BF7CEB430442E00C0DA4EB98
:101690001356352E4FDC45EAC323DB0A45EAC12148
:1016A000C912B6F120050DDD63FA05F6EB4086EAB6
:1016B0000305124218BF45F00105C01851F10001A1
:1016C0000CD213E062FA06F5F2405540F3415A405D
:1016D000B340F3405A408018594107D349085FEAA4
:1016E00030005FEA350528BF45F0010501F580119E
:1016F000420875F1004250F1000041EB04514E00E8
:1017000016F5001F70BC38BF70470020090D090591
:1017100070471CEB410F10D252EA43060BD0BCEBD2
:10172000410F05D80C0DAB43661E342EB6DD02E02A
:10173000AB438018594170BC704770BC70470000C3
:10174000F0B540F2FF7581EA030C0CF0004C15EA8D
:1017500011541DBF15EA1357AC42AF42E5E0BC413E
:10176000C1F31301C3F31303801A994143F48013A7
:1017700004D2641E4000494180185941C90241EA1F
:101780005051B1FBF3F603FB1611A2FB0675D7EB24
:10179000C020A94102D2761E80185941C90241EAEF
:1017A0005051B1FBF3FE03FB1E11A2FB0E75D7EBEC
:1017B000C020A94103D2AEF1010E8018594189021F
:1017C00041EA9051760546EA8E2EB1FBF3F603FB13
:1017D0001611A2FB0675D7EB8020A94102D2761E16
:1017E00080185941C90241EA50514EEA060EB1FB38
:1017F000F3F603FB1611A2FB0675D7EBC020A94137
:1018000002D2761E80185941C90241EA5051B1FBFB
:10181000F3F703FB1711A2FB0735D3EBC020A94157
:1018200067F100070CBF004247F0010766F3D527B8
:101830004FEA1E31B80814F5806412DDBD0775F15A
:10184000004250EB0E5051EB045111F5801F5CBF6C
:1018500041EA0C01F0BD4CF07F6141F0E041002015
:10186000F0BDBD076D0840EA0E5041F48011D4F17F
:101870000104B4F120060ADAC4F120060200E040B7
:1018800001FA06F3E1401843B24015430EE0342C50
:1018900013DCC6F1200445EA40056D0820FA06F283
:1018A000154321FA06F0A1400D43002175F10042D5
:1018B00050F1000051EB0C01F0BD00205FEA0C017B
:1018C000F0BDCFB992185B41B3FA83F704BFB2FA07
:1018D00082F6BF190B3FB7F120062FBF02FA06F3BD
:1018E000BB40C7F1200622FA06F638BF3343BA40A0
:1018F0001CB1E419641E33E77F4231F00041B1FAB4
:1019000081F404BFB0FA80F6A4190B3CB4F12006B0
:101910002FBF00FA06F1A140C4F1200620FA06F616
:1019200038BF3143A0403C1B1AE7AC421ABF05EA5E
:101930001357AF4212E050EA41061CBF52EA430679
:10194000BFE750EA4107304661461CBF41EA0551F6
:10195000F0BD52EA430C08BFC143F0BD00204FF474
:10196000001616EB410F98BF16EB430F08BF16EB9E
:10197000410F24BFC14305E016EB430F0CBF614686
:101980004CEA0551F0BD0000400D491840EA8120A5
:101990000CD2490DA1F58061491C40F0004005DBE7
:1019A000D1F11F0154BFC840C017704700207047D5
:1019B000014648B1B0FA80F18840C91CC1F5846184
:1019C000090501EBD0214005704700000048704731
:1019D00010000020012000F0C1B800007047000096
:1019E00070B44FF0004591EA030F7FF53FAE6B40B6
:1019F000841A71EB030604D26E40001BB141121928
:101A000073414FF4001C1CEB410F34BF7CEB4306C9
:101A100083E00C0DA4EB1356362E00F37C80012ED0
:101A200045EAC32341DC43EA525312BFD202920279
:101A30005B08240545EAC12141EA5051D2EBC020A0
:101A4000994125D407D1B0FA80F610FA06F162D098
:101A50000020203608E0B1FA81F6B140C6F120023C
:101A600020FA02F21143B0404FEAF474B4EB46544A
:101A700034F001064FEA74040AD8D6F50016760D44
:101A800004F00044F04061FA06F25040F140484052
:101A9000C00A40EA415021F0004128BF5FEA5005EA
:101AA00050F1000044EBD12135E0DB0A45EAC121C9
:101AB000C90AB6F120050EDD42EA0242120CC5F158
:101AC000200603FA06F6EB4042EA06056D4298410D
:101AD00061F100010DE062FA06F5F240554063FA4B
:101AE00006FC82EA0C02F3405A406D42904161EBE1
:101AF000030111F4801F05D1641E620502D06D0040
:101B00004041494121F48011430875F1004350F1EF
:101B1000000041EB045170BC70471CEB410F15D223
:101B200023F0004352EA43060BD04FEA4C0CBCEBC7
:101B3000410F04D80C0D661E342EB7DDEBE7801A7A
:101B4000994150EA410608BF0021E4E708BF1CEBB9
:101B5000430F28BF6FF00001DDE7000080B5AFF351
:101B60000080024A11001820ABBEFBE726000200ED
:101B700001B5012301226946DFF8E40700F093FC78
:101B8000009802BD38B5DFF8DC47204601F081F946
:101B9000DFF8D4170A7801EB8205521CA864D0B292
:101BA000072802DB0120002248700A702046BDE8A9
:101BB000324000F09BBF00002DE9F0472DED088B6F
:101BC0008EB001F0D5FA00F034FA00F0EEFA002001
:101BD00000900022DFF89407DFF894570168DFF8DF
:101BE000948741F4800101600021006800F48000C6
:101BF000009005F1A8060098382001F0EDFA382091
:101C000001F007FBDFF8700770654FF48049002092
:101C1000F0653066B066F06630677067C6F8588069
:101C2000C6F8649005F1FC0001F01EFB08B100F05D
:101C3000ECFB05F5A874DFF84407206000210C20B8
:101C400060614FF4E13AA160E1602161A161E1616D
:101C5000C4F804A0204600F0EBFB08B100F0D5FB6F
:101C6000DFF81C07606400210C20A065E164216599
:101C70006165E1652166C4F848A005F5CA7000F009
:101C8000D7FB08B100F0C1FB05F5EC77DFF8F406EF
:101C900000F0C1F908B100F0B8FBDFF8CC46DFF87E
:101CA000E806606000210C20A061E16021616161B3
:101CB000E1612162C4F808A0201D00F0B9FB08B161
:101CC00000F0A3FBDFF8C4067864C7F848A0002141
:101CD000F964396579650C20B865F965396605F5EB
:101CE000077000F0A5FB08B100F08FFB05F5187731
:101CF000DFF89C0600F08FF908B100F086FBDFF8F2
:101D0000940628654FF4827169650020A86500215A
:101D10002866E9656966E96629676967A9674FF416
:101D20000070A8660A21E96705F1500001F044FB44
:101D300008B100F06AFBDFF8600630600021B16096
:101D4000F1607161B161F1613162C6F80480C6F879
:101D50001090304601F088FA08B100F056FB09A84F
:101D6000102101F08DFB0FF2B8601C21D0E900605A
:101D7000CDE9006040F2E73802A801F081FBDFF80E
:101D80001C06786440F2CF76BE640020F864C7F881
:101D900050807865F86505F5297A504601F074FBA6
:101DA00008B100F032FB4FF48059CDF8249009A916
:101DB000504601F001FC08B100F027FB504601F04D
:101DC00083FB08B100F021FB0021009101915046F6
:101DD000694601F09BFD08B100F017FB60210291FC
:101DE00040F283370397002104910691082200F006
:101DF00001F908B100F009FB0C2200F0FBF808B172
:101E000000F003FB504601F032FF00F0F7F84FF00E
:101E10002040DFF88C15286069600222AA6000204B
:101E20000021E8602961A9612962E9626963696446
:101E30000322029210200F21686101911022049266
:101E400000201121E86168622863A8630090039074
:101E5000059100220692C5F828906946284602F0AE
:101E6000D7F808B100F0D1FA00F0C8F805F53B79D1
:101E7000DFF83005C9F848000021C9F85010C9F84A
:101E80005810C9F8601005F54D7AC9F84C60C9F8CA
:101E90005480504601F0F8FA08B100F0B6FA504606
:101EA00001F012FB08B100F0B0FA00F0ABF800F05E
:101EB000A2F808B100F0A9FA504601F0D8FE00F0EF
:101EC0009DF805F55F75DFF8E00428600021A96042
:101ED0002961A9616E60C5F80C80284601F0D4FA2A
:101EE00008B100F092FA284601F0EEFA08B100F0CD
:101EF0008CFA00F087F8284601F0FCFA08B100F0EF
:101F000084FA284601F0B3FE0FF21C52DFF89C342D
:101F1000D2E90001CDE9000143F67F620020C9F853
:101F20000800C9F81800C9F80030C9F80420C9F839
:101F30000C80484601F0A8FA08B100F066FA0021CA
:101F4000009101914846694601F0E0FC08B100F0BB
:101F50005CFA00F0B9F80FF2B846DFF808749FEDAC
:101F6000888B9FED899B9FED8AAB9FED8BBB0622F3
:101F700004F14801384600F0EFFE94ED120AB8EE85
:101F8000400A10EE100A02F06FF802460B4651ECC0
:101F90001B0BFFF707F902460B4651EC1A0BFFF734
:101FA00001F902F085F802F05FF802460B4651ECA9
:101FB000190BFFF715FDDFF8F823DFF8F833FFF70B
:101FC000BFFB02460B4651EC180BFFF709FD02F070
:101FD0006FF800EE100A85ED120A02F045F802468D
:101FE0000B46304602F098F800206070642002F042
:101FF000A7F8BCE702A9504601F07CBA68461C214C
:1020000001F03EBA60210091019700210291002267
:102010000492694670473860C7F804A00021B9608F
:10202000F96039610C207861B961F961384600F0D6
:10203000FFB980B592B006A8302101F021FA01A8BD
:10204000142101F01DFA00200090DB48016841F0E6
:10205000805101600021006800F0805000900098DD
:10206000D64800910221026842F4804202600122B7
:10207000006800F4804000900098069109921021B9
:102080000A91022200210C920D91082240210E9209
:102090000F91022204211092119106A802F064F817
:1020A00008B100F0B2F9022102910F2001909022B4
:1020B000002103920491059101A802F0EDF908B105
:1020C00000F0A3F913B000BD38B584B06846102104
:1020D00001F0D6F900200021A24CB94D6060A1604A
:1020E0000120206184F82000606221760020E062F7
:1020F000E0600120B349A16284F8300006216061EC
:10210000E1612560204600F0C9FC08B100F07DF9CE
:1021100010200121009001910022029200F041F86C
:1021200008B100F072F906210091022200F038F89F
:1021300008B100F06AF907210091032200F030F89D
:1021400008B100F062F90A210091042200F028F899
:1021500008B100F05AF90F210091052200F020F893
:1021600008B100F052F9062100910191204669461C
:1021700000F092FE08B100F048F905B030BD000053
:10218000000000000000394052B81E85EB51E8BF46
:10219000000000000000303F6666666666660A4022
:1021A00001926946204600F077BE2DE9F84386B0DB
:1021B0006846142101F064F900246C48824D834E76
:1021C000DFF80C92DFF80C8205944FF48817016851
:1021D000814C41F010010160026802F0100205928A
:1021E000002205990592036843F004030360016827
:1021F00001F0040100F0F4F843F0200303600168EB
:1022000001F0200100F0ECF843F080030360016866
:1022100001F0800100F0E4F843F00103036001687D
:1022200001F0010100F0DCF843F0400303600168B5
:1022300001F0400100F0D4F843F0020303600168AC
:1022400001F002010591059905924FF46041036880
:1022500043F008030360006800F00800059005984B
:10226000204602F0CEFA00224FF48051284602F0B8
:10227000C8FA00224FF4C051304602F0C2FA0122DF
:102280004FF40061484602F0BCFA002203214046A8
:1022900002F0B7FA242000900197002102914046F5
:1022A00000F0A8F84FF4604100F0A7F8204602F0D3
:1022B000C9F9032100F099F8304600F09BF84FF47B
:1022C0008051009101220192002102910391284640
:1022D00000F090F84FF4C05100F08FF8304602F053
:1022E000B1F9082100F081F869463C4802F0AAF9EA
:1022F0004FF4006100F081F8484602F0A3F94FF472
:10230000005100F072F8484600F074F8032100F024
:1023100074F8404602F096F900220021082000F0EF
:102320005BFF082000F075FF00220021092000F06B
:1023300053FF092000F06DFF00220021172000F05C
:102340004BFF172000F065FF00220021282000F03D
:1023500043FF282000F05DFF07B0BDE8F0830000D8
:10236000BC04002068050020B8040020303802407A
:1023700090000020A0860100005C0040004C00405E
:102380000050004000100140004400400048004060
:102390000014014000380040005400400008004094
:1023A000040100A0001C004000200040001000407C
:1023B0007B14AE47E17A643F403802400070004031
:1023C000002001400100000F000402400000024014
:1023D000001802400010024000080240000C0240B9
:1023E00005910599059203687047009101970021B6
:1023F00002917047694602F025B90091012200213F
:102400000291039101926946704772B6FEE700009F
:1024100074656D70203A2025352E3166200D0A0036
:1024200000000000000000000000000000000000AC
:1024300038B5040001D1012032BD00F017F808B909
:1024400000F018F800F01BF800F023F8FFE74161F6
:1024500000F001F832BD2068C16841F40051C1604C
:102460000020686020216970A970704704F13C0564
:102470006878704700212970204601F049BC24206B
:1024800068702068C16821F40051C160204600F0E6
:10249000A0BA2068016921F4904101612068416976
:1024A00021F02A0170472DE9F843054605F13C0665
:1024B0000C46707820281746994642D10CB1380056
:1024C00001D101203EE0307801283AD0012131705D
:1024D000002070602122727002F0BAF9AF84804649
:1024E000EF84A868B0F5805F04BF286900280EBF9C
:1024F0002746204600270021317004460EE014F8DC
:10250000012B426007E02868002CF8D137F8021B45
:10251000C1F308014160E88C411EE9844346E88C20
:10252000CDF8009000280FD000228021284600F02E
:102530006DF90028E7D0032004E02020707000200F
:1025400000E00220BDE8F28300224021284600F08E
:102550005DF90028F1D0EEE7206800F1140151E8A0
:10256000001F00F1140221F0400142E80010002891
:1025700070477CB5044621680B68CD684A6913F042
:102580000F0007D1980661D5AA065FD52046BDE8A1
:102590007640BBE1D00702D415F4907F56D0D8071F
:1025A00005D5E90503D5206C40F0010020645807EB
:1025B00005D5D10703D5206C40F0020020649807B0
:1025C00005D5D10703D5206C40F00400206418071E
:1025D00007D5A90601D4D00703D5216C41F0080125
:1025E0002164206C002830D0980604D5A90644BF89
:1025F000204600F08BF920684069216C0A0701D45D
:1026000040061DD5204600F04BF920684169480678
:1026100011D5FFF7A1FFFCD1A06B60B10FF2E12152
:102620000165A06B02F005FA00280ED0A06B016DC9
:10263000BDE87C4008472046BDE8764002F00CBB70
:10264000204602F009FB0020206473BD206B0128A6
:1026500004F13D0240F07D80D8067AD5EE0678D5AB
:10266000002300930D6800954B680093009849691A
:1026700048063CD5A16B0868406880B20028E4D0C9
:10268000A38D9842E1DAE085C869B0F5807F2AD051
:10269000206800F10C0151E8001F00F10C0321F447
:1026A000807143E800100028F2D100F094F8490846
:1026B00000F11403490043E800100028F5D100F0B0
:1026C0008AF800F1140321F0400143E800100028CB
:1026D000F5D1202050700021216300F08AF8FCD150
:1026E000A06B02F063F9A18DE08D091A2BE0A08D9B
:1026F000E18D411AE08D00281CBF88B2002863D00C
:10270000206800F10C0353E8003F00F10C0523F4AE
:10271000907345E800300028F2D1206800F055F8A9
:1027200000F114055B0045E800300028F5D12020B9
:1027300050700022226300F054F822F0100243E8A7
:1027400000200028F7D12046BDE87C4089B202F085
:1027500084BA180629D52E0627D51078212833D11A
:10276000A068B0F5805F04BF2069002808D1206A06
:102770000288C2F308024A60206A811C216204E0D8
:10278000206A421C226200784860E08C401EE0848F
:1027900080B2C8B92068C16821F08001C16020689A
:1027A000C16841F04001C16073BD58060CD56B068D
:1027B0000AD5C86820F04000C8602021117020466A
:1027C000BDE8764002F04ABA73BD00F1140353E845
:1027D000003F5B087047206800F1140151E8001FBA
:1027E0007047206800F10C0252E8002F00F10C0342
:1027F0007047206800F10C0151E8001F00F10C0245
:1028000021F0100142E80010002870472DE9F04146
:10281000069C05460E4690461F46286801683140D2
:10282000B1420CBF0120002040451BD114F1010F23
:10283000F3D024B102F00CF8C01B8442EDD200F0BA
:1028400027F821F4D07100F012F8F8D100F013F855
:10285000FCD105F13C002021417081700021017004
:10286000032000E00020BDE8F08121F4F07142E88F
:10287000001000287047286800F1140151E8001F7B
:10288000490800F11402490042E80010002870478E
:10289000286800F10C0151E8001F00F10C0270479C
:1028A000016801F10C0252E8002F01F10C0322F43F
:1028B000907243E800210029F2D1016801F114026D
:1028C00052E8002F520801F11403520043E800219E
:1028D0000029F2D1016B01290CD1016801F10C0230
:1028E00052E8002F01F10C0322F0100243E800210E
:1028F0000029F2D1202180F83E10002202637047A7
:10290000806B0021C185C18402F0A6B91CB590F886
:102910003E1022295BD18168826AB1F5805F0AD1BD
:10292000016969B903685968C1F308011180826AB5
:10293000911C81620FE0002904BF0169002902D1C6
:102940000368596803E00168496801F07F0111706C
:10295000816A4A1C8262C18D491EC18589B2A1BBB0
:102960000168CA6822F02002CA600168CA6822F4BD
:102970008072CA6001684A69520852004A61202187
:1029800080F83E10026B012A1DD10021016301680D
:1029900001F10C0252E8002F01F10C0322F01002A9
:1029A00043E800210029F2D102681168CB0606D560
:1029B0000024009413680093526800920099818D5E
:1029C00002F04BF901E002F04AF9002016BD0220A6
:1029D00016BD70B5044622681169E06821F44051C3
:1029E00001431161D3682748A168034020690B4364
:1029F00061690343E0690B430343D3605169A069F4
:102A000021F44071014351611F498A421CBF1F4894
:102A1000824202D101F0CEFD01E001F0C3FD626807
:102A20002568E46964261921B4F5004FA1FB000173
:102A300012D1D30F5200FEF731FB00F029F8F60057
:102A400032366420B6FBF0F0420002F4F87202EB7A
:102A5000011200F0070010E0930F9200FEF71EFB3A
:102A600000F016F8360132366420B6FBF0F000F0C4
:102A7000F00202EB011200F00F008018A86070BD98
:102A800000000000F369FFFF001001400014014046
:102A90006421B0FBF1F106FB1106704770B50446E6
:102AA00000250CB9012070BD04F13C06706820B906
:102AB000204600F08CFFB56035707068C10610D4F8
:102AC000706820F4885040F002007060204600F0EA
:102AD0007DFAB560716821F0020141F00101716079
:102AE00000E0012500203070284670BD38B500F0A8
:102AF0007CF801D1022032BD00F07FF839D500F01A
:102B000055F846BF906820F00600002000F035F828
:102B100018600868426842F0806242F02002426019
:102B2000DFF8A42500F055F818D188420FD0DFF85F
:102B30009C15884204D1126812F01F0F1BD106E0C9
:102B4000DFF88C15884216D100F022F813D2816884
:102B500011F0405F0FD100F016F80CE0884202BF80
:102B6000DFF87005016811F0405F04D100F038F81B
:102B700001E000F012F8002032BD906000241470D3
:102B80006FF022007047816841F08041816070479A
:102B9000126802F01F02102A7047506840F01000BF
:102BA0005060906840F00100906070475568DFF811
:102BB0002805054045F4807555605868440505D5DD
:102BC000506820F4005040F4805050605068C404B5
:102BD000704708681368DFF8041513F01F0F70477B
:102BE000016841F08041016070470146002001F119
:102BF0003C0200901378012B704701201070086888
:102C00008368DC0714D48368DFF8D44443F00103FD
:102C10008360DFF8D0040368B3FBF4F404EB4404EE
:102C2000009402E00098401E009000980028F9D11E
:102C30000B689868C407704770B5044621680D6832
:102C40004E68A80729D5B20627D5206CC20603D442
:102C5000206C40F400702064886810F0405F04BF6E
:102C6000207E002812D1C86A10F4700F02D0886844
:102C700042050BD4486820F020004860206C20F406
:102C800080702064206CC10400F060F82046FEF7DC
:102C900079FF21686FF012000860680731D53106AE
:102CA0002FD5206CC10603D4206C40F40050206462
:102CB0002168886810F4401F1CD1886B10F4401FF5
:102CC00002D08868420515D44868420512D4886845
:102CD00010F0405F04BF207E00280BD1486820F030
:102CE00080004860206C20F480502064206CC10576
:102CF00000F02CF8204601F0B3FF21686FF00C00C3
:102D00000860E80710D571060ED520680268D10763
:102D10000AD5206C40F480302064204601F0A1FFE9
:102D200021686FF001000860A8060ED571010CD56E
:102D3000606C40F0020060646FF020052068056060
:102D4000204601F08FFF21680D6070BD03D4206C18
:102D500040F0010020647047F8B50446002004F1FB
:102D60003C0300901D78012D01D10220F2BD01200D
:102D7000187020688568EE070FD48568DFF86063F7
:102D800045F001058560DFF85C030568B5FBF6F6E4
:102D900006EB4606009600F011F920688568EE05FE
:102DA00003D5856825F4807585602568A868C60701
:102DB00065D55F68DFF82003074047F480775F60E0
:102DC0006868450505D5586820F4005040F48050E7
:102DD00058605868C50446BF986820F00600002077
:102DE000986000251D70A36B0FF20130D863A36BB0
:102DF0000FF261301864A36B0FF26130D8646FF08A
:102E00002200256828602068436843F0806343609F
:102E100013462068856845F4807585600A462068F9
:102E200000F14C01A06B01F090FD2068DFF89822C2
:102E3000DFF8A812136813F01F0F16D188420DD0C7
:102E4000A249884204D1126812F01F0F1FD105E079
:102E50009F4988421BD1FFF79BFE18D2816811F071
:102E6000405F14D1FFF78FFE11E0884202BF9948FE
:102E7000016811F0405F0AD1FFF7B2FE07E0586821
:102E800040F010005860986840F001009860002001
:102E9000F2BD0068C06C704778B502460020009013
:102EA00092F83C30012B01D1022072BD012082F842
:102EB0003C0007240B6810680A2B11D30A3BC56835
:102EC00003EB430300F076F8C460C3680D688C68B8
:102ED000A5F10A0606EB4606B4402343C3600FE0A3
:102EE000056903EB430304FA03F325EA03030361D3
:102EF00003690D688C6805EB4505AC40234303610D
:102F00001F244B68072B0CD25B1E456B00F050F85A
:102F10004463436B4D680C886E1E00F044F84363B5
:102F20001BE00D2B0CD2DB1F056B00F041F8046396
:102F3000036B4D680C88EE1F00F035F803630CE05E
:102F40000D3BC56A00F034F8C462C36A4D680C8852
:102F5000A5F10D0600F027F8C362604B98421DD121
:102F60000C685948122C03D1036843F480030360B2
:102F70000B68102B18BF112B10D1036843F400030A
:102F800003600868102809D15649554C0B68B3FBFB
:102F9000F4F40A204443009400F010F8002182F871
:102FA0003C10002072BD06EB8606B44023437047F8
:102FB00003EB83039C4025EA0404704702E0009879
:102FC000401E009000980028F9D170473E4A1168D1
:102FD00021F440311160136841680B4313600268AB
:102FE000536823F4807353605168036941EA0321F5
:102FF0005160516821F040715160536881680B4302
:103000005360936823F4006393609368C1680B4333
:1030100093603549836A8B4210D0936823F07063C4
:1030200093609368816A0B439360936823F04053E5
:1030300093609368C16A0B43936007E0916821F045
:1030400070619160916821F040519160916821F028
:10305000020191609168037E41EA4301916090F81A
:103060002010002951680CD041F400615160516872
:1030700021F4604151605168436A5B1E41EA43316B
:1030800001E021F400615160D16A21F47001D16244
:10309000D16AC3695B1E41EA0351D162916821F490
:1030A00000719160916890F8303041EA432191605D
:1030B000916821F4806191609168406941EA8021C2
:1030C000916070470000000004230140002101408E
:1030D0000022014008200140FEF9FFFF00200140CE
:1030E00040420F000C0000200100000F816B0A6CB1
:1030F00012F0500F24D1086C40F4007008640A6884
:10310000906810F0405F04BF087E002815D1D06A97
:1031100010F4700F02D0906843050ED4506820F070
:1031200020005060086C20F480700864086CC204B1
:1031300003D4086C40F0010008640846FEF722BD85
:103140000A6CD30644BF084601F08CBD896BCA6C7B
:1031500010470000806B01F086BD0000806B4021AD
:103160000164426C42F00402426401F07BBD000045
:1031700080B50B48016841F400710160026842F4B7
:1031800080620260016841F480710160032000F0F8
:1031900016F8002001F068FD00F0FEFB002002BDE3
:1031A000003C02400901020002D4294881547047C2
:1031B000284B02F00F021A4402F8041C7047264BF9
:1031C00019684FF6FF020002114000F4E060084366
:1031D000224908431860704738B51F4B1C68C4F378
:1031E0000223C3F10704052C28BF04241D1D072D4D
:1031F00034BF0023DB1E012505FA04F4641E2140C0
:10320000994005FA03F35B1E1A401143BDE83440B0
:10321000C8E7010007D4012200F01F01104B8A40CB
:10322000400943F82020704710B5401EB0F1807F60
:1032300001D3012010BD0B4C60600F214FF0FF3017
:10324000FFF7B0FF0021A16007202060002010BD23
:1032500000E400E018ED00E00CED00E00000FA05ED
:1032600000E100E010E000E0F8B5040025D004F132
:103270003C05697821B900202870204600F00FFC39
:103280002421697020680268520852000260206898
:10329000016841F4004101602068026822F40042A4
:1032A000026001F07FF901466068DFF8F420904287
:1032B00005D2DFF8F030994205D20120F2BDDFF8E7
:1032C000E8008142F9D32068DFF8E0304668B1FBBE
:1032D000F3F3B60943EA861646602668376A6068E3
:1032E000904206D34FF4967043434FF47A70B3FB89
:1032F000F0F35B1CBF0943EA87133362491E23685E
:10330000DE696768974206D27F0000F043F804291F
:1033100013D2042111E0A06820B907EB470700F0A1
:1033200039F805E01920474300F034F841F48041B2
:1033300008050CBF012141F40041DFF8740006408C
:103340000E43DE6122681368E169206A23F0C0033E
:103350000B43034313602268DFF858009368216928
:103360000340E0680B43034393602168CA68A36984
:103370006069120A034343EA0222CA6020680168B6
:1033800041F0010101600020686020216970206324
:10339000A870F2BDB1FBF7F1491CC1F30B017047F6
:1033A000A186010080841E0000093D0040420F00FC
:1033B0000030FFFF007CFFFF38B5040001D1012081
:1033C00032BD606A28B900F051F805D00021E161F2
:1033D00002E00020206160610020A06204F150053D
:1033E000687820B900212970204600F0C6FB022031
:1033F000687000F03FF86068A168E26800F48270CD
:1034000001F404410843217C02F400621043227D50
:1034100001F002010843A16902F001021043227F7A
:1034200001F40071084394F8201002F038021043B0
:10343000A26A01F080010843216802F4005210439F
:103440000860A06994F824102268000C00F00400C1
:1034500001F01001084350602068C16921F4006147
:10346000C161002068600121697032BD6068B0F5FB
:10347000827F70472068016821F040010160704739
:10348000002201F011BC000038B5040001D1012078
:1034900032BD00F026F818B900F0ECF800F0A8FBF7
:1034A000FFE702206870211D206800F0E7F8012086
:1034B000A872A870E87028716871A871E871287204
:1034C00068726870002032BD38B5040001D1012057
:1034D00032BD00F006F818B900F0CCF801F0FDFBA1
:1034E000DFE704F13C0568787047002084F83C0071
:1034F0002846704770B500F058F801D1022070BD21
:10350000012084F83C0032B1042A15D0082A25D0C5
:103510000C2A34D045E0206800F0FBF82168886967
:1035200040F008008861886920F0040088618A6999
:10353000306902438A6135E0206800F016F920689E
:10354000816941F400618161816921F48061816157
:103550008169326941EA0221816123E0206800F03B
:1035600034F92168C86940F00800C861C86920F0D2
:103570000400C861CA6930690243CA6112E0206868
:1035800000F052F92068C16941F40061C161C1696C
:1035900021F48061C161C169326941EA0221C161DE
:1035A00000E00125FFF7A1FF70BD0446002594F857
:1035B0003C0001280E46704770B5064606F13C05F2
:1035C00000242878012801D1022070BD0120287034
:1035D00002226A70DFF898023268936803409360B1
:1035E0000868020018BF102830D0202818BF3028E3
:1035F0002CD0402826D0502819D060281BD0702805
:1036000006D0B0F5805F27D0B0F5005F07D022E08C
:1036100000F02BF83068816841F0770105E000F098
:1036200024F83068816841F48041816014E000F042
:1036300018F850210BE0CA684968306800F03FF97B
:10364000602104E000F00DF8402100E00146306800
:1036500000F047F900E001240120687000F00AF84A
:1036600070BDCA68496830681AE1CB684A688968E1
:1036700030683EE10021297020467047F0B57D4C4E
:1036800005687D4B7D4E7E4FDFF8F8C1A04218BF24
:10369000B0F1804F07D0604518BFB84203D0B042A8
:1036A00018BF98420DD14A6825F070051543A04215
:1036B00018BFB0F1804F17D060451CBFB842B04270
:1036C00012D098421CBF704A90420DD06F4EB0424B
:1036D0001CBF6F4A904207D06E4EB0421FBF6E4A69
:1036E00090426E4EB04203D1CA6825F4407515432E
:1036F0004A6925F0800515430560A0428D68C562C2
:103700000A68826212BF984209690163012242611C
:10371000F0BDF0B5026A574F520852000262066AC5
:10372000446885690B688A6825F0730526F00206EF
:103730001D431643504BB84218BF984207D1CA6880
:1037400026F008061643B84226F0040601D0984237
:1037500005D14B698A6924F440741C4314434460C6
:103760008561496841630662F0BDF0B5026A414E69
:1037700022F010020262B042056A436884690A6856
:1037800024F4E64444EA02248A6825F0200545EA48
:103790000215394A18BF904208D1CF6825F080053C
:1037A00045EA0715B04225F0400501D0904206D108
:1037B0004E698A6923F44063164343EA86034360F3
:1037C0008461496881630562F0BDF0B5026A22F444
:1037D00080720262056A4368C4698E680A6825F4CB
:1037E000007524F0730445EA06251443214E224A4D
:1037F000B04218BF904208D1CF6825F4006545EA71
:103800000725B04225F4806501D0904206D14E696B
:103810008A6923F44053164343EA06134360C461A4
:103820004968C1630562F0BD70B5026A114E22F4A9
:1038300080520262B042046A4268C3690D6823F490
:10384000E64343EA05238D6824F4005444EA053432
:103850001CBF094DA84204D14D6922F4804242EABE
:1038600085124260C36149680164046270BD000052
:103870008800FFFF0000014000040140000C0040F0
:1038800000080040000400400040014000440140A6
:103890000048014000180040001C0040002000408B
:1038A00010B5036A046A64086400046223F00A0322
:1038B000846924F0F00444EA0214846123E010B522
:1038C000036A23F0100303628369046A23F47043DC
:1038D00043EA023324F0A004836144EA0114046241
:1038E00010BD826822F07002114341F0070181602F
:1038F000704710B5846824F47F442143114341EAA2
:103900000321816010BD1943016210BD70B500F143
:103910003C031A78012A01D1022070BD01221A70DD
:1039200002245C7005686E68AC680A6826F0700650
:1039300016436E6002681448824218BFB2F1804F8D
:1039400011D0104882421CBF104DAA420BD00C4827
:1039500082421CBF0E4DAA4205D0084882421CBFBD
:103960000C4DAA4204D1486824F0800404439460BA
:10397000012159700020187070BD00000040014006
:10398000000C00400004004000000140000800401E
:10399000000401400018004081B000200090002287
:1039A000DFF80006416841F480414160416801F45C
:1039B0008041009100990092036843F080530360B6
:1039C000006800F080500090009801B0704770B51A
:1039D00086B000F008F92568DFF8CC65B5425CD107
:1039E00000F0FBF8DFF8C455416941F48071416192
:1039F000416901F48071009100990092036843F0DD
:103A000004030360016801F0040100910099009231
:103A10003121036843F0010303600322006800F0D2
:103A2000010000900098DFF88805019102920021C2
:103A3000039101A900F006FEC0200321019002912C
:103A40000022039201A9DFF86C0500F0FBFDDFF80E
:103A50006805286000216960E9604FF480504FF4E8
:103A60008061686129614FF4807000224FF48041C9
:103A7000E861AA60A9612A626A62284600F0EEFE47
:103A800008B1FEF7C2FCA563AC630022002112203E
:103A9000FFF7A2FB1220FFF7BCFB06B070BD38B5E4
:103AA00086B000F030F92068DFF81055DFF81045D7
:103AB000A8421AD1002005901222216841F002018B
:103AC0002160C021206800F0020005900598DFF811
:103AD000F40400F047F800200590216941F400113A
:103AE0002161206900F4001038E0DFF8DC1488421E
:103AF00036D100200590216841F0040121600021A9
:103B0000206800F004000590059805914FF40071BD
:103B1000226842F0010222601222206800F037FA87
:103B20000598DFF88C0400F01DF8122101910122A4
:103B300002924FF4807003210090039104220492BA
:103B40006946DFF8700400F07DFD002005902169D2
:103B500041F400012161206900F4000005900598FE
:103B600007B030BD0091019201210291032204218E
:103B700004910392694600F065BD38B586B000F047
:103B800032F82468DFF84454AC4224D100F025F820
:103B9000016941F480410161016901F480410091B2
:103BA000009900924FF46041036843F00203036000
:103BB0000222006800F0020000900098DFF8040480
:103BC00001910292002103910322052105910492A3
:103BD00001A900F037FD07B030BD002000900022A1
:103BE000DFF8DC037047044601A81421FFF748BC46
:103BF00081B00168DFF8D823DFF8A803914209D12A
:103C000000210091026842F004020260006800F0A6
:103C1000040028E0DFF8BC23914209D10021009183
:103C2000026842F010020260006800F010001AE022
:103C3000DFF8A423914209D100210091026842F0EB
:103C400080020260006800F080000CE0DFF88C2346
:103C500091420AD100210091026842F48072026010
:103C6000006800F480700090009801B0704710B5B3
:103C700086B000F048F82268DFF85403DFF84013FC
:103C8000824217D1002205920222086840F0020009
:103C90000860096801F0020105914FF44071059830
:103CA000DFF820030091019200210291039102218B
:103CB000049123E0DFF82033DFF824039A4204D193
:103CC000002205924FF4807207E0DFF810339A4229
:103CD00017D1002205924FF400720B6843F02003C5
:103CE0000B60096801F020010591059900920223FB
:103CF000002202920392019309220492694600F085
:103D0000A1FC06B010BD044668461421FFF7B8BBFD
:103D100038B586B0FFF7F7FF2468DFF8C822DFF870
:103D20009002DFF89C1294424FF4406316D10024B5
:103D300005940A6942F400220A610A6902F4002229
:103D40000592059A05940D6845F004050D6000F094
:103D5000B5F80093029402230193A6E0DFF88822CD
:103D6000944232D1002305930A6942F480120A6119
:103D70000A6902F480120592059A05930C6844F0D2
:103D800004040C6000F09AF805934FF480520C681C
:103D900044F008040C600223096801F0080100F0F7
:103DA00093F80323082203930492694600F04AFC27
:103DB000022101910022042002920321009003912C
:103DC000082204926946894874E0894D794AAC42D8
:103DD00010D1002005904B6943F010034B61002384
:103DE000486900F0100000F0C9F84FF4C06100F01D
:103DF00072F85FE07F4DAC4219D1002005900B694D
:103E000043F400330B610023086900F4003000F034
:103E1000B5F80C2100F05FF800F014FC002200213E
:103E20002620FFF7D9F92620FFF7F3F944E0724A7C
:103E3000944220D1002005900A6942F480220A6150
:103E40000022086900F48020059005985D480592DD
:103E500002220C6844F002040C60096801F00201BF
:103E600005910599019200210291032207210491F5
:103E7000009303921DE0614A94421DD100230593F3
:103E80004A6942F020024A614A6902F02002059222
:103E9000059A0593C0220C6844F004040C600223C8
:103EA000096801F0040100F00FF8032308220393CE
:103EB0000492694600F0C6FB07B030BD0A6802F004
:103EC00004020592059A70470591059900920193A5
:103ED00000220292704705980091019300210291FF
:103EE000032307210491039369461046704780B568
:103EF00086B068461421FFF7C3FA414908680028D4
:103F000035D101220A60059002223E48016841F045
:103F1000010101604FF69871006800F038F80598CB
:103F20003948009101920021029103220C21049151
:103F30000392694600F086FB00F01BF84FF23F0049
:103F400000F029F8264800F07DFB00F012F840F25E
:103F50003F2000F020F82D4800F074FB00F009F835
:103F60004FF6337000F017F8204800F06BFB07B0F5
:103F700000BD022101910022029270470590059830
:103F8000059302230C6844F001040C60086800F0FB
:103F90000100059070470321009003910C220492C8
:103FA0006946704740380240002001405804002014
:103FB000000802400000024010640240005400402B
:103FC0003038024000040240005C004000380040ED
:103FD0000008004000100040001C0040002000408D
:103FE00000140240004C004000500040000C024011
:103FF000001001400044004000480040001401400F
:10400000B00500203838024000100240001802407D
:10401000F8B504000E46174601D10120F2BD04F1A7
:104020004805687820B9002129702046FFF75FFF16
:10403000206804F1080100F051FEA26820683146B2
:1040400000F07FFE236BA2686068394600F099FE9D
:104050002168A06851F8202042F0010241F8202098
:10406000012068700020F2BDC0F3C75181B1FF2963
:1040700006D0C110400721F0E04101F160517047C6
:1040800041020CBF40F4E0016FF000410020704796
:1040900000F0004100020AD0B0FA80FC00FA0CF0F7
:1040A00001F16051A1EB0C5101EBD02140057047AB
:1040B00001F000428B1AA3F16051B1F5801F0ADBB9
:1040C000B1F17F6F1FD242EAC102C10071F100411C
:1040D00042EB507070470B15C3F10903212B10D22E
:1040E000890241EA905180020128494141F0004192
:1040F00021FA03F0C3F12003994071F100415041CE
:104100007047100070476FF0000013EB103F5CBF6A
:10411000000E42EAC05070470EB4C0B5024603A874
:1041200000210190009101AB0121044878440C303A
:10413000FCF72AF806BC5DF810FB00BFDF0D00009D
:1041400038B5044600F084FB14F1010F054602D097
:1041500004480178641800F07BFB401BA042FAD3AE
:1041600031BD00BF000000202DE9F843040016D047
:104170002078DFF81463C10713D5B06800F00C0095
:10418000042807D0B06800F00C0008283ED1706801
:1041900041023BD53068810303D56068002800F0F8
:1041A00005812078B94F810719D5B06810F00C0F40
:1041B00007D0B06800F00C0008285CD1706841029C
:1041C00059D43068810703D5E068012840F0EE80BB
:1041D0003168206921F0F80141EAC001316021789D
:1041E00008076CD56069AA49002862D001220A60DC
:1041F00000F02EFB0546706F810700F1D98000F0BA
:1042000027FB401B0228F6D903203AE16068B0F58D
:10421000803F04D1306840F48030306011E0B0F568
:10422000A02F306806D140F480203060316841F41E
:10423000803105E020F480303060316821F4802145
:104240003160606858B100F003FB054630688103B7
:10425000A7D400F0FDFA401B6528F7D3D4E700F09F
:10426000F7FA0546306881039BD500F0F1FA401B50
:104270006528F7D3C8E7E06870B10121396000F024
:10428000E7FA05463068810700F1BE8000F0E0FAE9
:10429000401B0228F6D9B7E7386000F0D9FA054686
:1042A000316888079BD500F0D3FA401B0228F7D964
:1042B000AAE7086000F0CCFA0546706F810777D551
:1042C00000F0C6FA401B0228F7D99DE70528306F99
:1042D00006D140F004003067306F40F0010005E087
:1042E000400840003067306F20F00400306741F232
:1042F0008938A06868B100F0ABFA8146306F810759
:1043000000F18F8000F0A4FAA0EB09004045F5D33E
:104310007AE700F09DFA8146306F810740F1818095
:1043200000F096FAA0EB09004045F5D36CE700F0E9
:104330008FFA401B022840F2878065E700F088FA78
:10434000001B022840F298805EE70020386600F0EB
:104350007FFA04463068810140F1928000F078FADB
:10436000001B0228F6D94FE701281FD07068E269C8
:1043700000F48001914202BF00F03F01226A9142A5
:1043800001BF47F6C0710140626AB1EB821F0DD1D7
:10439000A26A520800F44031521EB1EB024F02BF34
:1043A00000F07060E16AB0EB016F69D0012068E055
:1043B000207841073AD5306C0025C1000AD4009519
:1043C0000125316C41F080513164306C00F0805037
:1043D00000900098DFF8BC80D8F80000C1051BD41D
:1043E000D8F8000040F48070C8F8000000F030FAFF
:1043F0008146D8F80000C1050ED400F029FAA0EBE0
:1044000009000228F5D9FFE63068216920F0F8009C
:1044100040EAC1003060E2E6A06801287FF456AFB0
:104420005AE71DB1306C20F080503064A06938B379
:10443000B16801F00C01082996D0022885D100202E
:10444000386600F005FA0546306881013FF56FAF28
:10445000E269206A616A0243A06A400842EA811266
:10446000401E42EA0042E06A42EA006272600121B4
:10447000396600F0EDF90446306881017FF55EAFE2
:104480000020BDE8F28300BF003802400000474230
:10449000800E4742007000402DE9F04104000F46B5
:1044A00078D0494E306800F00700B84202D200F0E0
:1044B00073F86FD12068454D810712D5400703D5A9
:1044C000A96841F4E051A9602078010703D5A868E4
:1044D00040F46040A860A968A06821F0F0010143A1
:1044E000A9602178C8074DD56068012802D12968E4
:1044F0008A0305E0022818BF032803D129688A012E
:1045000003D447E029688A0744D5A968890840EAA6
:104510008100A86000F09CF98046A868616800F0FE
:104520000C00B0EB810F2DD000F092F9A0EB080049
:1045300041F289318842F0D3032021E020784107FD
:1045400005D5AA68E06822F4E0520243AA60217807
:10455000080706D5A968206921F4604141EAC00135
:10456000A96000F03FF8AA6819491A4BC2F3031278
:10457000895CC84018601848006800F075FB00208E
:10458000BDE8F081306800F007008742D6D200F025
:1045900003F8D3D00120F3E73770316801F0070149
:1045A000B94270470B480D4A006813680C49C3F3C1
:1045B000822206E00748094A006813680849C3F3E5
:1045C0004232895CC8407047003C024000380240DB
:1045D000D84E00080C0000200800002008380240D7
:1045E000584F000830B5144C606800F00C000428E7
:1045F00002D0082802D01DE0104830BD2268206893
:104600000023410202F03F0204D525680B49C5F39F
:10461000881003E020680A49C0F38810A1FB00015C
:10462000FCF73CFD2168C1F30141491C4900B0FB86
:10463000F1F030BD024830BD0438024040787D01C1
:104640000024F4002DE9F84F0D464FF0000873499F
:104650000F22012304462E6803FA08F000EA060937
:10466000814540F0C6804FEA480C032606FA0CF656
:104670006FEA060E6E6806F00307012F1CBF06F0F6
:104680000306022E11D1A668EF680EEA060607FAA5
:104690000CF73E43A660666826EA00006E68C6F323
:1046A000001606FA08F6304360604FEA88002E795B
:1046B00006F00306032E1FD0E668AF680EEA060672
:1046C00007FA0CF73E43E6602E7906F00306022E49
:1046D00012D14FEAD80604EB860600F01C07D6F884
:1046E00020A002FA07FB2AEA0B0AD5F810B00BFA51
:1046F00007F747EA0A07376226680EEA06072E79A7
:1047000006F0030606FA0CF63E4326606E6816F4C1
:10471000403F6ED0002600964FEA980C0E68DFF8F6
:1047200000E146F480460E6000F00C000E6806F4CE
:1047300080460096009E5EF82C7002FA00F627EA8A
:104740000606384FBC4208BF002722D0364FBC4275
:1047500008BF01271DD0354FBC4208BF022718D023
:10476000334FBC4208BF032713D0324FBC4208BFAF
:1047700004270ED0304FBC4208BF052709D02F4F69
:10478000BC4208BF062704D02D4FBC420CBF0727F0
:10479000082707FA00F030434EF82C006FEA090CA6
:1047A000284886680CEA060E6E68F70248BF49EA98
:1047B0000E0EC0F808E0C6680CEA060E6E68B70276
:1047C00048BF49EA0E0EC0F80CE046680CEA060E37
:1047D0006E68B70348BF49EA0E0EC0F804E00668E9
:1047E0000CEA060E6E68F60348BF49EA0E0EC0F8E2
:1047F00000E008F10108B8F10F0F7FF62CAFBDE81B
:10480000F18F02B90904816170470F4A13680342AE
:104810001CBF106000F01AB8704700004438024016
:104820000838014000000240000402400008024035
:10483000000C024000100240001402400018024028
:10484000001C0240003C0140143C01407047000045
:1048500001484068704700BF0000002070B5044662
:10486000FFF7F6FF06460CB9012070BD04F13405D0
:1048700002206870002129702068026852085200E6
:10488000026022681068C10722D5FFF7E1FF801B94
:104890000628F6D32020286203216970032070BD0A
:1048A000B0F5005F09D1032E42D8DFE806F00C0A0C
:1048B0000C02B1F1C07F3BD105E0022E03D9F61EF8
:1048C00036D1C80134D5402129620120687070BDFD
:1048D0001368DFF8180361680340A0680B43E168C0
:1048E000034320690B4361690343A0690B43E169FA
:1048F0000343206A0B43616A0343042903D1E16A3D
:10490000206B01430B43136023685A69606AD20825
:10491000042840EAC2020BD1A66AE16A324339B1E7
:10492000A0690028BCD1002E18BF022EC9D0C0D368
:104930005A61204600F078F9A96A3F228A408260D5
:10494000002028620121697070BDF8B5044604F1A9
:10495000340600253078776A012801D10220F2BDA3
:1049600001203070707801281CD1022070703562EF
:10497000204600F049F9B06A3F2101FA00F0B86022
:104980002068016841F016010160F06820B12068DC
:10499000016841F0080101602068016841F00101EF
:1049A000016001E0357002252846F2BDF8B50646E3
:1049B00006F13404656AFFF74BFF0746607802286A
:1049C00005D080212162002020700120F2BD3068D6
:1049D000016821F0160101603068416921F0800111
:1049E0004161E068002804BF6069002802D0306897
:1049F00000F005F930680168490849000160306835
:104A00000168CA070CD5FFF723FFC01B0628F6D3A1
:104A10002020206203216170002020700320F2BD5D
:104A2000A06A3F218140A9600020012161702070AF
:104A3000F2BD90F83510022903D080224265012092
:104A40007047052180F8351000680268520852004E
:104A50000260002070472DE9FC41044604F1340651
:104A60000020634900904FF41650776A0A683D6849
:104A7000B2FBF0F8B06A082100F0BDF80ED0206853
:104A8000026853070AD5026822F004020260B06A85
:104A90008140B960316A41F001013162B06A25FAA2
:104AA00000F1CA070BD521684A69110607D5012212
:104AB00002FA00F0B860306A40F00200306204216F
:104AC00000F098F808D021680A68930704D5B86008
:104AD000306A40F004003062102100F08BF819D0E9
:104AE00021680A68130715D5B860206801684A0371
:104AF00007D50068010309D5716959B12046884777
:104B000008E00168CA0501D400F079F8F16809B13C
:104B100020468847B06A202100F06DF843D0216814
:104B20000A68D3063FD5B86020687178052920D17E
:104B3000026822F0160202602068416921F08001BB
:104B40004161F068002804BF7069002802D0206825
:104B500000F055F83F22B06A8240BA6001217170BE
:104B60000020F169307000293CD02046BDE8FC41AE
:104B7000084701684A0307D5006801030FD431696B
:104B800089B1204688470EE00168CA0507D401684C
:104B900021F0100101600120707000213170B168B6
:104BA00009B120468847306AE0B1306AC10713D5A1
:104BB000052070702068016849084900016000986C
:104BC000401C8045009003D320680168CA07F6D4D2
:104BD0000120707000213170B16919B12046BDE823
:104BE000FC410847BDE8F381000000003F8010F061
:104BF0000C000020B06A01FA00F00542704701681D
:104C000021F008010160704730B50468256825F47B
:104C10008025256063608068402802D1A260E16041
:104C200030BDA160E26030BD30B5016808A401F07C
:104C3000FF02103A1823B2FBF3F2890A8902A55C3D
:104C4000C565042A28BF091D8165084630BD0000DE
:104C50000006101600061016704770477047704720
:104C6000704770477047704738B50D4D0D4B2A7827
:104C700004464FF47A711868B1FBF2F2B0FBF2F01F
:104C8000FEF7D2FA50B9102C08D2002221464FF07C
:104C9000FF30FEF7A1FAAC60002032BD012032BD2A
:104CA000000000200C00002000B500BF1300964655
:104CB0009446103928BFA0E80C50FAD85FEA417C2E
:104CC00028BF0CC048BF40F8042BC90728BF20F8F4
:104CD000022B48BF00F8012B00BD7047F0B50A68F1
:104CE00000F028F88C680D6850F82570344B4A683D
:104CF000082C0CBF402600261F403E431643CB68BD
:104D00000A6934431C434B691443CA691C430B6A48
:104D100014434A6A1C438B6A1443CA6A1C430B6BD4
:104D200014438A69C96B1C4314430C4340F8254063
:104D30000020F0BD50F822305B085B0040F82230C4
:104D4000704770B5031D001D53F822408D690B6834
:104D50004E681D438B6845EA0615CE6845EA032573
:104D60000B69496945EA06455B1E45EA0355891EFC
:104D700004F0404445EA01652C4340F822400020FD
:104D800070BD70B5B3F5804F13D150F822500D4C63
:104D90000B684E6825401D438C688B69C96845EADD
:104DA000061545EA04251D4345EA014540F8225011
:104DB00003E06FF0704140F82210002070BD000049
:104DC0008000F0FF0000F0CFFEE7FEE7FEE7FEE721
:104DD000FEE770477047704700F01CB80420FFF7EB
:104DE00014BD0820FFF711BD0748FDF725BF20209F
:104DF000FFF70BBD0548FDF7BCBB4FF40050FFF7B4
:104E000004BD0348FFF727BE68050020BC0400204E
:104E1000580400200248416802788A1842607047AE
:104E20000000002030B5016884684218416802EB38
:104E30005103C9070BD54C4409E012F9011B12F8C4
:104E4000015B002904F8015B05D5491CF9D19A42A0
:104E5000F3D10C3030BD491EF1D5F8E710B5074944
:104E600079441831064C7C44163404E00A68081D65
:104E7000114488470146A142F8D110BD2C00000022
:104E8000480000004EF68851CEF20001086840F458
:104E900070000860BFF34F8FBFF36F8F4FF000704B
:104EA000E1EE100A70470000D3C0FFFF28050000A4
:104EB00090000020000000006DFFFFFFD001000007
:104EC000C8000000000000200248016841F47001A1
:104ED0000160704788ED00E0000000000000000065
:104EE000010203040607080900F00DF8002801D0AC
:104EF000FFF7B4FFAFF300800020AFF30080FCF7B2
:104F00005BFE00F002F80120704700F001B80000DD
:104F100007463846FCF722FEFBE738B504460D4647
:104F2000284600F005F8A84218BF0024204632BDEC
:104F30000149FCF71DBE00BF480000200148804722
:104F400001480047C94E00084D4F0008AFF30080EC
:104F5000FFF798FFFFF7C8FF0000000001020304FD
:104F600000002E00FFF7FEBFFFF7FEBFFFF7FEBFFA
:104F7000FFF7FEBFFFF7FEBFFFF7FEBFFFF7FEBF65
:104F8000FFF7FEBFFFF7FEBFFFF7FEBFFFF7FEBF55
:104F9000FFF7FEBFFFF7FEBFFFF7FEBFFFF7FEBF45
:104FA000FFF7FEBFFFF7FEBFFFF7FEBFFFF7FEBF35
:104FB000FFF7FEBFFFF7FEBFFFF7FEBFFFF7FEBF25
:104FC000FFF7FEBFFFF7FEBFFFF7FEBFFFF7FEBF15
:104FD000FFF7FEBFFFF7FEBFFFF7FEBFFFF7FEBF05
:104FE000FFF7FEBFFFF7FEBFFFF7FEBFFFF7FEBFF5
:104FF000FFF7FEBFFFF7FEBFFFF7FEBFFFF7FEBFE5
:10500000FFF7FEBFFFF7FEBFFFF7FEBFFFF7FEBFD4
:10501000FFF7FEBFFFF7FEBFFFF7FEBFFFF7FEBFC4
:10502000FFF7FEBFFFF7FEBFFFF7FEBFFFF7FEBFB4
:10503000FFF7FEBFFFF7FEBFFFF7FEBFFFF7FEBFA4
:10504000FFF7FEBFFFF7FEBFFFF7FEBFFFF7FEBF94
:10505000FFF7FEBFFFF7FEBFFFF7FEBFFFF7FEBF84
:10506000FFF7FEBFFFF7FEBFFFF7FEBFFFF7FEBF74
:10507000FFF7FEBFFFF7FEBFFFF7FEBFFFF7FEBF64
:10508000FFF7FEBFFFF7FEBFFFF7FEBF0001F9000D
:105090000010FC001E24F400604F0008604F000860
:1050A000604F0008604F0008604F0008604F000824
:1050B000604F0008F8FF0B624F0008604F00086067
:1050C0004F0008FAFF150000020401011805002036
:1050D000680500201805002018050020FC000318B2
:1050E000050020FC00078C00002078000020E00074
:0400000508004F4D53
:00000001FF
