:020000040800F2
:10000000B80600205D500008D94F0008DB4F0008FB
:10001000DD4F0008DF4F0008E14F0008000000003E
:10002000000000000000000000000000E34F000896
:10003000E54F000800000000E74F0008E94F000806
:100040009150000895500008995000089D500008F4
:10005000A1500008A5500008A9500008AD500008A4
:10006000B1500008B5500008B9500008BD50000854
:10007000C1500008C5500008C9500008CD50000804
:10008000D1500008D5500008D9500008DD500008B4
:10009000E1500008E5500008E9500008ED50000864
:1000A000F1500008F5500008F9500008FD50000814
:1000B0000151000805510008095100080D510008C0
:1000C0001151000815510008195100081D51000870
:1000D0002151000825510008ED4F00082951000862
:1000E0002D510008315100083551000839510008E0
:1000F0003D51000841510008455100084951000890
:100100004D5100085151000855510008595100083F
:100110005D510008615100086551000869510008EF
:100120006D5100087151000875510008795100089F
:100130007D5100088151000885510008895100084F
:100140008D510008915100089551000899510008FF
:100150009D510008A1510008A5510008A9510008AF
:10016000AD510008B1510008B5510008B95100085F
:10017000BD510008C1510008C55100080000000031
:10018000C9510008CD5100082DE9F0439FB000BFD0
:1001900065A6269CDFF8B48A8DF83B4002910024C6
:1001A0000B944FF0FF37044691461D460AE019F8BC
:1001B000011B0298A0470028029000F0A1800B9834
:1001C000401C0B9099F8000050B12528EFD1002178
:1001D0000022059106920791089209910A9203E084
:1001E0000B98A5E041F0010119F8010F2028F9D082
:1001F00023280CD02B2804D02D2805D0302809D056
:1002000080E041F00201EFE741F00401ECE741F04A
:100210000801E9E741F01001E6E70D920AE00D98C8
:10022000404505DA00EB800002EB4002303A0D92C7
:1002300009F1010999F80020A2F130000A28EED353
:1002400099F800002E2818BF0C9726D119F8010F35
:100250002A2808D12868286009F1010950F8042BE0
:1002600028600C9219E02D280CBF09F1010900202B
:1002700000220C920BE040B90C9A424505DA02EBE1
:10028000820203EB4203303B0C9309F1010999F818
:100290000030A3F130020A2AEDD3ADF83810304611
:1002A00099F8001000F086FE08B119F8010B8DF8DE
:1002B0003A009DF83A00682805D199F800006828AE
:1002C0000CD1622106E06C2804BF99F800006C286C
:1002D00004D171218DF83A1009F1010910A8049098
:1002E0002A4619F8013B6946204600F061F838B902
:1002F00010AA6946204600F08FF900287FF562AF0A
:10030000384615E02A2888D12A682A6052F8040B5A
:100310002A6000280D9003D540420D9041F0040161
:1003200009F101098CE70000686A6C747A4C0000DE
:100330001FB0BDE8F083622820D0682811D06A2859
:1003400003D06C2827D0712825D10868C01D20F063
:1003500007000860D0E900230830086019461046FD
:100360007047002A0A680A60106803D0121D0A60EC
:1003700000B217E0121D0A6080B217E0002A0A6876
:100380000A60106803D0121D0A6040B20AE0121D14
:100390000A60C0B20AE0002A0A680A60106803D046
:1003A000121D0A60C1177047121D0A6000217047B4
:1003B00070B51C460D46B4F125002E69114600F0BB
:1003C00019811C3868D0001F022865D9133842D023
:1003D000093861D0801E16D0401E1ED0401E022853
:1003E0005AD9001F19D0401F00F08180401E32D022
:1003F000401E00F0CB80C01E00F0DA80801E2AD0A4
:10040000C01E28D0FCE06869421C6A610A680A6064
:1004100052F8043B0A603354FCE095F83A0001229C
:10042000FFF789FFC5E90001002904D56869411C6F
:1004300069612D220DE0288F810704D56869411C70
:1004400069612B2205E0C00721D56869411C6961FB
:10045000202232541BE095F83A000022FFF76BFF90
:10046000C5E9000195F83800010710D5D5E900234A
:10047000002B08BF002A0AD044F02000782806D1BB
:10048000686930213154401C421C6A613454214651
:1004900068693044E86087E00868C01D20F0070004
:1004A0000860D0E9002308300860C5E90023D5E9D9
:1004B0000001C80F04D06869411C69612D220DE05C
:1004C000288F810704D56869411C69612B2205E0EA
:1004D000C00704D56869411C6961202232546869EB
:1004E0003044E8602146284600F0C4F992E005F166
:1004F0003A02507820B14FF0FF340FF6202062E02E
:100500001078622808D0682824D06A2812D06C2875
:100510002ED071280ED02BE00A680A6052F8040B26
:100520000A6020B94FF0FF340FF608204BE0E96A6B
:1005300001706FE00A680A6052F8040B0A6020B983
:100540004FF0FF340FF6EC103DE0EA6AD317C0E934
:1005500000235FE00A680A6052F8040B0A6020B9C1
:100560004FF0FF340FF6CC102DE0E96A018051E026
:100570000A680A6052F8040B0A6020B94FF0FF3491
:100580000FF6B0101FE0E96A016043E00A680A60F4
:1005900052F8040B0A60002120F0000221F0FF3322
:1005A000C5E90023EE607821284600F0BBF831E071
:1005B0000868086050F8044B0860EC603CB94FF0E4
:1005C000FF340FF6881000F005FD201A70BD2E6B69
:1005D000002E04D5204600F01DFD044608E03246FA
:1005E0000021204600F032FD002814BF041B3446D1
:1005F000AC610FE06869411C69612522325409E051
:100600006969481C686125227254210002D0431C8C
:100610006B613454002070BD2DE9FC410F46064645
:1006200090467A6B7869396ABC6A121AB869521AAC
:10063000796A121AF869521A121A97F83800141BBC
:1006400041070FD42020002C8DF800000ADD25463C
:1006500001236A463946304600F048FC00285DD147
:100660006D1EF5D17B6942463946304600F03EFCAE
:10067000002853D130208DF800003D6A002D09DD9F
:1006800001236A463946304600F030FC002845D147
:100690006D1EF5D1BB69FA683946304600F026FC7C
:1006A00000283BD130208DF800007D6A002D08DD48
:1006B00001236A463946304600F018FC70BB6D1EB7
:1006C000F6D1F868B969FB6942183946304600F03E
:1006D0000DFC18BB30208DF80000BD6A002D08DD30
:1006E00001236A463946304600F000FCB0B96D1E61
:1006F000F6D197F8380041070DD52020002C8DF851
:10070000000008DD01236A463946304600F0EEFB62
:1007100020B9641EF6D10020BDE8F6814FF0FF300D
:10072000BDE8F6812DE9FC4307466F293E6908BF05
:10073000082405D041F02000782814BF0A24102492
:100740003C25D7E90023642918BF692990469946BA
:1007500005D1002B03D5D8F1000869EB4909B9F19F
:10076000000F08BFB8F1000F1FD1386BE8B9082C93
:100770004CD197F83800010748D530203B2586F842
:100780003B0043E000280ED597F8380000F0140035
:10079000102808D17B6B7969386A5B1A1B1A9A1A80
:1007A000002AC8BF3A62BDE8F3838DF800104046C6
:1007B00049462246E31700F075FC3032D0B26D1E78
:1007C0003A28019504DB9DF80000A0F151018A1838
:1007D0007255404649462246E31700F063FC8046C6
:1007E0005FEA010908BFB8F1000F03D0F86871197A
:1007F0008842DCD3082C09D197F83800010705D5C9
:10080000705D302802D06D1E30207055C5F13C025D
:10081000BA617119F960386B8242B3DA821A3A62AE
:100820004FF6EF70398F01403987BDE8F3832DE92A
:10083000D04306460F4614464FF00008DFF81094E8
:1008400012E0E00707D542464B463046394600F0F5
:10085000ADFC06460F464046494642464B4600F030
:10086000A5FC641080468946002CEAD13046394602
:10087000BDE8D0832DE9F84F05468A464AF02004AA
:100880008EB0D5E90089612C02AE09D0286B002812
:1008900048BF062003D408BF672C01D1012028637C
:1008A000D5E900014A005215521C0DD10B030BD0A3
:1008B000AAF1610103201A29A86102D20FF2A861EE
:1008C00010E00FF2A8610DE04A005215521C0ED143
:1008D0000B030CD1AAF1610103201A29A86116D3D8
:1008E0000FF29061E868032200F032FDC0E1CDE92B
:1008F0000C01DDE90C2323F00043B3F5801F0DD27A
:100900000027002B08BF002A019703D111E00FF246
:100910006061E7E701AA00F06FFD0AE0CD48CE492B
:1009200000EB1350DDE90C2301900B40CB4910463E
:100930001943C5E90001612C0DD1E868302101702F
:10094000821CBAF1610FEA600CBF78215821417016
:100950006869801C6861D5E90001CDE90C01DDE919
:100960000C2333F0004104BF0028002300F048812D
:10097000612C40F0A080286B494600284CBF4FF006
:10098000210B00F1010B404600220023DDE90C8918
:1009900000F06AFD01990BF1010738BF89F00049A9
:1009A000091F002F01918DF808200DF1090040F377
:1009B0003581A94900910646404649460022002358
:1009C00000F06AFD80F029814800400D00F11C0212
:1009D00011D0002A0FDD40F2FF739A4205DBA049D7
:1009E00009F000400143002011E0009B194041EA5A
:1009F000025140460BE028F0000039F0004108BFEA
:100A000000280FBF49461C22494600F05DFD804684
:100A1000894600F0F7FDFF1F002F044609DD00F0B6
:100A20000FFE02460B464046494600F01BFE80463C
:100A30008946F01D072104E004F00F0200F8012DA3
:100A40002411002C01DD491EF6D5491E5CBF002291
:100A500000F8012DF9D5DCE00020194602AA0A446D
:100A600000E05B1E12F80149491E8442F9D00F28AC
:100A700004D10DF10900425C521C4254002904D5F6
:100A80000198001D02AE5B1C0190581E0CD4311859
:100A9000AAF13A040A783032D7B23A2FA8BFA21886
:100AA000401E01F80129F5D5286B002840F1A780E8
:100AB000591E2963A3E001996A4A47F297504143BE
:100AC00091FBF2F2019229F00046D2F1070204DD17
:100AD00040463146FFF7ABFE0AE052420020624931
:100AE000FFF7A5FE02460B464046314600F02CFEBD
:100AF0008046662C286B06BF019F0A3706273F18E1
:100B0000142FC8BF142730208DF8080089460DF136
:100B1000090000E03046002F34DD064640464946D5
:100B200000F036FF01460A4606F1080304200A26B3
:100B3000B2FBF6F606EB860EA2EB4E02303203F85D
:100B4000012C0A22B6FBF2F202EB820EA6EB4E0655
:100B50003036401E03F8026DE9D1083F002F03F143
:100B60000806D7DD084600F027FF02460B46404640
:100B7000494600F077FD00223C4B00F017FB804611
:100B80008946CBE70DF10901401A0DF1090604E091
:100B90000199491E401E0191761C31783029F7D009
:100BA000662C02D10199491C03E0652C0CBF012180
:100BB00000212B6BCB189842B8BF431E002B1ED4CC
:100BC000834204DAF05C3528A8BF392000DA3020EF
:100BD0001946721E02EB010800E05B1E18F801992D
:100BE000491E8145F9D0392802D1705C401C7054EF
:100BF000002904D50198401C16465B1C0190019801
:100C000000B200901BB232465146284600F034F83C
:100C10002EE0C61D002F3FF7CFAE30460DF1090183
:100C2000401A03465845C8BF5B46002B0DF1090624
:100C30003FF53AAF8342BFF60FAF0DF10900C15C3B
:100C400007297FF709AF0F2007E70000CBCCCC0CBA
:100C50000000244002FCFFFFFFFF0F800000E03F88
:100C60000000F07FA08601000000F03F84D797418C
:100C70000FB0BDE8F08F00002DE9FC43054683B0BE
:100C80001F46D5F83080002F164602DC5FF00107C2
:100C9000B9A6894649F02000BDF93040662808BF52
:100CA000641C17D0672840F0888014F1040FC0F24C
:100CB0008A80444580F2878095F83800641C0107DB
:100CC00002D44745B8BFB84620B2B8EB000848BFC9
:100CD0004FF000080FFA84F9E868A969B9F1000F2C
:100CE00027DC4A1C30234354B8F1000F03DC95F88D
:100CF0003800010703D5E9682E208854521C18EBF0
:100D0000090FB8BFC8F1000424B260426862A04471
:100D1000B845AA61B8BF4746EB68A8693FB2EF6122
:100D20003A463146184400F013FBA8EB0700A862CE
:100D3000C5E022B29742084419DA3A46314600F03B
:100D400007FBA8693818A9EB0707B8F1000FA861DD
:100D50006F6203DC95F838100A0705D5EA682E2182
:100D60001154E869401CE861C5F82880A7E03146C5
:100D700000F0EEFAA8693F1BB8F1000F484403DC0D
:100D800095F838100A0703D5EA682E211154401C43
:100D9000A86138B28045EB68A869B8BF47463AB247
:100DA00006EB0901184400F0D3FAA9693FB279189B
:100DB000A8EB0707A9616F6281E0B9F1610F16D155
:100DC0004FF0700918E0474504DA95F838100A0723
:100DD00058BFB846B8F1010848BF4FF00008B9F154
:100DE000670F14BF4FF045094FF0650904E0B9F1F2
:100DF000410F08BF4FF05009A969EB68481CA86172
:100E0000B8F1000F16F8012B5A5403DC95F838108E
:100E10000A0719D5EA68431CAB612E211154B8F1B9
:100E2000000F11DD7F1E38B231468045EE68B8BF35
:100E300047463AB2F01800F08BFAA8693FB238186A
:100E4000A861A8EB07006862E868A9690844002C5B
:100E500080F8009003D42B224270811C03E02D21E6
:100E600041706442811C00206A460AE023460A243D
:100E700093FBF4F404EB8406A3EB460302F8013B76
:100E8000401C24B2002CF1DC012806DC49F02002D1
:100E9000652A04BF302201F8012B48B9302001F83F
:100EA000010B07E0401E1DF80030303301F8013B14
:100EB0000028F7DCEA68A8691044091AE96195F886
:100EC000380000F0140010280DD16A69A969686A19
:100ED0008A18E9698218A86A8A188218686B82429F
:100EE000BCBF821A2A6205B0BDE8F083F8B505469A
:100EF0000E4617461C46002074B117F8011BB06857
:100F0000A847B06030B1F06A401CF0620020641E57
:100F1000F3D1F2BD4FF0FF30F2BD00007072696E88
:100F200074665F733A20256E20646973616C6C6F20
:100F3000776564007072696E74663A20626164203D
:100F4000256E20617267756D656E74007072696ED2
:100F500074665F733A206261642025732061726752
:100F6000756D656E740000006E616E004E414E003E
:100F7000696E6600494E4600300030B4002513E02B
:100F800050F8042BD30744BFA9F101039A18091F95
:100F9000042942F8045BFAD213468C0744BF15803B
:100FA0009B1CC90748BF1D7050F8041B0029E7D1DE
:100FB00030BC7047C9B202788A421AB11CBF10F81F
:100FC000012FF9E718BF002070470268531C036027
:100FD0001170704780B500B906A005490B681BB1B8
:100FE00022220021984701E000F0F3FC222002BDFC
:100FF000B0020020636F6E73747261696E74206852
:10100000616E646C65723A20626164206D65737311
:101010006167650000F10103810704D010F8011B2E
:10102000820781B1FAD10268A2F10131914311F036
:10103000803104BF50F8042FF6E709BAB1FA81F104
:1010400000EBD100401CC01A70470000C9B28307F2
:1010500006D0521E22D310F8013B9942F7D11FE06F
:10106000083A13D302F1040241EA012141EA0141A5
:1010700050F8043B121F21BF4B40A3F1013C2CEA66
:10108000030C1CF0803FF3D0C9B2001F083210F8E7
:10109000013B521E28BF91EA030FF8D818BF012068
:1010A000401E7047D3BBD9B1B2F5803F5BD2022A54
:1010B0001ED98C46B1FBF2F102FB11C31B0443EABB
:1010C0001043B3FBF2FC02FB1C3380B240EA034343
:1010D000B3FBF2F002FB103240EA0C4000237047F1
:1010E000022A05D98446B0FBF2F002FB10C2704719
:1010F0004AB105D100F0010249085FEA30007047AB
:1011000000220023704700F067BC0B0002000021A2
:1011100000207047F7D3002200237047904271EB04
:10112000030CF2D370B5B1FA81F4B3FA83F52C1B3A
:10113000A340C4F1200532FA05F63343A2405FF024
:101140000046E64002E05B085FEA3202841A71EB77
:10115000030524BF204629467641F4D302000B0044
:101160003000002170BD70B5B1FA81F4B2FA82F599
:10117000C4F120046419B4F12006DAD3B2405FF060
:101180000044F440002502E052085FEA3303C61A27
:1011900071EB020E24BF3046714664416D41F3D3BA
:1011A00002000B002000290070BD0000B0B581EAEC
:1011B000030C0CF0004C40F2FF7515EA11541DBFF2
:1011C00015EA1357AC42AF4239E0E41923EA45531C
:1011D00043F48013C90241F0004141EA505EC70266
:1011E0001100A7FB020200284FF00000EEFB0120D7
:1011F0004FF00001E3FB072118BF42F00102401845
:1012000000214941E3FB0E01A4F580640F0302D2E3
:1012100052004041494154F101046CDD470872F12C
:10122000004250F1000051EB0451A1F580115CBF68
:1012300041EA0C01B0BD4CEA05510020B0BD05EA01
:101240001357AC4214BFAF4241E050EA410E1CBFFD
:1012500052EA430E02E061460020B0BD24423C4405
:101260001BD15FEA070EF6D0090302BF014600203A
:10127000AEF1140EB1FA81F7AEEB070401FA07FEE6
:101280000C37C7F1200100FA07F7C8404EEA000EFC
:1012900023EA455343F48013A2E733F00043B3FA43
:1012A00083F704BFB2FA82FE77440B3FE41BB7F129
:1012B000200E2FBF02FA0EF3BB40C7F1200E22FA18
:1012C0000EFE38BF43EA0E03BA40641C82E750EAC0
:1012D000410E14BF52EA430E6FF000014FF40017A5
:1012E00017EB430F8ABF194617EB410FB5E74CEADE
:1012F00005510020B0BDD4F10104B4F120070FDA8C
:10130000C4F12007520828BF42F0010210FA07F585
:1013100001FA07F7E1BF2A43E0403843E1400FE01C
:10132000352C98DCC7F1200452EA400220FA07F27B
:1013300018BF42F0010231FA07F0A1400A43002130
:1013400072F1004250F1000051EB0C01B0BD000001
:1013500062B38B0708D0521E11F8013B00F8013B25
:1013600000F024808B07F6D1830740F0208000BF77
:10137000103A07D330B4B1E83810103AA0E838106A
:10138000F9D230BC530724BFB1E80810A0E8081018
:1013900044BF51F8043B40F8043BD20724BF31F866
:1013A000022B20F8022B44BF0B7803707047121FEA
:1013B00017D35B0009D151F8043B20F8023B1B0C0A
:1013C000121F20F8023BF6D20BE051F8043B00F864
:1013D000013B1B0A20F8023B1B0C121F00F8013BCB
:1013E000F3D238BF121D521E24BF11F8013B00F882
:1013F000013BF8D87047000010B5144600F002F821
:10140000226010BDC1F30A5343B14A0012F5001F18
:1014100028D2A3F2FE32A1EB0251704750EA410CF0
:1014200020D001F0004C31EA0C01B1FA81F204BF86
:10143000B0FA80F3D2180B3AB2F120032CBF00FAB5
:1014400003F1914041EA0C013EBFC2F1200C20FAA9
:101450000CF319439040524240F2FD33D21A01EB93
:1014600003517047002270474FF4001C1CEB410FE2
:1014700094BF1CEB430F09E041EA030C50EA4C0C0B
:1014800052EA0C0C03D2994208BF9042704714BF35
:101490008B428242704700004FF4001C1CEB410F4E
:1014A00094BF1CEB430F09E041EA030C50EA4C0CDB
:1014B00052EA0C0C03D28B4208BF8242704714BF21
:1014C0009942904270470000124254D440F2FF7C8F
:1014D0001CEA11530FD0634531D09B1863453CBFC4
:1014E00001EB0251704701F0004141EA0C5100202C
:1014F000AFF30080704750EA410320D001F0004C68
:1015000091EA0C011CD0B1FA81F30B3B9A420DD940
:10151000D21A994051EA0C01C3F1200C20FA0CFCBC
:1015200061449840531C40F2FF7CD7E7914041EA68
:101530000C01C2F1200C20FA0CF3194390407047C3
:10154000B0FA80F31533202BE0D3202AEED3203AD3
:10155000203B9A4209D9D21A00FA03F141EA0C0160
:101560000020531C40F2FF7CB8E700FA02F141EA88
:101570000C0100207047524240F2FF7C1CEA1153DC
:101580000DD06345DBD0B2EB030C3CBFA1EB0251A5
:1015900070470CF1010221EA035141F4801150EA35
:1015A000410CCCD001F0004C352A27DC30B481EA64
:1015B0000C01B2F1200309DAC2F12003044601FA5A
:1015C00003F5D0402843D1409C400CE0C3F12002F9
:1015D000450020FA03F418BF44F0010421FA03F097
:1015E00091400C43002174F1004550F1000051EB93
:1015F0000C01244230BC7FF47BAF70476146002071
:1016000076E70000C1F30A5340F2FE329B1A14DD64
:10161000D3F120034FEAE17208DDC90241EA5051DB
:1016200041F00040D84080185040704703F2E1304C
:1016300010B1D24382F00040704700207047000094
:10164000C11768B14840401AB0FA80F29040D21CED
:10165000C907C2F5846241EA025202EBD02140057B
:101660007047000070B44FF0004591EA030F40F15D
:10167000BD816B40841A71EB030603D2001BB1419C
:10168000121973414FF4001C1CEB410F34BF7CEB6B
:10169000430442E00C0DA4EB1356352E4FDC45EA13
:1016A000C323DB0A45EAC121C912B6F120050DDDCD
:1016B00063FA05F6EB4086EA0305124218BF45F0CF
:1016C0000105C01851F100010CD213E062FA06F5D1
:1016D000F2405540F3415A40B340F3405A4080181D
:1016E000594107D349085FEA30005FEA350528BF52
:1016F00045F0010501F58011420875F1004250F1F5
:10170000000041EB04514E0016F5001F70BC38BFBD
:1017100070470020090D090570471CEB410F10D2DE
:1017200052EA43060BD0BCEB410F05D80C0DAB437E
:10173000661E342EB6DD02E0AB438018594170BC02
:10174000704770BC70470000F0B540F2FF7581EA49
:10175000030C0CF0004C15EA11541DBF15EA135789
:10176000AC42AF42E5E0BC41C1F31301C3F3130344
:10177000801A994143F4801304D2641E4000494109
:1017800080185941C90241EA5051B1FBF3F603FBFD
:101790001611A2FB0675D7EBC020A94102D2761E16
:1017A00080185941C90241EA5051B1FBF3FE03FBD5
:1017B0001E11A2FB0E75D7EBC020A94103D2AEF1DA
:1017C000010E80185941890241EA9051760546EA96
:1017D0008E2EB1FBF3F603FB1611A2FB0675D7EBB9
:1017E0008020A94102D2761E80185941C90241EADF
:1017F00050514EEA060EB1FBF3F603FB1611A2FBA5
:101800000675D7EBC020A94102D2761E8018594137
:10181000C90241EA5051B1FBF3F703FB1711A2FBD8
:101820000735D3EBC020A94167F100070CBF004288
:1018300047F0010766F3D5274FEA1E31B80814F5C3
:10184000806412DDBD0775F1004250EB0E5051EB84
:10185000045111F5801F5CBF41EA0C01F0BD4CF052
:101860007F6141F0E0410020F0BDBD076D0840EA16
:101870000E5041F48011D4F10104B4F120060ADACB
:10188000C4F120060200E04001FA06F3E1401843EB
:10189000B24015430EE0342C13DCC6F1200445EAB7
:1018A00040056D0820FA06F2154321FA06F0A14022
:1018B0000D43002175F1004250F1000051EB0C0185
:1018C000F0BD00205FEA0C01F0BDCFB992185B417A
:1018D000B3FA83F704BFB2FA82F6BF190B3FB7F130
:1018E00020062FBF02FA06F3BB40C7F1200622FAFA
:1018F00006F638BF3343BA401CB1E419641E33E71F
:101900007F4231F00041B1FA81F404BFB0FA80F6B1
:10191000A4190B3CB4F120062FBF00FA06F1A14038
:10192000C4F1200620FA06F638BF3143A0403C1B24
:101930001AE7AC421ABF05EA1357AF4212E050EA69
:1019400041061CBF52EA4306BFE750EA4107304652
:1019500061461CBF41EA0551F0BD52EA430C08BF85
:10196000C143F0BD00204FF4001616EB410F98BFA5
:1019700016EB430F08BF16EB410F24BFC14305E030
:1019800016EB430F0CBF61464CEA0551F0BD000059
:10199000400D491840EA81200CD2490DA1F5806123
:1019A000491C40F0004005DBD1F11F0154BFC84085
:1019B000C017704700207047014648B1B0FA80F167
:1019C0008840C91CC1F58461090501EBD02140059F
:1019D0007047012000F0C0B87047000070B44FF0AD
:1019E000004591EA030F7FF545AE6B40841A71EB19
:1019F000030604D26E40001BB141121973414FF42B
:101A0000001C1CEB410F34BF7CEB430683E00C0D44
:101A1000A4EB1356362E00F37C80012E45EAC32337
:101A200041DC43EA525312BFD20292025B08240502
:101A300045EAC12141EA5051D2EBC020994125D459
:101A400007D1B0FA80F610FA06F162D000202036F5
:101A500008E0B1FA81F6B140C6F1200220FA02F2A4
:101A60001143B0404FEAF474B4EB465434F001062D
:101A70004FEA74040AD8D6F50016760D04F0004437
:101A8000F04061FA06F25040F1404840C00A40EA96
:101A9000415021F0004128BF5FEA500550F100009D
:101AA00044EBD12135E0DB0A45EAC121C90AB6F190
:101AB00020050EDD42EA0242120CC5F1200603FAAF
:101AC00006F6EB4042EA06056D42984161F10001DD
:101AD0000DE062FA06F5F240554063FA06FC82EA30
:101AE0000C02F3405A406D42904161EB030111F446
:101AF000801F05D1641E620502D06D00404149413E
:101B000021F48011430875F1004350F1000041EBCE
:101B1000045170BC70471CEB410F15D223F00043F9
:101B200052EA43060BD04FEA4C0CBCEB410F04D8F1
:101B30000C0D661E342EB7DDEBE7801A994150EA92
:101B4000410608BF0021E4E708BF1CEB430F28BF94
:101B50006FF00001DDE7000080B5AFF30080024ABE
:101B600011001820ABBEFBE726000200F8B5040008
:101B700025D004F13C05697821B900202870204661
:101B800000F049FC24216970206802685208520064
:101B900002602068016841F4004101602068026829
:101BA00022F40042026000F079FE01466068DFF82E
:101BB0005C23904205D2DFF85833994205D20120C8
:101BC000F2BDDFF850038142F9D32068DFF84833D3
:101BD0004668B1FBF3F3B60943EA86164660266809
:101BE000376A6068904206D34FF4967043434FF4CF
:101BF0007A70B3FBF0F35B1CBF0943EA87133362CF
:101C0000491E2368DE696768974206D27F0000F0AC
:101C100043F8042913D2042111E0A06820B907EB8E
:101C2000470700F039F805E01920474300F034F881
:101C300041F4804108050CBF012141F40041DFF867
:101C4000100306400E43DE6122681368E169206AD2
:101C500023F0C0030B43034313602268DFF8F40250
:101C6000936821690340E0680B4303439360216854
:101C7000CA68A3696069120A034343EA0222CA6080
:101C80002068016841F001010160002068602021A6
:101C900069702063A870F2BDB1FBF7F1491CC1F374
:101CA0000B0170472DE9FC4700F098F800F090F820
:101CB00047D100F085F8002843D13878012840D07A
:101CC00000F078F801D400F0B0F9234630680A9D9E
:101CD00000F0C2F9212000F049F800F0C2F9002814
:101CE0002DD1009031684A69009289690091009A6B
:101CF000308D002828D000F058F8D8B900F048F806
:101D000000F030F8308D401E308531684A69530745
:101D10000CD580B250B1706A02780A61706A411CB9
:101D2000716200F01FF8308D411E318500F038F8E7
:101D30000028DDD07868042801D100F058FA01208D
:101D400000E00220BDE8F68700F04EF8FAE73168BF
:101D50004A6900928969009100987047308D7262DB
:101D6000411E3185708D411E71857047787010213C
:101D7000B97000207860C6F82490A6F82AA02A46F8
:101D8000708DDFF8B0123085F16230464146704701
:101D9000706A326801781161706A411C7162704723
:101DA00022462946304600F0BDBA22462946304632
:101DB00000F08EBA0121397030680268D10770478F
:101DC000009419230122DFF87C12304600F01CBA7F
:101DD00006F13C0704467878202870470646884676
:101DE00091469A4600F0AABD3068016841F400713E
:101DF0000160202078700021B97000203870704791
:101E00002DE9FC47FFF7EAFFFFF7E2FF71D1FFF78B
:101E1000D7FF00286DD1387801286AD0FFF7CAFFB4
:101E200001D400F002F94146D6F800E00C9D0B9871
:101E3000DDF828C0DEF8008028F40068CEF80080C5
:101E40004FF0220E87F801E04FF0400887F802803B
:101E50004FF0000EC7F804E000F06CF800F05BF9FA
:101E600000283FD1308D18B1012804D100F0A8F826
:101E700000F054F816E0022807D1306800F09BF813
:101E800000F071F80020009001E000210091FFF7C0
:101E90005EFF07E000F08AF8002823D100F069F81F
:101EA000FFF75CFF308D002826D0042817D20128C8
:101EB000F0D000F024F80AD100F073F8002811D116
:101EC00000F085F8716A0870706A421CE8E700F05B
:101ED00068F8002806D100F08FF818B9F0E700F094
:101EE00065F808B1012005E000F04AF8DAD500698C
:101EF000E8E70220BDE8F68700F02EF8FAE70228AE
:101F0000DFF8448100942B4670470000A186010051
:101F100080841E0000093D0040420F00009031689F
:101F20004A6900928B69009300980A6842F4007233
:101F30000A607047C6F824C070855346708D30859E
:101F40004A463C48F06201940095304670470000D4
:101F50000030FFFF007CFFFF202078700021B97067
:101F60000020387070473068026842F400620260F6
:101F7000704730680169706A0170716A4A1C704765
:101F800030680169706A0170716A308D4A1C411EA7
:101F900072623185708D411E7185306841694A07D2
:101FA000704700224146304600F02EB922462946AD
:101FB000304600F0D3B9016821F4806101607047B8
:101FC0003068016821F4806101600020704730684A
:101FD000016841F40071016030680169706A017044
:101FE000716A308D4A1C411E72623185708D411EAE
:101FF00071853268106970473068016821F480612A
:1020000001602B4630680169706A0170716A308D19
:102010004A1C411E726231850022708D411E7185FD
:1020200000944146304600F0EFB8026842F00102E9
:10203000026070470000FFFF2068016841F4807172
:10204000016070470200100004000100016841F4C3
:102050008061016070472868016821F400610160B7
:102060007047F8B504460D46E06A08281EBF0128EF
:10207000DFF88811884216461F4602D100F035F875
:1020800004E0206B122801D1FFF7D6FF00973346FA
:1020900000F032F80028206807D00168CA0544BF64
:1020A0004FF4007020640320F2BD2169B1F5804F28
:1020B00008BF05F0FE050ED0E90901F0060141F068
:1020C000F00101613B463246DFF8341100F01CF8A4
:1020D00048B92068EDB205613B463246DFF824116D
:1020E00000F012F800B10120F2BD2068026842F44D
:1020F000807202607047434600224FF00111204673
:1021000082E04B46424651462046A5E028680168D9
:1021100041F4807170472DE9F84F05462868DDF8D5
:1021200028800B9F0C46FFF791FF1646FFF7EEFF46
:10213000994600F054F800284FF4007A2BD1296812
:10214000DFF8C0B004F0FE00086100F037F80028A6
:1021500031D10090296800F03AF800F036F870B9F3
:10216000B9F1010F05D02968300A086100F02BF899
:1021700028B92868F6B2066100F025F830B1286C5D
:10218000042818D1286800F033F814E0FFF7BEFFE8
:1021900000F025F838B128680168CA0548BFC5F8BD
:1021A00040A0032008E0286844F00104E4B2046180
:1021B00000F004F800B10120BDE8F28F3B46424632
:1021C0005946284648E03A464146284680E04A6952
:1021D00000923A4689690091414600987047016033
:1021E0000097434600224FF0011128460CE030686A
:1021F000016841F400710160704700000000FFFFBA
:1022000008000100020001002DE9F041069F05468B
:102210000E4690461C4631022868090E01290CBF63
:1022200040698069304080B2B1B288420CBF012061
:10223000002040450DD114F1010FECD000F07EFBE1
:10224000C01B844201D3002CE5D100F05DF80120D1
:1022500000E00020BDE8F081F8B505460E461446C2
:102260001F463102090E286801291BD141693140FE
:1022700089B2B2B291421BD041694A051AD5FFF723
:10228000B7FF6FF480602A685061002105F13C00BF
:102290002963202242708170426842F00402426049
:1022A000017013E08169314089B2B2B29142E3D149
:1022B0000020F2BD14F1010FD3D000F03FFBC01B92
:1022C000844201D3002CCCD100F01EF80120F2BDD5
:1022D00070B505460C46164628684169080611D4B3
:1022E000284600F067F858B914F1010FF4D000F057
:1022F00025FB801B844201D3002CEDD100F004F8B3
:10230000012070BD002070BD00202863202105F150
:102310003C00002241708270416841F02001416020
:102320000270704770B505460C461646286841692C
:10233000480711D4284600F03DF858B914F1010FB0
:10234000F4D000F0FBFA801B844201D3002CEDD1C5
:10235000FFF7DAFF012070BD002070BD70B50546A3
:102360000C461646286841694A0617D44169CA06D0
:102370000BD400F0E3FA801B844201D3002CF1D18E
:1023800000F00EF841F0200104E06FF0100141610F
:1023900000F006F841600270012070BD002070BDA1
:1023A00000202863202105F13C000022417082704A
:1023B0004168704701684A6953050FD56FF4806220
:1023C0004A61002101633C302022427081704268E2
:1023D00042F0040242600170012070470020704703
:1023E00081B0002000900022DFF86803416841F4CA
:1023F00080414160416801F4804100910099009260
:10240000036843F080530360006800F08050009040
:10241000009801B0704738B586B000F07DF92068AB
:10242000DFF83453DFF83443A8421AD10020059076
:102430001222216841F002012160C021206800F0D1
:10244000020005900598DFF8180300F048F8002016
:102450000590216941F400112161206900F4001008
:1024600039E0DFF80013884237D100200590216859
:1024700041F0040121600021206800F00400059073
:10248000059805914FF40071226842F00102226024
:102490001222206800F0010005900598DFF8C802BC
:1024A00000F01DF812210191012202924FF4807078
:1024B000032100900391042204926946DFF8AC02E4
:1024C00000F042FA00200590216941F400012161E9
:1024D000206900F400000590059807B030BD009118
:1024E0000192012102910322042104910392694681
:1024F00000F02ABA38B586B0044601A8142100F0CD
:102500001DFB24689A4DAC4225D10020009000228A
:102510009248016941F480410161016901F48041FF
:102520000091009900924FF46041036843F0020368
:1025300003600222006800F00200009000988848C2
:102540000191029200210391032205210591049239
:1025500001A900F0F9F907B030BD38B586B000F038
:10256000DBF82468834A80487C4994424FF44063F6
:1025700016D1002405940A6942F400220A610A690E
:1025800002F400220592059A05940D6845F00405B1
:102590000D6000F0B4F80093029402230193A5E0CB
:1025A000754A944232D1002305930A6942F480129D
:1025B0000A610A6902F480120592059A05930C6873
:1025C00044F004040C6000F09AF805934FF4805234
:1025D0000C6844F008040C600223096801F008014B
:1025E00000F093F80323082203930492694600F055
:1025F000ABF90221019100220420029203210090F4
:1026000003910822049269465C4874E05C4D574A85
:10261000AC4210D1002005904B6943F010034B6190
:102620000023486900F0100000F087F84FF4C06103
:1026300000F077F85FE0534DAC4219D100200590CF
:102640000B6943F400330B610023086900F4003088
:1026500000F073F80C2100F064F800F075F9002226
:102660000021262000F088FA262000F0A2FA44E09B
:10267000454A944220D1002005900A6942F4802204
:102680000A610022086900F480200590059834480A
:10269000059202220C6844F002040C60096801F003
:1026A000020105910599019200210291032207215F
:1026B0000491009303921DE0344A94421DD10023FB
:1026C00005934A6942F020024A614A6902F02002F9
:1026D0000592059A0593C0220C6844F004040C602E
:1026E0000223096801F0040100F00FF80323082217
:1026F00003930492694600F027F907B030BD0A68D9
:1027000002F004020592059A70470591059900921E
:10271000019300220292704704466846142100F09B
:102720000DBA05980091019300210291032307211E
:1027300004910393694610467047059005980593E8
:1027400002230C6844F001040C60086800F00100EA
:102750000590704740380240005400403038024035
:1027600000040240005C00400008024000000240FB
:1027700000380040004C004000500040000C024077
:102780000010014000440040004800400014014097
:102790002DE9F04104000F4678D0494E306800F032
:1027A0000700B84202D200F073F86FD12068454D9F
:1027B000810712D5400703D5A96841F4E051A9600B
:1027C0002078010703D5A86840F46040A860A96894
:1027D000A06821F0F0010143A9602178C8074DD518
:1027E0006068012802D129688A0305E0022818BF21
:1027F000032803D129688A0103D447E029688A079E
:1028000044D5A968890840EA8100A86000F096F8DC
:102810008046A868616800F00C00B0EB810F2DD0F5
:1028200000F08CF8A0EB080041F289318842F0D327
:10283000032021E02078410705D5AA68E06822F44A
:10284000E0520243AA602178080706D5A9682069EA
:1028500021F4604141EAC001A96000F03FF8AA6894
:1028600019491A4BC2F30312895CC8401860184812
:10287000006800F0C9F90020BDE8F081306800F080
:1028800007008742D6D200F003F8D3D00120F3E747
:102890003770316801F00701B94270470B480D4AA3
:1028A000006813680C49C3F3822206E00748094A0E
:1028B000006813680849C3F34232895CC840704716
:1028C000003C024000380240185000080C00002074
:1028D00008000020083802408850000830B5144C29
:1028E000606800F00C00042802D0082802D01DE027
:1028F000104830BD226820680023410202F03F02E8
:1029000004D525680B49C5F3881003E020680A49FF
:10291000C0F38810A1FB0001FEF7C4FB2168C1F3DE
:102920000141491C4900B0FBF1F030BD024830BD07
:102930000438024040787D010024F40001484068DA
:10294000704700BF000000202DE9F84F0D464FF002
:1029500000086F490F22012304462E6803FA08F08D
:1029600000EA0609814540F0C6804FEA480C03267C
:1029700006FA0CF66FEA060E6E6806F00307012FE2
:102980001CBF06F00306022E11D1A668EF680EEAFE
:10299000060607FA0CF73E43A660666826EA0000C2
:1029A0006E68C6F3001606FA08F6304360604FEA18
:1029B00088002E7906F00306032E1FD0E668AF6864
:1029C0000EEA060607FA0CF73E43E6602E7906F09B
:1029D0000306022E12D14FEAD80604EB860600F059
:1029E0001C07D6F820A002FA07FB2AEA0B0AD5F842
:1029F00010B00BFA07F747EA0A07376226680EEAB3
:102A000006072E7906F0030606FA0CF63E4326600A
:102A10006E6816F4403F6ED0002600964FEA980C80
:102A20000E68DFF8F0E046F480460E6000F00C001F
:102A30000E6806F480460096009E5EF82C7002FA3E
:102A400000F627EA0606344FBC4208BF002722D012
:102A5000324FBC4208BF01271DD0314FBC4208BFD6
:102A6000022718D02F4FBC4208BF032713D02E4F88
:102A7000BC4208BF04270ED02C4FBC4208BF05271C
:102A800009D02B4FBC4208BF062704D0294FBC42B7
:102A90000CBF0727082707FA00F030434EF82C0038
:102AA0006FEA090C244886680CEA060E6E68F70285
:102AB00048BF49EA0E0EC0F808E0C6680CEA060EE8
:102AC0006E68B70248BF49EA0E0EC0F80CE04668CF
:102AD0000CEA060E6E68B70348BF49EA0E0EC0F84E
:102AE00004E006680CEA060E6E68F60348BF49EA81
:102AF0000E0EC0F800E008F10108B8F10F0F7FF6E4
:102B00002CAFBDE8F18F02B9090481617047000064
:102B100044380240083801400000024000040240EE
:102B200000080240000C0240001002400014024065
:102B300000180240001C0240003C0140002200F04E
:102B400083B800000901020002D42948815470476B
:102B5000284B02F00F021A4402F8041C7047264B5F
:102B600019684FF6FF020002114000F4E0600843CC
:102B7000224908431860704738B51F4B1C68C4F3DE
:102B80000223C3F10704052C28BF04241D1D072DB3
:102B900034BF0023DB1E012505FA04F4641E214026
:102BA000994005FA03F35B1E1A401143BDE8344017
:102BB000C8E7010007D4012200F01F01104B8A4032
:102BC000400943F82020704710B5401EB0F1807FC7
:102BD00001D3012010BD0B4C60600F214FF0FF307E
:102BE000FFF7B0FF0021A16007202060002010BD8A
:102BF00000E400E018ED00E00CED00E00000FA0554
:102C000000E100E010E000E038B50D4D0D4B2A78F2
:102C100004464FF47A711868B1FBF2F2B0FBF2F09F
:102C2000FFF7D2FF50B9102C08D2002221464FF0F6
:102C3000FF30FFF7A1FFAC60002032BD012032BDA4
:102C4000000000200C00002000B500BF13009646D5
:102C50009446103928BFA0E80C50FAD85FEA417CAE
:102C600028BF0CC048BF40F8042BC90728BF20F874
:102C7000022B48BF00F8012B00BD00002DE9F84CE5
:102C80002DED0A8B82B041EC190B149C43EC182BF0
:102C90000CB10020206051EC180B20F0000631F040
:102CA000004708BF002E14D053EC192B0020DFF88A
:102CB000241600F063FB0CD0DFF8141600F05EFB66
:102CC0000FD151EC180B48004015401C09D10903E5
:102CD00007D102B00020BDEC0A8BDFF8F815BDE883
:102CE000F48C51EC190B48004015401C0DD051ECF0
:102CF000190B31F0004108BF002806D051EC180B29
:102D000048004015401C40F0F58051EC190B48007C
:102D10004015401C05D1090318BF51EC190B40F0B8
:102D2000CF8251EC180B48004015401C05D1090317
:102D300018BF51EC180B40F0C38251EC180B48003F
:102D400001244015401C61D051EC180B4B0043EAA4
:102D5000D0734200002B08BF002A04D1B0EE48AA6D
:102D6000F0EE68AA19E040F23345A5EB5352352A3C
:102D700004DB00F0000001F000410CE0202A03DD3C
:102D8000203AD140914000E001D1002003E0002A28
:102D9000C4BFD040904041EC1A0B53EC182B51ECBF
:102DA0001A0B00F0EBFA18BF00244B0043EAD07373
:102DB0004200002B08BF002A04D1B0EE4A0AF0EE10
:102DC0006A0A19E040F23445A5EB5352352A04DB78
:102DD00000F0000001F000410CE0202A03DD203A61
:102DE000D140914000E001D1002003E0002AC4BF9F
:102DF000D040904041EC100B44B153EC1A2B51ECF5
:102E0000100B00F0BBFA0CBF0024012451EC190B8D
:102E100048004015401C0ED109030CD151EC190B90
:102E2000C80F25D153EC182BDA0F0CBF9FED8C0B7C
:102E30009FED8D0B42E251EC180B48004015401CF1
:102E400028D1090326D153EC192B23F00041B1F509
:102E5000801F22F000002ED20022002908BF002887
:102E600000922DD06A4651EC190BFEF7C5FA27E007
:102E700051EC180BC80F06D1002C0CBF9FED780B3E
:102E80009FED7B0B1AE2002C0CBF9FED770B9FEDA3
:102E90007A0B13E2002C1ABF51EC190BC80F00205B
:102EA00053EC182BDA0F1ED100280CBF9FED6E0BD0
:102EB0009FED710B02E2DFF8204404EB115000900B
:102EC00051EC180BC80F009806D10028CCBF9FED1D
:102ED000640B9FED650BF1E10028CCBF9FED620B09
:102EE0009FED5F0BEAE100280CBF9FED5D0B9FEDAE
:102EF000600BE3E151EC180B4B0043EAD073420046
:102F0000002B08BF002A04D1B0EE48AAF0EE68AA50
:102F100019E040F23345A5EB5352352A04DB00F0AB
:102F2000000001F000410CE0202A03DD203AD140EE
:102F3000914000E001D1002003E0002AC4BFD0404E
:102F4000904041EC1A0B51EC190BC80F11D053EC07
:102F5000182B51EC1A0B00F011FA0AD0AFF30080D5
:102F600002B04FF0FF30BDEC0A8B6FF00041BDE8BE
:102F7000F48C53EC192B23F00041B1F5801F22F0A3
:102F800000000BD20022002908BF0028009211D0B7
:102F90006A4651EC190BFEF72FFA09E0CE4E06EB0C
:102FA00011500090DFF89C13CC48034010461943A1
:102FB00041EC190B51EC190BC80F36D021F0004031
:102FC00053EC192B034643EC192B51EC1A0B4B0015
:102FD00043EAD0734200002B08BF002A04D1B0EEB0
:102FE0004A0AF0EE6A0A19E040F23445A5EB535262
:102FF000352A04DB00F0000001F000410CE0202A3B
:1030000003DD203AD140914000E001D1002003E0EF
:10301000002AC4BFD040904041EC100B53EC1A2B57
:1030200051EC100B00F0AAF901D1002600E00126B6
:103030000098012824D151EC190BA94AA94BFEF79D
:1030400013FA1DD253EC192B00204FF08041FEF7EC
:10305000ADF800259FEDC0BB41EC190B2EE000BF81
:10306000000000000000F07F0000000000000000F1
:10307000000000000000F0FF0000000000000080E1
:1030800053EC192B00209849FEF790F89FED97AB71
:1030900053EC1A2BFEF7A2FCFEF7B4FAA0F12005C0
:1030A0002846FEF7CDFA0022924BFEF77FF853EC4C
:1030B0001A2BFEF793FC41EC1B0B6D0151EC190B25
:1030C00053EC1B2BFEF7CEFA41EC1A0B53EC192BE9
:1030D00051EC1B0BFEF782FC02460B4651EC1A0B1F
:1030E000FEF732FB41EC190B53EC192BFEF75EF89F
:1030F00041EC1C0B53EC1C2B7F488049FEF756F823
:103100007F4A804BFEF76AFC53EC1C2BFEF74EF80F
:103110007D4A7E4BFEF762FC53EC1C2BFEF746F813
:103120007B4A7C4BFEF75AFC53EC1C2BFEF73EF817
:10313000794A7A4BFEF752FC53EC1C2BFEF736F81B
:10314000774A784BFEF74AFC53EC1C2BFEF72EF81F
:10315000754A764BFEF742FC53EC1C2BFEF726F823
:1031600053EC1A2BFEF77EFA07468B46002059498E
:1031700053EC1B2BFEF776FA00224FF08043FEF74C
:1031800015F83A465B46FEF729FC53EC192BFEF77F
:103190000DF853EC1A2BFEF721FC41EC190B0098AB
:1031A0004A4F7F4407F593772F44FEF749FAD7E952
:1031B0000023FEF713FC41EC1A0B53EC192B5C486F
:1031C0005C49FDF7F3FF53EC1A2BFEF707FC53ECB9
:1031D000182BFDF7EBFF0022574BFEF745F941ECAA
:1031E0001B0B68D30122554BFEF756F959D9C80F6E
:1031F00053EC1B2B1ABF002051495249FEF7EEFB3E
:10320000FEF700FA054653EC192B51EC180BFDF7AD
:10321000CDFF82468B46D7E90201D7E90423FEF7AA
:10322000DDFB53EC182BFDF7C1FF9FED47BB53ECC3
:103230001B2BFDF7BBFF52465B46FEF7CFFBCDE9EC
:10324000000153EC1A2B51EC180BFDF7AFFF0746AA
:103250008B462846FEF7F4F902460B463846594697
:10326000FEF700FA53EC1B2BFDF7A0FFDDE900236E
:10327000FEF7B4FB0CB12560002500950022154B2C
:1032800000F08CF820F0000231F0004308BF002A63
:1032900041EC100B0FD048004015401C03D109032E
:1032A00001D19FED2B0B4EB151EC100B81F0004181
:1032B00041EC100B02E09FED2A0BF4E751EC100BF0
:1032C00002B0BDEC0A8BBDE8F48C00BF7C18000096
:1032D0000000F0BF0000F03F02FCFFFFFFFF0F8087
:1032E000CD3B7F669EA0E63F0000504000000000FE
:1032F0000000E03F0000903FF7DE29BFD8F8C23F52
:10330000F4B3FECC1A99C33F62CB68D96F46C73F6E
:10331000C6C912DAC471CC3F4AE98A942449D23F23
:10332000F75F97999999D93FBC5555555555E53F44
:10333000FE822B654715F73F0000E0C00000E0402B
:103340000000E0BF0000E03FEF39FAFE422EE63F0A
:10335000000000000000F07F000000000000F03FCF
:10336000000000000000000080B541EC100B0020C0
:10337000009051EC100BFFF781FC04BD90420CD182
:1033800041EA030C50EA4C0C07D0994205D14FF4A6
:10339000001C1CEB410F38BF89427047F8B52DED7A
:1033A0000A8B41EC1A0B48004015109D401C43EC61
:1033B000182B23D051EC1A0B31F0004108BF002824
:1033C0001CD051EC180B48004015401C16D051EC95
:1033D000180B31F0004108BF00280FD051EC1A0B38
:1033E0000022DFF84833FEF73FF880F0A38055EC69
:1033F000184B9FED800B05F00042ACE051EC1A0B2E
:1034000048004015401C02D1090340F0898151EC6D
:10341000180B48004015401C01D1090353D151EC51
:10342000180B31F0004308BF002A08D151EC1A0BE9
:1034300048004015401C46D1090344D10DE0480026
:103440004015401C12D1090310D151EC1A0B480051
:103450004015401C37D1090335D1AFF30080BDECD6
:103460000A8B4FF0FF306FF00041F4BD51EC1A0BA6
:1034700031F0004108BF002828D151EC180B48005A
:10348000400D05EB000234D151EC180B31F0004136
:1034900008BF002806D02A4651EC180BFEF714F896
:1034A00041EC180B51EC180B20F0000231F00043F6
:1034B00008BF002A05D048004015401C03D109036D
:1034C00001D1AFF3008051EC180B2BE151EC1A0B3A
:1034D00048004015401C26D1090324D153EC1A2B77
:1034E00051EC180BBDEC0A8B01B0BDE8F040FDF7C4
:1034F0005DBE002AC8DD40F2FF70824209DB9FED0D
:103500009F0B53EC102B01F000410B4343EC182BA5
:10351000C8E76FF31E5141EA025155EC184B0D46B6
:1035200045EC184BBEE755EC184B9FED320B05F000
:10353000004210E001227E4BFDF7AEFF11D89FED57
:103540008F0B51EC100B55EC184BAFF3008005F0CE
:10355000004040EA010251EC100BBDEC0A8B114611
:10356000F4BD53EC1A2B73487349FDF71FFE41EC71
:10357000100B53EC102B9FED719B03F0004251ECAC
:10358000190B0C46144353EC192B51EC100B23462A
:10359000FEF724FAFEF736F80446FEF751F841EC40
:1035A0001B0B53EC1B2B4FF078406649FDF7FEFDDB
:1035B00002460B4651EC1A0BFEF754F806460F462E
:1035C00053EC1B2B60486149FDF7F0FD02460B46AA
:1035D00030463946FEF746F841EC1A0B21F000411F
:1035E00000225B4BFDF740FF08D2B0EE48AAF0EE98
:1035F00068AA55E0000000000000000053EC1A2B00
:1036000051EC1A0BFDF7D2FD41EC1B0B53EC1B2BBD
:1036100050485149FDF7CAFD504A514BFEF7DEF9BB
:1036200053EC1B2BFDF7C2FD41EC1C0B53EC1B2B89
:103630004C484D49FDF7BAFD4C4A4D4BFEF7CEF9CB
:1036400053EC1B2BFDF7B2FD53EC192BFEF7C6F91B
:1036500053EC1A2BFDF7AAFD41EC190B53EC1C2B74
:10366000FEF7BCF99FED43AB53EC1A2BFEF7B6F90E
:1036700006460F4651EC1C0B53EC192BFDF7F2FFDD
:1036800053EC1A2BFEF7AAF902460B463046394690
:10369000FEF75AF853EC182BFDF788FD41EC1A0B96
:1036A00051EC1A0B2A194800400D02EB000319D007
:1036B000002B17DD40F2FF70834209DB9FED2F0BDB
:1036C00053EC102B01F000410B4343EC1A2B16E096
:1036D0006FF31E5141EA035155EC1A4B0D4645EC70
:1036E0001A4B0CE051EC1A0B31F0004108BF0028D6
:1036F00005D051EC1A0BFDF7E7FE41EC1A0B51EC2B
:103700001A0B20F0000231F0004308BF002A05D058
:1037100048004015401C03D1090301D1AFF30080DC
:1037200051EC1A0BBDEC0A8BF4BD000000C89CC024
:1037300000C89C40FE822B654715F73F0000000043
:103740000000E03F422EE63FF2E4D5BCE7E84B3E06
:103750000000903C112E5781A03F503F5843128CDF
:103760008F71BC3F4BE8A541B752013F0BBDF3DA67
:10377000E8708C3F000000000000F03F00000000F7
:103780000000F07F38B5040001D1012032BD00F007
:1037900017F808B900F018F800F01BF800F023F84B
:1037A000FFE7416100F001F832BD2068C16841F4D3
:1037B0000051C1600020686020216970A9707047C5
:1037C00004F13C0568787047002129702046FEF717
:1037D000C4BE242068702068C16821F40051C16013
:1037E000204600F0D6BA2068016921F490410161B9
:1037F0002068416921F02A0170472DE9F843054608
:1038000005F13C060C46707820281746994642D1AF
:103810000CB1380001D101203EE0307801283AD0C7
:10382000012131700020706021227270FFF786F84C
:10383000AF848046EF84A868B0F5805F04BF286934
:1038400000280EBF2746204600270021317004467D
:103850000EE014F8012B426007E02868002CF8D134
:1038600037F8021BC1F308014160E88C411EE9846E
:103870004346E88CCDF8009000280FD0002280212C
:10388000284600F085F90028E7D0032004E0202036
:103890007070002000E00220BDE8F2830022402189
:1038A000284600F075F90028F1D0EEE738B500F1B0
:1038B00030039C7B202C0FD109B1140001D10120D1
:1038C00032BD1C7B012C07D001241C7300251D6018
:1038D000BDE8384000F0A6B9022032BD206800F1F2
:1038E000140151E8001F00F1140221F0400142E8E8
:1038F0000010002870477CB5044621680B68CD682D
:103900004A6913F00F0007D1980661D5AA065FD562
:103910002046BDE87640D9E1D00702D415F4907F67
:1039200056D0D80705D5E90503D5206C40F0010035
:103930002064580705D5D10703D5206C40F002005C
:103940002064980705D5D10703D5206C40F004000A
:103950002064180707D5A90601D4D00703D5216C28
:1039600041F008012164206C002830D0980604D56D
:10397000A90644BF204600F0A9F920684069216CDF
:103980000A0701D440061DD5204600F068F92068DA
:103990004169480611D5FFF7A1FFFCD1A06B60B1CA
:1039A0000FF21D310165A06B00F09BFA00280ED0CC
:1039B000A06B016DBDE87C4008472046BDE876401D
:1039C00000F0A6BA204600F0A3FA0020206473BDE0
:1039D000206B012804F13D0240F07D80D8067AD5A5
:1039E000EE0678D5002300930D6800954B68009390
:1039F0000098496948063CD5A16B0868406880B2C8
:103A00000028E4D0A38D9842E1DAE085C869B0F5DA
:103A1000807F2AD0206800F10C0151E8001F00F1DE
:103A20000C0321F4807143E800100028F2D100F06B
:103A300094F8490800F11403490043E800100028F5
:103A4000F5D100F08AF800F1140321F0400143E8B9
:103A500000100028F5D1202050700021216300F0D3
:103A60008AF8FCD1A06B00F0F9F9A18DE08D091A5C
:103A70002BE0A08DE18D411AE08D00281CBF88B29B
:103A8000002863D0206800F10C0353E8003F00F1E8
:103A90000C0523F4907345E800300028F2D120682B
:103AA00000F055F800F114055B0045E800300028EF
:103AB000F5D1202050700022226300F054F822F04B
:103AC000100243E800200028F7D12046BDE87C40E2
:103AD00089B200F01EBA180629D52E0627D510780F
:103AE000212833D1A068B0F5805F04BF2069002889
:103AF00008D1206A0288C2F308024A60206A811C49
:103B0000216204E0206A421C226200784860E08C56
:103B1000401EE08480B2C8B92068C16821F08001ED
:103B2000C1602068C16841F04001C16073BD5806A2
:103B30000CD56B060AD5C86820F04000C86020216B
:103B400011702046BDE8764000F0E4B973BD00F185
:103B5000140353E8003F5B087047206800F114012C
:103B600051E8001F7047206800F10C0252E8002F56
:103B700000F10C037047206800F10C0151E8001FB0
:103B800000F10C0221F0100142E8001000287047FB
:103B90002DE9F041069C05460E4690461F462868D2
:103BA00001683140B1420CBF0120002040451BD1CB
:103BB00014F1010FF3D024B1FEF7C0FEC01B844204
:103BC000EDD200F027F821F4D07100F012F8F8D10E
:103BD00000F013F8FCD105F13C0020214170817008
:103BE00000210170032000E00020BDE8F08121F4F5
:103BF000F07142E8001000287047286800F11401B5
:103C000051E8001F490800F11402490042E8001081
:103C100000287047286800F10C0151E8001F00F1EE
:103C20000C02704781628285C28500F13C0100224E
:103C30004A6022238B700A70016921B10168CA6849
:103C400042F48072CA6001684A6942F001024A6126
:103C50000068C16841F02001C16000207047016820
:103C600001F10C0252E8002F01F10C0322F49072D2
:103C700043E800210029F2D1016801F1140252E861
:103C8000002F520801F11403520043E800210029DB
:103C9000F2D1016B01290CD1016801F10C0252E84B
:103CA000002F01F10C0322F0100243E8002100294B
:103CB000F2D1202180F83E100022026370470000FC
:103CC000806B0021C185C18400F022B91CB590F839
:103CD0003E1022295BD18168826AB1F5805F0AD1EA
:103CE000016969B903685968C1F308011180826AE2
:103CF000911C81620FE0002904BF0169002902D1F3
:103D00000368596803E00168496801F07F01117098
:103D1000816A4A1C8262C18D491EC18589B2A1BBDC
:103D20000168CA6822F02002CA600168CA6822F4E9
:103D30008072CA6001684A69520852004A612021B3
:103D400080F83E10026B012A1DD100210163016839
:103D500001F10C0252E8002F01F10C0322F01002D5
:103D600043E800210029F2D102681168CB0606D58C
:103D70000024009413680093526800920099818D8A
:103D800000F0C7F801E000F0C7F8002016BD0220DF
:103D900016BD70B5044622681169E06821F44051EF
:103DA00001431161D3682748A168034020690B4390
:103DB00061690343E0690B430343D3605169A06920
:103DC00021F44071014351611F498A421CBF1F48C1
:103DD000824202D1FEF76AFD01E0FEF75FFD6268F4
:103DE0002568E46964261921B4F5004FA1FB0001A0
:103DF00012D1D30F5200FDF755F900F029F8F60063
:103E000032366420B6FBF0F0420002F4F87202EBA6
:103E1000011200F0070010E0930F9200FDF742F945
:103E200000F016F8360132366420B6FBF0F000F0F0
:103E3000F00202EB011200F00F008018A86070BDC4
:103E400000000000F369FFFF001001400014014072
:103E50006421B0FBF1F106FB11067047F8B5064688
:103E600006F13404656AFEF769FD074660780228AA
:103E700005D080212162002020700120F2BD306831
:103E8000016821F0160101603068416921F080016C
:103E90004161E068002804BF6069002802D03068F2
:103EA00000F031F830680168490849000160306865
:103EB0000168CA070CD5FEF741FDC01B0628F6D3E2
:103EC0002020206203216170002020700320F2BDB9
:103ED000A06A3F218140A96000200121617020700B
:103EE000F2BD90F83510022903D0802242650120EE
:103EF0007047052180F835100068026852085200AA
:103F0000026000207047016821F0080101607047DD
:103F100070477047704700000068DFF8E815884276
:103F200010D1DFF8E4054178312902D10121017077
:103F300003E0322904BF02230370411C0122001D4B
:103F4000FFF7B4BC70470000F8B52DED0A8B88B0C0
:103F500006A80021C0E90011059104914822ADF89E
:103F60000E108DF80C206424DFF8A0650094012366
:103F700003AAEE213046FDF795FE00F0FDF903217E
:103F800006AA0191009202940123002200F007F991
:103F900000F0F2F99DF818209DF8190040EA02247B
:103FA00064220223029201930DF11207009701236C
:103FB000A22200F0F4F800F0DFF96420022105AA43
:103FC00000F0E8F8A42200F0EAF800F0D5F9642047
:103FD00002210DF1160200F0DDF8A62200F0DFF854
:103FE00000F0CAF96420022104AA00F0D3F8A82244
:103FF00000F0D5F800F0C0F9642002210DF10E02A6
:1040000000F0C8F8AA2200F0CAF800F0B5F99FED58
:104010005B1B00F0AFF8B0EE408AF0EE608A2046FD
:10402000002100F0A9FA41EC190B9FED561B00F09E
:10403000A1F8B0EE40AAF0EE60AA9FED541B00F08C
:1040400099F8B0EE40BAF0EE60BA53EC192B51EC8F
:10405000190BFDF7ABF841EC1C0B9DF812009DF815
:10406000131000F07FF853EC182BFDF76DFB04469E
:104070000D4653EC1C2B51EC1C0BFDF797F8224618
:104080002B46FDF793F804460D469DF814009DF865
:10409000151001EB00200004800BFDF7D1FA53EC62
:1040A0001A2BFDF751FB06460F4653EC1C2B51EC27
:1040B000190BFDF77BF832463B46FDF777F800F029
:1040C0004DF804460D469DF816009DF8171000F0B7
:1040D00049F853EC1B2BFDF737FB53EC1C2BFDF77A
:1040E00065F800F03BF806460F469DF810009DF875
:1040F000111000F02EF804460D469FED9D1B00F0B8
:1041000039F853EC102B20462946FDF71DFB53ECE4
:10411000192BFDF74BF832463B46FDF75FFC044692
:104120000D469DF80E009DF80F1000F012F80022C9
:10413000DFF8DC33FDF73AF80022DFF8D833FDF77B
:1041400003FB00F00BF808B041EC100BBDEC0A8B40
:10415000F1BD01EB002080B2FDF72EBC22462B46BC
:10416000FDF73CBC01EB00200004C00B4042FDF712
:1041700067BA00009FEDA80B00F025BA0000000010
:10418000000035400000000000003040000000004A
:104190000000264002900191009201237047EE2119
:1041A0003046FDF72DBE00002DE9F84787B000F03E
:1041B00013FA00F0F2F800F033F9D44ED64830602C
:1041C0000021DFF85893B160F1604FF480487161CD
:1041D000B161F1613162C6F80490C6F810803046D2
:1041E000FDF7C4FC08B100F0BFF9CD4FCD4807F191
:1041F000AC04002120604FF4E13A0C206061A16022
:10420000E1602161A161E161C4F804A02046FFF7EB
:10421000B9FA08B100F0A8F9C348606400210C2085
:10422000A065E16421656165E1652166C4F848A087
:1042300007F1F000FFF7A6FA08B100F095F907F5CD
:104240009A75BA4800F09BF808B100F08DF9AE4CB1
:10425000AC48606000210C20A061E16021616161D7
:10426000E1612162C4F808A0201DFFF78BFA08B1B4
:1042700000F07AF9AE48686400210C20A865E96472
:1042800029656965E9652966C5F848A007F5BC7028
:10429000FFF778FA08B100F067F907F5DE75A54871
:1042A00000F06DF808B100F05FF9A34838604FF4F2
:1042B000827179600022BA60FA603A617A614FF4E3
:1042C0000071B961FA613A627A62BA620A20F862F0
:1042D000384600F09BF908B100F046F99748B865F8
:1042E000C7F85C90002139667966C7F86880F9667E
:1042F00039677967B96707F15800FDF737FC08B1EE
:1043000000F032F90122611C201DFFF7CFFA02A84C
:104310001421FEF713FC1E2064218DF80400009187
:10432000012301AAEE213046FDF7BCFC00F024F881
:104330008EA6FFF709FE51EC100B00F0CBF9686474
:1043400020780128F5D1686C00F0F8F902460B4698
:10435000314602A800F016FA0123142202A9201DFA
:10436000FFF74BFA4FF47A7000F02CFAE1E7000007
:1043700000000000000018400A2000F023BA286066
:1043800000210C206861A960E9602961A961E961E7
:10439000C5F804A02846FFF7F5B980B592B006A885
:1043A0003021FEF7CBFB01A81421FEF7C7FB00204C
:1043B000009001236248016841F0805101600021B2
:1043C000006800F08050009000985E4800910268FC
:1043D00042F4804202600222006800F480400090B3
:1043E00006A8009906921021002209930A910C92C6
:1043F00000F0FCF908B100F0B7F80F20019000219F
:10440000029103910491059101A8FEF7C1F908B149
:1044100000F0AAF813B000BD000000000000244026
:1044200070B586B068461421FEF788FB0024464824
:10443000464E474D05940168464C41F00401016029
:10444000026802F0040205920022059905920368B1
:1044500043F080030360016801F080010591059934
:104460000592036843F001030360016801F0010154
:10447000059105990592036843F002030360016802
:1044800001F002010591059905924FF4604103681E
:1044900043F008030360006800F0080005900598E9
:1044A0003046FEF730FB00224FF480512046FEF7E5
:1044B0002AFB00224FF4C0512846FEF724FB4FF49C
:1044C000604100F049F83046FEF73EFA03204FF411
:1044D0008811009001910022029269462846FEF759
:1044E00033FA4FF4805100F037F82046FEF72CFAEB
:1044F0004FF4C05100F030F82846FEF725FA06B018
:1045000070BD00000044004068020020140200203A
:104510000000F8BF00005940005C0040A086010088
:1045200010000020004C00400050004000100140EE
:104530000048004000140140003800400054004092
:10454000403802400070004030380240000802400D
:10455000000002400004024000910122002102916B
:10456000039101926946704772B6FEE7252E3266C6
:1045700020A1C90D0A000000A9B1B1FA81F24140A1
:104580009040C2F12002D141414002F21D424FEA67
:10459000025C42054FEAD02072F1004250EB4150DC
:1045A0004CEBD121704748B1B0FA80F29040C4F290
:1045B000D011A1EB025202EBD02140057047000060
:1045C00041EC100B01BD80B553EC112B51EC100BDD
:1045D000FEF7CAFEF4E7000080B50B48016841F41D
:1045E00000710160026842F480620260016841F477
:1045F000807101600320FEF7B2FA0020FEF704FB91
:10460000FDF7EEFE002002BD003C024038B504007C
:1046100001D1012032BD606A28B900F051F805D0FF
:104620000021E16102E00020206160610020A062C1
:1046300004F15005687820B9002129702046FDF763
:1046400059FF0220687000F03FF86068A168E268D6
:1046500000F4827001F404410843217C02F40062FA
:104660001043227D01F002010843A16902F001021A
:104670001043227F01F40071084394F8201002F0E7
:1046800038021043A26A01F080010843216802F455
:10469000005210430860A06994F824102268000CAE
:1046A00000F0040001F01001084350602068C16967
:1046B00021F40061C161002068600121697032BD90
:1046C0006068B0F5827F70472068016821F0400182
:1046D0000160704701F000428B1AA3F16051B1F5FF
:1046E000801F0ADBB1F17F6F1FD242EAC102C10015
:1046F00071F1004142EB507070470B15C3F1090393
:10470000212B10D2890241EA9051800201284941AF
:1047100041F0004121FA03F0C3F12003994071F107
:10472000004150417047100070476FF0000013EBDC
:10473000103F5CBF000E42EAC0507047C0F3C75143
:1047400081B1FF2906D0C110400721F0E04101F1FD
:104750006051704741020CBF40F4E0016FF000412E
:104760000020704700F0004100020AD0B0FA80FC3F
:1047700000FA0CF001F16051A1EB0C5101EBD021DA
:10478000400570470CB430B583B00A4606A90291C3
:10479000044600250194009502AB01A9084878441D
:1047A0001E30FBF7F1FC019A157000284EBF04463D
:1047B0000198041B204603B030BC5DF80CFB00BF21
:1047C0000BC8FFFF38B50446FEF7B8F814F1010F27
:1047D000054602D0044801786418FEF7AFF8401B84
:1047E000A042FAD331BD00BF000000202DE9F843FC
:1047F000040016D02078DFF81463C10713D5B06821
:1048000000F00C00042807D0B06800F00C00082865
:104810003ED1706841023BD53068810303D56068A2
:10482000002800F005812078B94F810719D5B068BC
:1048300010F00C0F07D0B06800F00C0008285CD115
:104840007068410259D43068810703D5E0680128B7
:1048500040F0EE803168206921F0F80141EAC001A2
:104860003160217808076CD56069AA49002862D0B8
:1048700001220A60FEF762F80546706F810700F1B9
:10488000D980FEF75BF8401B0228F6D903203AE1F5
:104890006068B0F5803F04D1306840F4803030600B
:1048A00011E0B0F5A02F306806D140F480203060D0
:1048B000316841F4803105E020F4803030603168A7
:1048C00021F480213160606858B1FEF737F8054661
:1048D00030688103A7D4FEF731F8401B6528F7D371
:1048E000D4E7FEF72BF80546306881039BD5FEF729
:1048F00025F8401B6528F7D3C8E7E06870B10121AF
:104900003960FEF71BF805463068810700F1BE806C
:10491000FEF714F8401B0228F6D9B7E73860FEF717
:104920000DF80546316888079BD5FEF707F8401B50
:104930000228F7D9AAE70860FEF700F80546706F6D
:10494000810777D5FDF7FAFF401B0228F7D99DE7CD
:104950000528306F06D140F004003067306F40F01A
:10496000010005E0400840003067306F20F004008F
:10497000306741F28938A06868B1FDF7DFFF8146F2
:10498000306F810700F18F80FDF7D8FFA0EB0900A1
:104990004045F5D37AE7FDF7D1FF8146306F8107B7
:1049A00040F18180FDF7CAFFA0EB09004045F5D337
:1049B0006CE7FDF7C3FF401B022840F2878065E7E4
:1049C000FDF7BCFF001B022840F298805EE7002044
:1049D0003866FDF7B3FF04463068810140F19280EC
:1049E000FDF7ACFF001B0228F6D94FE701281FD0C6
:1049F0007068E26900F48001914202BF00F03F015B
:104A0000226A914201BF47F6C0710140626AB1EB70
:104A1000821F0DD1A26A520800F44031521EB1EB40
:104A2000024F02BF00F07060E16AB0EB016F69D025
:104A3000012068E0207841073AD5306C0025C1009C
:104A40000AD400950125316C41F080513164306CFD
:104A500000F0805000900098DFF8BC80D8F800008B
:104A6000C1051BD4D8F8000040F48070C8F80000DD
:104A7000FDF764FF8146D8F80000C1050ED4FDF7AC
:104A80005DFFA0EB09000228F5D9FFE63068216937
:104A900020F0F80040EAC1003060E2E6A06801289A
:104AA0007FF456AF5AE71DB1306C20F0805030646F
:104AB000A06938B3B16801F00C01082996D002282A
:104AC00085D100203866FDF739FF05463068810141
:104AD0003FF56FAFE269206A616A0243A06A40084D
:104AE00042EA8112401E42EA0042E06A42EA006263
:104AF000726001213966FDF721FF044630688101AB
:104B00007FF55EAF0020BDE8F28300BF00380240B1
:104B100000004742800E47420070004030B450F819
:104B2000041B79B10268436802440830DC0744BFC3
:104B3000A9F10104E31852F8045B43F8045B091F70
:104B4000F9D1ECE730BC7047000000000000F0BF76
:104B50000000000000000080000000000000008055
:104B60000000000000000000000000C05294EEBFF2
:104B700000000048204E51BE000000F86467BCBC35
:104B80000000000000000000000000208133EDBFA5
:104B900000000080B3DB14BE000000506706A3BC19
:104BA0000000000000000000000000D0E9DCEBBFC6
:104BB00000000008C39259BE00000080B0D3B8BC0A
:104BC000000000000000000000000070F98FEABF44
:104BD000000000C0A51028BE000000E8BFC0B0BCA7
:104BE000000000000000000000000070284CE9BF39
:104BF00000000060134B42BE000000C03D20B8BC66
:104C0000000000000000000000000050FA10E8BFA3
:104C1000000000C05FF62BBE000000905C71A7BCD6
:104C2000000000000000000000000020FCDDE6BFE6
:104C3000000000C0F8F154BE00000018E9F6B9BC4D
:104C40000000000000000000000000D0C3B2E5BF7B
:104C500000000070E43254BE00000050DB06B4BC1B
:104C6000000000000000000000000010EF8EE4BF14
:104C700000000020F36252BE000000C02A879ABCE8
:104C80000000000000000000000000B02272E3BF3E
:104C9000000000F0E8E056BE00000028352DBDBC45
:104CA0000000000000000000000000000A5CE2BFFD
:104CB000000000B0FA8E41BE00000040AE6FBDBCE7
:104CC000000000000000000000000000564CE1BFA2
:104CD000000000F015CD5FBE00000000141C90BC69
:104CE000000000000000000000000040BD42E0BFE6
:104CF00000000030F93457BE000000E06C1E93BC89
:104D00000000000000000000000000E0F57DDEBFB4
:104D1000000000B08A535EBE00000080DA77AABCB3
:104D20000000000000000000000000C09D81DCBF0A
:104D300000000000FFA226BE0000006057E2B0BCE9
:104D4000000000000000000000000060F98FDABFE2
:104D5000000000580A8151BE000000F05F60B8BC3E
:104D600000000000000000000000000098A8D8BF6C
:104D7000000000607A7F45BE000000D05433A3BC21
:104D80000000000000000000000000600FCBD6BF54
:104D9000000000D091CB40BE000000406D1BA0BCC5
:104DA0000000000000000000000000A0FBF6D4BFDF
:104DB00000000098C5CE52BE000000003A397EBC0B
:104DC0000000000000000000000000E0FE2BD3BF48
:104DD0000000004073872BBE00000000926879BC81
:104DE000000000000000000000000040C069D1BFCA
:104DF00000000058F16353BE00000080438D7CBC6E
:104E0000000000000000000000000080D85FCFBF5D
:104E1000000000181F8354BE000000B03F42A2BC37
:104E200000000000000000000000008067FCCBBF15
:104E300000000060FAFF53BE00000050E00DB8BC57
:104E400000000000000000000000000098A8C8BF9B
:104E5000000000607A7F35BE000000C0543393BC70
:104E6000000000000000000000000000DC63C5BF7F
:104E700000000058D6FF54BE00000000396490BC0A
:104E80000000000000000000000000C0AD2DC2BF07
:104E900000000080A45915BE000000E0484BABBCE8
:104EA0000000000000000000000000801A0BBEBFE0
:104EB00000000050BF3C5ABE000000A0B364B6BC66
:104EC00000000000000000000000008004D6B7BF12
:104ED00000000040BBCF36BE0000008076CEA8BCEC
:104EE00000000000000000000000008032BBB1BFE5
:104EF000000000402A0043BE00000028C60CBDBCD4
:104F00000000000000000000000000009473A7BF34
:104F1000000000182B3B59BE000000C0E55DA5BC99
:104F2000000000000000000000000000EE4397BFFA
:104F3000000000A0E6C340BE00000020958DB5BC77
:104F400000000000000000000000000000000080E1
:104F50000000000000000080000000000000008051
:104F6000000000000000000010B507497944183126
:104F7000064C7C44163404E00A68081D1144884736
:104F80000146A142F8D110BD2C0000004C000000E9
:104F90004EF68851CEF20001086840F470000860B7
:104FA000BFF34F8FBFF36F8F4FF00070E1EE100A29
:104FB00070470000C7BFFFFFA402000010000020E0
:104FC0000000000059FBFFFF10000000A0000000DF
:104FD0000000002000000000FEE7FEE7FEE7FEE71D
:104FE000FEE770477047704700F006B80148FEF7CB
:104FF00082BC00006C0200200248416802788A18D6
:1050000042607047000000200248016841F47001CE
:105010000160704788ED00E0000000000000000023
:10502000010203040607080900F00DF8002801D06A
:10503000FFF79AFFAFF300800020AFF30080FFF787
:10504000B3F800F002F80120704700F001B800004A
:1050500007463846FCF780FDFBE700000148804723
:1050600001480047095000087D5000080100000079
:1050700000000000100000000024F400AFF30080E6
:10508000FFF786FFFFF7D0FF0000000001020304D6
:10509000FFF7FEBFFFF7FEBFFFF7FEBFFFF7FEBF44
:1050A000FFF7FEBFFFF7FEBFFFF7FEBFFFF7FEBF34
:1050B000FFF7FEBFFFF7FEBFFFF7FEBFFFF7FEBF24
:1050C000FFF7FEBFFFF7FEBFFFF7FEBFFFF7FEBF14
:1050D000FFF7FEBFFFF7FEBFFFF7FEBFFFF7FEBF04
:1050E000FFF7FEBFFFF7FEBFFFF7FEBFFFF7FEBFF4
:1050F000FFF7FEBFFFF7FEBFFFF7FEBFFFF7FEBFE4
:10510000FFF7FEBFFFF7FEBFFFF7FEBFFFF7FEBFD3
:10511000FFF7FEBFFFF7FEBFFFF7FEBFFFF7FEBFC3
:10512000FFF7FEBFFFF7FEBFFFF7FEBFFFF7FEBFB3
:10513000FFF7FEBFFFF7FEBFFFF7FEBFFFF7FEBFA3
:10514000FFF7FEBFFFF7FEBFFFF7FEBFFFF7FEBF93
:10515000FFF7FEBFFFF7FEBFFFF7FEBFFFF7FEBF83
:10516000FFF7FEBFFFF7FEBFFFF7FEBFFFF7FEBF73
:10517000FFF7FEBFFFF7FEBFFFF7FEBFFFF7FEBF63
:10518000FFF7FEBFFFF7FEBFFFF7FEBFFFF7FEBF53
:10519000FFF7FEBFFFF7FEBFFFF7FEBFFFF7FEBF43
:1051A000FFF7FEBFFFF7FEBFFFF7FEBFFFF7FEBF33
:1051B000FFF7FEBFFFF7FEBFFFF7FEBFFFF7FEBF23
:1051C000FFF7FEBFFFF7FEBFFFF7FEBFFFF7FEBF13
:040000050800507D22
:00000001FF
