:020000040800F2
:1000000098060020591A0008E1190008E3190008B1
:10001000E5190008E7190008E919000800000000C8
:10002000000000000000000000000000EB190008C4
:10003000ED19000800000000EF190008F119000890
:100040008D1A0008911A0008951A0008991A0008DC
:100050009D1A0008A11A0008A51A0008A91A00088C
:10006000AD1A0008B11A0008B51A0008B91A00083C
:10007000BD1A0008C11A0008C51A0008C91A0008EC
:10008000CD1A0008D11A0008D51A0008D91A00089C
:10009000DD1A0008E11A0008E51A0008E91A00084C
:1000A000ED1A0008F11A0008F51A0008F91A0008FC
:1000B000FD1A0008011B0008051B0008091B0008A9
:1000C0000D1B0008111B0008151B0008191B000858
:1000D0001D1B0008211B0008F5190008251B00083E
:1000E000291B00082D1B0008311B0008351B0008C8
:1000F000391B00083D1B0008411B0008451B000878
:10010000491B00084D1B0008511B0008551B000827
:10011000591B00085D1B0008611B0008651B0008D7
:10012000691B00086D1B0008711B0008751B000887
:10013000791B00087D1B0008811B0008851B000837
:10014000891B00088D1B0008911B0008951B0008E7
:10015000991B00089D1B0008A11B0008A51B000897
:10016000A91B0008AD1B0008B11B0008B51B000847
:10017000B91B0008BD1B0008C11B000800000000DF
:10018000C51B0008C91B000838B5040001D10120B7
:1001900032BD00F021F808B900F022F800F012F8A2
:1001A00000F023F8FFE7416100F001F832BD20685C
:1001B000C16841F40051C16000206860202169706D
:1001C000A9707047242068702068C16821F400512C
:1001D000C160204600F0D7B904F13805687870474F
:1001E00000212970204600F0FEBA2068016921F440
:1001F000904101612068416921F02A0170472DE991
:10020000F843054605F138070C467878202816464D
:1002100098463DD1002C14BF002E012039D03878EB
:10022000012835D0012139700020786021227A70B0
:1002300000F0F6FB8146AE84EE840020387003E0C7
:100240002A6814F8011B5160E88C20B3E88C411E29
:10025000E9844B46A868CDF80080B0F5805F0DD1E9
:1002600000F023F870B920882968C0F308004860BE
:100270002869002814BF641CA41CE5E700F015F8E9
:100280000028DDD0032004E020207870002000E06A
:100290000220BDE8F283CDF800804B4600224021C9
:1002A00000F005F80028EFD0ECE700228021284676
:1002B000D9E010B500F138039C78202C22D109B187
:1002C000140001D1012010BD1C78012C1AD001248A
:1002D0001C7081628285C2850021596022229A7039
:1002E00019700168CA6842F48072CA6001684A697C
:1002F00042F001024A610068C16841F02001C1601A
:10030000002010BD022010BD416921F04001416173
:10031000606B704738B5044625682968EA686B69E0
:1003200011F00F0007D188065FD593065DD52046F2
:10033000BDE83240DEE0D80702D412F4907F54D0FA
:10034000C80705D5D50503D5E06B40F00100E06393
:10035000480705D5DD0703D5E06B40F00200E063F8
:10036000880705D5DD0703D5E06B40F00400E063A6
:10037000080707D5950601D4D80703D5E36B43F0EA
:100380000803E363E06B00286CD0880604D591066F
:1003900044BF204600F0AEF820684069E16B0A07D0
:1003A00001D440061BD5204600F08FF82068416933
:1003B0004A060FD5FFF7A8FF60B10FF22D110165B6
:1003C000606B00F033FB00284CD0606B016DBDE822
:1003D000344008472046BDE8324000F039BB204693
:1003E00000F036FB0020E06331BD08062AD5130675
:1003F00028D594F83900212834D1A068B0F5805F61
:10040000206A0BD10188C1F30801696020690028C6
:10041000206A0CBF811C411C216203E0411C216247
:1004200000786860E08C401EE08480B2D0B920681B
:10043000C16821F08001C1602068C16841F04001BD
:10044000C16031BD48060DD551060BD5E86820F0D6
:100450004000E860202184F839102046BDE8324091
:1004600000F0F7BA31BD2DE9F041069C05460E4675
:1004700090461F46286801683140B1420CBF0120F8
:100480000020404517D114F1010FF3D024B100F042
:10049000C7FAC01B8442EDD22868C16821F4D0712C
:1004A00000F00CF805F13800202141708170002126
:1004B0000170032000E00020BDE8F081C1602868E1
:1004C000416949084900416170470168CA6822F4DE
:1004D0009072CA6001684A69520852004A6120213C
:1004E00080F83A1070470000806B0021C185C184FC
:1004F00000F0AEBA80B590F83A10222941D1816857
:10050000B1F5805F12D101690368826A00295968D8
:1005100005D1C1F308011180826A911C04E001F049
:10052000FF011180826A511C81620FE0016900297C
:10053000816A04D14A1C826203685A6805E04A1C39
:10054000826203685A6802F07F020A70C18D491EF8
:10055000C18589B299B90168CA6822F02002CA60CF
:100560000168CA6822F48072CA6001684A69520848
:1005700052004A61202180F83A1000F06BFA002006
:1005800002BD022002BDD0B506466427326811695B
:10059000F06821F44051014311611924D3682D48BA
:1005A000B168034030690B4371690343F0690B4341
:1005B0000343D3605169B06921F440710143516133
:1005C000F36925482549B3F5004F1FD18A4218BF6A
:1005D000824202D100F08CFC01E000F081FC024676
:1005E000A4FB02017268D30F520000F0C9FC00F0B6
:1005F00037F8FF0032376420B7FBF0F0420002F416
:10060000F87202EB011200F007001DE08A4218BFE9
:10061000824202D100F06CFC01E000F061FC024675
:10062000A4FB02017268930F920000F0A9FC00F095
:1006300017F83F0132376420B7FBF0F000F0F0020A
:1006400002EB011200F00F00316880188860D0BD05
:1006500000000000F369FFFF00140140001001409A
:100660006421B0FBF1F107FB1107704781B0002056
:1006700000900022DFF86C03416841F48041416042
:10068000416801F48041009100990092036843F0B1
:1006900080530360006800F080500090009801B023
:1006A000704738B586B000F07EF92068DFF838531F
:1006B000DFF83843A8421AD10020059012222168A1
:1006C00041F002012160C021206800F00200059085
:1006D0000598DFF81C0300F048F800200590216918
:1006E00041F400112161206900F4001039E0DFF8C5
:1006F0000413884237D100200590216841F004019D
:1007000021600021206800F0040005900598059103
:100710004FF40071226842F0010222601222206828
:1007200000F0010005900598DFF8CC0200F01DF8FC
:1007300012210191012202924FF480700321009056
:100740000391042204926946DFF8B00200F0B8FC7D
:1007500000200590216941F400012161206900F425
:1007600000000590059807B030BD0091019201216D
:1007700002910322042104910392694600F0A0BC77
:1007800038B586B0044601A8142100F08DFD246818
:100790009B4DAC4225D10020009000229348016976
:1007A00041F480410161016901F4804100910099A7
:1007B00000924FF46041036843F002030360022299
:1007C000006800F0020000900098894801910292B0
:1007D00000210391032205210591049201A900F053
:1007E0006FFC07B030BD38B586B000F0DCF8246887
:1007F000844A81487D4994424FF4406316D10024D5
:1008000005940A6942F400220A610A6902F400228E
:100810000592059A05940D6845F004050D6000F0F9
:10082000B6F80093012202230193A9E0764A94428C
:1008300033D1002305930A6942F480120A610A69E0
:1008400002F480120592059A05930C6844F00404A2
:100850000C6000F09CF805934FF480520C6844F053
:1008600008040C600223096801F00801059105994C
:1008700000920193012200F090F8694600F020FCFC
:100880000221019101220420029203210090039190
:100890000822049269465D4875E05D4D574AAC42B6
:1008A00010D1002005904B6943F010034B610023E9
:1008B000486900F0100000F087F84FF4C06100F0C4
:1008C00077F860E0534DAC4219D1002005900B69D8
:1008D00043F400330B610023086900F4003000F09A
:1008E00073F80C2100F064F800F0EAFB002200210C
:1008F000262000F0F7FC262000F011FD45E0464AD6
:10090000944220D1002005900A6942F480220A61B5
:100910000022086900F4802005900598344805926B
:1009200002220C6844F002040C60096801F0020124
:10093000059105990192002102910322072104915A
:10094000009303921EE0354A94421ED10023059382
:100950004A6942F020024A614A6902F02002059287
:10096000059A0593C0220C6844F004040C6002232D
:10097000096801F004010591059900920193002294
:1009800000F00BF8694600F09BFB07B030BD0A6829
:1009900002F004020592059A70470292032308228E
:1009A00003930492704704466846142100F07CBC0F
:1009B00005980091019300210291032307210491DE
:1009C00003936946104670470590059805930223E6
:1009D0000C6844F001040C60086800F00100059008
:1009E0007047000040380240005400403038024058
:1009F00000040240005C0040000802400000024089
:100A000000380040004C004000500040000C024004
:100A10000010014000440040004800400014014024
:100A200001484068704700BF0000002090F8351072
:100A3000022903D08022426501207047052180F8F9
:100A400035100068026852085200026000207047AA
:100A5000704770470068C749884208D1C6480123DB
:100A6000037000F144010122001DFFF722BC704712
:100A70002DE9F84300F07EFC00F0CCF800F009F915
:100A8000BE4CBF48DFF8FC8204F1AC0600213060A8
:100A9000B160F1604FF480497161B161F16131621F
:100AA000C6F80480C6F81090304600F07DFC08B10E
:100AB00000F08EF9B44870654FF4E135B56500205B
:100AC000F065306670660C21F0663067B16604F53B
:100AD0008070FFF759FB08B100F07AF904F5A076B1
:100AE000AA48306075600C2000217061B160F1602F
:100AF0003161B161F1613046FFF746FB08B100F0AA
:100B000067F9A348306475640C2000217065B164F6
:100B1000F1643165B165F16504F5C070FFF734FB30
:100B200008B100F055F9944E92487060B5600C2001
:100B30000021B061F16031617161F1613162301D9C
:100B4000FFF722FB08B100F043F904F5E077914884
:100B500038607D600021B960F96039610C207861EE
:100B6000B961F9613846FFF70FFB08B100F030F9C1
:100B7000894838647D640021B964F96439650C20C2
:100B80007865B965F96504F50070FFF7FDFA08B1FD
:100B900000F01EF9814820604FF4827161600A20E4
:100BA00000224FF40071E062A260E26022616261A3
:100BB000A161E26122626262A262204600F09CFCB6
:100BC00008B100F005F97648A0650021216661664C
:100BD000E16621676167A167C4F85C80C4F868902A
:100BE00004F1580000F0E0FB08B100F0F1F8012238
:100BF00006F14401301DFFF75CFB30780128FCD181
:100C00000123012206F14401301DFFF7F8FA00200C
:100C10003070F2E780B592B006A8302100F044FBB6
:100C200001A8142100F040FB0020009001235D4842
:100C3000016841F0805101600021006800F080509F
:100C40000090009858480091026842F48042026087
:100C50000222006800F48040009006A800990692E5
:100C60001021002209930A910C9200F087FC08B130
:100C700000F0AEF80F200190002102910391049141
:100C8000059101A800F0A6F808B100F0A1F813B092
:100C900000BD70B586B06846142100F005FB002445
:100CA0004248434E434D05940168434C41F00401D2
:100CB0000160026802F00402059200220599059283
:100CC000036843F080030360016801F0800105912F
:100CD00005990592036843F001030360016801F080
:100CE0000101059105990592036843F00203036031
:100CF000016801F002010591059905924FF46041E8
:100D0000036843F008030360006800F008000590E2
:100D10000598304600F0ADFA00224FF4805120468D
:100D200000F0A7FA00224FF4C051284600F0A1FAC3
:100D30004FF4604100F044F8304600F0C1F9032060
:100D40001E4900900191002202926946284600F057
:100D5000B7F94FF4805100F033F8204600F0B0F9B5
:100D60004FF4C05100F02CF8284600F0A9F906B065
:100D700070BD000000440040500200201000002020
:100D8000005C0040A0860100004C00400050004084
:100D900000100140004800400014014000380040AD
:100DA000005400404038024000700040303802409B
:100DB0000008024000000240000402400000111040
:100DC000009101220021029103910192694670472E
:100DD00072B6FEE72DE9F04104000F4678D0494E87
:100DE000306800F00F00B84202D200F073F86FD103
:100DF0002068454D810712D5400703D5A96841F405
:100E0000E051A9602078010703D5A86840F460404C
:100E1000A860A968A06821F0F0010143A9602178C9
:100E2000C8074DD56068012802D129688A0305E00A
:100E3000022818BF032803D129688A0103D447E098
:100E400029688A0744D5A968890840EA8100A86012
:100E5000FFF7E6FD8046A868616800F00C00B0EB83
:100E6000810F2DD0FFF7DCFDA0EB080041F28931A6
:100E70008842F0D3032021E02078410705D5AA68F5
:100E8000E06822F4E0520243AA602178080706D500
:100E9000A968206921F4604141EAC001A96000F01D
:100EA0003FF8AA6819491A4BC2F30312895CC8407B
:100EB00018601848006800F0F3FC0020BDE8F081DD
:100EC000306800F00F008742D6D200F003F8D3D08C
:100ED0000120F3E73770316801F00F01B942704724
:100EE0000B480D4A006813680C49C3F3822206E0E0
:100EF0000748094A006813680849C3F34232895C0D
:100F0000C8407047003C02400038024034190008D5
:100F10000C0000200800002008380240841A000855
:100F200030B5144C606800F00C00042802D008288A
:100F300002D01DE0104830BD226820680023410225
:100F400002F03F0204D525680B49C5F3881003E081
:100F500020680A49C0F38810A1FB000100F010F8D6
:100F60002168C1F30141491C4900B0FBF1F030BDDB
:100F7000024830BD0438024040787D010024F4006E
:100F8000D3BBD9B1B2F5803F5BD2022A1ED98C46C1
:100F9000B1FBF2F102FB11C31B0443EA1043B3FBA4
:100FA000F2FC02FB1C3380B240EA0343B3FBF2F0D5
:100FB00002FB103240EA0C4000237047022A05D998
:100FC0008446B0FBF2F002FB10C270474AB105D173
:100FD00000F0010249085FEA300070470022002358
:100FE000704700F07DBC0B0002000021002070471C
:100FF000F7D3002200237047904271EB030CF2D329
:1010000070B5B1FA81F4B3FA83F52C1BA340C4F197
:10101000200532FA05F63343A2405FF00046E64071
:1010200002E05B085FEA3202841A71EB030524BF19
:10103000204629467641F4D302000B0030000021FF
:1010400070BD70B5B1FA81F4B2FA82F5C4F1200432
:101050006419B4F12006DAD3B2405FF00044F440E2
:10106000002502E052085FEA3303C61A71EB020E54
:1010700024BF3046714664416D41F3D302000B003A
:101080002000290070BD30B4002513E050F8042B77
:10109000D30744BFA9F101039A18091F042942F894
:1010A000045BFAD213468C0744BF15809B1CC9070A
:1010B00048BF1D7050F8041B0029E7D130BC7047B1
:1010C0002DE9F84F0D464FF000086C490F2201231F
:1010D00004462E6803FA08F000EA0609814540F04C
:1010E000C0804FEA480C032606FA0CF66FEA060E9B
:1010F0006E68012E18BF022E03D0112E18BF122EBB
:1011000011D1A668EF680EEA060607FA0CF73E430F
:10111000A660666826EA00006E68C6F3001606FA46
:1011200008F630436060E068AE680EEA000006FA38
:101130000CF63043E0604FEA88006E68022E18BF5C
:10114000122E12D14FEAD80604EB860600F01C07D7
:10115000D6F820A002FA07FB2AEA0B0AD5F810B04D
:101160000BFA07F747EA0A07376226680EEA06070E
:101170002E7906F0030606FA0CF63E4326606E68EA
:10118000F6006ED5002600964FEA980C0E68DFF840
:10119000F0E046F480460E6000F00C000E6806F4A5
:1011A00080460096009E5EF82C7002FA00F627EA50
:1011B0000606344FBC4208BF002722D0324FBC4243
:1011C00008BF01271DD0314FBC4208BF022718D0ED
:1011D0002F4FBC4208BF032713D02E4FBC4208BF7D
:1011E00004270ED02C4FBC4208BF052709D02B4F37
:1011F000BC4208BF062704D0294FBC420CBF0727BA
:10120000082707FA00F030434EF82C006FEA090C6B
:10121000244806680CEA060E6E68F70348BF49EAE0
:101220000E0EC0F800E046680CEA060E6E68B703C2
:1012300048BF49EA0E0EC0F804E086680CEA060EC4
:101240006E68F70248BF49EA0E0EC0F808E0C668AB
:101250000CEA060E6E68B60248BF49EA0E0EC0F8E8
:101260000CE008F10108B8F10F0F7FF632AFBDE8CE
:10127000F18F02B9090481617047000044380240CF
:10128000083801400000024000040240000802400B
:10129000000C0240001002400014024000180240FE
:1012A000001C0240003C0140002200F01BBB00007B
:1012B0000901020002D4294881547047284B02F0EA
:1012C0000F021A4402F8041C7047264B19684FF6A7
:1012D000FF020002114000F4E06008432249084385
:1012E0001860704738B51F4B1C68C4F30223C3F164
:1012F0000704052C28BF04241D1D072D34BF00231F
:10130000DB1E012505FA04F4641E2140994005FA0C
:1013100003F35B1E1A401143BDE83440C8E70100E7
:1013200007D4012200F01F01104B8A40400943F806
:101330002020704710B5401EB0F1807F01D30120FE
:1013400010BD0B4C60600F214FF0FF30FFF7B0FF76
:101350000021A16007202060002010BD00E400E013
:1013600018ED00E00CED00E00000FA0500E100E0FF
:1013700010E000E080B50B48016841F400710160A5
:10138000026842F480620260016841F48071016089
:101390000320FFF79AFF002000F082FAFFF766F9BA
:1013A000002002BD003C0240F8B5040025D004F145
:1013B0003C05697821B9002028702046FFF771F9B3
:1013C0002421697020680268520852000260206877
:1013D000016841F4004101602068026822F4004283
:1013E0000260FFF77DFD01466068DFF8F42090425F
:1013F00005D2DFF8F030994205D20120F2BDDFF8C6
:10140000E8008142F9D32068DFF8E0304668B1FB9C
:10141000F3F3B60943EA861646602668376A6068C1
:10142000904206D34FF4967043434FF47A70B3FB67
:10143000F0F35B1CBF0943EA87133362491E23683C
:10144000DE696768974206D27F0000F043F80429FE
:1014500013D2042111E0A06820B907EB470700F080
:1014600039F805E01920474300F034F841F4804191
:1014700008050CBF012141F40041DFF8740006406B
:101480000E43DE6122681368E169206A23F0C0031D
:101490000B43034313602268DFF858009368216907
:1014A0000340E0680B43034393602168CA68A36963
:1014B0006069120A034343EA0222CA602068016895
:1014C00041F0010101600020686020216970206303
:1014D000A870F2BDB1FBF7F1491CC1F30B017047D5
:1014E000A186010080841E0000093D0040420F00DB
:1014F0000030FFFF007CFFFF38B5040001D1012060
:1015000032BD0020A06204F15005687820B90021A6
:1015100029702046FFF734F90220687000F027F8A0
:101520006268A168E06823680A4321690243606930
:101530000A43A169024301F40071E0690A43216A88
:101540000243A06A0A4302431A60A169606A2268E2
:10155000090C01F00401014351602068C16921F4C4
:101560000061C161002068600121697032BD20689E
:10157000016821F040010160704700002DE9F84347
:10158000040016D02078DFF80863C10713D5B068CF
:1015900000F00C00042807D0B06800F00C00082808
:1015A0003ED1706841023BD53068810303D5606845
:1015B000002800F0FF802078B64F810719D5B06869
:1015C00010F00C0F07D0B06800F00C0008285CD1B8
:1015D0007068410259D43068810703D5E06801285A
:1015E00040F0E8803168206921F0F80141EAC0014B
:1015F0003160217808076CD56069A749002862D05E
:1016000001220A60FFF70CFA0546706F810700F1AE
:10161000D380FFF705FA401B0228F6D9032034E1F6
:101620006068B0F5803F04D1306840F480303060AD
:1016300011E0B0F5A02F306806D140F48020306072
:10164000316841F4803105E020F480303060316849
:1016500021F480213160606858B1FFF7E1F9054657
:1016600030688103A7D4FFF7DBF9401B6528F7D367
:10167000D4E7FFF7D5F90546306881039BD5FFF71E
:10168000CFF9401B6528F7D3C8E7E06870B10121A6
:101690003960FFF7C5F905463068810700F1B88069
:1016A000FFF7BEF9401B0228F6D9B7E73860FFF70D
:1016B000B7F90546316888079BD5FFF7B1F9401B9C
:1016C0000228F7D9AAE70860FFF7AAF90546706F64
:1016D000810771D5FFF7A4F9401B0228F7D99DE7D0
:1016E0000528306F06D140F004003067306F40F0BD
:1016F000010005E0400840003067306F20F0040032
:10170000306741F28938A06868B1FFF789F98146EE
:10171000306F810700F18980FFF782F9A0EB0900A3
:101720004045F5D37AE7FFF77BF98146306F8107B3
:101730007BD5FFF775F9A0EB09004045F6D36DE7BF
:10174000FFF76EF9401B022840F2828066E7FFF740
:1017500067F9001B022840F293805FE7002038669B
:10176000FFF75EF904463068810140F18D80FFF794
:1017700057F9001B0228F6D950E701281AD07068E3
:10178000E26900F48001914202BF00F03F01226A49
:1017900091420FD147F6C071626A0140914202BF87
:1017A00000F44031A26A914202BF00F07060E16A29
:1017B000884269D0012068E0207841073AD5306C32
:1017C0000025C1000AD400950125316C41F08051FB
:1017D0003164306C00F0805000900098DFF8BC80DD
:1017E000D8F80000C1051BD4D8F8000040F4807080
:1017F000C8F80000FFF714F98146D8F80000C105C9
:101800000ED4FFF70DF9A0EB09000228F5D905E782
:101810003068216920F0F80040EAC1003060E8E655
:10182000A06801287FF45CAF60E71DB1306C20F048
:1018300080503064A06938B3B16801F00C01082908
:101840009BD002288AD100203866FFF7E9F80546C8
:10185000306881013FF574AFE269206A616A024332
:10186000A06A400842EA8112401E42EA0042E06A51
:1018700042EA0062726001213966FFF7D1F804463E
:10188000306881017FF563AF0020BDE8F28300BFBF
:101890000038024000004742800E4742007000407E
:1018A00038B50D4D0D4B2A7804464FF47A711868FF
:1018B000B1FBF2F2B0FBF2F0FFF73CFD50B9102C97
:1018C00008D2002221464FF0FF30FFF70BFDAC603D
:1018D000002032BD012032BD000000200C0000209D
:1018E0007047000000B500BF1300964694461039BB
:1018F00028BFA0E80C50FAD85FEA417C28BF0CC092
:1019000048BF40F8042BC90728BF20F8022B48BF66
:1019100000F8012B00BD00000448054A016841F4AD
:10192000700101604FF000601060704788ED00E0CA
:1019300008ED00E0000000000000000001020304C8
:101940000607080930B450F8041B79B102684368EF
:1019500002440830DC0744BFA9F10104E31852F83F
:10196000045B43F8045B091FF9D1ECE730BC704716
:1019700010B5074979441831064C7C44163404E00C
:101980000A68081D114488470146A142F8D110BDDC
:101990002C0000004C0000004EF68851CEF20001F1
:1019A000086840F470000860BFF34F8FBFF36F8F7B
:1019B0004FF00070E1EE100A70470000CBF6FFFF19
:1019C00088020000100000200000000079FFFFFFE7
:1019D0001000000094000000000000200000000043
:1019E000FEE7FEE7FEE7FEE7FEE770477047704759
:1019F00000F006B80148FEF78DBC0000540200203C
:101A00000248416802788A1842607047000000204E
:101A100000F00DF8002801D0FFF7AAFFAFF3008017
:101A20000020AFF30080FFF723F800F002F8012058
:101A3000704700F001B800000746384600F002F891
:101A4000FBE7000080B5AFF30080024A11001820C8
:101A5000ABBEFBE726000200014880470148004773
:101A600019190008791A00080100000000000000A0
:101A7000100000000024F400AFF30080FFF78CFF9B
:101A8000FFF7C6FF0000000001020304FFF7FEBFDE
:101A9000FFF7FEBFFFF7FEBFFFF7FEBFFFF7FEBF7A
:101AA000FFF7FEBFFFF7FEBFFFF7FEBFFFF7FEBF6A
:101AB000FFF7FEBFFFF7FEBFFFF7FEBFFFF7FEBF5A
:101AC000FFF7FEBFFFF7FEBFFFF7FEBFFFF7FEBF4A
:101AD000FFF7FEBFFFF7FEBFFFF7FEBFFFF7FEBF3A
:101AE000FFF7FEBFFFF7FEBFFFF7FEBFFFF7FEBF2A
:101AF000FFF7FEBFFFF7FEBFFFF7FEBFFFF7FEBF1A
:101B0000FFF7FEBFFFF7FEBFFFF7FEBFFFF7FEBF09
:101B1000FFF7FEBFFFF7FEBFFFF7FEBFFFF7FEBFF9
:101B2000FFF7FEBFFFF7FEBFFFF7FEBFFFF7FEBFE9
:101B3000FFF7FEBFFFF7FEBFFFF7FEBFFFF7FEBFD9
:101B4000FFF7FEBFFFF7FEBFFFF7FEBFFFF7FEBFC9
:101B5000FFF7FEBFFFF7FEBFFFF7FEBFFFF7FEBFB9
:101B6000FFF7FEBFFFF7FEBFFFF7FEBFFFF7FEBFA9
:101B7000FFF7FEBFFFF7FEBFFFF7FEBFFFF7FEBF99
:101B8000FFF7FEBFFFF7FEBFFFF7FEBFFFF7FEBF89
:101B9000FFF7FEBFFFF7FEBFFFF7FEBFFFF7FEBF79
:101BA000FFF7FEBFFFF7FEBFFFF7FEBFFFF7FEBF69
:101BB000FFF7FEBFFFF7FEBFFFF7FEBFFFF7FEBF59
:0C1BC000FFF7FEBFFFF7FEBFFFF7FEBF00
:0400000508001A795C
:00000001FF
