:020000040800F2
:10000000F807002061280008092700080B270008CE
:100010000D2700080F270008112700080000000026
:10002000000000000000000000000000132700088E
:1000300015270008000000001727000819270008EE
:1000400095280008992800089D280008A128000884
:10005000A5280008A9280008AD280008B128000834
:100060001D27000823270008B5280008B928000824
:10007000BD280008C1280008C5280008C9280008B4
:10008000CD280008D1280008D5280008D928000864
:10009000DD280008E1280008E528000829270008D5
:1000A000E9280008ED280008F1280008F5280008D4
:1000B000F9280008FD280008012900080529000882
:1000C000092900080D290008112900081529000830
:1000D000192900081D2900082F27000821290008D8
:1000E0003527000825290008292900082D2900089E
:1000F0003129000835290008392900083D29000860
:100100004129000845290008492900084D2900080F
:1001100051290008552900083D27000859290008E1
:100120005D2900086129000865290008692900087F
:100130006D2900087129000875290008792900082F
:100140007D290008812900088529000889290008DF
:100150008D2900089129000895290008992900088F
:100160009D290008A1290008A5290008A92900083F
:10017000AD290008B1290008B529000800000000D9
:10018000B9290008BD29000838B5040001D10120B3
:1001900032BD00F0E7F818B900F051FA00F081FC28
:1001A0003DE090F83D10012901D001207047022167
:1001B00080F83D100168CA6842F00102CA60006818
:1001C000DFF88411884218BFB0F1804F17D0DFF8F4
:1001D0007C1188421CBFDFF8782190420FD0DFF8F5
:1001E000741188421CBFDFF87021904207D0DFF8FD
:1001F0006C1188421CBFDFF86821904209D18168E8
:1002000001F00701062908D0016841F001010160F1
:1002100003E0026842F00102026000207047022001
:100220006870211D206800F00EFA0120A872A870E5
:10023000E87028716871A871E87128726872687036
:10024000002032BD38B5040001D1012032BD00F0DC
:1002500089F818B900F0F3F900F0DEFDDFE710B51A
:10026000044604F13E0009B9027807E0042908BFFA
:10027000427803D008290CBF8278C278012A01D0C5
:10028000012010BD11B9022202700AE0042902D136
:100290000222427005E0082907BF02228270022371
:1002A000C3702068012200F012FB00F032F818BF82
:1002B000884200F034F818BFB0F1804F12D000F03F
:1002C0001FF81CBFDFF8883098420BD000F014F8FC
:1002D00018BF884206D000F02FF81CBFDFF880203E
:1002E000904205D100F023F804D000F028F801E096
:1002F00000F00AF8002010BDDFF858209042704747
:10030000DFF8482090427047026842F00102026024
:10031000704720680C4ADFF840109042704703D1C4
:10032000436C43F400434364206890427047816803
:1003300001F00701062970470849884270470168A3
:1003400041F00101016070470000014000040040DD
:1003500000080040000C0040000401400040014043
:100360000018004004F13C056878704710B5044659
:10037000206801698A0715D5C1688A0712D56FF010
:100380000201016101222277806910F0030F2046EB
:1003900002D000F042FD03E000F040FD00F087F8DD
:1003A00000202077206801694A0715D5C1684A07EF
:1003B00012D56FF00401016102222277806910F4E6
:1003C000407F204602D000F028FD03E000F026FD2B
:1003D00000F06DF800202077206801690A0715D524
:1003E000C1680A0712D56FF0080101610422227763
:1003F000C06910F0030F204602D000F00EFD03E0AC
:1004000000F00CFD00F053F800202077206801690F
:10041000CA0615D5C168CA0612D56FF01001016170
:1004200008222277C06910F4407F204602D000F0F5
:10043000F4FC03E000F0F2FC00F039F80020207733
:1004400020680169CA0708D5C168CA0705D56FF0D9
:1004500001010161204600F02AFD206801690A06B9
:1004600008D5C1680A0605D56FF0800101612046F4
:1004700001F042F8206801694A0608D5C1684A06B9
:1004800005D56FF040010161204601F036F8206883
:1004900001698A060AD5C1688A0607D56FF020016E
:1004A00001612046BDE8104001F028B810BD20468B
:1004B00001F025B8002084F83C002846704770B54C
:1004C00000F058F801D1022070BD012084F83C00F2
:1004D00032B1042A15D0082A25D00C2A34D045E0A0
:1004E000206800F0FBF82168886940F00800886106
:1004F000886920F0040088618A69306902438A6152
:1005000035E0206800F016F92068816941F4006147
:100510008161816921F4806181618169326941EA87
:100520000221816123E0206800F034F92168C86964
:1005300040F00800C861C86920F00400C861CA69B9
:1005400030690243CA6112E0206800F052F9206865
:10055000C16941F40061C161C16921F48061C16177
:10056000C169326941EA0221C16100E00125FFF75A
:10057000A1FF70BD0446002594F83C0001280E46FA
:10058000704770B5064606F13C050024287801281E
:1005900001D1022070BD0120287002226A70DFF8AC
:1005A000980232689368034093600868020018BF9D
:1005B000102830D0202818BF30282CD0402826D032
:1005C000502819D060281BD0702806D0B0F5805F65
:1005D00027D0B0F5005F07D022E000F02BF830689C
:1005E000816841F0770105E000F024F83068816807
:1005F00041F48041816014E000F018F850210BE0D4
:10060000CA684968306800F03EF9602104E000F0F3
:100610000DF8402100E00146306800F046F900E0A6
:1006200001240120687000F00AF870BDCA684968AA
:10063000306819E1CB684A68896830683DE100217B
:10064000297020467047F0B57C4C05687C4B7D4E88
:100650007D4FDFF8F8C1A04218BFB0F1804F07D03E
:10066000604518BFB84203D0B04218BF98420DD1C0
:100670004A6825F070051543A04218BFB0F1804FBD
:1006800017D060451CBFB842B04212D098421CBF80
:100690006F4A90420DD06F4EB0421CBF6E4A9042DE
:1006A00007D06E4EB0421FBF6D4A90426D4EB042B1
:1006B00003D1CA6825F4407515434A6925F08005C1
:1006C00015430560A0428D68C5620A68826212BF48
:1006D00098420969016301224261F0BDF0B5026AE6
:1006E000564F520852000262066A446885690B68D8
:1006F0008A6825F0730526F002061D431643504B09
:10070000B84218BF984207D1CA6826F008061643B7
:10071000B84226F0040601D0984205D14B698A6997
:1007200024F440741C431443446085614968416368
:100730000662F0BDF0B5026A404E22F0100202627D
:10074000B042056A436884690A6824F4E64444EACE
:1007500002248A6825F0200545EA0215384A18BFA8
:10076000904208D1CF6825F0800545EA0715B042D0
:1007700025F0400501D0904206D14E698A6923F4E4
:100780004063164343EA860343608461496881639A
:100790000562F0BDF0B5026A22F480720262056A59
:1007A0004368C4698E680A6825F4007524F07304F0
:1007B00045EA06251443214E214AB04218BF904213
:1007C00008D1CF6825F4006545EA0725B04225F435
:1007D000806501D0904206D14E698A6923F4405366
:1007E000164343EA06134360C4614968C163056266
:1007F000F0BD70B5026A114E22F480520262B0421E
:10080000046A4268C3690D6823F4E64343EA05239A
:100810008D6824F4005444EA05341CBF084DA842F6
:1008200004D14D6922F4804242EA85124260C361DC
:1008300049680164046270BD8800FFFF0000014048
:1008400000040140000C004000080040000400408B
:1008500000400140004401400048014000180040B1
:10086000001C00400020004010B5036A046A6408C0
:100870006400046223F00A03846924F0F00444EA6B
:10088000021484612EE010B5036A23F010030362A2
:100890008369046A23F4704343EA023324F0A0041A
:1008A000836144EA0114046210BD826822F0700280
:1008B000114341F007018160704710B5846824F44A
:1008C0007F442143114341EA0321816010BD10B5EB
:1008D00001F01F01036A01248C40A343036202FA62
:1008E00001F1036A1943016210BD30B4002513E021
:1008F00050F8042BD30744BFA9F101039A18091F2C
:10090000042942F8045BFAD213468C0744BF1580D1
:100910009B1CC90748BF1D7050F8041B0029E7D174
:1009200030BC704781B0002000900022DFF89804AE
:10093000416841F480414160416801F48041009187
:1009400000990092036843F080530360006800F050
:1009500080500090009801B0704738B586B000F024
:1009600035F92068DFF86454DFF86444A84219D1EF
:10097000002005901222216841F002012160C0216F
:10098000206800F00200059000F01BF900F04AF822
:1009900000200590216941F400112161206900F4D3
:1009A00000103BE0DFF82C14884239D1002005907C
:1009B000216841F0040121600021206800F004005A
:1009C0000590059805914FF40071226842F00102EC
:1009D00022601222206800F0010005900598DFF8DF
:1009E000F8030091019200F01DF8122101910122FB
:1009F00002924FF48070032100900391042204922C
:100A00006946DFF8D80300F07BFD002005902169DE
:100A100041F400012161206900F40000059005986F
:100A200007B030BD012102910322042104910392F9
:100A3000694600F065BD38B586B0044601A81421AA
:100A400000F06AFE2468DFF89C53AC4227D10020F6
:100A500000900022DFF87803016941F480410161D0
:100A6000016901F480410091009900924FF46041C6
:100A7000036843F0020303600222006800F00200F2
:100A800000900098DFF85803019102920021039131
:100A9000032205210591049201A900F031FD07B060
:100AA00030BD80B50168DFF84023DFF81C039142B8
:100AB00008D100F03AF842F004020260006800F049
:100AC00004002FE0DFF82423914212D100F02DF82A
:100AD00042F0100202600022006800F01000009056
:100AE0000098362000F036FEBDE80240362000F0C7
:100AF0004EBEDFF8FC22914208D100F016F842F019
:100B000080020260006800F080000BE0DFF8E42261
:100B1000914209D100F009F842F480720260006845
:100B200000F480700090009801BD002100910268DF
:100B3000704710B586B000F049F82268DFF8A802C7
:100B4000DFF88C12824214D100220592022208683A
:100B500040F002000860096801F0020105914FF4BD
:100B6000407100F02EF800210291039102210491BE
:100B700022E0DFF87C32DFF880029A4204D10022C2
:100B800005924FF4807206E09A4B9A4217D10022E8
:100B900005924FF400720B6843F020030B60096864
:100BA00001F0200105910599009202230022029292
:100BB0000392019309220492694600F0A1FC06B059
:100BC00010BD05988648009101927047044668461A
:100BD000142100F0A1BD38B586B0FFF7F7FF2468F7
:100BE000864A7D487A4994424FF4406316D10024E6
:100BF00005940A6942F400220A610A6902F400229B
:100C00000592059A05940D6845F004050D6000F005
:100C1000B4F80093029402230193A5E0784A944229
:100C200032D1002305930A6942F480120A610A69ED
:100C300002F480120592059A05930C6844F00404AE
:100C40000C6000F09AF805934FF480520C6844F061
:100C500008040C600223096801F0080100F093F811
:100C60000323082203930492694600F049FC022101
:100C70000191002204200292032100900391082296
:100C8000049269465F4874E05F4D544AAC4210D10B
:100C9000002005904B6943F010034B610023486925
:100CA00000F0100000F082F84FF4C06100F072F81C
:100CB0005FE0564DAC4219D1002005900B6943F41A
:100CC00000330B610023086900F4003000F06EF877
:100CD0000C2100F05FF800F013FC00220021262018
:100CE00000F038FD262000F052FD44E0484A9442CE
:100CF00020D1002005900A6942F480220A61002276
:100D0000086900F480200590059835480592022274
:100D10000C6844F002040C60096801F002010591BE
:100D20000599019200210291032207210491009369
:100D300003921DE0374A94421DD1002305934A696E
:100D400042F020024A614A6902F020020592059AA7
:100D50000593C0220C6844F004040C600223096867
:100D600001F0040100F00FF803230822039304921A
:100D7000694600F0C5FB07B030BD0A6802F0040206
:100D80000592059A704705910599009201930022FA
:100D9000029270470598009101930021029103236C
:100DA0000721049103936946104670470590059802
:100DB000059302230C6844F001040C60086800F0FD
:100DC0000100059070470000403802400054004088
:100DD00030380240005C0040000802400000024041
:100DE00000040240003800400008004000100040AD
:100DF000001C00400020004000140240004C004055
:100E000000500040000C024000100140004400402F
:100E100000480040001401407047704770470000D0
:100E200000210180012241808180C18002727047CF
:100E3000017A012906D1DFF820160A68536A038077
:100E400002211AE0022908BF032116D0032915D177
:100E5000DFF804160A68516A02888BB2934238BFE1
:100E600001F57A7141804EF6602341888A1A8280AA
:100E7000012192B293FBF2F2C28001727047DFF857
:100E8000D815082808BF01F148000ED0042808BF73
:100E900001F1540009D0202808BF01F1600004D0FE
:100EA000B0F5005F02D101F16C00C1E77047006846
:100EB000DFF8A815884205D14FF40051DFF8A005EE
:100EC00000F001BC70472DE9F0438DB000F08AFCC2
:100ED00000F0C3F900F000FADFF88845DFF8880574
:100EE000DFF8889504F1AC0600213060B160F16054
:100EF0004FF480487161B161F1613162C6F80490CC
:100F0000C6F81080304600F087FC08B100F0E9FA1E
:100F1000DFF85C0570654FF4E135B5650020F065DC
:100F2000306670660C21F0663067B16604F580703B
:100F300000F01AFD08B100F0D4FA04F5A276DFF84B
:100F4000340500F07DF908B100F0CBFADFF8280590
:100F500000F06BF904F5C47000F006FD08B100F074
:100F6000C0FA04F5E676DFF8140500F069F908B177
:100F700000F0B7FADFF8080500F057F904F504703F
:100F800000F0F2FC08B100F0ACFA04F51577DFF8D8
:100F9000F40438607D600C2000217861B960F9604C
:100FA0003961B961F961384600F0DEFC08B100F042
:100FB00098FADFF8D40420604FF4827161600A204F
:100FC00000224FF40071E062A260E260226162617F
:100FD000A161E26122626262A262204600F058FFD3
:100FE00008B100F07EFADFF8A404A06500212166B4
:100FF0006166E16621676167A167C4F85C90C4F827
:10100000688004F1580000F007FC08B100F069FAAC
:1010100009A8102100F080FB0FF2CC401C21D0E980
:101020000085CDE9008502A800F076FBDFF86004BA
:10103000786440F2CF79002040F2E736C7F8489054
:10104000F8643E657865F86504F526773846FFF75D
:101050009BF808B100F045FA4FF48050099009A9B7
:101060003846FFF78EFA08B100F03BFA3846FFF732
:10107000E9F808B100F035FA0021009101913846F5
:10108000694600F069FF08B100F02BFA6021029177
:1010900040F28338002104910691CDF80C8008229B
:1010A00002A93846FFF70BFA08B100F01AFA0C2231
:1010B00002A93846FFF703FA08B100F012FA3846E1
:1010C000FFF737FD68461C2100F026FB04F5387554
:1010D000DFF8C0032860C5F804900021A960EE6025
:1010E0002961A9612846FFF74FF808B100F0F9F926
:1010F0002846FFF7A7F808B100F0F3F96021009146
:1011000040F2F312019200210291002204926946FA
:101110002846FFF7D4F908B100F0E3F92846FFF7B5
:1011200008FD68461C2100F0F7FADB48A864C5F802
:101130004C90002129656E65A965296604F54A74FD
:101140002046FFF721F808B100F0CBF92046FFF761
:1011500079F808B100F0C5F9602100910022002162
:1011600002910492CDF8048069462046FFF7A7F962
:1011700008B100F0B6F92046FFF7DBFC0FF2703241
:10118000DFF8D492D2E90001CDE90001B34AC9F8F1
:10119000002043F67F60C9F804000021C9F8081058
:1011A000C9F81810C9F80C604846FEF7EDFF08B101
:1011B00000F097F90021009101914846694600F03E
:1011C000CBFE08B100F08DF909F14800FFF728FEC9
:1011D00009F15400FFF724FE09F16000FFF720FE3B
:1011E00009F16C00FFF71CFE00212046FFF737F8DD
:1011F00000212846FFF733F8A84C01224FF4805114
:10120000204600F05CFA08213846FFF728F80C2148
:101210003846FFF724F801224FF40061204600F021
:101220004EFA4846FEF7BDFFFEE77064B5640C2039
:101230000021B065F16431657165F1653166704713
:10124000306075600C2000217061B160F160316127
:10125000B161F161304600F087BB80B592B006A85D
:10126000302100F059FA01A8142100F055FA0020AD
:10127000009001238A48016841F0805101600021FB
:10128000006800F080500090009886480091026845
:1012900042F4804202600222006800F48040009024
:1012A00006A8009906921021002209930A910C9237
:1012B00000F098FE08B100F014F90F200190002111
:1012C000029103910491059101A801F023F808B15E
:1012D00000F007F913B000BDF8B586B068461421D8
:1012E00000F01AFA00247048704D6C4E05944FF4CB
:1012F000881701685A4C41F010010160026802F041
:1013000010020592002205990592036843F0040338
:101310000360016801F0040100F0D0F843F02003FD
:101320000360016801F0200100F0C8F843F0800379
:101330000360016801F0800100F0C0F843F0010390
:101340000360016801F0010100F0B8F843F0020306
:101350000360016801F0020100F0B0F843F00803F7
:101360000360016801F008010591059905924FF4A9
:101370006041036843F040030360006800F04000F0
:1013800005900598204600F09AF900224FF480510C
:10139000284600F094F900224FF4C051304600F086
:1013A0008EF924200021009002910197694640485F
:1013B00000F0A6F84FF4604100F08BF8204600F0F2
:1013C0009FF8032100910197002102913046694660
:1013D00000F096F84FF4805100F07BF8284600F0BA
:1013E0008FF84FF4C0510091012201920021029127
:1013F00003913046694600F083F8082100F063F855
:101400002C4800F07DF84FF4005100F05CF82A48B9
:1014100000F076F800220021082000F09BF9082057
:1014200000F0B5F900220021092000F093F909200D
:1014300000F0ADF900220021172000F08BF91720F1
:1014400000F0A5F900220021282000F083F92820CF
:1014500000F09DF907B0F0BD8003002000100040AF
:101460000008024010000020005C0040A08601003F
:10147000004C00400050004000100140004400407B
:101480000048004000140140003800400054004073
:1014900000080040001C0040002000400000024006
:1014A00040380240007000403038024000040240E2
:1014B00000100240000C02400018024005910599FE
:1014C00005920368704700910197002102916946D7
:1014D0007047009101220021029103910192694617
:1014E000704772B6FEE70000000000000000000038
:1014F0000000000000000000704770477047704710
:101500002DE9F84F0D464FF0000877490F220123CF
:1015100004462E6803FA08F000EA0609814540F007
:10152000C6804FEA480C032606FA0CF66FEA060E50
:101530006E6806F00307012F1CBF06F00306022E9B
:1015400011D1A668EF680EEA060607FA0CF73E43CB
:10155000A660666826EA00006E68C6F3001606FA02
:1015600008F6304360604FEA88002E7906F00306E3
:10157000032E1FD0E668AF680EEA060607FA0CF7DE
:101580003E43E6602E7906F00306022E12D14FEAA2
:10159000D80604EB860600F01C07D6F820A002FA55
:1015A00007FB2AEA0B0AD5F810B00BFA07F747EA4F
:1015B0000A07376226680EEA06072E7906F0030648
:1015C00006FA0CF63E4326606E6816F4403F6ED075
:1015D000002600964FEA980C0E68DFF810E146F4FA
:1015E00080460E6000F00C000E6806F480460096FF
:1015F000009E5EF82C7002FA00F627EA06063C4FC1
:10160000BC4208BF002722D03A4FBC4208BF012786
:101610001DD0394FBC4208BF022718D0374FBC42FB
:1016200008BF032713D0364FBC4208BF04270ED093
:10163000344FBC4208BF052709D0334FBC4208BF16
:10164000062704D0314FBC420CBF0727082707FAF2
:1016500000F030434EF82C006FEA090C2C488668E5
:101660000CEA060E6E68F70248BF49EA0E0EC0F893
:1016700008E0C6680CEA060E6E68B70248BF49EA81
:101680000E0EC0F80CE046680CEA060E6E68B70352
:1016900048BF49EA0E0EC0F804E006680CEA060EE0
:1016A0006E68F60348BF49EA0E0EC0F800E008F184
:1016B0000108B8F10F0F7FF62CAFBDE8F18F02B92A
:1016C000090481617047426901EA0203914341EADA
:1016D0000341816170470F4A136803421CBF1060C9
:1016E000FFF7CDBB70470000443802400838014086
:1016F000000002400004024000080240000C0240CA
:10170000001002400014024000180240001C024079
:10171000003C0140143C0140002200F0D1BE00001A
:101720000901020002D4294881547047284B02F075
:101730000F021A4402F8041C7047264B19684FF632
:10174000FF020002114000F4E06008432249084310
:101750001860704738B51F4B1C68C4F30223C3F1EF
:101760000704052C28BF04241D1D072D34BF0023AA
:10177000DB1E012505FA04F4641E2140994005FA98
:1017800003F35B1E1A401143BDE83440C8E7010073
:1017900007D4012200F01F01104B8A40400943F892
:1017A0002020704710B5401EB0F1807F01D301208A
:1017B00010BD0B4C60600F214FF0FF30FFF7B0FF02
:1017C0000021A16007202060002010BD00E400E09F
:1017D00018ED00E00CED00E00000FA0500E100E08B
:1017E00010E000E080B50B48016841F40071016031
:1017F000026842F480620260016841F48071016015
:101800000320FFF79AFF002000F074FEFFF78AF82C
:10181000002002BD003C0240F8B5040025D004F1D0
:101820003C05697821B9002028702046FFF795F81B
:101830002421697020680268520852000260206802
:10184000016841F4004101602068026822F400420E
:10185000026000F0E5FD01466068DFF8F420904288
:1018600005D2DFF8F030994205D20120F2BDDFF851
:10187000E8008142F9D32068DFF8E0304668B1FB28
:10188000F3F3B60943EA861646602668376A60684D
:10189000904206D34FF4967043434FF47A70B3FBF3
:1018A000F0F35B1CBF0943EA87133362491E2368C8
:1018B000DE696768974206D27F0000F043F804298A
:1018C00013D2042111E0A06820B907EB470700F00C
:1018D00039F805E01920474300F034F841F480411D
:1018E00008050CBF012141F40041DFF874000640F7
:1018F0000E43DE6122681368E169206A23F0C003A9
:101900000B43034313602268DFF858009368216992
:101910000340E0680B43034393602168CA68A369EE
:101920006069120A034343EA0222CA602068016820
:1019300041F001010160002068602021697020638E
:10194000A870F2BDB1FBF7F1491CC1F30B01704760
:10195000A186010080841E0000093D0040420F0066
:101960000030FFFF007CFFFF38B5040001D10120EB
:1019700032BD00F017F808B900F018F800F01BF8B5
:1019800000F023F8FFE7416100F001F832BD206864
:10199000C16841F40051C160002068602021697075
:1019A000A970704704F13C056878704700212970E0
:1019B0002046FFF710B9242068702068C16821F420
:1019C0000051C160204600F0FEB92068016921F491
:1019D000904101612068416921F02A017047206827
:1019E00000F1140151E8001F00F1140221F0400140
:1019F00042E80010002870477CB5044621680B6857
:101A0000CD684A6913F00F0007D1980661D5AA0680
:101A10005FD52046BDE8764072E1D00702D415F4C8
:101A2000907F56D0D80705D5E90503D5206C40F046
:101A300001002064580705D5D10703D5206C40F07C
:101A400002002064980705D5D10703D5206C40F02B
:101A500004002064180707D5A90601D4D00703D5D0
:101A6000216C41F008012164206C002830D09806D8
:101A700004D5A90644BF204600F042F92068406919
:101A8000216C0A0701D440061DD5204600F001F95B
:101A900020684169480611D5FFF7A1FFFCD1A06B72
:101AA00060B10FF251210165A06B00F086FD0028A6
:101AB0000ED0A06B016DBDE87C4008472046BDE814
:101AC000764000F091BD204600F08EFD002020649D
:101AD00073BD206B012804F13D0240F07D80D806E3
:101AE0007AD5EE0678D5002300930D6800954B68F3
:101AF00000930098496948063CD5A16B0868406886
:101B000080B20028E4D0A38D9842E1DAE085C8696C
:101B1000B0F5807F2AD0206800F10C0151E8001F49
:101B200000F10C0321F4807143E800100028F2D189
:101B300000F094F8490800F11403490043E800104C
:101B40000028F5D100F08AF800F1140321F04001DB
:101B500043E800100028F5D12020507000212163B7
:101B600000F08AF8FCD1A06B00F0E4FCA18DE08DC0
:101B7000091A2BE0A08DE18D411AE08D00281CBFD1
:101B800088B2002863D0206800F10C0353E8003FBE
:101B900000F10C0523F4907345E800300028F2D1E1
:101BA000206800F055F800F114055B0045E80030AE
:101BB0000028F5D1202050700022226300F054F854
:101BC00022F0100243E800200028F7D12046BDE8AB
:101BD0007C4089B200F009BD180629D52E0627D50C
:101BE0001078212833D1A068B0F5805F04BF206948
:101BF000002808D1206A0288C2F308024A60206ADD
:101C0000811C216204E0206A421C22620078486044
:101C1000E08C401EE08480B2C8B92068C16821F021
:101C20008001C1602068C16841F04001C16073BD9E
:101C300058060CD56B060AD5C86820F04000C8606D
:101C4000202111702046BDE8764000F0CFBC73BD66
:101C500000F1140353E8003F5B087047206800F16F
:101C6000140151E8001F7047206800F10C0252E88F
:101C7000002F00F10C037047206800F10C0151E8BF
:101C8000001F00F10C0221F0100142E800100028B2
:101C90007047016801F10C0252E8002F01F10C03BA
:101CA00022F4907243E800210029F2D1016801F189
:101CB000140252E8002F520801F11403520043E8C5
:101CC00000210029F2D1016B01290CD1016801F139
:101CD0000C0252E8002F01F10C0322F0100243E83D
:101CE00000210029F2D1202180F83E100022026359
:101CF00070470000806B0021C185C18400F074BC76
:101D00001CB590F83E1022295BD18168826AB1F53A
:101D1000805F0AD1016969B903685968C1F3080194
:101D20001180826A911C81620FE0002904BF016961
:101D3000002902D10368596803E00168496801F08D
:101D40007F011170816A4A1C8262C18D491EC18562
:101D500089B2A1BB0168CA6822F02002CA6001688A
:101D6000CA6822F48072CA6001684A695208520047
:101D70004A61202180F83E10026B012A1DD100210A
:101D80000163016801F10C0252E8002F01F10C031C
:101D900022F0100243E800210029F2D10268116804
:101DA000CB0606D500240094136800935268009275
:101DB0000099818D00F019FC01E000F018FC002072
:101DC00016BD022016BD70B5044622681169E06890
:101DD00021F4405101431161D3682748A1680340B1
:101DE00020690B4361690343E0690B430343D360FC
:101DF0005169A06921F44071014351611F498A4230
:101E00001CBF1F48824202D100F012FB01E000F02B
:101E100007FB62682568E46964261921B4F5004F60
:101E2000A1FB000112D1D30F520000F0E1FB00F042
:101E300029F8F60032366420B6FBF0F0420002F4D6
:101E4000F87202EB011200F0070010E0930F92000D
:101E500000F0CEFB00F016F8360132366420B6FBF7
:101E6000F0F000F0F00202EB011200F00F00801819
:101E7000A86070BD00000000F369FFFF0010014082
:101E8000001401406421B0FBF1F106FB110670471C
:101E900038B5040001D1012032BD606A28B900F0D4
:101EA00051F805D00021E16102E00020206160616D
:101EB0000020A06204F15005687820B90021297043
:101EC0002046FEF7B8FD0220687000F03FF8606819
:101ED000A168E26800F4827001F404410843217CA7
:101EE00002F400621043227D01F002010843A1695F
:101EF00002F001021043227F01F40071084394F8BC
:101F0000201002F038021043A26A01F08001084359
:101F1000216802F4005210430860A06994F824106C
:101F20002268000C00F0040001F01001084350602A
:101F30002068C16921F40061C1610020686001214D
:101F4000697032BD6068B0F5827F704720680168B3
:101F500021F040010160704770B500F13C031A7830
:101F6000012A01D1022070BD01221A7002245C7086
:101F700005686E68AC680A6826F0700616436E60E5
:101F800002681448824218BFB2F1804F11D0104845
:101F900082421CBF104DAA420BD00C4882421CBF8B
:101FA0000E4DAA4205D0084882421CBF0C4DAA42E1
:101FB00004D1486824F080040443946001215970DE
:101FC0000020187070BD000000400140000C00406F
:101FD00000040040000001400008004000040140EF
:101FE000001800402DE9F843040016D02078DFF8EF
:101FF0001463C10713D5B06800F00C00042807D0A3
:10200000B06800F00C0008283ED1706841023BD552
:102010003068810303D56068002800F005812078CE
:10202000B94F810719D5B06810F00C0F07D0B06810
:1020300000F00C0008285CD17068410259D4306867
:10204000810703D5E068012840F0EE8031682069FF
:1020500021F0F80141EAC0013160217808076CD510
:102060006069AA49002862D001220A6000F044FB9E
:102070000546706F810700F1D98000F03DFB401BE1
:102080000228F6D903203AE16068B0F5803F04D118
:10209000306840F48030306011E0B0F5A02F306837
:1020A00006D140F480203060316841F4803105E091
:1020B00020F480303060316821F480213160606824
:1020C00058B100F019FB054630688103A7D400F031
:1020D00013FB401B6528F7D3D4E700F00DFB054642
:1020E000306881039BD500F007FB401B6528F7D3C0
:1020F000C8E7E06870B10121396000F0FDFA0546DB
:102100003068810700F1BE8000F0F6FA401B02281B
:10211000F6D9B7E7386000F0EFFA0546316888076E
:102120009BD500F0E9FA401B0228F7D9AAE708601E
:1021300000F0E2FA0546706F810777D500F0DCFA0F
:10214000401B0228F7D99DE70528306F06D140F0E3
:1021500004003067306F40F0010005E040084000A7
:102160003067306F20F00400306741F28938A06892
:1021700068B100F0C1FA8146306F810700F18F80AD
:1021800000F0BAFAA0EB09004045F5D37AE700F079
:10219000B3FA8146306F810740F1818000F0ACFADC
:1021A000A0EB09004045F5D36CE700F0A5FA401B11
:1021B000022840F2878065E700F09EFA001B0228A3
:1021C00040F298805EE70020386600F095FA0446F9
:1021D0003068810140F1928000F08EFA001B0228E5
:1021E000F6D94FE701281FD07068E26900F480013A
:1021F000914202BF00F03F01226A914201BF47F6BF
:10220000C0710140626AB1EB821F0DD1A26A52080F
:1022100000F44031521EB1EB024F02BF00F070607B
:10222000E16AB0EB016F69D0012068E020784107D6
:102230003AD5306C0025C1000AD400950125316CD7
:1022400041F080513164306C00F080500090009873
:10225000DFF8BC80D8F80000C1051BD4D8F8000016
:1022600040F48070C8F8000000F046FA8146D8F8C3
:102270000000C1050ED400F03FFAA0EB09000228CF
:10228000F5D9FFE63068216920F0F80040EAC10086
:102290003060E2E6A06801287FF456AF5AE71DB12E
:1022A000306C20F080503064A06938B3B16801F020
:1022B0000C01082996D0022885D10020386600F04C
:1022C0001BFA0546306881013FF56FAFE269206A6D
:1022D000616A0243A06A400842EA8112401E42EA53
:1022E0000042E06A42EA006272600121396600F051
:1022F00003FA0446306881017FF55EAF0020BDE837
:10230000F28300BF0038024000004742800E47427F
:10231000007000402DE9F04104000F4678D0494E8E
:10232000306800F00700B84202D200F073F86FD1B5
:102330002068454D810712D5400703D5A96841F4AF
:10234000E051A9602078010703D5A86840F46040F7
:10235000A860A968A06821F0F0010143A960217874
:10236000C8074DD56068012802D129688A0305E0B5
:10237000022818BF032803D129688A0103D447E043
:1023800029688A0744D5A968890840EA8100A860BD
:1023900000F0B2F98046A868616800F00C00B0EB6C
:1023A000810F2DD000F0A8F9A0EB080041F289318F
:1023B0008842F0D3032021E02078410705D5AA68A0
:1023C000E06822F4E0520243AA602178080706D5AB
:1023D000A968206921F4604141EAC001A96000F0C8
:1023E0003FF8AA6819491A4BC2F30312895CC84026
:1023F00018601848006800F07DF80020BDE8F08102
:10240000306800F007008742D6D200F003F8D3D03E
:102410000120F3E73770316801F00701B9427047D6
:102420000B480D4A006813680C49C3F3822206E08A
:102430000748094A006813680849C3F34232895CB7
:10244000C8407047003C024000380240082800089D
:102450000C00002008000020083802408C280008EA
:1024600030B5144C606800F00C00042802D0082835
:1024700002D01DE0104830BD2268206800234102D0
:1024800002F03F0204D525680B49C5F3881003E02C
:1024900020680A49C0F38810A1FB000100F0A8F8E9
:1024A0002168C1F30141491C4900B0FBF1F030BD86
:1024B000024830BD0438024040787D010024F40019
:1024C00000B500BF130096469446103928BFA0E817
:1024D0000C50FAD85FEA417C28BF0CC048BF40F8D6
:1024E000042BC90728BF20F8022B48BF00F8012B96
:1024F00000BD000038B50D4D0D4B2A7804464FF451
:102500007A711868B1FBF2F2B0FBF2F0FFF74AF90A
:1025100050B9102C08D2002221464FF0FF30FFF7AF
:1025200019F9AC60002032BD012032BD000000204E
:102530000C000020F8B5064606F13404656A00F088
:10254000DBF807466078022805D080212162002050
:1025500020700120F2BD3068016821F01601016091
:102560003068416921F080014161E068002804BFC2
:102570006069002802D0306800F031F830680168E6
:1025800049084900016030680168CA070CD500F0AD
:10259000B3F8C01B0628F6D3202020620321617007
:1025A000002020700320F2BDA06A3F218140A96075
:1025B0000020012161702070F2BD90F835100229D1
:1025C00003D08022426501207047052180F8351034
:1025D00000680268520852000260002070470168DB
:1025E00021F00801016070477047704770477047DD
:1025F000D3BBD9B1B2F5803F5BD2022A1ED98C463B
:10260000B1FBF2F102FB11C31B0443EA1043B3FB1D
:10261000F2FC02FB1C3380B240EA0343B3FBF2F04E
:1026200002FB103240EA0C4000237047022A05D911
:102630008446B0FBF2F002FB10C270474AB105D1EC
:1026400000F0010249085FEA3000704700220023D1
:10265000704700F057B80B000200002100207047BF
:10266000F7D3002200237047904271EB030CF2D3A2
:1026700070B5B1FA81F4B3FA83F52C1BA340C4F111
:10268000200532FA05F63343A2405FF00046E640EB
:1026900002E05B085FEA3202841A71EB030524BF93
:1026A000204629467641F4D302000B003000002179
:1026B00070BD70B5B1FA81F4B2FA82F5C4F12004AC
:1026C0006419B4F12006DAD3B2405FF00044F4405C
:1026D000002502E052085FEA3303C61A71EB020ECE
:1026E00024BF3046714664416D41F3D302000B00B4
:1026F0002000290070BD000001484068704700BFFD
:102700000000002070470000FEE7FEE7FEE7FEE75E
:10271000FEE770477047704700F018B80420FEF7D6
:10272000DABF0820FEF7D7BF2020FEF7D4BF054848
:10273000FFF762B94FF40050FEF7CDBF0248FDF736
:1027400015BE0000DC010020800300200248416823
:1027500002788A18426070470000002030B450F8B8
:10276000041B79B10268436802440830DC0744BFA7
:10277000A9F10104E31852F8045B43F8045B091F54
:10278000F9D1ECE730BC704710B5074979441831EE
:10279000064C7C44163404E00A68081D114488473E
:1027A0000146A142F8D110BD2C0000004C000000F1
:1027B0004EF68851CEF20001086840F470000860BF
:1027C000BFF34F8FBFF36F8F4FF00070E1EE100A31
:1027D0007047000017E1FFFFE80300001000002031
:1027E0000000000079FFFFFF1000000084000000DF
:1027F00000000020000000000248016841F4700160
:102800000160704788ED00E000000000000000005B
:10281000010203040607080900F00DF8002801D0A2
:10282000FFF7B2FFAFF300800020AFF30080FEF7A8
:102830004AFB00F002F80120704700F001B80000E8
:102840000746384600F002F8FBE7000080B5AFF31A
:102850000080024A11001820ABBEFBE726000200F0
:102860000148804701480047F927000881280008EF
:102870000100000000000000100000000024F4002F
:10288000AFF30080FFF794FFFFF7C6FF00000000E2
:1028900001020304FFF7FEBFFFF7FEBFFFF7FEBF15
:1028A000FFF7FEBFFFF7FEBFFFF7FEBFFFF7FEBF5C
:1028B000FFF7FEBFFFF7FEBFFFF7FEBFFFF7FEBF4C
:1028C000FFF7FEBFFFF7FEBFFFF7FEBFFFF7FEBF3C
:1028D000FFF7FEBFFFF7FEBFFFF7FEBFFFF7FEBF2C
:1028E000FFF7FEBFFFF7FEBFFFF7FEBFFFF7FEBF1C
:1028F000FFF7FEBFFFF7FEBFFFF7FEBFFFF7FEBF0C
:10290000FFF7FEBFFFF7FEBFFFF7FEBFFFF7FEBFFB
:10291000FFF7FEBFFFF7FEBFFFF7FEBFFFF7FEBFEB
:10292000FFF7FEBFFFF7FEBFFFF7FEBFFFF7FEBFDB
:10293000FFF7FEBFFFF7FEBFFFF7FEBFFFF7FEBFCB
:10294000FFF7FEBFFFF7FEBFFFF7FEBFFFF7FEBFBB
:10295000FFF7FEBFFFF7FEBFFFF7FEBFFFF7FEBFAB
:10296000FFF7FEBFFFF7FEBFFFF7FEBFFFF7FEBF9B
:10297000FFF7FEBFFFF7FEBFFFF7FEBFFFF7FEBF8B
:10298000FFF7FEBFFFF7FEBFFFF7FEBFFFF7FEBF7B
:10299000FFF7FEBFFFF7FEBFFFF7FEBFFFF7FEBF6B
:1029A000FFF7FEBFFFF7FEBFFFF7FEBFFFF7FEBF5B
:1029B000FFF7FEBFFFF7FEBFFFF7FEBFFFF7FEBF4B
:040000050800288146
:00000001FF
