:020000040800F2
:100000002811002059640008896200088B620008EA
:100010008D6200088F6200089162000800000000F5
:1000200000000000000000000000000093620008D3
:1000300095620008000000009762000899620008BD
:10004000A5640008A9640008AD640008B164000854
:10005000B5640008B9640008BD640008C164000804
:10006000C5640008C9640008CD640008D1640008B4
:10007000D5640008D9640008DD640008E164000864
:10008000E5640008E9640008ED640008F164000814
:10009000F5640008F9640008FD64000801650008C3
:1000A00005650008096500080D6500081165000870
:1000B00015650008196500081D6500082165000820
:1000C00025650008296500082D65000831650008D0
:1000D0003565000839650008A16200083D65000823
:1000E0004165000845650008496500084D65000840
:1000F0005165000855650008596500085D650008F0
:100100006165000865650008696500086D6500089F
:100110007165000875650008796500087D6500084F
:100120008165000885650008896500088D650008FF
:100130009165000895650008996500089D650008AF
:10014000A1650008A5650008A9650008AD6500085F
:10015000B1650008B5650008B9650008BD6500080F
:10016000C1650008C5650008C9650008CD650008BF
:10017000D1650008D5650008D965000800000000B9
:10018000DD650008E16500082DE9F0439FB000BF80
:1001900065A6269CDFF8B48A8DF83B4002910024C6
:1001A0000B944FF0FF37044691461D460AE019F8BC
:1001B000011B0298A0470028029000F0A1800B9834
:1001C000401C0B9099F8000050B12528EFD1002178
:1001D0000022059106920791089209910A9203E084
:1001E0000B98A5E041F0010119F8010F2028F9D082
:1001F00023280CD02B2804D02D2805D0302809D056
:1002000080E041F00201EFE741F00401ECE741F04A
:100210000801E9E741F01001E6E70D920AE00D98C8
:10022000404505DA00EB800002EB4002303A0D92C7
:1002300009F1010999F80020A2F130000A28EED353
:1002400099F800002E2818BF0C9726D119F8010F35
:100250002A2808D12868286009F1010950F8042BE0
:1002600028600C9219E02D280CBF09F1010900202B
:1002700000220C920BE040B90C9A424505DA02EBE1
:10028000820203EB4203303B0C9309F1010999F818
:100290000030A3F130020A2AEDD3ADF83810304611
:1002A00099F8001000F086FE08B119F8010B8DF8DE
:1002B0003A009DF83A00682805D199F800006828AE
:1002C0000CD1622106E06C2804BF99F800006C286C
:1002D00004D171218DF83A1009F1010910A8049098
:1002E0002A4619F8013B6946204600F061F838B902
:1002F00010AA6946204600F08FF900287FF562AF0A
:10030000384615E02A2888D12A682A6052F8040B5A
:100310002A6000280D9003D540420D9041F0040161
:1003200009F101098CE70000686A6C747A4C0000DE
:100330001FB0BDE8F083622820D0682811D06A2859
:1003400003D06C2827D0712825D10868C01D20F063
:1003500007000860D0E900230830086019461046FD
:100360007047002A0A680A60106803D0121D0A60EC
:1003700000B217E0121D0A6080B217E0002A0A6876
:100380000A60106803D0121D0A6040B20AE0121D14
:100390000A60C0B20AE0002A0A680A60106803D046
:1003A000121D0A60C1177047121D0A6000217047B4
:1003B00070B51C460D46B4F125002E69114600F0BB
:1003C00019811C3868D0001F022865D9133842D023
:1003D000093861D0801E16D0401E1ED0401E022853
:1003E0005AD9001F19D0401F00F08180401E32D022
:1003F000401E00F0CB80C01E00F0DA80801E2AD0A4
:10040000C01E28D0FCE06869421C6A610A680A6064
:1004100052F8043B0A603354FCE095F83A0001229C
:10042000FFF789FFC5E90001002904D56869411C6F
:1004300069612D220DE0288F810704D56869411C70
:1004400069612B2205E0C00721D56869411C6961FB
:10045000202232541BE095F83A000022FFF76BFF90
:10046000C5E9000195F83800010710D5D5E900234A
:10047000002B08BF002A0AD044F02000782806D1BB
:10048000686930213154401C421C6A613454214651
:1004900068693044E86087E00868C01D20F0070004
:1004A0000860D0E9002308300860C5E90023D5E9D9
:1004B0000001C80F04D06869411C69612D220DE05C
:1004C000288F810704D56869411C69612B2205E0EA
:1004D000C00704D56869411C6961202232546869EB
:1004E0003044E8602146284600F0C4F992E005F166
:1004F0003A02507820B14FF0FF340FF6202062E02E
:100500001078622808D0682824D06A2812D06C2875
:100510002ED071280ED02BE00A680A6052F8040B26
:100520000A6020B94FF0FF340FF608204BE0E96A6B
:1005300001706FE00A680A6052F8040B0A6020B983
:100540004FF0FF340FF6EC103DE0EA6AD317C0E934
:1005500000235FE00A680A6052F8040B0A6020B9C1
:100560004FF0FF340FF6CC102DE0E96A018051E026
:100570000A680A6052F8040B0A6020B94FF0FF3491
:100580000FF6B0101FE0E96A016043E00A680A60F4
:1005900052F8040B0A60002120F0000221F0FF3322
:1005A000C5E90023EE607821284600F0BBF831E071
:1005B0000868086050F8044B0860EC603CB94FF0E4
:1005C000FF340FF6881000F001FD201A70BD2E6B6D
:1005D000002E04D5204600F019FD044608E03246FE
:1005E0000021204600F02EFD002814BF041B3446D5
:1005F000AC610FE06869411C69612522325409E051
:100600006969481C686125227254210002D0431C8C
:100610006B613454002070BD2DE9FC410F46064645
:1006200090467A6B7869396ABC6A121AB869521AAC
:10063000796A121AF869521A121A97F83800141BBC
:1006400041070FD42020002C8DF800000ADD25463C
:1006500001236A463946304600F048FC00285DD147
:100660006D1EF5D17B6942463946304600F03EFCAE
:10067000002853D130208DF800003D6A002D09DD9F
:1006800001236A463946304600F030FC002845D147
:100690006D1EF5D1BB69FA683946304600F026FC7C
:1006A00000283BD130208DF800007D6A002D08DD48
:1006B00001236A463946304600F018FC70BB6D1EB7
:1006C000F6D1F868B969FB6942183946304600F03E
:1006D0000DFC18BB30208DF80000BD6A002D08DD30
:1006E00001236A463946304600F000FCB0B96D1E61
:1006F000F6D197F8380041070DD52020002C8DF851
:10070000000008DD01236A463946304600F0EEFB62
:1007100020B9641EF6D10020BDE8F6814FF0FF300D
:10072000BDE8F6812DE9FC4307466F293E6908BF05
:10073000082405D041F02000782814BF0A24102492
:100740003C25D7E90023642918BF692990469946BA
:1007500005D1002B03D5D8F1000869EB4909B9F19F
:10076000000F08BFB8F1000F1FD1386BE8B9082C93
:100770004CD197F83800010748D530203B2586F842
:100780003B0043E000280ED597F8380000F0140035
:10079000102808D17B6B7969386A5B1A1B1A9A1A80
:1007A000002AC8BF3A62BDE8F3838DF800104046C6
:1007B00049462246E31700F071FC3032D0B26D1E7C
:1007C0003A28019504DB9DF80000A0F151018A1838
:1007D0007255404649462246E31700F05FFC8046CA
:1007E0005FEA010908BFB8F1000F03D0F86871197A
:1007F0008842DCD3082C09D197F83800010705D5C9
:10080000705D302802D06D1E30207055C5F13C025D
:10081000BA617119F960386B8242B3DA821A3A62AE
:100820004FF6EF70398F01403987BDE8F3832DE92A
:10083000D04306460F4614464FF00008DFF81094E8
:1008400012E0E00707D542464B463046394600F0F5
:100850003DFD06460F464046494642464B4600F09F
:1008600035FD641080468946002CEAD13046394671
:10087000BDE8D0832DE9F84F05468A464AF02004AA
:100880008EB0D5E90089612C02AE09D0286B002812
:1008900048BF062003D408BF672C01D1012028637C
:1008A000D5E900014A005215521C0DD10B030BD0A3
:1008B000AAF1610103201A29A86102D20FF2A861EE
:1008C00010E00FF2A8610DE04A005215521C0ED143
:1008D0000B030CD1AAF1610103201A29A86116D3D8
:1008E0000FF29061E868032200F0C2FDC0E1CDE99B
:1008F0000C01DDE90C2323F00043B3F5801F0DD27A
:100900000027002B08BF002A019703D111E00FF246
:100910006061E7E701AA00F0FFFD0AE0CD48CE499B
:1009200000EB1350DDE90C2301900B40CB4910463E
:100930001943C5E90001612C0DD1E868302101702F
:10094000821CBAF1610FEA600CBF78215821417016
:100950006869801C6861D5E90001CDE90C01DDE919
:100960000C2333F0004104BF0028002300F048812D
:10097000612C40F0A080286B494600284CBF4FF006
:10098000210B00F1010B404600220023DDE90C8918
:1009900000F0FAFD01990BF1010738BF89F0004919
:1009A000091F002F01918DF808200DF1090040F377
:1009B0003581A94900910646404649460022002358
:1009C00000F0FAFD80F029814800400D00F11C0282
:1009D00011D0002A0FDD40F2FF739A4205DBA049D7
:1009E00009F000400143002011E0009B194041EA5A
:1009F000025140460BE028F0000039F0004108BFEA
:100A000000280FBF49461C22494600F0EDFD8046F4
:100A1000894600F087FEFF1F002F044609DD00F025
:100A20009FFE02460B464046494600F0ABFE80461C
:100A30008946F01D072104E004F00F0200F8012DA3
:100A40002411002C01DD491EF6D5491E5CBF002291
:100A500000F8012DF9D5DCE00020194602AA0A446D
:100A600000E05B1E12F80149491E8442F9D00F28AC
:100A700004D10DF10900425C521C4254002904D5F6
:100A80000198001D02AE5B1C0190581E0CD4311859
:100A9000AAF13A040A783032D7B23A2FA8BFA21886
:100AA000401E01F80129F5D5286B002840F1A780E8
:100AB000591E2963A3E001996A4A47F297504143BE
:100AC00091FBF2F2019229F00046D2F1070204DD17
:100AD00040463146FFF7ABFE0AE052420020624931
:100AE000FFF7A5FE02460B464046314600F0BCFE2D
:100AF0008046662C286B06BF019F0A3706273F18E1
:100B0000142FC8BF142730208DF8080089460DF136
:100B1000090000E03046002F34DD064640464946D5
:100B200000F0C6FF01460A4606F1080304200A2623
:100B3000B2FBF6F606EB860EA2EB4E02303203F85D
:100B4000012C0A22B6FBF2F202EB820EA6EB4E0655
:100B50003036401E03F8026DE9D1083F002F03F143
:100B60000806D7DD084600F0B7FF02460B464046B0
:100B7000494600F007FE00223C4B00F0A7FB8046F0
:100B80008946CBE70DF10901401A0DF1090604E091
:100B90000199491E401E0191761C31783029F7D009
:100BA000662C02D10199491C03E0652C0CBF012180
:100BB00000212B6BCB189842B8BF431E002B1ED4CC
:100BC000834204DAF05C3528A8BF392000DA3020EF
:100BD0001946721E02EB010800E05B1E18F801992D
:100BE000491E8145F9D0392802D1705C401C7054EF
:100BF000002904D50198401C16465B1C0190019801
:100C000000B200901BB232465146284600F034F83C
:100C10002EE0C61D002F3FF7CFAE30460DF1090183
:100C2000401A03465845C8BF5B46002B0DF1090624
:100C30003FF53AAF8342BFF60FAF0DF10900C15C3B
:100C400007297FF709AF0F2007E70000CBCCCC0CBA
:100C50000000244002FCFFFFFFFF0F800000E03F88
:100C60000000F07FA08601000000F03F84D797418C
:100C70000FB0BDE8F08F00002DE9F84783B00646BD
:100C80008A461746984600F035FFB8F1000F406AD3
:100C9000356B90F8009002DC4FF00108B6A74AF0DF
:100CA0002000BDF93040662808BF641C15D06728B5
:100CB00040F0848014F1040FC0F28680AC4280F2D0
:100CC000838096F83800641C010702D4A845B8BF99
:100CD000454620B22D1A48BF00250FFA84FAF06865
:100CE000B169BAF1000F25DC4A1C30234354002DB2
:100CF00003DC96F83800010703D5F06800F802908D
:100D0000521C15EB0A0FB8BF6C4220B24419414285
:100D10004445B8BFA046B26171620FFA88F5F5612B
:100D2000F068B3692A463946184400F0A1FB641BF9
:100D3000B462C4E022B29045084417DA424639460C
:100D400000F096FBB0694044B061AAEB0801002DA9
:100D5000716203DC96F838100A0705D5F16801F8CE
:100D60000090F069401CF061B562A8E0394600F0DF
:100D70007FFBB069002D5044A8EB040803DC96F813
:100D800038100A0703D5F16801F80090401CB061E3
:100D90000FFA88F08542F368B069B8BFA8460FFA29
:100DA00088F207EB0A01184400F062FBB1690FFA00
:100DB00088F00144B161281A706280E0BAF1610FD5
:100DC00014D14FF0700A16E0A84504DA96F83810EE
:100DD0000A0758BF45466D1E48BF0025BAF1670F88
:100DE00014BF4FF0450A4FF0650A04E0BAF1410F15
:100DF00008BF4FF0500AB169F368481CB061002D7C
:100E000017F8012B5A5403DC96F838100A071BD543
:100E1000F168431CB36101F80090002D14DDA8F1C6
:100E200001080FFA88F039468542F768B8BFA8462E
:100E30000FFA88F2F81800F01BFBB0690FFA88F17E
:100E400008446D1AB0617562F068B1690844002CFD
:100E500080F800A003D42B224270811C03E02D21D6
:100E600041706442811C00206A460AE023460A243D
:100E700093FBF4F404EB8405A3EB450302F8013B78
:100E8000401C24B2002CF1DC012806DC4AF02002D0
:100E9000652A04BF302201F8012B48B9302001F83F
:100EA000010B07E0401E1DF80030303301F8013B14
:100EB0000028F7DCF268B0691044091AF16196F86D
:100EC000380000F0140010280DD17269B169706A01
:100ED0008A18F1698218B06A8A188218706B824287
:100EE000BCBF821A326204B0BDE8F087F8B505468F
:100EF0000E4617461C46002074B117F8011BB06857
:100F0000A847B06030B1F06A401CF0620020641E57
:100F1000F3D1F2BD4FF0FF30F2BD00007072696E88
:100F200074665F733A20256E20646973616C6C6F20
:100F3000776564007072696E74663A20626164203D
:100F4000256E20617267756D656E74007072696ED2
:100F500074665F733A206261642025732061726752
:100F6000756D656E740000006E616E004E414E003E
:100F7000696E6600494E4600300030B4002513E02B
:100F800050F8042BD30744BFA9F101039A18091F95
:100F9000042942F8045BFAD213468C0744BF15803B
:100FA0009B1CC90748BF1D7050F8041B0029E7D1DE
:100FB00030BC7047C9B202788A421AB11CBF10F81F
:100FC000012FF9E718BF00207047000080B500B975
:100FD00006A005490B681BB122220021984701E0B9
:100FE00000F08CFD222002BD1C0D0020636F6E738B
:100FF000747261696E742068616E646C65723A2007
:10100000626164206D6573736167650000F10103BF
:10101000810704D010F8011B820781B1FAD1026860
:10102000A2F10131914311F0803104BF50F8042F37
:10103000F6E709BAB1FA81F100EBD100401CC01A01
:1010400070470000C9B2830706D0521E22D310F8A1
:10105000013B9942F7D11FE0083A13D302F1040291
:1010600041EA012141EA014150F8043B121F21BF2E
:101070004B40A3F1013C2CEA030C1CF0803FF3D061
:10108000C9B2001F083210F8013B521E28BF91EA76
:10109000030FF8D818BF0120401E7047BBBBE1B159
:1010A000B2F5803F80F07E80022A1ED98C46B1FBCB
:1010B000F2F102FB11C31B0443EA1043B3FBF2FC41
:1010C00002FB1C3380B240EA0343B3FBF2F002FBA5
:1010D000103240EA0C4000237047022A05D98446AA
:1010E000B0FBF2F002FB10C270474AB105D100F02C
:1010F000010249085FEA3000704700220023704770
:1011000000F000BD0B00020000210020704790425B
:1011100071EB030CF6D3B3F5803F2FD2F0B5B3FAE1
:1011200083F7B1FA81F4A7F10F0E3D1B5340CEF1C6
:10113000200602FA0EF2F3415340B5F10F0746D8EC
:101140000F3C2C444140C4F12006A040F1414140F5
:10115000B1FBF3F603FB1611A2FB0645001BA941E8
:1011600002D2761E8018594180EA010221FA0EF35C
:1011700062FA0EF200215A403046F0BD30B4B1FBA5
:10118000F3FC03FB1C11A2FB0C45001BA94103D27D
:10119000ACF1010C8018594130BC02460B46604648
:1011A00000217047B2F1807F65D3F0B5B2FA82F7C3
:1011B000B1FA81F4C7F10F063D1B22FA06F307F1DD
:1011C000110EF24120355A40B5F10F07B8D9414010
:1011D000C4F12006A040F1414140B1FBF3FC03FB08
:1011E0001C11A2FB0C45001BA94103D2BCF1010C50
:1011F000801859410F2F12D30F3FC90341EA5041C4
:10120000B1FBF3F603FB1611A2FB0645D4EBC0308D
:10121000A94102D2761E8018594146EACC3C07B358
:101220004140C7F12006B840F1414140B1FBF3F61F
:1012300003FB1611A2FB0645001BA94102D2761E34
:101240008018594180EA010221FA0EF3C7F1200407
:1012500062FA0EF20CFA07F05A402CFA04F130430D
:10126000F0BD80EA010221FA0EF3002162FA0EF2CB
:1012700060465A40F0BD8C46B1FBF2F102FB11C34F
:101280001B0243EA1063B3FBF2FC02FB1C331B029C
:101290004CEA002043EA1063B3FBF2FC02FB1C3370
:1012A0001B024CEA002043EA1063B3FBF2FC02FB92
:1012B0001C331B024CEA002043EA1063B3FBF2FC30
:1012C00002FB1C324CEA002000237047B0B581EAD3
:1012D000030C0CF0004C40F2FF7515EA11541DBFD1
:1012E00015EA1357AC42AF4239E0E41923EA4553FB
:1012F00043F48013C90241F0004141EA505EC70245
:101300001100A7FB020200284FF00000EEFB0120B5
:101310004FF00001E3FB072118BF42F00102401823
:1013200000214941E3FB0E01A4F580640F0302D2C2
:1013300052004041494154F101046CDD470872F10B
:10134000004250F1000051EB0451A1F580115CBF47
:1013500041EA0C01B0BD4CEA05510020B0BD05EAE0
:101360001357AC4214BFAF4241E050EA410E1CBFDC
:1013700052EA430E02E061460020B0BD24423C44E4
:101380001BD15FEA070EF6D0090302BF0146002019
:10139000AEF1140EB1FA81F7AEEB070401FA07FEC5
:1013A0000C37C7F1200100FA07F7C8404EEA000EDB
:1013B00023EA455343F48013A2E733F00043B3FA22
:1013C00083F704BFB2FA82FE77440B3FE41BB7F108
:1013D000200E2FBF02FA0EF3BB40C7F1200E22FAF7
:1013E0000EFE38BF43EA0E03BA40641C82E750EA9F
:1013F000410E14BF52EA430E6FF000014FF4001784
:1014000017EB430F8ABF194617EB410FB5E74CEABC
:1014100005510020B0BDD4F10104B4F120070FDA6A
:10142000C4F12007520828BF42F0010210FA07F564
:1014300001FA07F7E1BF2A43E0403843E1400FE0FB
:10144000352C98DCC7F1200452EA400220FA07F25A
:1014500018BF42F0010231FA07F0A1400A4300210F
:1014600072F1004250F1000051EB0C01B0BD0000E0
:1014700062B38B0708D0521E11F8013B00F8013B04
:1014800000F024808B07F6D1830740F0208000BF56
:10149000103A07D330B4B1E83810103AA0E8381049
:1014A000F9D230BC530724BFB1E80810A0E80810F7
:1014B00044BF51F8043B40F8043BD20724BF31F845
:1014C000022B20F8022B44BF0B7803707047121FC9
:1014D00017D35B0009D151F8043B20F8023B1B0CE9
:1014E000121F20F8023BF6D20BE051F8043B00F843
:1014F000013B1B0A20F8023B1B0C121F00F8013BAA
:10150000F3D238BF121D521E24BF11F8013B00F860
:10151000013BF8D87047000010B5144600F002F8FF
:10152000226010BDC1F30A5343B14A0012F5001FF7
:1015300028D2A3F2FE32A1EB0251704750EA410CCF
:1015400020D001F0004C31EA0C01B1FA81F204BF65
:10155000B0FA80F3D2180B3AB2F120032CBF00FA94
:1015600003F1914041EA0C013EBFC2F1200C20FA88
:101570000CF319439040524240F2FD33D21A01EB72
:1015800003517047002270474FF4001C1CEB410FC1
:1015900094BF1CEB430F09E041EA030C50EA4C0CEA
:1015A00052EA0C0C03D2994208BF9042704714BF14
:1015B0008B428242704700004FF4001C1CEB410F2D
:1015C00094BF1CEB430F09E041EA030C50EA4C0CBA
:1015D00052EA0C0C03D28B4208BF8242704714BF00
:1015E0009942904270470000124254D440F2FF7C6E
:1015F0001CEA11530FD0634531D09B1863453CBFA3
:1016000001EB0251704701F0004141EA0C5100200A
:10161000AFF30080704750EA410320D001F0004C46
:1016200091EA0C011CD0B1FA81F30B3B9A420DD91F
:10163000D21A994051EA0C01C3F1200C20FA0CFC9B
:1016400061449840531C40F2FF7CD7E7914041EA47
:101650000C01C2F1200C20FA0CF3194390407047A2
:10166000B0FA80F31533202BE0D3202AEED3203AB2
:10167000203B9A4209D9D21A00FA03F141EA0C013F
:101680000020531C40F2FF7CB8E700FA02F141EA67
:101690000C0100207047524240F2FF7C1CEA1153BB
:1016A0000DD06345DBD0B2EB030C3CBFA1EB025184
:1016B00070470CF1010221EA035141F4801150EA14
:1016C000410CCCD001F0004C352A27DC30B481EA43
:1016D0000C01B2F1200309DAC2F12003044601FA39
:1016E00003F5D0402843D1409C400CE0C3F12002D8
:1016F000450020FA03F418BF44F0010421FA03F076
:1017000091400C43002174F1004550F1000051EB71
:101710000C01244230BC7FF47BAF7047614600204F
:1017200076E70000C1F30A5340F2FE329B1A14DD43
:10173000D3F120034FEAE17208DDC90241EA5051BA
:1017400041F00040D84080185040704703F2E1302B
:1017500010B1D24382F00040704700207047000073
:10176000C11768B14840401AB0FA80F29040D21CCC
:10177000C907C2F5846241EA025202EBD02140055A
:101780007047000070B44FF0004591EA030F40F13C
:10179000BB816B40841A71EB030603D2001BB1417D
:1017A000121973414FF4001C1CEB410F34BF7CEB4A
:1017B000430442E00C0DA4EB1356352E4FDC45EAF2
:1017C000C323DB0A45EAC121C912B6F120050DDDAC
:1017D00063FA05F6EB4086EA0305124218BF45F0AE
:1017E0000105C01851F100010CD213E062FA06F5B0
:1017F000F2405540F3415A40B340F3405A408018FC
:10180000594107D349085FEA30005FEA350528BF30
:1018100045F0010501F58011420875F1004250F1D3
:10182000000041EB04514E0016F5001F70BC38BF9C
:1018300070470020090D090570471CEB410F10D2BD
:1018400052EA43060BD0BCEB410F05D80C0DAB435D
:10185000661E342EB6DD02E0AB438018594170BCE1
:10186000704770BC70470000F0B540F2FF7581EA28
:10187000030C0CF0004C15EA11541DBF15EA135768
:10188000AC42AF42E5E0BC41C1F31301C3F3130323
:10189000801A994143F4801304D2641E40004941E8
:1018A00080185941C90241EA5051B1FBF3F603FBDC
:1018B0001611A2FB0675D7EBC020A94102D2761EF5
:1018C00080185941C90241EA5051B1FBF3FE03FBB4
:1018D0001E11A2FB0E75D7EBC020A94103D2AEF1B9
:1018E000010E80185941890241EA9051760546EA75
:1018F0008E2EB1FBF3F603FB1611A2FB0675D7EB98
:101900008020A94102D2761E80185941C90241EABD
:1019100050514EEA060EB1FBF3F603FB1611A2FB83
:101920000675D7EBC020A94102D2761E8018594116
:10193000C90241EA5051B1FBF3F703FB1711A2FBB7
:101940000735D3EBC020A94167F100070CBF004267
:1019500047F0010766F3D5274FEA1E31B80814F5A2
:10196000806412DDBD0775F1004250EB0E5051EB63
:10197000045111F5801F5CBF41EA0C01F0BD4CF031
:101980007F6141F0E0410020F0BDBD076D0840EAF5
:101990000E5041F48011D4F10104B4F120060ADAAA
:1019A000C4F120060200E04001FA06F3E1401843CA
:1019B000B24015430EE0342C13DCC6F1200445EA96
:1019C00040056D0820FA06F2154321FA06F0A14001
:1019D0000D43002175F1004250F1000051EB0C0164
:1019E000F0BD00205FEA0C01F0BDCFB992185B4159
:1019F000B3FA83F704BFB2FA82F6BF190B3FB7F10F
:101A000020062FBF02FA06F3BB40C7F1200622FAD8
:101A100006F638BF3343BA401CB1E419641E33E7FD
:101A20007F4231F00041B1FA81F404BFB0FA80F690
:101A3000A4190B3CB4F120062FBF00FA06F1A14017
:101A4000C4F1200620FA06F638BF3143A0403C1B03
:101A50001AE7AC421ABF05EA1357AF4212E050EA48
:101A600041061CBF52EA4306BFE750EA4107304631
:101A700061461CBF41EA0551F0BD52EA430C08BF64
:101A8000C143F0BD00204FF4001616EB410F98BF84
:101A900016EB430F08BF16EB410F24BFC14305E00F
:101AA00016EB430F0CBF61464CEA0551F0BD000038
:101AB000400D491840EA81200CD2490DA1F5806102
:101AC000491C40F0004005DBD1F11F0154BFC84064
:101AD000C017704700207047014648B1B0FA80F146
:101AE0008840C91CC1F58461090501EBD02140057E
:101AF00070470000004870475C000020012000F0A3
:101B0000B9B8000070470000841A71EB030604D2D4
:101B10006E40001BB141121973414FF4001C1CEBC5
:101B2000410F34BF7CEB430683E00C0DA4EB13564E
:101B3000362E00F37C80012E45EAC32341DC43EAC4
:101B4000525312BFD20292025B08240545EAC1211A
:101B500041EA5051D2EBC020994125D407D1B0FAC7
:101B600080F610FA06F162D00020203608E0B1FAC3
:101B700081F6B140C6F1200220FA02F21143B040D2
:101B80004FEAF474B4EB465434F001064FEA74049F
:101B90000AD8D6F50016760D04F00044F04061FA3C
:101BA00006F25040F1404840C00A40EA415021F05E
:101BB000004128BF5FEA500550F1000044EBD121FD
:101BC00035E0DB0A45EAC121C90AB6F120050EDD80
:101BD00042EA0242120CC5F1200603FA06F6EB4077
:101BE00042EA06056D42984161F100010DE062FA9A
:101BF00006F5F240554063FA06FC82EA0C02F34017
:101C00005A406D42904161EB030111F4801F05D1F0
:101C1000641E620502D06D004041494121F48011EB
:101C2000430875F1004350F1000041EB045170BCD2
:101C300070471CEB410F15D223F0004352EA4306D4
:101C40000BD04FEA4C0CBCEB410F04D80C0D661EB8
:101C5000342EB7DDEBE7801A994150EA410608BF00
:101C60000021E4E708BF1CEB430F28BF6FF0000121
:101C7000DDE7000080B5AFF30080024A11001820B4
:101C8000ABBEFBE726000200F8B504000D0016000D
:101C90001F002000C0B2092802DB5FF0FF30C5E062
:101CA0002800C0B2401E03D0401E02281FD91FE0EA
:101CB000182000F008FE80B2000A8DF800001820FD
:101CC00000F001FE8DF801001A2000F0FCFD80B24A
:101CD000000A8DF802001A2000F0F5FD8DF80300CF
:101CE0000098002802D17FF002009FE003E002E0AC
:101CF0007FF004009AE0780702D57FF0050095E0B8
:101D00003800C0B2002815D02800C0B2012802D087
:101D1000022807D00EE017F0230F02D17FF0050054
:101D200084E007E0B80604D5380602D47FF0050049
:101D30007CE0FFE72000C0B200F079F82900C9B2CA
:101D40003800C0B210F0F00001433800C0B210F00B
:101D5000020051EAC01189B22000C0B240225043B3
:101D600010F5007000F0AAFD300080B200280ED1FE
:101D7000DFF8280B01880E000188491C01800188CA
:101D80004FF6F072914202D14FF440410180310090
:101D900089B22000C0B24022504300F20A2000F075
:101DA0008DFD01212000C0B24022504300F20220EC
:101DB00000F084FD2000C0B24021484300F2022020
:101DC00000F081FDC0B20028F4D1DFF8D41A01225E
:101DD0000B8812FA04F083430B8008883B00DBB2C7
:101DE00013F00103A34018430880DFF8B80A018804
:101DF000A24031EA020202800020DFF8AC1A220081
:101E0000D2B221F812000020DFF8A01A2200D2B2CC
:101E100088542000C0B24021484310F5027000F001
:101E200052FDC0B20028F4D0200040B2F2BD3EB551
:101E300004002000C0B2092802DB5FF0FF309DE003
:101E40002000C0B24021484310F5007000F03BFD77
:101E500010F00F0001284CD12000C0B200F06AFD44
:101E600005002000C0B200F035FDB5EB802F40D05A
:101E700001A8DFF83C1A0A68026002212000C0B203
:101E80004022504310F5007000F018FD4FF440510F
:101E90002000C0B24022504300F20A2000F00EFDA4
:101EA00001212000C0B24022504300F2022000F085
:101EB00005FD2000C0B24021484300F2022000F09E
:101EC00002FDC0B20028F4D12000C0B24021484336
:101ED00010F5027000F0F7FCC0B22228F4D14FF4E4
:101EE0004050009001AB012201A92000C0B200F0D7
:101EF00026FB10212000C0B24022504300F20220F5
:101F000000F0DCFC2000C0B24021484300F2022077
:101F100000F0D9FCC0B20028F4D1FF212000C0B2EB
:101F20004022504300F2062000F0C8FCDFF8701990
:101F300001220B8812FA04F083430B80DFF8640956
:101F40000188A24031EA020202800020DFF858191D
:101F50002200D2B221F812000020DFF8501922002E
:101F6000D2B288542000C0B24021484310F502701C
:101F700000F0A9FCC0B20028F4D101203EBD10B58C
:101F800004002000C0B2092802DB5FF0FF3043E00C
:101F90002000C0B24021484310F5007000F093FCCF
:101FA00010F00F00012802D07FF0040034E0200080
:101FB000C0B24021484310F5027000F084FCC0B26A
:101FC000132802D07FF0020026E002212000C0B2D8
:101FD0004022504300F2022000F070FC2000C0B20A
:101FE0004021484300F2022000F06DFCC0B20028FE
:101FF000F4D12000C0B24021484310F5027000F037
:1020000062FCC0B2142806D02000C0B2FFF70FFF58
:102010007FF0030000E0012010BD10B50400200097
:10202000C0B2092802DB5FF0FF304FE02000C0B2F1
:102030004021484310F5007000F045FC10F00F00FF
:10204000012802D07FF0040040E008212000C0B247
:102050004022504300F2022000F030FC2000C0B2C9
:102060004021484300F2022000F02DFCC0B20028BD
:10207000F4D1DFF8301801220B8812FA04F0834300
:102080000B80DFF81C080088A240104201D000201D
:102090001CE02000C0B24021484310F5027000F05F
:1020A00012FCC0B2002810D02000C0B2402148432A
:1020B00000F2062000F007FC0007EAD52000C0B2BD
:1020C000FFF7B5FE7FF00C0000E0012010BD2DE908
:1020D000F84F04000D0016005FF000085FF0000BE1
:1020E0002000C0B2092802DB5FF0FF30D2E0200000
:1020F000C0B24021484310F5007000F0E4FB10F03E
:102100000F00012802D07FF00400C3E0300080B24D
:10211000002802D17FF00D00BCE02000C0B24021B9
:10212000484310F5027000F0CEFB07003800C0B243
:10213000172806D03800C0B21C2802D07FF0060055
:10214000A8E0DFF860875FF00109B8F8000019FA2D
:1021500004F1084226D02000C0B24021484300F2DA
:10216000062000F0B0FB0700F80610D51021200073
:10217000C0B24022504300F2062000F09FFBB8F8A6
:10218000001019FA04F08143A8F800100AE038079B
:1021900006D52000C0B2FFF74AFE7FF00C0079E0C0
:1021A000002077E02000C0B200F094FB82465FEA96
:1021B0008A2A5046310080B289B2884200D25646FF
:1021C0002000C0B200F0B6FB82462000C0B2402121
:1021D000484310F5027000F076FB07003800C0B2EB
:1021E00017280AD03800C0B21C2806D02000C0B280
:1021F000FFF71DFE7FF006004CE0DFF8A406008824
:1022000019FA04F1084207D05046310080B289B271
:10221000884201D200203DE05046310080B289B2B0
:102220008842CDD3320092B229002000C0B200F023
:10223000C9FB00212000C0B24022504310F50870B5
:1022400000F03CFB310089B22000C0B24022504374
:1022500000F2222000F032FB20212000C0B24022F8
:10226000504300F2022000F029FB2000C0B24021C0
:10227000484300F2022000F026FBC0B20028F4D14F
:10228000B8F8000019FA04F959EA0009A8F8009012
:10229000B6B23000BDE8F28F2DE9F84F04000D0012
:1022A000160000275FF000092000C0B2092802DBF9
:1022B0005FF0FF3041E12000C0B24021484310F5FB
:1022C000007000F000FB10F00F00012802D07FF03A
:1022D000040032E1300080B2002802D17FF00D000E
:1022E0002BE12000C0B200F00DFB80465FEA882899
:1022F0004046310080B289B2884200D24646DFF8BB
:10230000A8952000C0B239F81000002844D1200060
:10231000C0B200F02FFB80462000C0B240214843ED
:1023200010F5027000F0CFFA07003800C0B217288D
:1023300021D03800C0B21C2816D1404680B20028F7
:102340002AD12000C0B200F0F5FA82462000C0B2C7
:1023500000F0C0FABAEB802F0DD12000C0B2FFF719
:1023600066FD7FF00600E8E02000C0B2FFF75FFDE9
:102370007FF00600E1E0DFF8280500880121A14098
:10238000084205D0404680B2002801D10020D4E0A8
:10239000404680B20028BAD02000C0B239F8100000
:1023A000002809D02000C0B24021484310F5007039
:1023B00000F089FAC00531D5002000F084FAADF8AC
:1023C00002002000C0B24021484310F5007000F028
:1023D0007AFAC0051ED4022269462000C0B200F07D
:1023E0000DFBBDF80200C00507D59DF801009DF862
:1023F000001051EA0021884606E09DF800009DF893
:10240000011051EA002188468020DFF8A014220044
:10241000D2B288542000C0B229F810802000C0B287
:1024200039F81000310089B2884204D22000C0B2CD
:1024300039F810000600B346DFF870A42000C0B2DF
:102440001AF8000080071BD5DFF868042100C9B224
:10245000405C28706D1C2000C0B21AF8000010F01B
:10246000FD002100C9B20AF80100BBF1010B2000F8
:10247000C0B239F81000401E2100C9B229F811007D
:10248000584680B200281AD05A4692B2290020003D
:10249000C0B200F0B3FA40212000C0B24022504345
:1024A00000F2022000F00AFA2000C0B240214843A6
:1024B00000F2022000F007FAC0B20028F4D1200098
:1024C000C0B239F81000B0EB0B002100C9B229F8F6
:1024D00011002000C0B239F81000002817D02000E9
:1024E000C0B21AF8000050F001002100C9B20AF889
:1024F00001005FEACB700FD52000C0B21AF80000CF
:1025000050F002002100C9B20AF8010004E00020E6
:102510002100C9B20AF801002000C0B2402148439E
:1025200010F5007000F0CFF9C00504D5002021009F
:10253000C9B229F81100B6B23000BDE8F28F2DE91A
:10254000F84F05000E00170098460A9C5FF0000A3D
:102550005FF0000B2800C0B2092802DB5FF0FF30FB
:1025600098E12800C0B24021484310F5007000F007
:10257000AAF910F00F00C0B2801E022804D838005B
:1025800080B2002806D102E07FF0040082E17FF0F3
:102590000D007FE198F80000000298F80110401843
:1025A000000298F802104018000298F80310401832
:1025B0000090009800280CD12800C0B24021484368
:1025C00010F5007000F07FF9400702D47FF00B0097
:1025D00060E1200080B200280CD12800C0B2402168
:1025E000484310F5007000F06EF9400702D47FF008
:1025F0000A004FE12800C0B24021484310F50270A4
:1026000000F061F981464846C0B242280AD04846E7
:10261000C0B2222806D04846C0B2322802D07FF08D
:10262000060037E198F80000000298F80110401801
:10263000010089B22800C0B24022504310F5057055
:1026400000F03CF998F80200000298F803104018D6
:10265000010089B22800C0B24022504300F2162087
:1026600000F02CF9210089B22800C0B2402250436A
:1026700000F2122000F022F92800C0B200F02AF97E
:1026800082465FEA8A2A5046390080B289B288427F
:1026900000D257462800C0B200F04CF9824628000C
:1026A000C0B24021484310F5027000F00CF9C0B2EE
:1026B000002802D17FF00300ECE079480088012176
:1026C000A940084207D05046390080B289B28842FA
:1026D00001D20020DEE05046390080B289B2884243
:1026E000D8D33A0092B231002800C0B200F06AF9A3
:1026F000182000F0E8F880B2000A8DF800001820D9
:1027000000F0E1F88DF801001A2000F0DCF880B24A
:10271000000A8DF802001A2000F0D5F88DF80300A9
:102720000098002830D1142000F0CDF880B2000AC3
:102730008DF80000142000F0C6F88DF80100162076
:1027400000F0C1F880B2000A8DF80200162000F0F7
:10275000BAF88DF80300DFF860B19BF800000002C2
:102760009BF801104018010089B2142000F0A6F86F
:102770009BF8020000029BF803104018010089B288
:10278000162000F09BF801E00020009000212800B6
:10279000C0B24022504310F5087000F08FF83900A5
:1027A00089B22800C0B24022504300F2222000F03B
:1027B00085F820212800C0B24022504300F20220B8
:1027C00000F07CF82800C0B24021484300F202200B
:1027D00000F079F8C0B20028F4D12800C0B240213E
:1027E000484300F2062000F06EF881465FEAC960B7
:1027F0000CD510212800C0B24022504300F2062020
:1028000000F05CF8009800282AD141E05FEA0970E6
:10281000E3D508212800C0B24022504300F2062030
:1028200000F04CF80098002817D09DF80000000236
:102830009DF8011050FA81F0010089B2142000F0D7
:102840003DF89DF8020000029DF8031050FA81F057
:10285000010089B2162000F031F87FF00C0019E079
:102860009DF8000000029DF8011050FA81F001006F
:1028700089B2142000F022F89DF8020000029DF8B1
:10288000031050FA81F0010089B2162000F016F80A
:10289000BFB23800BDE8F28F00000000DC0000206D
:1028A000200D0020220D0020F00C0020000D002043
:1028B0009C640008080D00208C640008420012F19E
:1028C000C842118070470100480010F1C8400088DC
:1028D00080B2704710B50400E00708D52000C0B2F0
:1028E00010F0FE002030FFF7EEFFC0B209E020003C
:1028F000C0B210F0FE002030FFF7E5FF80B2000A02
:10290000C0B210BD10B50400E00708D52000C0B269
:1029100010F0FE002830FFF7D6FFC0B209E020001B
:10292000C0B210F0FE002830FFF7CDFF80B2000AE1
:10293000C0B210BDF8B50400002501262000C0B2C9
:102940004021484310F50970FFF7BDFF0700BFB2F3
:102950002000C0B24021484300F22620FFF7B3FF19
:1029600050EA07400500B54201D1280001E02E00E1
:10297000E4E7F2BDF8B50400002501262000C0B24E
:102980004021484310F50A70FFF79DFF0700BFB2D2
:102990002000C0B24021484300F22A20FFF793FFF5
:1029A00050EA07400500B54209D12948E4B2005D6C
:1029B000C0B2400810F0010055FA80F001E02E008E
:1029C000DCE7F2BDF8B505000E0014000020002C75
:1029D00013D00027A74210D2F05D06EB070149781B
:1029E00051EA002189B22800C0B24022504300F2CF
:1029F0002E20FFF763FFBF1CECE7F1BD2DE9F0418E
:102A000005000E00140000270020002C1ED05FF0EF
:102A10000008A04516D25FEAC8700ED42800C0B2E4
:102A20004021484310F50C70FFF74DFF07003800B8
:102A300080B2000A06F8080001E006F8087018F1F4
:102A40000108E6E703482900C9B24754BDE8F08110
:102A5000000D0020080D002010B50400002C01D14D
:102A6000012033E0A0690028FFD194F83D00002840
:102A700005D1002084F83C00200000F046FE242010
:102A800084F83D002068C06830F400502168C860B8
:102A9000200000F033FB2068006930F4904021688A
:102AA00008612068406930F02A0021684861206888
:102AB000C06850F400502168C860002020642020C5
:102AC00084F83D00202084F83E00002010BD2DE950
:102AD000FC4706000D0017009846002496F83D00BC
:102AE00020285DD1002D03D0380080B2002801D10C
:102AF000012056E096F83C00012801D1022050E068
:102B0000012086F83C0000203064212086F83D003A
:102B100000F0C0FF8146B784F784B068B0F5805FED
:102B200005D13069002802D10024AA4602E02C0019
:102B30005FF0000A002086F83C00F08C00281ED0D0
:102B4000CDF800804B4600228021300000F091F942
:102B5000002801D0032024E0002C08D1BAF800009E
:102B6000C005C00D316848601AF1020A03E0207800
:102B700031684860641CF08C401EF084DDE7CDF8BD
:102B800000804B4600224021300000F072F90028FE
:102B900001D0032005E0202086F83D00002000E061
:102BA0000220BDE8F6872DE9FC470600306807687B
:102BB0003068D0F80C803068D0F8149000200025E0
:102BC00017F00F04002C08D1B80606D55FEA88601C
:102BD00003D5300000F019FA49E1002C00F08080A4
:102BE0005FEAC97002D418F4907F79D017F0010021
:102BF000C0B2002806D05FEAC85003D5306C50F050
:102C000001003064780708D519F00100C0B200282F
:102C100003D0306C50F002003064B80708D519F0CA
:102C20000100C0B2002803D0306C50F004003064C2
:102C300038070BD55FEA886004D419F00100C0B2F0
:102C4000002803D0306C50F008003064306C00284D
:102C500045D0B80605D55FEA886002D5300000F09F
:102C6000D4F930684069800910F001000500306C2B
:102C7000000701D4002D2DD0300000F042F930685B
:102C80004069400622D53068143050E8000F30F01B
:102C900040000100306810F1140242E800100028E2
:102CA000F1D1B06B00280DD00FF2C120B16B0865D7
:102CB000B06B00F043FF002811D0B06BB16B096D11
:102CC00088470CE0300000F04DFF08E0300000F0D5
:102CD00049FF04E0300000F045FF00203064C6E00A
:102CE000306B012840F0B180F80640F1AE805FEA19
:102CF000C86040F1AA800020009030680068009011
:102D000030684068009000983068406940065BD5A4
:102D1000B06B0068D0F804A0504680B2002852D0B2
:102D20005046B18D80B288424DD2A6F82EA0B06B2D
:102D3000C069B0F5807F3FD030680C3050E8000F9C
:102D400030F480700100306810F10C0242E800108D
:102D50000028F1D13068143050E8000F40084000DE
:102D60000100306810F1140242E800100028F1D18F
:102D70003068143050E8000F30F040000100306837
:102D800010F1140242E800100028F1D1202086F84A
:102D90003E000020306330680C3050E8000F30F007
:102DA00010000100306810F10C0242E80010002809
:102DB000F1D1B06B00F074FEB18DF08D091A89B2BB
:102DC000300000F0D0FE52E0B08DB6F82EA0B0EB8F
:102DD0000A0AF08D002837D0504680B2002833D040
:102DE00030680C3050E8000F30F49070010030680B
:102DF00010F10C0242E800100028F1D130681430C4
:102E000050E8000F400840000100306810F1140243
:102E100042E800100028F1D1202086F83E00002072
:102E2000306330680C3050E8000F30F010000100C3
:102E3000306810F10C0242E800100028F1D1514630
:102E400089B2300000F08FFE11E0380606D55FEA47
:102E5000086003D5300000F095F808E0780606D544
:102E60005FEA486003D5300000F0BFF8FFE7BDE837
:102E7000F3872DE9F04105000E0017009846069CE7
:102E8000286800683040B04201D1012000E00020F5
:102E90003900C9B2884231D114F1010FF0D0002CB1
:102EA00005D000F0F7FDB0EB08008442E8D22868B6
:102EB0000C3050E8000F30F4D0700100286810F199
:102EC0000C0242E800100028F1D12868143050E8C4
:102ED000000F400840000100286810F1140242E889
:102EE00000100028F1D1202085F83D00202085F831
:102EF0003E00002085F83C00032000E00020BDE8F3
:102F0000F08101680C3151E8001F31F490710A0022
:102F1000016811F10C0343E800210029F1D1016897
:102F2000143151E8001F490849000A00016811F1F5
:102F3000140343E800210029F1D1016B01290DD1CF
:102F400001680C3151E8001F31F010010A000168DE
:102F500011F10C0343E800210029F1D1202180F870
:102F60003E100021016370470000000038B50400E6
:102F7000A56B0020E8850020E884280000F0F2FD21
:102F800031BD0000010091F83D0021282BD1886857
:102F9000B0F5805F0DD1086900280AD1086A0200E7
:102FA0001088C005C00D0B685860086A801C086254
:102FB00005E0086A431C0B6200780B685860C88CF7
:102FC000401EC88480B200280BD10868C06830F069
:102FD00080000B68D8600868C06850F040000B683B
:102FE000D860002000E00220704710B5040020687F
:102FF000C06830F040002168C860202084F83D009F
:10300000200000F0B1FD002010BD7CB5040094F854
:103010003E00222870D1A068B0F5805F0DD12069F4
:1030200000280AD10025A66A20684068C005C00DA6
:103030003080A06A801CA06217E0A56A0026A06804
:10304000B0F5805F05D0A068002806D1206900286F
:1030500003D120684068287004E02068406810F0C0
:103060007F002870A06A401CA062E08D401EE085B1
:1030700080B200283ED12068C06830F0200021686E
:10308000C8602068C06830F480702168C86020681B
:1030900040694008400021684861202084F83E00D3
:1030A000206B012821D10020206320680C3050E8DB
:1030B000000F30F010000100206810F10C0242E80F
:1030C00000100028F1D120680068C00608D5002053
:1030D0000090206800680090206840680090009888
:1030E000A18D200000F03FFD02E0200000F03DFD3A
:1030F000002002E0002000E0022076BD2DE9F84F1C
:1031000084B005002868016931F44051E868014342
:1031100028680161D5F808B0286950EA0B0B686986
:1031200050EA0B0BE86950EA0B0B2868C168B248FB
:1031300001405BEA01012868C1602868416931F4F7
:103140004071A8690143286841612868AB498842F9
:1031500003D02868AA49884203D100F0B5FD0400D5
:1031600002E000F0A6FD0400E869B0F5004F40F071
:10317000A1805FF0640A022600275FF019085FF063
:10318000000922000023A8FB020108FB031109FB30
:103190000211CDE9000168680021A6FB002306FBAF
:1031A000013307FB0033DDE90001FDF777FF642100
:1031B000B0FBF1F0039022000023A8FB020108FB02
:1031C000031109FB0211CDE9000168680021A6FB8B
:1031D000002306FB013307FB0033DDE90001FDF7A7
:1031E0005DFF029022000023A8FB020108FB0311EF
:1031F00009FB0211CDE9000168680021A6FB00234C
:1032000006FB013307FB0033DDE90001FDF746FF54
:103210006421B0FBF1F102980AFB1101C8003230C1
:103220006421B0FBF1F0400010F4F870039910EB4A
:103230000110029022000023A8FB020108FB0311E9
:1032400009FB0211CDE9000168680021A6FB0023FB
:1032500006FB013307FB0033DDE90001FDF71EFF2C
:10326000009022000023A8FB020108FB031109FBC8
:1032700002118046894668680021A6FB002306FBF0
:10328000013307FB003340464946FDF707FF642141
:10329000B0FBF1F100980AFB110A5FEACA00323074
:1032A0006421B0FBF1F111F00701029809182868B8
:1032B00081609EE0042600275FF0640A5FF0190831
:1032C0005FF0000922000023A8FB020108FB0311A4
:1032D00009FB0211CDE9000168680021A6FB00236B
:1032E00006FB013307FB0033DDE90001FDF7D6FEE5
:1032F0006421B0FBF1F0039022000023A8FB02013F
:1033000008FB031109FB0211CDE9000168680021E7
:10331000A6FB002306FB013307FB0033DDE90001B8
:10332000FDF7BCFE029022000023A8FB020108FB6F
:10333000031109FB0211CDE9000168680021A6FB19
:10334000002306FB013307FB0033DDE90001FDF735
:10335000A5FE6421B0FBF1F102980AFB11010801FE
:1033600032306421B0FBF1F010F0F000039910EB63
:103370000110029022000023A8FB020108FB0311A8
:1033800009FB0211CDE9000168680021A6FB0023BA
:1033900006FB013307FB0033DDE90001FDF77EFE8C
:1033A000009022000023A8FB020108FB031109FB87
:1033B00002118046894668680021A6FB002306FBAF
:1033C000013307FB003340464946FDF767FE6421A1
:1033D000B0FBF1F100980AFB110A5FEA0A103230E3
:1033E0006421B0FBF1F111F00F010298091828686F
:1033F000816005B0BDE8F08FF369FFFF0010014068
:103400000014014081B000200090DFF82806016818
:1034100051F480410160006810F4804000900098F1
:1034200000200090DFF81006016851F08051016023
:10343000006810F080500090009801B0704710B5FF
:1034400086B004006846142100F0A6FC2068DFF86E
:10345000EC15884229D100200590DFF8E4050168C9
:1034600051F002010160006810F00200059005981B
:10347000C0200090122001900120029003200390B0
:10348000042004906946DFF8BC0500F089FC0020A8
:103490000590DFF8A405016851F40011016000688F
:1034A00010F400100590059849E02068DFF89815A1
:1034B000884244D100200590DFF88405016851F06E
:1034C00004010160016811F00401059105990021D2
:1034D0000591016851F001010160006810F00100E0
:1034E000059005984FF40070009012200190012083
:1034F000029003200390042004906946DFF84C05F5
:1035000000F04EFC4FF480700090122001900120DA
:10351000029003200390042004906946DFF83005F0
:1035200000F03EFC00200590DFF80C05016851F426
:1035300000010160006810F400000590059806B0D5
:1035400010BD10B586B0040001A8142100F024FCC1
:103550002068DFF80015884229D100200090DFF8AC
:10356000D804016851F480410160006810F4804083
:103570000090009800200090DFF8C404016851F02A
:1035800002010160006810F00200009000984FF402
:1035900060400190022002900020039003200490DC
:1035A0000520059001A9DFF89C0400F0F9FB06B0A6
:1035B00010BD81B00168DFF8A02491420DD1002137
:1035C0000091DFF874140A6852F004020A60096876
:1035D00011F004010091009924E00168DFF87C24D7
:1035E00091420DD100210091DFF84C140A6852F08D
:1035F00080020A60096811F080010091009911E0D1
:103600000168DFF85C2491420CD100210091DFF8C1
:1036100028140A6852F480720A60096811F48071F3
:103620000091009901B0704710B586B0040068465B
:10363000142100F0B1FB2068DFF81C1488421DD172
:1036400000200590DFF8F803016851F002010160E5
:10365000006810F00200059005984FF4407000904B
:10366000022001900020029000200390022004908C
:103670006946DFF8D00300F093FB44E02068DFF8F0
:10368000DC1388421DD100200590DFF8B4030168E7
:1036900051F020010160006810F0200005900598AD
:1036A0004FF48070009002200190002002900020D2
:1036B0000390092004906946DFF8A80300F070FB2E
:1036C00021E02068DFF8981388421CD10020059083
:1036D000DFF86C03016851F020010160006810F010
:1036E0002000059005984FF4007000900220019092
:1036F0000020029000200390092004906946DFF822
:10370000640300F04DFB06B010BD10B586B0040098
:103710006846142100F040FB2068DFF84C13884213
:103720002AD100200590DFF81003016851F4002130
:103730000160006810F400200590059800200590B5
:10374000DFF8FC02016851F004010160006810F02C
:103750000400059005984FF440600090022001900D
:103760000020029003200390082004906946DFF8AF
:10377000DC0200F015FBFFE02068DFF8F012884261
:1037800044D100200590DFF8B002016851F48011A7
:103790000160006810F480100590059800200590E5
:1037A000DFF89C02016851F004010160016811F02A
:1037B00004010591059900210591016851F0080166
:1037C0000160006810F00800059005984FF48050E3
:1037D0000090022001900020029003200390082016
:1037E00004906946DFF8640200F0DAFA04200090E1
:1037F00002200190002002900320039008200490F2
:103800006946DFF86C0200F0CBFAB5E02068DFF81B
:103810006412884227D1002005908648016851F043
:1038200010010160006810F010000590059800205C
:1038300005908348016851F001010160006810F0B3
:103840000100059005984FF4C0600090022001909F
:1038500000200290032003900720049069467C48D2
:1038600000F09EFA88E02068834988422ED100202B
:1038700005907148016851F400310160006810F44E
:10388000003005900598002005906D48016851F0C2
:1038900001010160006810F00100059005980C20FE
:1038A0000090022001900020029003200390072046
:1038B00004906946664800F073FA00220021262031
:1038C00000F022FC262000F034FC55E020686B4913
:1038D000884227D1002005905748016851F4802183
:1038E0000160006810F48020059005980020059084
:1038F0005348016851F002010160006810F00200B5
:10390000059005984FF4406000900220019000203F
:10391000029003200390072004906946494800F074
:103920003FFA29E020685649884225D100200590B9
:103930004048016851F020010160006810F020004B
:1039400005900598002005903D48016851F004015C
:103950000160006810F0040005900598C0200090F8
:103960000220019000200290032003900820049080
:103970006946364800F014FA06B010BD80B586B02E
:103980006846142100F008FA3E490868002849D129
:1039900001200860002005903B48016851F00101BA
:1039A0000160006810F00100059005984FF69870CE
:1039B00000900220019000200290032003900C2030
:1039C00004906946314800F0EBF94FF23F00009057
:1039D0000220019000200290032003900C2004900C
:1039E0006946204800F0DCF940F23F2000900220B8
:1039F000019000200290032003900C20049069465F
:103A0000234800F0CDF94FF633700090022001906A
:103A100000200290032003900C2004906946144873
:103A200000F0BEF907B000BD10B50400FFF7A6FF17
:103A300010BD0000443802404038024000540040AD
:103A40003038024000040240005C004000080240A0
:103A5000000002400038004000080040001C004008
:103A60000020004000140240004C00400050004084
:103A7000000C02400010014000440040004800409B
:103A800000140140140D002038380240001002409C
:103A90000018024001480068704700BF100D002068
:103AA00070B50400A56DFFF7F5FF060094F835002A
:103AB000022806D080206065002084F834000120B0
:103AC0003BE02068006830F016002168086020683C
:103AD000406930F0800021684861206C002802D1E4
:103AE000A06C002805D02068006830F0080021682C
:103AF000086020680068400840002168086020686D
:103B00000068C0070ED5FFF7C5FF801B0628F6D357
:103B100020206065032084F83500002084F83400FC
:103B200003200AE03F21E06D8140A960012084F874
:103B30003500002084F83400002070BD010091F8A9
:103B40003500022803D080204865012009E00520C7
:103B500081F8350008680068400840000A68106075
:103B60000020704770477047704770472DE9F0415B
:103B700004000D00002C01D1012095E0584F386859
:103B800010F00700A84207D23D70386810F0070017
:103B9000A84201D0012087E02078800716D5207840
:103BA000400704D54F48016851F4E0510160207886
:103BB000000704D54B48016851F460410160494950
:103BC0000A6832F0F002A06802430A602078C00759
:103BD00038D56068012805D143480068800313D4B4
:103BE000012061E06068022802D06068032805D1E6
:103BF0003D480068800107D4012055E03A4800683C
:103C0000800701D401204FE0DFF8D880D8F80010F9
:103C10008908890060680143C8F80010FFF73AFF7F
:103C20000600D8F8000010F00C006168B0EB810FBE
:103C300008D0FFF72FFF801B41F289318842F0D373
:103C4000032031E0386810F00700854207D23D704C
:103C5000386810F00700A84201D0012024E0207845
:103C6000400706D51F490A6832F4E052E068024373
:103C70000A602078000707D51A48016831F46041CE
:103C8000226951EAC201016000F038F81749154A6B
:103C90001268C2F30312895CC840154908601548D0
:103CA000006800F063FA0020BDE8F0811048006869
:103CB000704780B5FFF7FAFF0F490A4A1268C2F34E
:103CC0008222895CC84002BD80B5FFF7EFFF0A4938
:103CD000044A1268C2F34232895CC84002BD000047
:103CE000003C0240083802400038024048640008A6
:103CF0002C00002028000020946400082DE9F041E9
:103D000000240025002600271F48006810F00C0042
:103D1000002804D0042804D0082804D031E01B482F
:103D200030E01B482EE0DFF86C80D8F8000010F07F
:103D30003F000400D8F8000040020CD5D8F800007D
:103D4000C0F388101249A1FB000122000023FDF7F7
:103D5000A5F905000BE0D8F80000C0F388100B4966
:103D6000A1FB000122000023FDF798F90500D8F817
:103D70000000C0F30140401C40000600B5FBF6F017
:103D800000E00248BDE8F081083802400024F40059
:103D900040787D0104380240002200F00DBA000096
:103DA000F8B50023002400250026102E80F008819D
:103DB000012717FA06F213000A681A4014009C4201
:103DC00040F0FC800A7912F00302012A04D00A793B
:103DD00012F00302022A1FD1D0F808C05FF0030ED0
:103DE0003200D2B252001EFA02FE3CEA0E0CD1F8AA
:103DF0000CE03200D2B252001EFA02FE5EEA0C0C57
:103E0000C0F808C04268B740BA434F68C7F300170C
:103E1000B7403A43150045600A7912F00302032ABD
:103E200014D0C7685FF0030C3200D2B252001CFA03
:103E300002FC37EA0C07D1F808C03200D2B25200B7
:103E40001CFA02FC5CEA07073D00C5600A7912F023
:103E50000302022A1ED13200D20800EB8202176A46
:103E60005FF00F0C16F00702D2B292001CFA02FCAF
:103E700037EA0C07D1F810C016F00702D2B2920050
:103E80001CFA02FC5CEA07073D003200D20800EB96
:103E90008202156207685FF0030C3200D2B2520052
:103EA0001CFA02FC37EA0C0791F804C01CF0030C62
:103EB0003200D2B252001CFA02FC5CEA07073D0055
:103EC00005604A6812F4403F78D000220092DFF883
:103ED0000C21176857F480471760126812F480426B
:103EE0000092009ADFF8F8C0320092085CF8227065
:103EF0005FF00F0E16F00302D2B292001EFA02FE1D
:103F000037EA0E07374A904201D1002523E0364AAE
:103F1000904201D101251EE0344A904201D1022590
:103F200019E0334A904201D1032514E0314A90420E
:103F300001D104250FE0304A904201D105250AE065
:103F40002E4A904201D1062505E02D4A904201D12A
:103F5000072500E00825EDB216F00302D2B2920068
:103F600095402F43320092084CF82270254D2A6864
:103F7000A243D1F804C05FEACC2C00D522432A60CA
:103F8000214F3D68A543D1F804C05FEA8C2C00D5D1
:103F900025433D601D4F3A68A243D1F804C05FEA53
:103FA0008C3C00D522433A60194F3D68A543D1F8B7
:103FB00004C05FEACC3C00D525433D60761CF4E6A6
:103FC000F1BD1300DBB2002B03D00B009BB2836169
:103FD00003E00B009BB21B0483617047443802402E
:103FE000083801400000024000040240000802407E
:103FF000000C024000100240001402400018024071
:10400000001C0240083C01400C3C0140043C0140C3
:10401000003C014010B410F00703DFF83041226883
:104020004FF6FF010A40DFF8281151EA03210A4345
:10403000226010BC7047DFF814010068C0F3022052
:104040007047010049B2002909D4012210F01F0174
:104050008A40404903005BB25B0941F82320704766
:1040600010B4020052B2002A05D40A013A4B0400EF
:1040700064B21A5508E00A01384B040064B214F027
:104080000F04234403F8042C10BC704770B40300E1
:1040900013F00704D4F10700052801D3042001E040
:1040A000D4F10700251D072D01D2002500E0E51EF3
:1040B000012616FA00F0401E0140A94016FA05F547
:1040C0006D1E2A401143080070BC704710B50400F3
:1040D000601EB0F1807F01D301200EE0601E2049F8
:1040E00008600F215FF0FF30FFF7BAFF00201D4985
:1040F000086007201C490860002010BD10B50400AE
:104100002000FFF787FF10BD2DE9F04104000D00EE
:1041100016000027FFF78FFF804632002900404637
:10412000FFF7B4FF0100200040B2FFF799FFBDE8A0
:10413000F08110B50400200040B2FFF782FF10BDEF
:1041400010B504002000FFF7C1FF10BD0CED00E02A
:104150000000FA0500E100E000E400E018ED00E0F6
:1041600014E000E018E000E010E000E010B504000A
:104170004FF47A700D490978B0FBF1F00C490968E9
:10418000B1FBF0F0FFF7DCFF002801D001200CE0CC
:10419000102C09D2002221005FF0FF30FFF7B4FF9E
:1041A00004480460002000E0012010BDDE00002073
:1041B0002C0000202800002000B500BF1300964608
:1041C0009446103928BFA0E80C50FAD85FEA417C29
:1041D00028BF0CC048BF40F8042BC90728BF20F8EF
:1041E000022B48BF00F8012B00BD000011B581B0C3
:1041F0000C000123012201A9DFF80408FEF767FC87
:10420000019816BD10B5DFF8FC4700224FF400619D
:104210002000FFF7D6FE012000F056FC01224FF4EB
:1042200000612000FFF7CDFE0A2000F04DFC10BD1C
:10423000420012F1C84211807047400010F1C8409E
:10424000008880B270471FB5DFF8BC47200000F03F
:10425000B0FE6079029020790190E0780090A37818
:1042600062782178DFF8A40700F04CFF607A0090B4
:10427000237AE279A179DFF8980700F043FF607BA9
:104280000090237BE27AA17ADFF8880700F03AFFFA
:10429000607C0090237CE27BA17BDFF87C0700F050
:1042A00031FF607D0090237DE27CA17CDFF86C070C
:1042B00000F028FF1FBD80B5FFF7A4FFDFF86017EF
:1042C000DFF8600700F01CFC0020FEF7FCFA80B26B
:1042D0000100DFF8540700F015FFDFF85017012048
:1042E00000F023FC10F1010F03D1DFF8440700F0C8
:1042F00009FFDFF81417002000F062FCFFF7A3FFAE
:1043000001BD80B500F012FF00F02AF800F051FA6C
:1043100000F08EF800F0ADF900F0C7F900F0E1F917
:1043200000F0F9F900F011FA00F029FA00F09FF816
:1043300000F05FF800F0C0F800F021FB00F021F978
:1043400000F05BF9FFF7B7FF41F28832DFF8E416BF
:10435000002000F005FF4FF47A7000F0B5FBF3E7A2
:1043600080B592B006A83021FFF716FD01A81421F0
:10437000FFF712FD00200090DFF8BC06016851F045
:1043800080510160006810F080500090009800207B
:104390000090DFF8A806016851F4804101600068D0
:1043A00010F48040009000980220069001200990AF
:1043B00010200A9000200C9006A800F0CBFF0028E7
:1043C00001D000F07FFB0F20019000200290002020
:1043D00003904FF4A05004904FF4805005900021BA
:1043E00001A8FFF7C3FB002801D000F06BFB13B05E
:1043F00000BD80B5DFF84806DFF848160160DFF839
:1044000048164160002181600021C1604FF4804165
:10441000016100214161002181610021C161002110
:10442000016201F08DF9002801D000F04BFB01BDC5
:1044300080B5DFF81806DFF818160160DFF80816F7
:104440004160002181600021C1604FF48041016121
:1044500000214161002181610021C16100210162CF
:1044600001F06EF9002801D000F02CFB01BD80B5F1
:10447000DFF8E005DFF8E01501604FF4827141607C
:10448000002181600021C1600021016100214161A2
:104490004FF4007181610021C1610021016200219E
:1044A0004162002181620A21C16201F03FFA0028C5
:1044B00001D000F007FB01BD18B58DB009A810218F
:1044C000FFF76AFCDFF89405D0E90023CDE900236B
:1044D00002A81C21FFF760FCDFF88445DFF88405A3
:1044E00020604FF47A5060600020A0604FF47A7032
:1044F000E060002020610020A061200001F07EFA31
:10450000002801D000F0DEFA4FF48050099009A98C
:10451000200001F05FFB002801D000F0D3FA20005A
:1045200001F0A3FA002801D000F0CCFA002000909E
:10453000002001906946200001F040FD002801D0D4
:1045400000F0C0FA602002906420039000200490E4
:1045500000200690082202A9200001F0BDFA0028E0
:1045600001D000F0AFFA0C2202A9200001F0B4FA49
:10457000002801D000F0A6FA2000FFF755F80EB091
:1045800010BD18B587B068461C21FFF705FCDFF8A1
:10459000D844DFF8D80420604FF47A6060600020CF
:1045A000A0604FF4FA70E060002020610020A0615C
:1045B000200001F023FA002801D000F083FA200047
:1045C00001F053FA002801D000F07CFA602000903E
:1045D0004FF4AF7001900020029000200490002260
:1045E0006946200001F078FA002801D000F06AFA4C
:1045F0002000FFF719F808B010BD18B587B068465D
:104600001C21FFF7C9FBDFF86844DFF8680420606D
:104610004FF47A6060600020A0604FF4FA70E060B0
:10462000002020610020A061200001F0E7F90028AF
:1046300001D000F047FA200001F017FA002801D05D
:1046400000F040FA602000904FF4AF70019000201D
:1046500002900020049000226946200001F03CFAFC
:10466000002801D000F02EFA2000FEF7DDFF08B090
:1046700010BD80B5DFF80004DFF8001401605FF4BE
:10468000E1314160002181600021C16000210161B0
:104690000C214161002181610021C161FEF7DCF93B
:1046A000002801D000F00EFA01BD80B5DFF8D0037C
:1046B000DFF8D01301605FF4E131416000218160D7
:1046C0000021C160002101610C2141610021816153
:1046D0000021C161FEF7C0F9002801D000F0F2F915
:1046E00001BD80B5E848E94901605FF4E13141600E
:1046F000002181600021C160002101610C21416124
:10470000002181610021C161FEF7A6F9002801D0D6
:1047100000F0D8F901BD80B5B948DD4901605FF40A
:10472000E1314160002181600021C160002101610F
:104730000C214161002181610021C161FEF78CF9EA
:10474000002801D000F0BEF901BD80B5D148D249A2
:1047500001605FF4E1314160002181600021C160AE
:10476000002101610C214161002181610021C161B1
:10477000FEF772F9002801D000F0A4F901BD80B560
:10478000C648C74901605FF4E131416000218160A2
:104790000021C160002101610C2141610021816182
:1047A0000021C161FEF758F9002801D000F08AF914
:1047B00001BD2DE9F84386B068461421FFF7ECFAF5
:1047C00000200590B748016851F0100101600168B0
:1047D00011F010010591059900210591016851F032
:1047E00004010160016811F004010591059900219F
:1047F0000591016851F020010160016811F020016C
:104800000591059900210591016851F08001016031
:10481000016811F080010591059900210591016859
:1048200051F001010160016811F001010591059944
:1048300000210591016851F040010160016811F00B
:1048400040010591059900210591016851F002018F
:104850000160016811F0020105910599002105919F
:10486000016851F008010160006810F0080005902F
:1048700005988D4C00224FF460412000FFF7A1FB0A
:104880008A4D00224FF480512800FFF79AFB884E92
:1048900000224FF4C0513000FFF793FB594F012223
:1048A0004FF400613800FFF78CFBDFF8088200222C
:1048B00003214046FFF785FB042000905FF4881930
:1048C000CDF804900020029069464046FFF768FA50
:1048D0004FF46040009001200190002002900020E1
:1048E000039069462000FFF75BFA03200090CDF8A3
:1048F00004900020029069463000FFF751FA4FF40F
:104900008050009001200190002002900020039030
:1049100069462800FFF744FA4FF4C0500090012088
:104920000190002002900020039069463000FFF7BC
:1049300037FA08200090CDF80490002002906946D4
:104940005D48FFF72DFA4FF40060009001200190C0
:10495000002002900020039069463800FFF720FAFB
:10496000032000900120019000200290002003907D
:1049700069464046FFF714FA07B0BDE8F08300B57A
:1049800087B068461C21FFF707FA4C485FF02041CA
:1049900001604B494160022181600021C16000211A
:1049A000016110214161002181610021C16100216B
:1049B0000162002141624FF4805181620021C16295
:1049C00000210163002141630021816300214164D2
:1049D000002100910F2101910321029100210391F7
:1049E00010210491112105910021069100226946B0
:1049F00001F03AFB002801D000F064F807B000BDD8
:104A0000240C00200018024000000020046200086E
:104A10008C630008A8630008C4630008E063000812
:104A2000314200083B4200083464000818000020AE
:104A300060620008E0000020403802400070004042
:104A40003809002000540040A08601008C09002095
:104A5000005C0040E008002000380040846400084A
:104A6000800A002000080040C80A0020001C004006
:104A7000100B002000200040580B0020004C00408C
:104A80009C0B002000500040E00B00200010014073
:104A900000440040680C002000480040AC0C00209E
:104AA0000014014030380240000802400004024077
:104AB0000000024000100240000C0240E00900200B
:104AC000040100A072B6FEE770B50400FEF7E2FF35
:104AD0000500260016F1010F02D0044800783618B0
:104AE000FEF7D8FF401BB042FAD370BDDE000020B5
:104AF0007047704770477047008870470180704763
:104B0000DFF884251388DB05FAD50300002B02D0DB
:104B10000B00002B06D1DFF87435D361DFF8703558
:104B2000136201E0D061116270473EB505000C00D0
:104B3000684600210022C0E900122800C0B2002807
:104B40000CD001280DD002281AD0032814D0042834
:104B50001AD005281CD008281ED02CE000F05DF8E3
:104B60002CE0002C03D000940098083001900199AB
:104B7000009800F014F922E0208800F060F91DE0B0
:104B800000F072F9208019E0208800F084F915E027
:104B900000F096F9208011E0DFF8EC0481782170B4
:104BA000C17861700179A1704179E17080792071DB
:104BB0000020607102E05FF0FF3000E000203EBDA9
:104BC00038B504000D002000C0B2002808D002282B
:104BD0000ED009D3042813D00ED3052814D017E023
:104BE000280000F086F916E0280000F0E2F912E053
:104BF000287800F053FA0FE000F066FA28700AE017
:104C0000280000F067FA06E0280000F06FFA02E0E2
:104C10005FF0FF3000E0002032BDF0B585B0082025
:104C2000FDF751FE80B2000A8DF80C0003AC08209D
:104C3000FDF749FE60700A20FDF745FE80B2000ACC
:104C4000A0700A20FDF73FFEE0700C20FDF73BFE50
:104C500080B2000A20710C20FDF735FE6071102033
:104C6000FDF731FE80B2000A8DF8080002AD102079
:104C7000FDF729FE68701220FDF725FE80B2000ABC
:104C8000A8701220FDF71FFEE8701420FDF71BFE30
:104C900080B2000A8DF8040001AE1420FDF713FE67
:104CA00070701620FDF70FFE80B2000AB07016205B
:104CB000FDF709FEF0701820FDF705FE80B2000A2E
:104CC0008DF800006F461820FDF7FDFD78701A2062
:104CD000FDF7F9FD80B2000AB8701A20FDF7F3FD68
:104CE000F87080210020FDF7E9FD0020FDF7EBFDC5
:104CF0009DF80C00000261784018010089B208207C
:104D0000FDF7DCFDA0780002E1784018010089B2CF
:104D10000A20FDF7D3FD20790002617940180100D7
:104D200089B20C20FDF7CAFD9DF8080000026978E1
:104D30004018010089B21020FDF7C0FDA8780002DC
:104D4000E9784018010089B21220FDF7B7FD9DF8FF
:104D50000400000271784018010089B21420FDF7A8
:104D6000ADFDB0780002F1784018010089B216203C
:104D7000FDF7A4FD9DF800000002797840180100BD
:104D800089B21820FDF79AFDB8780002F97840182A
:104D9000010089B21A20FDF791FD05B0F0BDF8B50C
:104DA00004000D000026FFF738FF002C21D0002062
:104DB000060000200700380040B208280DDA38004D
:104DC00040B2205C402802DB5FF0FF3036E0380064
:104DD00040B2205686197F1CEDE7300040B2082112
:104DE00090FBF1F201FB1200002802D05FF0FF30CF
:104DF00024E0002D21D0002006000020070038000C
:104E000040B208280DDA380040B2285C402802DBA6
:104E10005FF0FF3012E0380040B2285686197F1C40
:104E2000EDE7300040B2082190FBF1F201FB1200E7
:104E3000002802D05FF0FF3000E00020F2BD70B526
:104E4000040025002600B6B2360A55F010052800E9
:104E5000C0B23100C9B251EA00214FF2FF00014057
:104E60000220FDF72BFD70BD70B500240025002643
:104E70000220FDF728FD03004FF2FF000340190058
:104E800089B2090A1A001000C0B280B2000250FABA
:104E900081F080B270BD70B5040025002600B6B266
:104EA000360A15F0EF052800C0B23100C9B251EA48
:104EB00000214FF2FF0001400420FDF7FFFC70BD10
:104EC00070B50024002500260420FDF7FCFC03003B
:104ED0004FF2FF000340190089B2090A1A0011F0CD
:104EE000EF011000C0B280B2000250FA81F080B22F
:104EF00070BD10B5040020780002617840180100F0
:104F000089B20820FDF7DAFCA0780002E1784018A9
:104F1000010089B20A20FDF7D1FC207900026179F5
:104F20004018010089B20C20FDF7C8FCA07B0002EC
:104F3000E17B4018010089B21020FDF7BFFC207C06
:104F40000002617C4018010089B21220FDF7B6FC16
:104F5000A07A0002E17A4018010089B21420FDF71E
:104F6000ADFC207B0002617B4018010089B2162055
:104F7000FDF7A4FCA0790002E1794018010089B294
:104F80001820FDF79BFC207A0002617A401801008E
:104F900089B21A20FDF792FC3E48A17C0170E17CA9
:104FA0004170217D8170617DC170A07D3A4908709A
:104FB00010BD10B504000820FDF785FC80B2000A82
:104FC00020700820FDF77FFC60700A20FDF77BFC55
:104FD00080B2000AA0700A20FDF775FCE0700C207A
:104FE000FDF771FC80B2000A20710C20FDF76BFC0C
:104FF00060711020FDF767FC80B2000AA0731020DA
:10500000FDF761FCE0731220FDF75DFC80B2000A41
:1050100020741220FDF757FC60741420FDF753FC38
:1050200080B2000AA0721420FDF74DFCE072162039
:10503000FDF749FC80B2000A20731620FDF743FCFF
:1050400060731820FDF73FFC80B2000AA0711820A1
:10505000FDF739FCE0711A20FDF735FC80B2000A3B
:1050600020721A20FDF72FFC60720A480178A174A3
:105070004178E17481782175C078607506480078C0
:10508000A07510BD0000000030000020F94A0008A3
:10509000FD4A0008180D0020240D002070B5040002
:1050A000002514F0C70F02D05FF0FF300BE00020A6
:1050B000FDF709FC060026433100C9B289B2002081
:1050C000FDF7FCFB002070BD80B50020FDF7FBFB69
:1050D000C0B202BD10B50400217889B21E20FDF7D0
:1050E000EDFB61881C20FDF7E9FB10BD10B5040045
:1050F0001E20FDF7E8FB20701C20FDF7E4FB60801C
:1051000010BD00000EB4C0B5024603A800210190F6
:10511000009101AB0121044878440C30FBF734F8CE
:1051200006BC5DF810FB00BFD512000080B50B482F
:10513000016851F400710160016851F480610160FF
:10514000016851F4807101600320FEF7D7FF002051
:10515000FFF70CF8FEF756F9002002BD003C0240B4
:105160002DE9F84F84B005000E0017005FF000092C
:105170005FF0000A2800C0B24021484310F50270D9
:10518000FDF7A1FBC0B2002800F0CA80132800F090
:10519000B580172803D01C2800F0A080D0E028009C
:1051A000C0B24021484300F20620FDF78CFBC00747
:1051B00052D52800C0B24021484310F50570FDF7D4
:1051C00082FB80B2000A8DF80C000DF10C0B280058
:1051D000C0B24021484310F50570FDF774FB8BF811
:1051E00001002800C0B24021484300F21620FDF71C
:1051F0006AFB80B2000A8BF802002800C0B240218E
:10520000484300F21620FDF75EFB8BF803002800F0
:10521000C0B24021484300F21220FDF754FB0400C5
:10522000200080B202909BF8030001909BF80200DE
:1052300000909BF801309DF80C202900C9B2DFF8DE
:105240000801FFF75FFF01212800C0B24022504350
:1052500000F20620FDF732FB2800C0B2FDF78AFB02
:105260008146484680B2002837D0484680B240F692
:105270000101884202DB4FF4006081464A4692B247
:1052800031002800C0B2FDF707F88046B8F1010FE1
:1052900001DA404655E040468146002082464846B5
:1052A000514680B289B2884217D0B9EB0A0292B255
:1052B000504680B206EB00012800C0B2FCF707FFA1
:1052C0008046B8F1000F05D52800C0B2FCF7AFFD4D
:1052D000404636E018EB0A0AE1E731E02800C0B2A8
:1052E000FCF79BFE8046B8F1010F01D0404628E054
:1052F0002900C9B21548FFF705FF21E03A0092B234
:105300002900C9B21248FFF7FDFE2800C0B2FCF721
:1053100036FE8046B8F1010F01D0404611E00FE0A3
:1053200000233A0092B201212800C0B2FCF7ACFC85
:1053300080462800C0B2804501D0404601E0FFE72A
:10534000012005B0BDE8F08FF0620008206400087D
:10535000346200082DE9F8430400002C01D101203B
:10536000D8E12078C0075FD5DFF8AC03016811F001
:105370000C01042909D0006810F00C0008280ED197
:10538000DFF898030068400209D5DFF8940300684D
:10539000800349D56068002846D10120BAE16068E1
:1053A000B0F5803F06D1DFF87803016851F4803111
:1053B000016018E06068B0F5A02F0AD1DFF8600343
:1053C000016851F480210160016851F4803101606D
:1053D00009E0DFF84C03016831F4803101600168B5
:1053E00031F480210160606800280ED0FEF752FB86
:1053F0000500DFF82C030068800315D4FEF74AFB94
:10540000401B6528F5D3032084E1FEF743FB05002C
:10541000DFF80C030068800306D5FEF73BFB401B5A
:105420006528F5D3032075E1207880074CD5DFF897
:10543000E802016811F00C0F08D0006810F00C00B1
:10544000082814D1B5480068400210D4B448016857
:10545000890704D5E168012901D001205AE10168DA
:1054600031F0F801226951EAC20101602CE0E068E4
:10547000002818D00120AB490860FEF70BFB05009F
:10548000A7480168890706D4FEF704FB401B0328E0
:10549000F6D303203EE1016831F0F801226951EAB8
:1054A000C201016010E000209E490860FEF7F2FA98
:1054B00005009B480068800706D5FEF7EBFA401B05
:1054C0000328F6D3032025E12078000724D560695E
:1054D000002810D0012094490860FEF7DBFA05008F
:1054E00092480068800717D4FEF7D4FA401B0328BF
:1054F000F6D303200EE100208B490860FEF7CAFABC
:1055000005008A480068800706D5FEF7C3FA401BED
:105510000328F6D30320FDE0207840077CD5002740
:10552000DFF80C82D8F80000C0000FD400200090F3
:10553000D8F8000050F08050C8F80000D8F80000FB
:1055400010F080500090009801200700DFF8E491EF
:10555000D9F80000C00513D4D9F8000050F48070C9
:10556000C9F80000FEF796FA0500D9F80000C0055A
:1055700006D4FEF78FFA401B0328F6D30320C9E0B8
:10558000A068012805D16C48016851F00101016053
:1055900015E0A068052809D16748016851F00401A9
:1055A0000160016851F00101016008E06248016892
:1055B000490849000160016831F004010160A068F8
:1055C00000280FD0FEF766FA05005B4800688007E8
:1055D00018D4FEF75FFA401B41F289318842F4D3B8
:1055E000032097E0FEF756FA05005348006880074D
:1055F00008D5FEF74FFA401B41F289318842F4D3B7
:10560000032087E03800C0B2012805D1D8F8000097
:1056100030F08050C8F80000A069002879D03E48DA
:10562000006810F00C00082847D0A069022833D188
:10563000424F00203860FEF72DFA8046DFF8E090F8
:10564000D9F80000800107D5FEF724FAB0EB080076
:105650000328F3D303205DE0E169206A0143606A17
:1056600051EA8011A06A4008401E51EA0041E06AF8
:1056700051EA00612948016001203860FEF70AFA0A
:105680000500D9F80000800143D4FEF703FA401B5F
:105690000328F6D303203DE0002028490860FEF7E8
:1056A000F9F905001E480068800132D5FEF7F2F9CD
:1056B000401B0328F6D303202CE0A069012801D168
:1056C000012027E0154800680600A06901281ED0C7
:1056D00016F48000E169884219D116F03F00216A72
:1056E000884214D147F6C0703040616AB0EB811F28
:1056F0000DD116F44030A16A4908491EB0EB014FA4
:1057000005D116F07060E16AB0EB016F01D00120A5
:1057100000E00020BDE8F28308380240043802406F
:105720000038024000004742800E47427438024071
:10573000403802400070004070380240600047422C
:1057400070B50400002C01D10120E1E094F83D0087
:10575000002805D1002084F83C002000FDF76FFEF2
:10576000242084F83D00206800684008400021683B
:1057700008602068006850F40040216808602068D4
:10578000006830F4004021680860FEF792FA0100DA
:10579000DFF880016268824208D2DFF87C21914202
:1057A00001D2012200E00022D2B207E0DFF86C2132
:1057B000914201D2012200E00022D2B2012A01D19D
:1057C0000120A5E0DFF85821B1FBF2F223685B6805
:1057D0009B099B01134325686B6023681B6A6568FE
:1057E000854201D2551C08E04FF4967505FB02F581
:1057F0004FF47A76B5FBF6F56D1C9B099B012B43A4
:1058000025682B622368DB696568854214D2481ECF
:1058100065686D00B0FBF5F0401C0005000D042824
:1058200001D204253EE0481E65686D00B0FBF5F529
:105830006D1C2D052D0D35E0A068002809D14D1EE9
:10584000666803204643B5FBF6F0401C0005000DDA
:105850000AE04D1E666819204643B5FBF6F0401C71
:105860000005000D50F48040000501D1012519E02C
:10587000A068002809D14D1E666803204643B5FB89
:10588000F6F56D1C2D052D0D0AE04D1E66681920DC
:105890004643B5FBF6F56D1C2D052D0D55F48045E1
:1058A00055F40045DFF87C0003402B432068C361BA
:1058B0002068036833F0C003E0690343206A0343B0
:1058C0002068036020688368DFF85C00034020697B
:1058D0000343E0680343206883602068C3681B0AB1
:1058E0001B02A569606905432B432068C3602068DB
:1058F000006850F001002368186000202064202018
:1059000084F83D0000202063002084F83E00002041
:1059100070BD0000A186010080841E0000093D00CA
:1059200040420F000030FFFF007CFFFF10B5040075
:10593000002C01D101205FE0606A002806D1606878
:10594000B0F5827F06D00020E06103E000202061F6
:10595000002060610020A06294F85100002805D169
:10596000002084F850002000FDF7EBFD022084F8B1
:1059700051002068006830F04000216808606068CD
:1059800010F48270A16811F404410843E16811F435
:1059900000610843217C11F002010843217D11F0D0
:1059A00001010843A16911F400710843217F11F03E
:1059B0003801084394F8201011F080010843A16ACF
:1059C00011F40051084321680860A069000C10F030
:1059D000040094F8241011F0100108432168486075
:1059E0002068C06930F400602168C86100206065EB
:1059F000012084F85100002010BD000010B5040003
:105A0000002C01D101202FE094F83D00002805D1A1
:105A1000002084F83C002000FDF7CBFD022084F834
:105A20003D00211D206800F04FF9012084F8460058
:105A3000012084F83E00012084F83F00012084F812
:105A40004000012084F84100012084F84200012038
:105A500084F84300012084F84400012084F84500C4
:105A6000012084F83D00002010BD10B50400002C7A
:105A700001D101202FE094F83D00002805D100203D
:105A800084F83C00200000F020FB022084F83D0058
:105A9000211D206800F018F9012084F8460001203B
:105AA00084F83E00012084F83F00012084F8400083
:105AB000012084F84100012084F84200012084F88C
:105AC0004300012084F84400012084F845000120AF
:105AD00084F83D00002010BDF8B504000D0017004B
