:020000040800F2
:1000000030090020996100081160000813600008A1
:100010001560000817600008196000080000000063
:100020000000000000000000000000001B6000084D
:100030001D600008000000001F600008216000082B
:10004000C1610008C5610008C9610008CD610008F0
:10005000D1610008D5610008D9610008DD610008A0
:10006000256000082B600008E1610008E5610008D8
:10007000E9610008ED610008F1610008F561000820
:10008000F9610008FD6100080162000805620008CE
:10009000096200080D620008116200083160000862
:1000A00015620008196200081D620008216200083C
:1000B00025620008296200082D62000831620008EC
:1000C00035620008396200083D620008416200089C
:1000D0004562000849620008376000084D62000868
:1000E000416000085162000855620008596200082A
:1000F0005D620008616200086562000869620008CC
:100100006D6200087162000875620008796200087B
:100110007D6200088162000885620008896200082B
:100120008D620008916200089562000899620008DB
:100130009D620008A1620008A5620008A96200088B
:10014000AD620008B1620008B5620008B96200083B
:10015000BD620008C1620008C5620008C9620008EB
:10016000CD620008D1620008D5620008D96200089B
:10017000DD620008E1620008E5620008000000009E
:10018000E9620008ED6200082DE9F0439FB000BF6E
:1001900065A6269CDFF8B48A8DF83B4002910024C6
:1001A0000B944FF0FF37044691461D460AE019F8BC
:1001B000011B0298A0470028029000F0A1800B9834
:1001C000401C0B9099F8000050B12528EFD1002178
:1001D0000022059106920791089209910A9203E084
:1001E0000B98A5E041F0010119F8010F2028F9D082
:1001F00023280CD02B2804D02D2805D0302809D056
:1002000080E041F00201EFE741F00401ECE741F04A
:100210000801E9E741F01001E6E70D920AE00D98C8
:10022000404505DA00EB800002EB4002303A0D92C7
:1002300009F1010999F80020A2F130000A28EED353
:1002400099F800002E2818BF0C9726D119F8010F35
:100250002A2808D12868286009F1010950F8042BE0
:1002600028600C9219E02D280CBF09F1010900202B
:1002700000220C920BE040B90C9A424505DA02EBE1
:10028000820203EB4203303B0C9309F1010999F818
:100290000030A3F130020A2AEDD3ADF83810304611
:1002A00099F8001000F086FE08B119F8010B8DF8DE
:1002B0003A009DF83A00682805D199F800006828AE
:1002C0000CD1622106E06C2804BF99F800006C286C
:1002D00004D171218DF83A1009F1010910A8049098
:1002E0002A4619F8013B6946204600F061F838B902
:1002F00010AA6946204600F08FF900287FF562AF0A
:10030000384615E02A2888D12A682A6052F8040B5A
:100310002A6000280D9003D540420D9041F0040161
:1003200009F101098CE70000686A6C747A4C0000DE
:100330001FB0BDE8F083622820D0682811D06A2859
:1003400003D06C2827D0712825D10868C01D20F063
:1003500007000860D0E900230830086019461046FD
:100360007047002A0A680A60106803D0121D0A60EC
:1003700000B217E0121D0A6080B217E0002A0A6876
:100380000A60106803D0121D0A6040B20AE0121D14
:100390000A60C0B20AE0002A0A680A60106803D046
:1003A000121D0A60C1177047121D0A6000217047B4
:1003B00070B51C460D46B4F125002E69114600F0BB
:1003C00019811C3868D0001F022865D9133842D023
:1003D000093861D0801E16D0401E1ED0401E022853
:1003E0005AD9001F19D0401F00F08180401E32D022
:1003F000401E00F0CB80C01E00F0DA80801E2AD0A4
:10040000C01E28D0FCE06869421C6A610A680A6064
:1004100052F8043B0A603354FCE095F83A0001229C
:10042000FFF789FFC5E90001002904D56869411C6F
:1004300069612D220DE0288F810704D56869411C70
:1004400069612B2205E0C00721D56869411C6961FB
:10045000202232541BE095F83A000022FFF76BFF90
:10046000C5E9000195F83800010710D5D5E900234A
:10047000002B08BF002A0AD044F02000782806D1BB
:10048000686930213154401C421C6A613454214651
:1004900068693044E86087E00868C01D20F0070004
:1004A0000860D0E9002308300860C5E90023D5E9D9
:1004B0000001C80F04D06869411C69612D220DE05C
:1004C000288F810704D56869411C69612B2205E0EA
:1004D000C00704D56869411C6961202232546869EB
:1004E0003044E8602146284600F0C4F992E005F166
:1004F0003A02507820B14FF0FF340FF6202062E02E
:100500001078622808D0682824D06A2812D06C2875
:100510002ED071280ED02BE00A680A6052F8040B26
:100520000A6020B94FF0FF340FF608204BE0E96A6B
:1005300001706FE00A680A6052F8040B0A6020B983
:100540004FF0FF340FF6EC103DE0EA6AD317C0E934
:1005500000235FE00A680A6052F8040B0A6020B9C1
:100560004FF0FF340FF6CC102DE0E96A018051E026
:100570000A680A6052F8040B0A6020B94FF0FF3491
:100580000FF6B0101FE0E96A016043E00A680A60F4
:1005900052F8040B0A60002120F0000221F0FF3322
:1005A000C5E90023EE607821284600F0BBF831E071
:1005B0000868086050F8044B0860EC603CB94FF0E4
:1005C000FF340FF6881000F001FD201A70BD2E6B6D
:1005D000002E04D5204600F019FD044608E03246FE
:1005E0000021204600F02EFD002814BF041B3446D5
:1005F000AC610FE06869411C69612522325409E051
:100600006969481C686125227254210002D0431C8C
:100610006B613454002070BD2DE9FC410F46064645
:1006200090467A6B7869396ABC6A121AB869521AAC
:10063000796A121AF869521A121A97F83800141BBC
:1006400041070FD42020002C8DF800000ADD25463C
:1006500001236A463946304600F048FC00285DD147
:100660006D1EF5D17B6942463946304600F03EFCAE
:10067000002853D130208DF800003D6A002D09DD9F
:1006800001236A463946304600F030FC002845D147
:100690006D1EF5D1BB69FA683946304600F026FC7C
:1006A00000283BD130208DF800007D6A002D08DD48
:1006B00001236A463946304600F018FC70BB6D1EB7
:1006C000F6D1F868B969FB6942183946304600F03E
:1006D0000DFC18BB30208DF80000BD6A002D08DD30
:1006E00001236A463946304600F000FCB0B96D1E61
:1006F000F6D197F8380041070DD52020002C8DF851
:10070000000008DD01236A463946304600F0EEFB62
:1007100020B9641EF6D10020BDE8F6814FF0FF300D
:10072000BDE8F6812DE9FC4307466F293E6908BF05
:10073000082405D041F02000782814BF0A24102492
:100740003C25D7E90023642918BF692990469946BA
:1007500005D1002B03D5D8F1000869EB4909B9F19F
:10076000000F08BFB8F1000F1FD1386BE8B9082C93
:100770004CD197F83800010748D530203B2586F842
:100780003B0043E000280ED597F8380000F0140035
:10079000102808D17B6B7969386A5B1A1B1A9A1A80
:1007A000002AC8BF3A62BDE8F3838DF800104046C6
:1007B00049462246E31700F071FC3032D0B26D1E7C
:1007C0003A28019504DB9DF80000A0F151018A1838
:1007D0007255404649462246E31700F05FFC8046CA
:1007E0005FEA010908BFB8F1000F03D0F86871197A
:1007F0008842DCD3082C09D197F83800010705D5C9
:10080000705D302802D06D1E30207055C5F13C025D
:10081000BA617119F960386B8242B3DA821A3A62AE
:100820004FF6EF70398F01403987BDE8F3832DE92A
:10083000D04306460F4614464FF00008DFF81094E8
:1008400012E0E00707D542464B463046394600F0F5
:10085000A9FC06460F464046494642464B4600F034
:10086000A1FC641080468946002CEAD13046394606
:10087000BDE8D0832DE9F84F05468A464AF02004AA
:100880008EB0D5E90089612C02AE09D0286B002812
:1008900048BF062003D408BF672C01D1012028637C
:1008A000D5E900014A005215521C0DD10B030BD0A3
:1008B000AAF1610103201A29A86102D20FF2A861EE
:1008C00010E00FF2A8610DE04A005215521C0ED143
:1008D0000B030CD1AAF1610103201A29A86116D3D8
:1008E0000FF29061E868032200F02EFDC0E1CDE92F
:1008F0000C01DDE90C2323F00043B3F5801F0DD27A
:100900000027002B08BF002A019703D111E00FF246
:100910006061E7E701AA00F06BFD0AE0CD48CE492F
:1009200000EB1350DDE90C2301900B40CB4910463E
:100930001943C5E90001612C0DD1E868302101702F
:10094000821CBAF1610FEA600CBF78215821417016
:100950006869801C6861D5E90001CDE90C01DDE919
:100960000C2333F0004104BF0028002300F048812D
:10097000612C40F0A080286B494600284CBF4FF006
:10098000210B00F1010B404600220023DDE90C8918
:1009900000F066FD01990BF1010738BF89F00049AD
:1009A000091F002F01918DF808200DF1090040F377
:1009B0003581A94900910646404649460022002358
:1009C00000F066FD80F029814800400D00F11C0216
:1009D00011D0002A0FDD40F2FF739A4205DBA049D7
:1009E00009F000400143002011E0009B194041EA5A
:1009F000025140460BE028F0000039F0004108BFEA
:100A000000280FBF49461C22494600F059FD804688
:100A1000894600F0F3FDFF1F002F044609DD00F0BA
:100A20000BFE02460B464046494600F017FE804644
:100A30008946F01D072104E004F00F0200F8012DA3
:100A40002411002C01DD491EF6D5491E5CBF002291
:100A500000F8012DF9D5DCE00020194602AA0A446D
:100A600000E05B1E12F80149491E8442F9D00F28AC
:100A700004D10DF10900425C521C4254002904D5F6
:100A80000198001D02AE5B1C0190581E0CD4311859
:100A9000AAF13A040A783032D7B23A2FA8BFA21886
:100AA000401E01F80129F5D5286B002840F1A780E8
:100AB000591E2963A3E001996A4A47F297504143BE
:100AC00091FBF2F2019229F00046D2F1070204DD17
:100AD00040463146FFF7ABFE0AE052420020624931
:100AE000FFF7A5FE02460B464046314600F028FEC1
:100AF0008046662C286B06BF019F0A3706273F18E1
:100B0000142FC8BF142730208DF8080089460DF136
:100B1000090000E03046002F34DD064640464946D5
:100B200000F032FF01460A4606F1080304200A26B7
:100B3000B2FBF6F606EB860EA2EB4E02303203F85D
:100B4000012C0A22B6FBF2F202EB820EA6EB4E0655
:100B50003036401E03F8026DE9D1083F002F03F143
:100B60000806D7DD084600F023FF02460B46404644
:100B7000494600F073FD00223C4B00F013FB804619
:100B80008946CBE70DF10901401A0DF1090604E091
:100B90000199491E401E0191761C31783029F7D009
:100BA000662C02D10199491C03E0652C0CBF012180
:100BB00000212B6BCB189842B8BF431E002B1ED4CC
:100BC000834204DAF05C3528A8BF392000DA3020EF
:100BD0001946721E02EB010800E05B1E18F801992D
:100BE000491E8145F9D0392802D1705C401C7054EF
:100BF000002904D50198401C16465B1C0190019801
:100C000000B200901BB232465146284600F034F83C
:100C10002EE0C61D002F3FF7CFAE30460DF1090183
:100C2000401A03465845C8BF5B46002B0DF1090624
:100C30003FF53AAF8342BFF60FAF0DF10900C15C3B
:100C400007297FF709AF0F2007E70000CBCCCC0CBA
:100C50000000244002FCFFFFFFFF0F800000E03F88
:100C60000000F07FA08601000000F03F84D797418C
:100C70000FB0BDE8F08F00002DE9F84783B00646BD
:100C80008A461746984600F0A1FEB8F1000F406A68
:100C9000356B90F8009002DC4FF00108B6A74AF0DF
:100CA0002000BDF93040662808BF641C15D06728B5
:100CB00040F0848014F1040FC0F28680AC4280F2D0
:100CC000838096F83800641C010702D4A845B8BF99
:100CD000454620B22D1A48BF00250FFA84FAF06865
:100CE000B169BAF1000F25DC4A1C30234354002DB2
:100CF00003DC96F83800010703D5F06800F802908D
:100D0000521C15EB0A0FB8BF6C4220B24419414285
:100D10004445B8BFA046B26171620FFA88F5F5612B
:100D2000F068B3692A463946184400F00DFB641B8D
:100D3000B462C4E022B29045084417DA424639460C
:100D400000F002FBB0694044B061AAEB0801002D3D
:100D5000716203DC96F838100A0705D5F16801F8CE
:100D60000090F069401CF061B562A8E0394600F0DF
:100D7000EBFAB069002D5044A8EB040803DC96F8A8
:100D800038100A0703D5F16801F80090401CB061E3
:100D90000FFA88F08542F368B069B8BFA8460FFA29
:100DA00088F207EB0A01184400F0CEFAB1690FFA95
:100DB00088F00144B161281A706280E0BAF1610FD5
:100DC00014D14FF0700A16E0A84504DA96F83810EE
:100DD0000A0758BF45466D1E48BF0025BAF1670F88
:100DE00014BF4FF0450A4FF0650A04E0BAF1410F15
:100DF00008BF4FF0500AB169F368481CB061002D7C
:100E000017F8012B5A5403DC96F838100A071BD543
:100E1000F168431CB36101F80090002D14DDA8F1C6
:100E200001080FFA88F039468542F768B8BFA8462E
:100E30000FFA88F2F81800F087FAB0690FFA88F113
:100E400008446D1AB0617562F068B1690844002CFD
:100E500080F800A003D42B224270811C03E02D21D6
:100E600041706442811C00206A460AE023460A243D
:100E700093FBF4F404EB8405A3EB450302F8013B78
:100E8000401C24B2002CF1DC012806DC4AF02002D0
:100E9000652A04BF302201F8012B48B9302001F83F
:100EA000010B07E0401E1DF80030303301F8013B14
:100EB0000028F7DCF268B0691044091AF16196F86D
:100EC000380000F0140010280DD17269B169706A01
:100ED0008A18F1698218B06A8A188218706B824287
:100EE000BCBF821A326204B0BDE8F087F8B505468F
:100EF0000E4617461C46002074B117F8011BB06857
:100F0000A847B06030B1F06A401CF0620020641E57
:100F1000F3D1F2BD4FF0FF30F2BD00007072696E88
:100F200074665F733A20256E20646973616C6C6F20
:100F3000776564007072696E74663A20626164203D
:100F4000256E20617267756D656E74007072696ED2
:100F500074665F733A206261642025732061726752
:100F6000756D656E740000006E616E004E414E003E
:100F7000696E6600494E4600300030B4002513E02B
:100F800050F8042BD30744BFA9F101039A18091F95
:100F9000042942F8045BFAD213468C0744BF15803B
:100FA0009B1CC90748BF1D7050F8041B0029E7D1DE
:100FB00030BC7047C9B202788A421AB11CBF10F81F
:100FC000012FF9E718BF00207047000080B500B975
:100FD00006A005490B681BB122220021984701E0B9
:100FE00000F0F8FC222002BD2C050020636F6E7318
:100FF000747261696E742068616E646C65723A2007
:10100000626164206D6573736167650000F10103BF
:10101000810704D010F8011B820781B1FAD1026860
:10102000A2F10131914311F0803104BF50F8042F37
:10103000F6E709BAB1FA81F100EBD100401CC01A01
:1010400070470000C9B2830706D0521E22D310F8A1
:10105000013B9942F7D11FE0083A13D302F1040291
:1010600041EA012141EA014150F8043B121F21BF2E
:101070004B40A3F1013C2CEA030C1CF0803FF3D061
:10108000C9B2001F083210F8013B521E28BF91EA76
:10109000030FF8D818BF0120401E7047D3BBD9B149
:1010A000B2F5803F5BD2022A1ED98C46B1FBF2F129
:1010B00002FB11C31B0443EA1043B3FBF2FC02FB27
:1010C0001C3380B240EA0343B3FBF2F002FB103260
:1010D00040EA0C4000237047022A05D98446B0FB41
:1010E000F2F002FB10C270474AB105D100F00102D4
:1010F00049085FEA3000704700220023704700F083
:101100006DBC0B000200002100207047F7D30022C5
:1011100000237047904271EB030CF2D370B5B1FA23
:1011200081F4B3FA83F52C1BA340C4F1200532FAF5
:1011300005F63343A2405FF00046E64002E05B085C
:101140005FEA3202841A71EB030524BF2046294668
:101150007641F4D302000B003000002170BD70B561
:10116000B1FA81F4B2FA82F5C4F120046419B4F141
:101170002006DAD3B2405FF00044F440002502E0DC
:1011800052085FEA3303C61A71EB020E24BF3046E1
:10119000714664416D41F3D302000B002000290029
:1011A00070BD0000B0B581EA030C0CF0004C40F2B9
:1011B000FF7515EA11541DBF15EA1357AC42AF4233
:1011C00039E0E41923EA455343F48013C90241F09E
:1011D000004141EA505EC7021100A7FB020200284D
:1011E0004FF00000EEFB01204FF00001E3FB072170
:1011F00018BF42F00102401800214941E3FB0E01F3
:10120000A4F580640F0302D252004041494154F1D9
:1012100001046CDD470872F1004250F1000051EB0F
:101220000451A1F580115CBF41EA0C01B0BD4CEA4C
:1012300005510020B0BD05EA1357AC4214BFAF42C0
:1012400041E050EA410E1CBF52EA430E02E0614603
:101250000020B0BD24423C441BD15FEA070EF6D00B
:10126000090302BF01460020AEF1140EB1FA81F766
:10127000AEEB070401FA07FE0C37C7F1200100FAB4
:1012800007F7C8404EEA000E23EA455343F48013A3
:10129000A2E733F00043B3FA83F704BFB2FA82FE49
:1012A00077440B3FE41BB7F1200E2FBF02FA0EF379
:1012B000BB40C7F1200E22FA0EFE38BF43EA0E03F0
:1012C000BA40641C82E750EA410E14BF52EA430E52
:1012D0006FF000014FF4001717EB430F8ABF194658
:1012E00017EB410FB5E74CEA05510020B0BDD4F132
:1012F0000104B4F120070FDAC4F12007520828BF17
:1013000042F0010210FA07F501FA07F7E1BF2A439C
:10131000E0403843E1400FE0352C98DCC7F1200471
:1013200052EA400220FA07F218BF42F0010231FAF5
:1013300007F0A1400A43002172F1004250F1000081
:1013400051EB0C01B0BD000062B38B0708D0521EF8
:1013500011F8013B00F8013B00F024808B07F6D127
:10136000830740F0208000BF103A07D330B4B1E8C3
:101370003810103AA0E83810F9D230BC530724BF17
:10138000B1E80810A0E8081044BF51F8043B40F849
:10139000043BD20724BF31F8022B20F8022B44BFB4
:1013A0000B7803707047121F17D35B0009D151F8F7
:1013B000043B20F8023B1B0C121F20F8023BF6D224
:1013C0000BE051F8043B00F8013B1B0A20F8023BFC
:1013D0001B0C121F00F8013BF3D238BF121D521E26
:1013E00024BF11F8013B00F8013BF8D8704700001A
:1013F00010B5144600F002F8226010BDC1F30A5384
:1014000043B14A0012F5001F28D2A3F2FE32A1EB2D
:101410000251704750EA410C20D001F0004C31EAF3
:101420000C01B1FA81F204BFB0FA80F3D2180B3A82
:10143000B2F120032CBF00FA03F1914041EA0C0104
:101440003EBFC2F1200C20FA0CF3194390405242E7
:1014500040F2FD33D21A01EB03517047002270476E
:101460004FF4001C1CEB410F94BF1CEB430F09E031
:1014700041EA030C50EA4C0C52EA0C0C03D299429C
:1014800008BF9042704714BF8B42824270470000F1
:101490004FF4001C1CEB410F94BF1CEB430F09E001
:1014A00041EA030C50EA4C0C52EA0C0C03D28B427A
:1014B00008BF8242704714BF9942904270470000B3
:1014C000124254D440F2FF7C1CEA11530FD0634502
:1014D00031D09B1863453CBF01EB0251704701F0CE
:1014E000004141EA0C510020AFF30080704750EA00
:1014F000410320D001F0004C91EA0C011CD0B1FA5C
:1015000081F30B3B9A420DD9D21A994051EA0C0152
:10151000C3F1200C20FA0CFC61449840531C40F2AB
:10152000FF7CD7E7914041EA0C01C2F1200C20FA80
:101530000CF3194390407047B0FA80F31533202B19
:10154000E0D3202AEED3203A203B9A4209D9D21A7E
:1015500000FA03F141EA0C010020531C40F2FF7C29
:10156000B8E700FA02F141EA0C010020704752424C
:1015700040F2FF7C1CEA11530DD06345DBD0B2EB87
:10158000030C3CBFA1EB025170470CF1010221EAB0
:10159000035141F4801150EA410CCCD001F0004CD1
:1015A000352A27DC30B481EA0C01B2F1200309DAD4
:1015B000C2F12003044601FA03F5D0402843D1408C
:1015C0009C400CE0C3F12002450020FA03F418BF50
:1015D00044F0010421FA03F091400C43002174F11E
:1015E000004550F1000051EB0C01244230BC7FF467
:1015F0007BAF70476146002076E70000C1F30A53D5
:1016000040F2FE329B1A14DDD3F120034FEAE1725F
:1016100008DDC90241EA505141F00040D84080182D
:101620005040704703F2E13010B1D24382F00040E5
:101630007047002070470000C11768B14840401A49
:10164000B0FA80F29040D21CC907C2F5846241EA28
:10165000025202EBD02140057047000070B44FF0F9
:10166000004591EA030F40F1C3816B40841A71EB8E
:10167000030603D2001BB141121973414FF4001C41
:101680001CEB410F34BF7CEB430442E00C0DA4EB98
:101690001356352E4FDC45EAC323DB0A45EAC12148
:1016A000C912B6F120050DDD63FA05F6EB4086EAB6
:1016B0000305124218BF45F00105C01851F10001A1
:1016C0000CD213E062FA06F5F2405540F3415A405D
:1016D000B340F3405A408018594107D349085FEAA4
:1016E00030005FEA350528BF45F0010501F580119E
:1016F000420875F1004250F1000041EB04514E00E8
:1017000016F5001F70BC38BF70470020090D090591
:1017100070471CEB410F10D252EA43060BD0BCEBD2
:10172000410F05D80C0DAB43661E342EB6DD02E02A
:10173000AB438018594170BC704770BC70470000C3
:10174000F0B540F2FF7581EA030C0CF0004C15EA8D
:1017500011541DBF15EA1357AC42AF42E5E0BC413E
:10176000C1F31301C3F31303801A994143F48013A7
:1017700004D2641E4000494180185941C90241EA1F
:101780005051B1FBF3F603FB1611A2FB0675D7EB24
:10179000C020A94102D2761E80185941C90241EAEF
:1017A0005051B1FBF3FE03FB1E11A2FB0E75D7EBEC
:1017B000C020A94103D2AEF1010E8018594189021F
:1017C00041EA9051760546EA8E2EB1FBF3F603FB13
:1017D0001611A2FB0675D7EB8020A94102D2761E16
:1017E00080185941C90241EA50514EEA060EB1FB38
:1017F000F3F603FB1611A2FB0675D7EBC020A94137
:1018000002D2761E80185941C90241EA5051B1FBFB
:10181000F3F703FB1711A2FB0735D3EBC020A94157
:1018200067F100070CBF004247F0010766F3D527B8
:101830004FEA1E31B80814F5806412DDBD0775F15A
:10184000004250EB0E5051EB045111F5801F5CBF6C
:1018500041EA0C01F0BD4CF07F6141F0E041002015
:10186000F0BDBD076D0840EA0E5041F48011D4F17F
:101870000104B4F120060ADAC4F120060200E040B7
:1018800001FA06F3E1401843B24015430EE0342C50
:1018900013DCC6F1200445EA40056D0820FA06F283
:1018A000154321FA06F0A1400D43002175F10042D5
:1018B00050F1000051EB0C01F0BD00205FEA0C017B
:1018C000F0BDCFB992185B41B3FA83F704BFB2FA07
:1018D00082F6BF190B3FB7F120062FBF02FA06F3BD
:1018E000BB40C7F1200622FA06F638BF3343BA40A0
:1018F0001CB1E419641E33E77F4231F00041B1FAB4
:1019000081F404BFB0FA80F6A4190B3CB4F12006B0
:101910002FBF00FA06F1A140C4F1200620FA06F616
:1019200038BF3143A0403C1B1AE7AC421ABF05EA5E
:101930001357AF4212E050EA41061CBF52EA430679
:10194000BFE750EA4107304661461CBF41EA0551F6
:10195000F0BD52EA430C08BFC143F0BD00204FF474
:10196000001616EB410F98BF16EB430F08BF16EB9E
:10197000410F24BFC14305E016EB430F0CBF614686
:101980004CEA0551F0BD0000400D491840EA8120A5
:101990000CD2490DA1F58061491C40F0004005DBE7
:1019A000D1F11F0154BFC840C017704700207047D5
:1019B000014648B1B0FA80F18840C91CC1F5846184
:1019C000090501EBD0214005704700000048704731
:1019D00010000020012000F0C1B800007047000096
:1019E00070B44FF0004591EA030F7FF53FAE6B40B6
:1019F000841A71EB030604D26E40001BB141121928
:101A000073414FF4001C1CEB410F34BF7CEB4306C9
:101A100083E00C0DA4EB1356362E00F37C80012ED0
:101A200045EAC32341DC43EA525312BFD202920279
:101A30005B08240545EAC12141EA5051D2EBC020A0
:101A4000994125D407D1B0FA80F610FA06F162D098
:101A50000020203608E0B1FA81F6B140C6F120023C
:101A600020FA02F21143B0404FEAF474B4EB46544A
:101A700034F001064FEA74040AD8D6F50016760D44
:101A800004F00044F04061FA06F25040F140484052
:101A9000C00A40EA415021F0004128BF5FEA5005EA
:101AA00050F1000044EBD12135E0DB0A45EAC121C9
:101AB000C90AB6F120050EDD42EA0242120CC5F158
:101AC000200603FA06F6EB4042EA06056D4298410D
:101AD00061F100010DE062FA06F5F240554063FA4B
:101AE00006FC82EA0C02F3405A406D42904161EBE1
:101AF000030111F4801F05D1641E620502D06D0040
:101B00004041494121F48011430875F1004350F1EF
:101B1000000041EB045170BC70471CEB410F15D223
:101B200023F0004352EA43060BD04FEA4C0CBCEBC7
:101B3000410F04D80C0D661E342EB7DDEBE7801A7A
:101B4000994150EA410608BF0021E4E708BF1CEBB9
:101B5000430F28BF6FF00001DDE7000080B5AFF351
:101B60000080024A11001820ABBEFBE726000200ED
:101B700001B5012301226946DFF8AC0A00F0FFFD40
:101B8000009802BD00210180012241808180C18036
:101B900002727047017ADFF8942A012905D1916910
:101BA0004A6A0280022303727047022908BF032198
:101BB00014D0032913D19169496A02888BB29342E8
:101BC00038BF01F57A7141804EF6602341888A1A48
:101BD0008280012192B293FBF2F2C28001727047BF
:101BE0003EB500208DF804006425DFF8444A0095D6
:101BF000012301AA8021204601F08EF900F02FF97F
:101C00000095042304F154028021204601F0D9F903
:101C1000642001F0F9FD9FEDAF0B37BDF8B52DED58
:101C20000A8B88B0064606A80021C0E9001105917C
:101C300004914822ADF80E108DF80C206424009415
:101C4000012303AAEE21304601F066F900F007F9FE
:101C5000032106AA0191009202940123002200F0C0
:101C6000FAF800F0FCF89DF818209DF8190040EAF9
:101C7000022464220223029201930DF112070097BD
:101C80000123A22200F0E7F800F0E9F86420022125
:101C900005AA00F0DBF8A42200F0DDF800F0DFF880
:101CA000642002210DF1160200F0D0F8A62200F007
:101CB000D2F800F0D4F86420022104AA00F0C6F89B
:101CC000A82200F0C8F800F0CAF8642002210DF143
:101CD0000E0200F0BBF8AA2200F0BDF800F0BFF839
:101CE0009FED7E1B00F0AEF8B0EE408AF0EE608A09
:101CF0002046002101F09CFD41EC190B9FED791B62
:101D000000F0A0F8B0EE40AAF0EE60AA9FED771BBD
:101D100000F098F8B0EE40BAF0EE60BA53EC192B30
:101D200051EC190BFFF73EFA41EC1C0B9DF8120029
:101D30009DF8131000F07FF853EC182BFFF700FD0F
:101D400004460D4653EC1C2B51EC1C0BFFF72AFAF2
:101D500022462B46FFF726FA04460D469DF814004E
:101D60009DF8151001EB00200004800BFFF764FCC8
:101D700053EC1A2BFFF7E4FC06460F4653EC1C2BE2
:101D800051EC190BFFF70EFA32463B46FFF70AFA01
:101D900000F04DF804460D469DF816009DF817100A
:101DA00000F049F853EC1B2BFFF7CAFC53EC1C2B3B
:101DB000FFF7F8F900F03BF806460F469DF81000D3
:101DC0009DF8111000F02EF804460D469FED491BBA
:101DD00000F038F853EC102B20462946FFF7B0FCF2
:101DE00053EC192BFFF7DEF932463B46FFF7F8FDBF
:101DF00004460D469DF80E009DF80F1000F012F8F5
:101E00000022DFF83038FFF7CDF90022DFF828385C
:101E1000FFF796FC00F00BF808B041EC100BBDEC9E
:101E20000A8BF1BD01EB002080B2FFF7C1BD224655
:101E30002B46FFF7D5BD01EB00200004C00B40424C
:101E4000FFF7FABB9FED2D0B01F019BD0290019138
:101E5000009201237047EE21304601F07EB90A203E
:101E600001F0D2BC10B50828DFF8D04707D14FF4F5
:101E70000051DFF8CC0701F0EEFD201D0FE0042833
:101E800008BF04F110000AD0DFF8A017202808BF0F
:101E9000084604D0B0F5005F04D101F10C00BDE8A4
:101EA000104077E610BD0068DFF89817884210D11F
:101EB000DFF888074178312902D10121017003E060
:101EC000322904BF02230370411C01221C3000F0A0
:101ED000AFBC7047000000000000000000000000E0
:101EE000000035400000000000003040000000000D
:101EF0000000264000000000000018400000000024
:101F0000000024402DE9F84F2DED028B8EB001F03A
:101F1000CBFD00F06DFA00F0AAFADFF82C77DFF8BD
:101F20002C07DFF82CA707F1A80400212060A1608E
:101F3000E1604FF480486161A161E1612162C4F810
:101F400004A0C4F81080204600F04AFF08B100F059
:101F5000C0FBDFF8000760650C210020E06520660B
:101F60006066E06620674FF4E139A166C4F85890D6
:101F700007F1FC0000F0C8FB08B100F0AAFB07F570
:101F8000A075DFF8D406286000210C206861A960E4
:101F9000E9602961A961E961C5F80490284600F06B
:101FA000B3FB08B100F095FBDFF8B00668640021D0
:101FB0000C20A865E96429656965E9652966C5F8A5
:101FC000489007F5C27000F09FFB08B100F081FB5C
:101FD000DFF86856DFF86C06E86100210C20286302
:101FE0006962A962E9626963A963C5F8209005F195
:101FF0001C0000F089FB08B100F06BFB07F5E476EC
:10200000DFF85C063060C6F804900021B160F16032
:1020100031610C207061B161F161304600F074FBF8
:1020200008B100F056FBDFF83C067064C6F8489033
:102030000021F164316571650C20B065F165316690
:1020400007F5037000F060FB08B100F042FBDFF819
:10205000180638654FF4827179650020B865002153
:102060003866F9657966F96639677967B9674FF453
:102070000070B8660A21F96707F1500001F02EFDE3
:1020800008B100F026FBDFF8A805DFF8E0150160D5
:1020900000228260C26042618261C2610262C0F855
:1020A00004A0C0F8108000F09BFE08B100F011FB06
:1020B00009A8102101F076FD0FF23C601C21D0E947
:1020C0000089CDE9008902A801F06CFD07F5147ABA
:1020D000DFF89C05CAF8000004210022CAF80410A9
:1020E000CAF8082040F2E739CAF81020CAF81820C8
:1020F000CAF80C90504601F059FD08B100F0E9FA19
:102100004FF48056099609A9504601F0A8FE08B17F
:1021100000F0DFFA504601F0A7FD08B100F0D9FA4F
:102120000021009101915046694602F04DF808B136
:1021300000F0CFFA6021029140F2833B002104912C
:102140000691CDF80CB0082202A9504601F025FEF8
:1021500008B100F0BEFA0C2202A9504601F01DFEA3
:1021600008B100F0B6FA504602F072F900F032F908
:102170004FF0204038600020F8601020DFF8F414A1
:1021800079607861022200210020BA603961B9616A
:10219000F86139627862BE62F96279637964032218
:1021A00002920F2101911022049211213863B86329
:1021B000009003900591002206926946384602F08D
:1021C00017FB08B100F085FA00F004F9DFF8A80465
:1021D000CAF8480040F2CF780020CAF85000CAF888
:1021E0005800CAF8600007F52676CAF84C80CAF88D
:1021F0005490304601F0DAFC08B100F06AFA30463B
:1022000001F032FD08B100F064FA00F0E7F8304662
:1022100001F0C3FD08B100F05CFA304602F018F995
:1022200000F0D8F807F53877DFF85004386000215F
:10223000B9603961B961C7F80480C7F80C903846B5
:1022400001F0B4FC08B100F044FA384601F00CFD8E
:1022500008B100F03EFA00F0C1F8384601F09DFDEB
:1022600008B100F036FA384602F0F2F80FF2904268
:10227000DFF8B883D2E90001CDE90001DFF80024DE
:10228000C8F8182043F67F60C8F81C000021C8F881
:102290002010C8F83010C8F8249008F1180001F098
:1022A00085FC08B100F015FA00210091019108F1B8
:1022B0001800694601F088FF08B100F00AFA01220F
:1022C000691C05F11C0000F0B3FA1E208DF808000F
:1022D00040F2F319281DFFF755FC05F11000FFF738
:1022E00051FC4046FFF74EFC08F10C00FFF74AFC9A
:1022F0000021384601F0C5FC0021304601F0C1FC48
:10230000E04E01224FF48051304601F0A0FB08213D
:10231000504601F0B6FC0C21504601F0B2FC0122FF
:102320004FF40061304601F092FB08F1180001F013
:102330004AFC64200090012302AAEE21204600F00E
:10234000EBFDFFF78CFD0FF2903611E0F86C02F018
:102350007BFACDE9000118EE100A02F075FA024688
:102360000B46304602F094FA4FF47A7001F04CFAC2
:102370002046FFF753FC51EC100B02F09DFAB864B5
:10238000FFF72EFC51EC100B02F096FAF8649FED6B
:10239000A50A97ED128ADAF80000B4EE408AF1EE51
:1023A00010FAA7BFC0F83C90C0F84090C0F83CB00D
:1023B000C0F840B028780128C8D00228D8D1B8F891
:1023C0001200B8F80630EA8A69890090AE4802F037
:1023D0005FFAC9E768461C2101F0E4BB6021009167
:1023E0000022002102910492CDF804B069467047A2
:1023F00080B592B006A8302101F0D4FB01A81421C9
:1024000001F0D0FB002000900123A048016841F0BA
:10241000805101600021006800F080500090009819
:102420009B480091026842F48042026002220068E8
:1024300000F48040009006A8009906921021002226
:1024400009930A910C9202F06BFA08B100F041F97D
:102450000F2001900021029103910491059101A8A0
:1024600002F0F6FB08B100F034F913B000BD2DE91D
:10247000F84386B06846142101F094FB0024854897
:10248000854D804EDFF81492DFF8148205944FF4E6
:10249000881701686A4C41F010010160026802F07F
:1024A00010020592002205990592036843F0040387
:1024B0000360016801F0040100F0FBF843F0200321
:1024C0000360016801F0200100F0F3F843F080039D
:1024D0000360016801F0800100F0EBF843F00103B4
:1024E0000360016801F0010100F0E3F843F04003EC
:1024F0000360016801F0400100F0DBF843F00203E3
:102500000360016801F002010591059905924FF4FD
:102510006041036843F008030360006800F00800AE
:1025200005900598204601F092FA00224FF4805160
:10253000284601F08CFA00224FF4C051304601F0D9
:1025400086FA01224FF40061484601F080FA002229
:102550000321404601F07BFA2420009001970021DE
:102560000291404600F0AAF84FF4604100F0A9F84B
:10257000204601F08DF9032100F096F8304600F076
:102580009DF84FF4805100910122019200210291A7
:102590000391284600F092F84FF4C05100F091F8F2
:1025A000304601F075F9082100F07EF869463D4893
:1025B00001F06EF94FF4006100F083F8484601F035
:1025C00067F94FF4005100F06FF8484600F076F8D4
:1025D000032100F076F8404601F05AF9002200216C
:1025E000082002F025FC082002F03FFC0022002118
:1025F000092002F01DFC092002F037FC0022002116
:10260000172002F015FC172002F02FFC00220021F9
:10261000282002F00DFC282002F027FC07B0BDE8BE
:10262000F08300000100F0413C040020C0030020C2
:10263000800400200000F8BF000059402004002062
:10264000000802400044004090000020005C004070
:10265000A0860100004C00400050004000100140E6
:102660000048004000140140003800400054004081
:1026700000080040040100A0001C004000200040B1
:102680000010004000000240906000084038024006
:102690000070004030380240000402400018024040
:1026A00000100240000C02400091019700210291AD
:1026B000704705910599059203687047694601F0D6
:1026C000E7B800910122002102910391019269462D
:1026D000704772B6FEE700002474656D702C312CD3
:1026E000252E32662C322C252E32662C75617274A2
:1026F0002C300D0A00000000000000000000000067
:10270000000000000000000038B5040001D10120E5
:1027100032BD00F017F808B900F018F800F01BF807
:1027200000F023F8FFE7416100F001F832BD2068B6
:10273000C16841F40051C1600020686020216970C7
:10274000A970704704F13C05687870470021297032
:10275000204601F0D1BE242068702068C16821F4B1
:102760000051C160204600F0D6BA2068016921F40A
:10277000904101612068416921F02A0170472DE9EB
:10278000F843054605F13C060C46707820281746AC
:10279000994642D10CB1380001D101203EE0307899
:1027A00001283AD00121317000207060212272701E
:1027B00002F086FBAF848046EF84A868B0F5805FA6
:1027C00004BF286900280EBF2746204600270021A5
:1027D000317004460EE014F8012B426007E02868CF
:1027E000002CF8D137F8021BC1F308014160E88CD6
:1027F000411EE9844346E88CCDF8009000280FD0B4
:1028000000228021284600F085F90028E7D0032027
:1028100004E020207070002000E00220BDE8F28378
:1028200000224021284600F075F90028F1D0EEE79B
:1028300038B500F130039C7B202C0FD109B1140076
:1028400001D1012032BD1C7B012C07D001241C7357
:1028500000251D60BDE8384000F0A6B9022032BD59
:10286000206800F1140151E8001F00F1140221F06A
:10287000400142E80010002870477CB504462168FA
:102880000B68CD684A6913F00F0007D1980661D52F
:10289000AA065FD52046BDE87640D9E1D00702D42C
:1028A00015F4907F56D0D80705D5E90503D5206CDF
:1028B00040F001002064580705D5D10703D5206CEE
:1028C00040F002002064980705D5D10703D5206C9D
:1028D00040F004002064180707D5A90601D4D007EA
:1028E00003D5216C41F008012164206C002830D010
:1028F000980604D5A90644BF204600F0A9F920682F
:102900004069216C0A0701D440061DD5204600F01D
:1029100068F920684169480611D5FFF7A1FFFCD18D
:10292000A06B60B10FF21D310165A06B02F011FBCD
:1029300000280ED0A06B016DBDE87C400847204602
:10294000BDE8764002F01CBB204602F019FB0020D7
:10295000206473BD206B012804F13D0240F07D80AE
:10296000D8067AD5EE0678D5002300930D68009539
:102970004B6800930098496948063CD5A16B0868EC
:10298000406880B20028E4D0A38D9842E1DAE08567
:10299000C869B0F5807F2AD0206800F10C0151E8A9
:1029A000001F00F10C0321F4807143E8001000289F
:1029B000F2D100F094F8490800F11403490043E80B
:1029C00000100028F5D100F08AF800F1140321F07E
:1029D000400143E800100028F5D12020507000216C
:1029E000216300F08AF8FCD1A06B02F06FFAA18D90
:1029F000E08D091A2BE0A08DE18D411AE08D0028B1
:102A00001CBF88B2002863D0206800F10C0353E893
:102A1000003F00F10C0523F4907345E800300028D6
:102A2000F2D1206800F055F800F114055B0045E88C
:102A300000300028F5D1202050700022226300F0E1
:102A400054F822F0100243E800200028F7D1204675
:102A5000BDE87C4089B202F094BA180629D52E064A
:102A600027D51078212833D1A068B0F5805F04BF46
:102A70002069002808D1206A0288C2F308024A604F
:102A8000206A811C216204E0206A421C22620078D4
:102A90004860E08C401EE08480B2C8B92068C168FC
:102AA00021F08001C1602068C16841F04001C1602F
:102AB00073BD58060CD56B060AD5C86820F04000D7
:102AC000C860202111702046BDE8764002F05ABA55
:102AD00073BD00F1140353E8003F5B0870472068A2
:102AE00000F1140151E8001F7047206800F10C024A
:102AF00052E8002F00F10C037047206800F10C0130
:102B000051E8001F00F10C0221F0100142E8001012
:102B1000002870472DE9F041069C05460E46904678
:102B20001F46286801683140B1420CBF01200020D7
:102B300040451BD114F1010FF3D024B102F0C0F9CC
:102B4000C01B8442EDD200F027F821F4D07100F0D0
:102B500012F8F8D100F013F8FCD105F13C00202167
:102B60004170817000210170032000E00020BDE869
:102B7000F08121F4F07142E80010002870472868C5
:102B800000F1140151E8001F490800F11402490046
:102B900042E8001000287047286800F10C0151E855
:102BA000001F00F10C02704781628285C28500F12E
:102BB0003C0100224A6022238B700A70016921B116
:102BC0000168CA6842F48072CA6001684A6942F0CA
:102BD00001024A610068C16841F02001C160002023
:102BE0007047016801F10C0252E8002F01F10C035B
:102BF00022F4907243E800210029F2D1016801F12A
:102C0000140252E8002F520801F11403520043E865
:102C100000210029F2D1016B01290CD1016801F1D9
:102C20000C0252E8002F01F10C0322F0100243E8DD
:102C300000210029F2D1202180F83E1000220263F9
:102C400070470000806B0021C185C18402F098B9F3
:102C50001CB590F83E1022295BD18168826AB1F5DB
:102C6000805F0AD1016969B903685968C1F3080135
:102C70001180826A911C81620FE0002904BF016902
:102C8000002902D10368596803E00168496801F02E
:102C90007F011170816A4A1C8262C18D491EC18503
:102CA00089B2A1BB0168CA6822F02002CA6001682B
:102CB000CA6822F48072CA6001684A6952085200E8
:102CC0004A61202180F83E10026B012A1DD10021AB
:102CD0000163016801F10C0252E8002F01F10C03BD
:102CE00022F0100243E800210029F2D102681168A5
:102CF000CB0606D500240094136800935268009216
:102D00000099818D02F03DF901E0FFF7CCF8002039
:102D100016BD022016BD70B5044622681169E06830
:102D200021F4405101431161D3682748A168034051
:102D300020690B4361690343E0690B430343D3609C
:102D40005169A06921F44071014351611F498A42D0
:102D50001CBF1F48824202D102F008F801E001F0D6
:102D6000FDFF62682568E46964261921B4F5004F07
:102D7000A1FB000112D1D30F5200FEF78FF900F032
:102D800029F8F60032366420B6FBF0F0420002F477
:102D9000F87202EB011200F0070010E0930F9200AE
:102DA000FEF77CF900F016F8360132366420B6FBE7
:102DB000F0F000F0F00202EB011200F00F008018BA
:102DC000A86070BD00000000F369FFFF0010014023
:102DD000001401406421B0FBF1F106FB11067047BD
:102DE000F8B5040025D004F13C05697821B900202C
:102DF0002870204601F049FA242169702068026891
:102E00005208520002602068016841F400410160EC
:102E10002068026822F40042026001F09FFF014630
:102E20006068DFF84424904205D2DFF840349942CC
:102E300005D20120F2BDDFF838048142F9D32068C1
:102E4000DFF830344668B1FBF3F3B60943EA86167F
:102E500046602668376A6068904206D34FF49670E1
:102E600043434FF47A70B3FBF0F35B1CBF0943EAB2
:102E700087133362491E2368DE696768974206D26A
:102E80007F0000F043F8042913D2042111E0A06868
:102E900020B907EB470700F039F805E01920474350
:102EA00000F034F841F4804108050CBF012141F4E1
:102EB0000041DFF8F80306400E43DE612268136824
:102EC000E169206A23F0C0030B43034313602268C7
:102ED000DFF8DC03936821690340E0680B43034398
:102EE00093602168CA68A3696069120A034343EAD0
:102EF0000222CA602068016841F0010101600020DF
:102F00006860202169702063A870F2BDB1FBF7F101
:102F1000491CC1F30B0170472DE9FC4700F00BF988
:102F200000F003F947D100F0F8F8002843D13878D1
:102F3000012840D000F0EBF801D400F024FA234639
:102F400030680A9D00F036FA212000F0B6F800F053
:102F500036FA00282DD1009031684A6900928969BB
:102F60000091009A308D002828D000F0CBF8D8B915
:102F700000F0BBF800F09DF8308D401E30853168C0
:102F80004A6953070CD580B250B1706A02780A6161
:102F9000706A411C716200F08CF8308D411E3185E1
:102FA00000F0ABF80028DDD07868042801D100F0EB
:102FB00033FB012000E00220BDE8F68700F0C1F8F5
:102FC000FAE72DE9FC4700F0B6F800F0AEF85FD163
:102FD00000F0A3F800285BD13878012858D000F021
:102FE00096F801D400F0CFF9234630680A9D00F02E
:102FF00076F800F062F800F032FA002841D1308D06
:1030000018B1012804D100F089F900F035F918E071
:1030100002283068016805D121F48061016000F068
:1030200050F901E000F0C1F90020009000F036F8FE
:1030300007E000F069F9002823D100F048F900F01A
:1030400034F8308D002826D0042817D20128F0D07B
:1030500000F002F90AD100F052F9002811D100F075
:1030600064F9716A0870706A421CE8E700F047F979
:10307000002806D100F06EF918B9F0E700F044F925
:1030800008B1012005E000F029F9DAD50069E8E788
:103090000220BDE8F68700F00DF9FAE731684A69C9
:1030A00000928969009100987047308D7262411ECC
:1030B0003185708D411E7185704778701021B9700F
:1030C00000207860C6F82490A6F82AA02A46708DC1
:1030D000DFF8BC123085F162304641467047016826
:1030E00021F40061016022207047706A3268017823
:1030F0001161706A411C7162704722462946304650
:1031000000F024BB22462946304600F0F5BA0121E2
:10311000397030680268D107704700941923012282
:10312000DFF87C12304600F083BA06F13C07044613
:103130007878202870470646884691469A4601F0DE
:10314000BFBE3068016841F40071016020207870D2
:103150000021B9700020387070472DE9FC47FFF757
:10316000EAFFFFF7E2FF71D1FFF7D7FF00286DD12B
:10317000387801286AD0FFF7CAFF01D400F003F9BC
:103180004146D6F800E00C9D0B98DDF828C0DEF82B
:10319000008028F40068CEF800804FF0220E87F8F7
:1031A00001E04FF0400887F802804FF0000EC7F8AA
:1031B00004E000F06DF800F0C3F900283FD1308D35
:1031C00018B1012804D100F0A9F800F055F816E074
:1031D000022807D1306800F09CF800F072F8002057
:1031E000009001E000210091FFF758FF07E000F098
:1031F0008BF8002823D100F06AF8FFF756FF308DD6
:10320000002826D0042817D20128F0D000F024F896
:103210000AD100F074F8002811D100F086F8716A24
:103220000870706A421CE8E700F069F8002806D1CF
:1032300000F090F818B9F0E700F066F808B1012046
:1032400005E000F04BF8DAD50069E8E70220BDE8B8
:10325000F68700F02FF8FAE70228DFF8488100949B
:103260002B46704700000000A186010080841E00EC
:1032700000093D0040420F00009031684A69009209
:103280008B69009300980A6842F400720A607047E4
:10329000C6F824C070855346708D30854A463C4838
:1032A000F062019400953046704700000030FFFF47
:1032B000007CFFFF202078700021B970002038705A
:1032C00070473068026842F40062026070473068FC
:1032D0000169706A0170716A4A1C7047306801693F
:1032E000706A0170716A308D4A1C411E72623185AC
:1032F000708D411E7185306841694A077047002210
:103300004146304600F094B922462946304600F046
:1033100039BA016821F48061016070473068016842
:1033200021F480610160002070473068016841F439
:103330000071016030680169706A0170716A308DD6
:103340004A1C411E72623185708D411E7185326842
:10335000106970473068016821F4806101602B4674
:1033600030680169706A0170716A308D4A1C411EB3
:10337000726231850022708D411E71850094414634
:10338000304600F055B9026842F001020260704711
:103390000000FFFF2068016841F480710160704700
:1033A0000200100004000100016841F48061016026
:1033B00070472868016821F4006101607047F8B522
:1033C00004460D46E06A08281EBF0128DFF85412A3
:1033D000884216461F4602D100F035F804E0206B03
:1033E000122801D1FFF7D6FF0097334600F032F8DC
:1033F0000028206807D00168CA0544BF4FF4007058
:1034000020640320F2BD2169B1F5804F08BF05F0AB
:10341000FE050ED0E90901F0060141F0F00101615D
:103420003B463246DFF8001200F083F848B92068C6
:10343000EDB205613B463246DFF8F01100F079F855
:1034400000B10120F2BD2068026842F4807202607F
:103450007047434600224FF001112046E8E02DE975
:10346000FC4704460E46E06A216890460A6842F42A
:1034700080620A6008281EBF01286A49884299466E
:1034800002D1FFF7E0FF04E0206B112801D1FFF724
:1034900081FFCDF80090FFF7DCFF002820684FF493
:1034A00000752CD12169DFF884A1B1F5804F04D1DA
:1034B00046F00106F6B206612BE0F70907F00607B1
:1034C00047F0F00101614B464246DFF85C1100F025
:1034D00030F8002820D12068F6B2066100F026F806
:1034E000D0B900F01CF8434600980A6842F4807294
:1034F0000A60CDF80090FFF7ADFF30B12068016899
:10350000CA0548BF2564032007E0206847F0F1079B
:10351000076100F00BF800B10120BDE8F6870090CC
:1035200021684A6900928B69009370474B46424676
:1035300051462046A4E02868016841F48071704734
:103540002DE9F84F05462868DDF828800B9F0C46CA
:10355000FFF72AFF1646FFF7EEFF994600F054F8F2
:1035600000284FF4007A2BD12968DFF8C0B004F0AE
:10357000FE00086100F037F8002831D1009029687A
:1035800000F03AF800F036F870B9B9F1010F05D043
:103590002968300A086100F02BF828B92868F6B2CB
:1035A000066100F025F830B1286C042818D128688D
:1035B00000F033F814E0FFF7BEFF00F025F838B153
:1035C00028680168CA0548BFC5F840A0032008E084
:1035D000286844F00104E4B2046100F004F800B18A
:1035E0000120BDE8F28F3B4642465946284647E057
:1035F0003A46414628467FE04A6900923A46896940
:1036000000914146009870470160009743460022B0
:103610004FF0011128460BE03068016841F4007159
:10362000016070470000FFFF080001000200010078
:103630002DE9F041069F05460E4690461C46310294
:103640002868090E01290CBF40698069304080B2AA
:10365000B1B288420CBF0120002040450DD114F1C9
:10366000010FECD001F02CFCC01B844201D3002CD4
:10367000E5D100F05DF8012000E00020BDE8F08118
:10368000F8B505460E4614461F463102090E286855
:1036900001291BD14169314089B2B2B291421BD09C
:1036A00041694A051AD5FFF7B8FF6FF480602A68B0
:1036B0005061002105F13C00296320224270817095
:1036C000426842F004024260017013E081693140B7
:1036D00089B2B2B29142E3D10020F2BD14F1010FE0
:1036E000D3D001F0EDFBC01B844201D3002CCCD120
:1036F00000F01EF80120F2BD70B505460C461646D6
:1037000028684169080611D4284600F067F858B9BE
:1037100014F1010FF4D001F0D3FB801B844201D3DC
:10372000002CEDD100F004F8012070BD002070BD28
:1037300000202863202105F13C00002241708270A6
:10374000416841F0200141600270704770B5054644
:103750000C46164628684169480711D4284600F0EF
:103760003DF858B914F1010FF4D001F0A9FB801B0A
:10377000844201D3002CEDD1FFF7DAFF012070BDA8
:10378000002070BD70B505460C4616462868416994
:103790004A0617D44169CA060BD401F091FB801B7D
:1037A000844201D3002CF1D100F00EF841F0200149
:1037B00004E06FF01001416100F006F84160027012
:1037C000012070BD002070BD00202863202105F17C
:1037D0003C000022417082704168704701684A696C
:1037E00053050FD56FF480624A61002101633C30BC
:1037F000202242708170426842F0040242600170EF
:10380000012070470020704738B5044601F058FB8E
:1038100014F1010F054602D004480178641801F044
:103820004FFB401BA042FAD331BD00BF0000002077
:10383000A9B1B1FA81F241409040C2F12002D141D8
:10384000414002F21D424FEA025C42054FEAD0209D
:1038500072F1004250EB41504CEBD121704748B11E
:10386000B0FA80F29040C4F2D011A1EB025202EB08
:10387000D02140057047000041EC100B01BD80B520
:1038800053EC112B51EC100B01F0F4FEF4E70000A7
:103890002DE9F84F0D464FF0000877490F2201231C
:1038A00004462E6803FA08F000EA0609814540F054
:1038B000C6804FEA480C032606FA0CF66FEA060E9D
:1038C0006E6806F00307012F1CBF06F00306022EE8
:1038D00011D1A668EF680EEA060607FA0CF73E4318
:1038E000A660666826EA00006E68C6F3001606FA4F
:1038F00008F6304360604FEA88002E7906F0030630
:10390000032E1FD0E668AF680EEA060607FA0CF72A
:103910003E43E6602E7906F00306022E12D14FEAEE
:10392000D80604EB860600F01C07D6F820A002FAA1
:1039300007FB2AEA0B0AD5F810B00BFA07F747EA9B
:103940000A07376226680EEA06072E7906F0030694
:1039500006FA0CF63E4326606E6816F4403F6ED0C1
:10396000002600964FEA980C0E68DFF810E146F446
:1039700080460E6000F00C000E6806F4804600964B
:10398000009E5EF82C7002FA00F627EA06063C4F0D
:10399000BC4208BF002722D03A4FBC4208BF0127D3
:1039A0001DD0394FBC4208BF022718D0374FBC4248
:1039B00008BF032713D0364FBC4208BF04270ED0E0
:1039C000344FBC4208BF052709D0334FBC4208BF63
:1039D000062704D0314FBC420CBF0727082707FA3F
:1039E00000F030434EF82C006FEA090C2C48866832
:1039F0000CEA060E6E68F70248BF49EA0E0EC0F8E0
:103A000008E0C6680CEA060E6E68B70248BF49EACD
:103A10000E0EC0F80CE046680CEA060E6E68B7039E
:103A200048BF49EA0E0EC0F804E006680CEA060E2C
:103A30006E68F60348BF49EA0E0EC0F800E008F1D0
:103A40000108B8F10F0F7FF62CAFBDE8F18F02B976
:103A5000090481617047426901EA0203914341EA26
:103A60000341816170470F4A136803421CBF106015
:103A7000FEF7F8B9704700004438024008380140AA
:103A8000000002400004024000080240000C024016
:103A9000001002400014024000180240001C0240C6
:103AA000003C0140143C014080B50B48016841F4E2
:103AB00000710160026842F480620260016841F4B2
:103AC00080710160032001F0A6F9002001F0DCFD07
:103AD00000F0C0FB002002BD003C024038B50400ED
:103AE00001D1012032BD606A28B900F051F805D03B
:103AF0000021E16102E00020206160610020A062FD
:103B000004F15005687820B900212970204600F0A2
:103B10002AFC0220687000F03FF86068A168E26843
:103B200000F4827001F404410843217C02F4006235
:103B30001043227D01F002010843A16902F0010255
:103B40001043227F01F40071084394F8201002F022
:103B500038021043A26A01F080010843216802F490
:103B6000005210430860A06994F824102268000CE9
:103B700000F0040001F01001084350602068C169A2
:103B800021F40061C161002068600121697032BDCB
:103B90006068B0F5827F70472068016821F04001BD
:103BA00001607047002201F08FBD000038B50400AD
:103BB00001D1012032BD00F0E7F818B900F0ADF9ED
:103BC00000F007FC3DE090F83D10012901D00120F4
:103BD0007047022180F83D100168CA6842F0010276
:103BE000CA600068DFF88411884218BFB0F1804FC6
:103BF00017D0DFF87C1188421CBFDFF87821904293
:103C00000FD0DFF8741188421CBFDFF8702190429A
:103C100007D0DFF86C1188421CBFDFF868219042A2
:103C200009D1816801F00701062908D0016841F037
:103C30000101016003E0026842F00102026000201D
:103C4000704702206870211D206800F06AF9012089
:103C5000A872A870E87028716871A871E87128725C
:103C600068726870002032BD38B5040001D10120AF
:103C700032BD00F089F818B900F04FF901F03DFDB0
:103C8000DFE710B5044604F13E0009B9027807E009
:103C9000042908BF427803D008290CBF8278C27873
:103CA000012A01D0012010BD11B9022202700AE0E0
:103CB000042902D10222427005E0082907BF02222E
:103CC00082700223C3702068012200F06EFA00F0B7
:103CD00032F818BF884200F034F818BFB0F1804FB6
:103CE00012D000F01FF81CBFDFF8883098420BD0CC
:103CF00000F014F818BF884206D000F02FF81CBF5F
:103D0000DFF88020904205D100F023F804D000F0C5
:103D100028F801E000F00AF8002010BDDFF8582074
:103D200090427047DFF8482090427047026842F0A6
:103D300001020260704720680C4ADFF84010904290
:103D4000704703D1436C43F40043436420689042BE
:103D50007047816801F007010629704708498842C9
:103D60007047016841F001010160704700000140A7
:103D70000004004000080040000C00400004014026
:103D8000004001400018004004F13C05687870478D
:103D9000002084F83C002846704770B500F058F8C1
:103DA00001D1022070BD012084F83C0032B1042A08
:103DB00015D0082A25D00C2A34D045E0206800F020
:103DC000FBF82168886940F008008861886920F064
:103DD000040088618A69306902438A6135E020689D
:103DE00000F016F92068816941F400618161816900
:103DF00021F4806181618169326941EA0221816136
:103E000023E0206800F034F92168C86940F0080018
:103E1000C861C86920F00400C861CA6930690243FA
:103E2000CA6112E0206800F052F92068C16941F4CB
:103E30000061C161C16921F48061C161C1693269F8
:103E400041EA0221C16100E00125FFF7A1FF70BD39
:103E50000446002594F83C0001280E46704770B5D2
:103E6000064606F13C0500242878012801D10220ED
:103E700070BD0120287002226A70DFF89802326853
:103E80009368034093600868020018BF102830D080
:103E9000202818BF30282CD0402826D0502819D0F0
:103EA00060281BD0702806D0B0F5805F27D0B0F511
:103EB000005F07D022E000F02BF83068816841F005
:103EC000770105E000F024F83068816841F4804112
:103ED000816014E000F018F850210BE0CA684968CE
:103EE000306800F03EF9602104E000F00DF8402158
:103EF00000E00146306800F046F900E001240120AE
:103F0000687000F00AF870BDCA684968306819E145
:103F1000CB684A68896830683DE1002129702046F5
:103F20007047F0B57C4C05687C4B7D4E7D4FDFF8CB
:103F3000F8C1A04218BFB0F1804F07D0604518BF4C
:103F4000B84203D0B04218BF98420DD14A6825F05C
:103F500070051543A04218BFB0F1804F17D06045DF
:103F60001CBFB842B04212D098421CBF6F4A904268
:103F70000DD06F4EB0421CBF6E4A904207D06E4EBD
:103F8000B0421FBF6D4A90426D4EB04203D1CA6825
:103F900025F4407515434A6925F0800515430560F1
:103FA000A0428D68C5620A68826212BF98420969A0
:103FB000016301224261F0BDF0B5026A564F52081A
:103FC00052000262066A446885690B688A6825F0B7
:103FD000730526F002061D431643504BB84218BF26
:103FE000984207D1CA6826F008061643B84226F060
:103FF000040601D0984205D14B698A6924F44074C3
:104000001C43144344608561496841630662F0BD06
:10401000F0B5026A404E22F010020262B042056A18
:10402000436884690A6824F4E64444EA02248A68FE
:1040300025F0200545EA0215384A18BF904208D1FC
:10404000CF6825F0800545EA0715B04225F0400508
:1040500001D0904206D14E698A6923F44063164329
:1040600043EA860343608461496881630562F0BD69
:10407000F0B5026A22F480720262056A4368C4697C
:104080008E680A6825F4007524F0730445EA062555
:104090001443214E214AB04218BF904208D1CF6844
:1040A00025F4006545EA0725B04225F4806501D076
:1040B000904206D14E698A6923F44053164343EA7D
:1040C00006134360C4614968C1630562F0BD70B501
:1040D000026A114E22F480520262B042046A4268BF
:1040E000C3690D6823F4E64343EA05238D6824F48D
:1040F000005444EA05341CBF084DA84204D14D6960
:1041000022F4804242EA85124260C3614968016438
:10411000046270BD8800FFFF000001400004014000
:10412000000C004000080040000400400040014036
:10413000004401400048014000180040001C0040BD
:104140000020004010B5036A046A64086400046239
:1041500023F00A03846924F0F00444EA0214846121
:104160002EE010B5036A23F0100303628369046A2A
:1041700023F4704343EA023324F0A004836144EA49
:104180000114046210BD826822F07002114341F0F4
:1041900007018160704710B5846824F47F4421438F
:1041A000114341EA0321816010BD10B501F01F01E8
:1041B000036A01248C40A343036202FA01F1036AFB
:1041C0001943016210BD000070B500F13C031A787C
:1041D000012A01D1022070BD01221A7002245C70F4
:1041E00005686E68AC680A6826F0700616436E6053
:1041F00002681448824218BFB2F1804F11D01048B3
:1042000082421CBF104DAA420BD00C4882421CBFF8
:104210000E4DAA4205D0084882421CBF0C4DAA424E
:1042200004D1486824F0800404439460012159704B
:104230000020187070BD000000400140000C0040DC
:10424000000400400000014000080040000401405C
:104250000018004081B0002000900022DFF83005F7
:10426000416841F480414160416801F4804100911E
:1042700000990092036843F080530360006800F0E7
:1042800080500090009801B0704738B586B000F0BB
:104290002EF92068DFF8FC54DFF8FC44A84219D15D
:1042A000002005901222216841F002012160C02106
:1042B000206800F00200059000F013F900F04AF8C1
:1042C00000200590216941F400112161206900F46A
:1042D00000103BE0DFF8C414884239D1002005907B
:1042E000216841F0040121600021206800F00400F1
:1042F0000590059805914FF40071226842F0010283
:1043000022601222206800F0010005900598DFF875
:1043100090040091019200F01DF8122101910122F8
:1043200002924FF4807003210090039104220492C2
:104330006946DFF87004FFF7ABFA002005902169A9
:1043400041F400012161206900F400000590059806
:1043500007B030BD01210291032204210491039290
:104360006946FFF795BA38B586B0044601A814210E
:10437000FFF718FC2468DFF83454AC4227D1002042
:1043800000900022DFF81004016941F480410161CE
:10439000016901F480410091009900924FF460415D
:1043A000036843F0020303600222006800F0020089
:1043B00000900098DFF8F003019102920021039130
:1043C000032205210591049201A9FFF761FA07B0C4
:1043D00030BD81B00168DFF8D823DFF8B403914223
:1043E00009D100210091026842F0040202600068D5
:1043F00000F0040028E0DFF8BC23914209D100213D
:104400000091026842F010020260006800F01000A3
:104410001AE0DFF8A423914209D10021009102683B
:1044200042F080020260006800F080000CE0DFF8DB
:104430008C2391420AD100210091026842F48072DB
:104440000260006800F480700090009801B070472E
:1044500010B586B000F04BF82268DFF85403DFF89F
:104460003813824214D1002205920222086840F0DB
:1044700002000860096801F0020105914FF44071E3
:1044800000F02FF80021029103910221049123E012
:10449000DFF82433DFF828039A4204D10022059282
:1044A0004FF4807207E0DFF814339A4217D10022EC
:1044B00005924FF400720B6843F020030B6009680B
:1044C00001F0200105910599009202230022029239
:1044D00003920193092204926946FFF7D9F906B0C5
:1044E00010BD0598DFF8C0020091019270470446A4
:1044F00068461421FFF756BB38B586B0FFF7F7FFC3
:104500002468DFF8C022DFF89802DFF88C129442AA
:104510004FF4406316D1002405940A6942F4002246
:104520000A610A6902F400220592059A05940D6851
:1045300045F004050D6000F0B5F8009302940223E5
:104540000193A6E0DFF88022944232D10023059344
:104550000A6942F480120A610A6902F48012059223
:10456000059A05930C6844F004040C6000F09AF876
:1045700005934FF480520C6844F008040C60022349
:10458000096801F0080100F093F80323082203935F
:1045900004926946FFF77CF9022101910022042070
:1045A00002920321009003910822049269468748F1
:1045B00074E0874D7B4AAC4210D1002005904B69D6
:1045C00043F010034B610023486900F0100000F035
:1045D00082F84FF4C06100F072F85FE07D4DAC42AC
:1045E00019D1002005900B6943F400330B610023BF
:1045F000086900F4003000F06EF80C2100F05FF85C
:10460000FFF746F900220021262000F011FC2620A9
:1046100000F02BFC44E0704A944220D10020059029
:104620000A6942F480220A610022086900F48020AD
:10463000059005985C48059202220C6844F002043B
:104640000C60096801F002010591059901920021B1
:104650000291032207210491009303921DE05F4A17
:1046600094421DD1002305934A6942F020024A6119
:104670004A6902F020020592059A0593C0220C684F
:1046800044F004040C600223096801F0040100F006
:104690000FF803230822039304926946FFF7F8F802
:1046A00007B030BD0A6802F004020592059A70470F
:1046B0000591059900920193002202927047059896
:1046C0000091019300210291032307210491039398
:1046D00069461046704705900598059302230C68BB
:1046E00044F001040C60086800F001000590704778
:1046F00080B586B068461421FFF754FA3849086837
:10470000002836D101220A6005900222354801684E
:1047100041F0010101604FF69871006800F001005E
:1047200005900598304800910192002102910322E2
:104730000C21049103926946FFF7AAF800F01BF8D8
:104740004FF23F0000F01CF81D48FFF7A1F800F001
:1047500012F840F23F2000F013F82448FFF798F8D1
:1047600000F009F84FF6337000F00AF81748FFF729
:104770008FF807B000BD022101910022029270471C
:104780000321009003910C220492694670470000B7
:10479000403802400054004030380240005C004085
:1047A00000080240000002400004024000380040BF
:1047B0000008004000100040001C004000200040A5
:1047C00000140240004C004000500040000C024029
:1047D0000010014000440040004800400014014027
:1047E000280500203838024000100240001802401E
:1047F000F8B504000E46174601D10120F2BD04F1C0
:104800004805687820B9002129702046FFF770FF1D
:10481000206804F1080100F071FFA26820683146A9
:1048200000F09FFF236BA2686068394600F0B9FF73
:104830002168A06851F8202042F0010241F82020B0
:10484000012068700020F2BDC0F3C75181B1FF297B
:1048500006D0C110400721F0E04101F160517047DE
:1048600041020CBF40F4E0016FF0004100207047AE
:1048700000F0004100020AD0B0FA80FC00FA0CF00F
:1048800001F16051A1EB0C5101EBD02140057047C3
:104890000EB4C0B5024603A800210190009101ABFF
:1048A0000121044878440C30FBF76EFC06BC5DF82F
:1048B00010FB00BFC318000001F000428B1AA3F1E7
:1048C0006051B1F5801F0ADBB1F17F6F1FD242EA60
:1048D000C102C10071F1004142EB507070470B15ED
:1048E000C3F10903212B10D2890241EA90518002C1
:1048F0000128494141F0004121FA03F0C3F12003AE
:10490000994071F1004150417047100070476FF0BD
:10491000000013EB103F5CBF000E42EAC05070472E
:104920002DE9F843040016D02078DFF81463C1079E
:1049300013D5B06800F00C00042807D0B06800F070
:104940000C0008283ED1706841023BD530688103D5
:1049500003D56068002800F005812078B94F8107F1
:1049600019D5B06810F00C0F07D0B06800F00C003B
:1049700008285CD17068410259D43068810703D59A
:10498000E068012840F0EE803168206921F0F801EC
:1049900041EAC0013160217808076CD56069AA49F5
:1049A000002862D001220A6000F08AFA0546706F82
:1049B000810700F1D98000F083FA401B0228F6D964
:1049C00003203AE16068B0F5803F04D1306840F4DC
:1049D0008030306011E0B0F5A02F306806D140F48F
:1049E00080203060316841F4803105E020F480306F
:1049F0003060316821F480213160606858B100F086
:104A00005FFA054630688103A7D400F059FA401BCD
:104A10006528F7D3D4E700F053FA054630688103E0
:104A20009BD500F04DFA401B6528F7D3C8E7E06836
:104A300070B10121396000F043FA05463068810702
:104A400000F1BE8000F03CFA401B0228F6D9B7E71F
:104A5000386000F035FA0546316888079BD500F0CC
:104A60002FFA401B0228F7D9AAE7086000F028FABD
:104A70000546706F810777D500F022FA401B0228A7
:104A8000F7D99DE70528306F06D140F00400306764
:104A9000306F40F0010005E0400840003067306FA3
:104AA00020F00400306741F28938A06868B100F056
:104AB00007FA8146306F810700F18F8000F000FA1D
:104AC000A0EB09004045F5D37AE700F0F9F98146FB
:104AD000306F810740F1818000F0F2F9A0EB09000E
:104AE0004045F5D36CE700F0EBF9401B022840F29B
:104AF000878065E700F0E4F9001B022840F2988007
:104B00005EE70020386600F0DBF90446306881017A
:104B100040F1928000F0D4F9001B0228F6D94FE74B
:104B200001281FD07068E26900F48001914202BF41
:104B300000F03F01226A914201BF47F6C071014077
:104B4000626AB1EB821F0DD1A26A520800F44031B3
:104B5000521EB1EB024F02BF00F07060E16AB0EB91
:104B6000016F69D0012068E0207841073AD5306CA8
:104B70000025C1000AD400950125316C41F0805117
:104B80003164306C00F0805000900098DFF8BC80F9
:104B9000D8F80000C1051BD4D8F8000040F480709C
:104BA000C8F8000000F08CF98146D8F80000C10573
:104BB0000ED400F085F9A0EB09000228F5D9FFE634
:104BC0003068216920F0F80040EAC1003060E2E678
:104BD000A06801287FF456AF5AE71DB1306C20F071
:104BE00080503064A06938B3B16801F00C01082925
:104BF00096D0022885D10020386600F061F905467C
:104C0000306881013FF56FAFE269206A616A024353
:104C1000A06A400842EA8112401E42EA0042E06A6D
:104C200042EA006272600121396600F049F90446E7
:104C3000306881017FF55EAF0020BDE8F28300BFE0
:104C40000038024000004742800E4742007000409A
:104C50002DE9F04104000F4678D0494E306800F04D
:104C60000700B84202D200F073F86FD12068454DBA
:104C7000810712D5400703D5A96841F4E051A96026
:104C80002078010703D5A86840F46040A860A968AF
:104C9000A06821F0F0010143A9602178C8074DD533
:104CA0006068012802D129688A0305E0022818BF3C
:104CB000032803D129688A0103D447E029688A07B9
:104CC00044D5A968890840EA8100A86000F0F8F896
:104CD0008046A868616800F00C00B0EB810F2DD011
:104CE00000F0EEF8A0EB080041F289318842F0D3E1
:104CF000032021E02078410705D5AA68E06822F466
:104D0000E0520243AA602178080706D5A968206905
:104D100021F4604141EAC001A96000F03FF8AA68AF
:104D200019491A4BC2F30312895CC840186018482D
:104D3000006800F0A9FC0020BDE8F081306800F0B8
:104D400007008742D6D200F003F8D3D00120F3E762
:104D50003770316801F00701B94270470B480D4ABE
:104D6000006813680C49C3F3822206E00748094A29
:104D7000006813680849C3F34232895CC840704731
:104D8000003C024000380240346100080C00002062
:104D90000800002008380240B461000830B5144C07
:104DA000606800F00C00042802D0082802D01DE042
:104DB000104830BD226820680023410202F03F0203
:104DC00004D525680B49C5F3881003E020680A491B
:104DD000C0F38810A1FB0001FCF760F92168C1F362
:104DE0000141491C4900B0FBF1F030BD024830BD23
:104DF0000438024040787D010024F40009010200DB
:104E000002D4294881547047284B02F00F021A44FB
:104E100002F8041C7047264B19684FF6FF02000287
:104E2000114000F4E06008432249084318607047CD
:104E300038B51F4B1C68C4F30223C3F10704052CCB
:104E400028BF04241D1D072D34BF0023DB1E0125B0
:104E500005FA04F4641E2140994005FA03F35B1E31
:104E60001A401143BDE83440C8E7010007D40122CD
:104E700000F01F01104B8A40400943F82020704782
:104E800010B5401EB0F1807F01D3012010BD0B4C46
:104E900060600F214FF0FF30FFF7B0FF0021A160ED
:104EA00007202060002010BD00E400E018ED00E0C5
:104EB0000CED00E00000FA0500E100E010E000E089
:104EC00001484068704700BF00000020F8B5064662
:104ED00006F13404656AFFF7F3FF0746607802289D
:104EE00005D080212162002020700120F2BD3068B1
:104EF000016821F0160101603068416921F08001EC
:104F00004161E068002804BF6069002802D0306871
:104F100000F031F8306801684908490001603068E4
:104F20000168CA070CD5FFF7CBFFC01B0628F6D3D4
:104F30002020206203216170002020700320F2BD38
:104F4000A06A3F218140A96000200121617020708A
:104F5000F2BD90F83510022903D08022426501206D
:104F60007047052180F83510006802685208520029
:104F7000026000207047016821F00801016070475D
:104F800070477047704700002DE9F84C2DED0A8BF3
:104F900082B041EC190B149C43EC182B0CB100208F
:104FA000206051EC180B20F0000631F0004708BFDC
:104FB000002E14D053EC192B0020DFF8241600F03B
:104FC00013FC0CD0DFF8141600F00EFC0FD151ECDE
:104FD000180B48004015401C09D1090307D102B045
:104FE0000020BDEC0A8BDFF8F815BDE8F48C51EC1D
:104FF000190B48004015401C0DD051EC190B31F035
:10500000004108BF002806D051EC180B480040159D
:10501000401C40F0F58051EC190B48004015401C35
:1050200005D1090318BF51EC190B40F0CF8251ECA8
:10503000180B48004015401C05D1090318BF51EC5E
:10504000180B40F0C38251EC180B480001244015A6
:10505000401C61D051EC180B4B0043EAD073420066
:10506000002B08BF002A04D1B0EE48AAF0EE68AACF
:1050700019E040F23345A5EB5352352A04DB00F02A
:10508000000001F000410CE0202A03DD203AD1406D
:10509000914000E001D1002003E0002AC4BFD040CD
:1050A000904041EC1A0B53EC182B51EC1A0B00F00A
:1050B0009BFB18BF00244B0043EAD0734200002B37
:1050C00008BF002A04D1B0EE4A0AF0EE6A0A19E0DD
:1050D00040F23445A5EB5352352A04DB00F00000C2
:1050E00001F000410CE0202A03DD203AD14091403C
:1050F00000E001D1002003E0002AC4BFD04090406E
:1051000041EC100B44B153EC1A2B51EC100B00F096
:105110006BFB0CBF0024012451EC190B4800401517
:10512000401C0ED109030CD151EC190BC80F25D12D
:1051300053EC182BDA0F0CBF9FED8C0B9FED8D0BF2
:1051400042E251EC180B48004015401C28D10903DD
:1051500026D153EC192B23F00041B1F5801F22F02A
:1051600000002ED20022002908BF002800922DD076
:105170006A4651EC190BFCF73BF927E051EC180B90
:10518000C80F06D1002C0CBF9FED780B9FED7B0B59
:105190001AE2002C0CBF9FED770B9FED7A0B13E208
:1051A000002C1ABF51EC190BC80F002053EC182B20
:1051B000DA0F1ED100280CBF9FED6E0B9FED710B17
:1051C00002E2DFF8204404EB1150009051EC180B80
:1051D000C80F009806D10028CCBF9FED640B9FED4F
:1051E000650BF1E10028CCBF9FED620B9FED5F0BDB
:1051F000EAE100280CBF9FED5D0B9FED600BE3E142
:1052000051EC180B4B0043EAD0734200002B08BF4F
:10521000002A04D1B0EE48AAF0EE68AA19E040F2E4
:105220003345A5EB5352352A04DB00F0000001F0B2
:1052300000410CE0202A03DD203AD140914000E0FB
:1052400001D1002003E0002AC4BFD040904041ECCF
:105250001A0B51EC190BC80F11D053EC182B51EC51
:105260001A0B00F0C1FA0AD0AFF3008002B04FF081
:10527000FF30BDEC0A8B6FF00041BDE8F48C53ECBD
:10528000192B23F00041B1F5801F22F000000BD252
:105290000022002908BF0028009211D06A4651EC74
:1052A000190BFCF7A5F809E0CE4E06EB1150009063
:1052B000DFF89C13CC4803401046194341EC190B0E
:1052C00051EC190BC80F36D021F0004053EC192BCC
:1052D000034643EC192B51EC1A0B4B0043EAD073F5
:1052E0004200002B08BF002A04D1B0EE4A0AF0EEBB
:1052F0006A0A19E040F23445A5EB5352352A04DB23
:1053000000F0000001F000410CE0202A03DD203A0B
:10531000D140914000E001D1002003E0002AC4BF49
:10532000D040904041EC100B53EC1A2B51EC100B79
:1053300000F05AFA01D1002600E001260098012869
:1053400024D151EC190BA94AA94BFCF789F81DD2BD
:1053500053EC192B00204FF08041FBF723FF002571
:105360009FEDC0BB41EC190B2EE000BF0000000018
:105370000000F07F000000000000000000000000BE
:105380000000F0FF000000000000008053EC192B2B
:1053900000209849FBF706FF9FED97AB53EC1A2BC3
:1053A000FCF71EFBFCF72AF9A0F120052846FCF7C4
:1053B00043F90022924BFBF7F5FE53EC1A2BFCF756
:1053C0000FFB41EC1B0B6D0151EC190B53EC1B2B2C
:1053D000FCF744F941EC1A0B53EC192B51EC1B0B65
:1053E000FCF7FEFA02460B4651EC1A0BFCF7A8F943
:1053F00041EC190B53EC192BFBF7D4FE41EC1C0BC1
:1054000053EC1C2B7F488049FBF7CCFE7F4A804B36
:10541000FCF7E6FA53EC1C2BFBF7C4FE7D4A7E4BEF
:10542000FCF7DEFA53EC1C2BFBF7BCFE7B4A7C4BF3
:10543000FCF7D6FA53EC1C2BFBF7B4FE794A7A4BF7
:10544000FCF7CEFA53EC1C2BFBF7ACFE774A784BFB
:10545000FCF7C6FA53EC1C2BFBF7A4FE754A764BFF
:10546000FCF7BEFA53EC1C2BFBF79CFE53EC1A2BFB
:10547000FCF7F4F807468B460020594953EC1B2BE8
:10548000FCF7ECF800224FF08043FBF78BFE3A4626
:105490005B46FCF7A5FA53EC192BFBF783FE53ECA4
:1054A0001A2BFCF79DFA41EC190B00984A4F7F44E8
:1054B00007F593772F44FCF7BFF8D7E90023FCF7F3
:1054C0008FFA41EC1A0B53EC192B5C485C49FBF743
:1054D00069FE53EC1A2BFCF783FA53EC182BFBF7FD
:1054E00061FE0022574BFBF7BBFF41EC1B0B68D35F
:1054F0000122554BFBF7CCFF59D9C80F53EC1B2B9E
:105500001ABF002051495249FCF76AFAFCF776F8B5
:10551000054653EC192B51EC180BFBF743FE824662
:105520008B46D7E90201D7E90423FCF759FA53EC7B
:10553000182BFBF737FE9FED47BB53EC1B2BFBF7FC
:1055400031FE52465B46FCF74BFACDE9000153ECC5
:105550001A2B51EC180BFBF725FE07468B46284605
:10556000FCF76AF802460B4638465946FCF776F8CF
:1055700053EC1B2BFBF716FEDDE90023FCF730FA9A
:105580000CB12560002500950022154B00F03CF978
:1055900020F0000231F0004308BF002A41EC100B5C
:1055A0000FD048004015401C03D1090301D19FEDE5
:1055B0002B0B4EB151EC100B81F0004141EC100B64
:1055C00002E09FED2A0BF4E751EC100B02B0BDECAA
:1055D0000A8BBDE8F48C00BF180600000000F0BF85
:1055E0000000F03F02FCFFFFFFFF0F80CD3B7F6616
:1055F0009EA0E63F00005040000000000000E03F99
:105600000000903FF7DE29BFD8F8C23FF4B3FECCCC
:105610001A99C33F62CB68D96F46C73FC6C912DA31
:10562000C471CC3F4AE98A942449D23FF75F9799E5
:105630009999D93FBC5555555555E53FFE822B6587
:105640004715F73F0000E0C00000E0400000E0BF69
:105650000000E03FEF39FAFE422EE63F0000000076
:105660000000F07F000000000000F03F000000009C
:105670000000000080B541EC100B0020009051ECC0
:10568000100BFFF781FC04BD38B50D4D0D4B2A788A
:1056900004464FF47A711868B1FBF2F2B0FBF2F0F5
:1056A000FFF7EEFB50B9102C08D2002221464FF034
:1056B000FF30FFF7BDFBAC60002032BD012032BDE2
:1056C000000000200C00002000B500BF130096462B
:1056D0009446103928BFA0E80C50FAD85FEA417C04
:1056E00028BF0CC048BF40F8042BC90728BF20F8CA
:1056F000022B48BF00F8012B00BD7047F0B50A68C7
:1057000000F028F88C680D6850F82570344B4A6812
:10571000082C0CBF402600261F403E431643CB6892
:105720000A6934431C434B691443CA691C430B6A1E
:1057300014434A6A1C438B6A1443CA6A1C430B6BAA
:1057400014438A69C96B1C4314430C4340F8254039
:105750000020F0BD50F822305B085B0040F822309A
:10576000704770B5031D001D53F822408D690B680A
:105770004E681D438B6845EA0615CE6845EA032549
:105780000B69496945EA06455B1E45EA0355891ED2
:1057900004F0404445EA01652C4340F822400020D3
:1057A00070BD70B5B3F5804F13D150F822500D4C39
:1057B0000B684E6825401D438C688B69C96845EAB3
:1057C000061545EA04251D4345EA014540F82250E7
:1057D00003E06FF0704140F82210002070BD00001F
:1057E0008000F0FF0000F0CF90420CD141EA030CA2
:1057F00050EA4C0C07D0994205D14FF4001C1CEB29
:10580000410F38BF89427047F8B52DED0A8B41EC46
:105810001A0B48004015109D401C43EC182B23D058
:1058200051EC1A0B31F0004108BF00281CD051EC9C
:10583000180B48004015401C16D051EC180B31F0E5
:10584000004108BF00280FD051EC1A0B0022DFF8EE
:105850004833FBF705FE80F0A38055EC184B9FED15
:10586000800B05F00042ACE051EC1A0B48004015EB
:10587000401C02D1090340F0898151EC180B48000B
:105880004015401C01D1090353D151EC180B31F0E4
:10589000004308BF002A08D151EC1A0B48004015FC
:1058A000401C46D1090344D10DE048004015401C7E
:1058B00012D1090310D151EC1A0B48004015401CBD
:1058C00037D1090335D1AFF30080BDEC0A8B4FF01F
:1058D000FF306FF00041F4BD51EC1A0B31F0004184
:1058E00008BF002828D151EC180B4800400D05EBEB
:1058F000000234D151EC180B31F0004108BF0028F0
:1059000006D02A4651EC180BFBF7DAFD41EC180BD8
:1059100051EC180B20F0000231F0004308BF002AC0
:1059200005D048004015401C03D1090301D1AFF355
:10593000008051EC180B2BE151EC1A0B480040157C
:10594000401C26D1090324D153EC1A2B51EC180B1F
:10595000BDEC0A8B01B0BDE8F040FBF723BC002A88
:10596000C8DD40F2FF70824209DB9FED9F0B53ECD4
:10597000102B01F000410B4343EC182BC8E76FF3E9
:105980001E5141EA025155EC184B0D4645EC184B9F
:10599000BEE755EC184B9FED320B05F0004210E0CE
:1059A00001227E4BFBF774FD11D89FED8F0B51EC5C
:1059B000100B55EC184BAFF3008005F0004040EAA7
:1059C000010251EC100BBDEC0A8B1146F4BD53ECF7
:1059D0001A2B73487349FBF7E5FB41EC100B53ECB2
:1059E000102B9FED719B03F0004251EC190B0C46FC
:1059F000144353EC192B51EC100B2346FBF7F0FF2B
:105A0000FBF7FCFD0446FBF717FE41EC1B0B53ECC8
:105A10001B2B4FF078406649FBF7C4FB02460B4650
:105A200051EC1A0BFBF71AFE06460F4653EC1B2BE4
:105A300060486149FBF7B6FB02460B4630463946E3
:105A4000FBF70CFE41EC1A0B21F0004100225B4BEE
:105A5000FBF706FD08D2B0EE48AAF0EE68AA55E0C2
:105A6000000000000000000053EC1A2B51EC1A0B50
:105A7000FBF798FB41EC1B0B53EC1B2B5048514997
:105A8000FBF790FB504A514BFBF7AAFF53EC1B2B43
:105A9000FBF788FB41EC1C0B53EC1B2B4C484D498E
:105AA000FBF780FB4C4A4D4BFBF79AFF53EC1B2B4B
:105AB000FBF778FB53EC192BFBF792FF53EC1A2BF7
:105AC000FBF770FB41EC190B53EC1C2BFBF788FF29
:105AD0009FED43AB53EC1A2BFBF782FF06460F46B4
